{"abi":[{"type":"constructor","inputs":[{"name":"_ethPOS","type":"address","internalType":"contract IETHPOSDeposit"},{"name":"_delayedWithdrawalRouter","type":"address","internalType":"contract IDelayedWithdrawalRouter"},{"name":"_eigenPodManager","type":"address","internalType":"contract IEigenPodManager"},{"name":"_MAX_RESTAKED_BALANCE_GWEI_PER_VALIDATOR","type":"uint64","internalType":"uint64"},{"name":"_GENESIS_TIME","type":"uint64","internalType":"uint64"}],"stateMutability":"nonpayable"},{"type":"receive","stateMutability":"payable"},{"type":"function","name":"GENESIS_TIME","inputs":[],"outputs":[{"name":"","type":"uint64","internalType":"uint64"}],"stateMutability":"view"},{"type":"function","name":"MAX_RESTAKED_BALANCE_GWEI_PER_VALIDATOR","inputs":[],"outputs":[{"name":"","type":"uint64","internalType":"uint64"}],"stateMutability":"view"},{"type":"function","name":"activateRestaking","inputs":[],"outputs":[],"stateMutability":"nonpayable"},{"type":"function","name":"delayedWithdrawalRouter","inputs":[],"outputs":[{"name":"","type":"address","internalType":"contract IDelayedWithdrawalRouter"}],"stateMutability":"view"},{"type":"function","name":"eigenPodManager","inputs":[],"outputs":[{"name":"","type":"address","internalType":"contract IEigenPodManager"}],"stateMutability":"view"},{"type":"function","name":"ethPOS","inputs":[],"outputs":[{"name":"","type":"address","internalType":"contract IETHPOSDeposit"}],"stateMutability":"view"},{"type":"function","name":"hasRestaked","inputs":[],"outputs":[{"name":"","type":"bool","internalType":"bool"}],"stateMutability":"view"},{"type":"function","name":"initialize","inputs":[{"name":"_podOwner","type":"address","internalType":"address"}],"outputs":[],"stateMutability":"nonpayable"},{"type":"function","name":"mostRecentWithdrawalTimestamp","inputs":[],"outputs":[{"name":"","type":"uint64","internalType":"uint64"}],"stateMutability":"view"},{"type":"function","name":"nonBeaconChainETHBalanceWei","inputs":[],"outputs":[{"name":"","type":"uint256","internalType":"uint256"}],"stateMutability":"view"},{"type":"function","name":"podOwner","inputs":[],"outputs":[{"name":"","type":"address","internalType":"address"}],"stateMutability":"view"},{"type":"function","name":"provenWithdrawal","inputs":[{"name":"","type":"bytes32","internalType":"bytes32"},{"name":"","type":"uint64","internalType":"uint64"}],"outputs":[{"name":"","type":"bool","internalType":"bool"}],"stateMutability":"view"},{"type":"function","name":"recoverTokens","inputs":[{"name":"tokenList","type":"address[]","internalType":"contract IERC20[]"},{"name":"amountsToWithdraw","type":"uint256[]","internalType":"uint256[]"},{"name":"recipient","type":"address","internalType":"address"}],"outputs":[],"stateMutability":"nonpayable"},{"type":"function","name":"stake","inputs":[{"name":"pubkey","type":"bytes","internalType":"bytes"},{"name":"signature","type":"bytes","internalType":"bytes"},{"name":"depositDataRoot","type":"bytes32","internalType":"bytes32"}],"outputs":[],"stateMutability":"payable"},{"type":"function","name":"sumOfPartialWithdrawalsClaimedGwei","inputs":[],"outputs":[{"name":"","type":"uint64","internalType":"uint64"}],"stateMutability":"view"},{"type":"function","name":"validatorPubkeyHashToInfo","inputs":[{"name":"validatorPubkeyHash","type":"bytes32","internalType":"bytes32"}],"outputs":[{"name":"","type":"tuple","internalType":"struct IEigenPod.ValidatorInfo","components":[{"name":"validatorIndex","type":"uint64","internalType":"uint64"},{"name":"restakedBalanceGwei","type":"uint64","internalType":"uint64"},{"name":"mostRecentBalanceUpdateTimestamp","type":"uint64","internalType":"uint64"},{"name":"status","type":"uint8","internalType":"enum IEigenPod.VALIDATOR_STATUS"}]}],"stateMutability":"view"},{"type":"function","name":"validatorPubkeyToInfo","inputs":[{"name":"validatorPubkey","type":"bytes","internalType":"bytes"}],"outputs":[{"name":"","type":"tuple","internalType":"struct IEigenPod.ValidatorInfo","components":[{"name":"validatorIndex","type":"uint64","internalType":"uint64"},{"name":"restakedBalanceGwei","type":"uint64","internalType":"uint64"},{"name":"mostRecentBalanceUpdateTimestamp","type":"uint64","internalType":"uint64"},{"name":"status","type":"uint8","internalType":"enum IEigenPod.VALIDATOR_STATUS"}]}],"stateMutability":"view"},{"type":"function","name":"validatorStatus","inputs":[{"name":"validatorPubkey","type":"bytes","internalType":"bytes"}],"outputs":[{"name":"","type":"uint8","internalType":"enum IEigenPod.VALIDATOR_STATUS"}],"stateMutability":"view"},{"type":"function","name":"validatorStatus","inputs":[{"name":"pubkeyHash","type":"bytes32","internalType":"bytes32"}],"outputs":[{"name":"","type":"uint8","internalType":"enum IEigenPod.VALIDATOR_STATUS"}],"stateMutability":"view"},{"type":"function","name":"verifyAndProcessWithdrawals","inputs":[{"name":"oracleTimestamp","type":"uint64","internalType":"uint64"},{"name":"stateRootProof","type":"tuple","internalType":"struct BeaconChainProofs.StateRootProof","components":[{"name":"beaconStateRoot","type":"bytes32","internalType":"bytes32"},{"name":"proof","type":"bytes","internalType":"bytes"}]},{"name":"withdrawalProofs","type":"tuple[]","internalType":"struct BeaconChainProofs.WithdrawalProof[]","components":[{"name":"withdrawalProof","type":"bytes","internalType":"bytes"},{"name":"slotProof","type":"bytes","internalType":"bytes"},{"name":"executionPayloadProof","type":"bytes","internalType":"bytes"},{"name":"timestampProof","type":"bytes","internalType":"bytes"},{"name":"historicalSummaryBlockRootProof","type":"bytes","internalType":"bytes"},{"name":"blockRootIndex","type":"uint64","internalType":"uint64"},{"name":"historicalSummaryIndex","type":"uint64","internalType":"uint64"},{"name":"withdrawalIndex","type":"uint64","internalType":"uint64"},{"name":"blockRoot","type":"bytes32","internalType":"bytes32"},{"name":"slotRoot","type":"bytes32","internalType":"bytes32"},{"name":"timestampRoot","type":"bytes32","internalType":"bytes32"},{"name":"executionPayloadRoot","type":"bytes32","internalType":"bytes32"}]},{"name":"validatorFieldsProofs","type":"bytes[]","internalType":"bytes[]"},{"name":"validatorFields","type":"bytes32[][]","internalType":"bytes32[][]"},{"name":"withdrawalFields","type":"bytes32[][]","internalType":"bytes32[][]"}],"outputs":[],"stateMutability":"nonpayable"},{"type":"function","name":"verifyBalanceUpdates","inputs":[{"name":"oracleTimestamp","type":"uint64","internalType":"uint64"},{"name":"validatorIndices","type":"uint40[]","internalType":"uint40[]"},{"name":"stateRootProof","type":"tuple","internalType":"struct BeaconChainProofs.StateRootProof","components":[{"name":"beaconStateRoot","type":"bytes32","internalType":"bytes32"},{"name":"proof","type":"bytes","internalType":"bytes"}]},{"name":"validatorFieldsProofs","type":"bytes[]","internalType":"bytes[]"},{"name":"validatorFields","type":"bytes32[][]","internalType":"bytes32[][]"}],"outputs":[],"stateMutability":"nonpayable"},{"type":"function","name":"verifyWithdrawalCredentials","inputs":[{"name":"oracleTimestamp","type":"uint64","internalType":"uint64"},{"name":"stateRootProof","type":"tuple","internalType":"struct BeaconChainProofs.StateRootProof","components":[{"name":"beaconStateRoot","type":"bytes32","internalType":"bytes32"},{"name":"proof","type":"bytes","internalType":"bytes"}]},{"name":"validatorIndices","type":"uint40[]","internalType":"uint40[]"},{"name":"validatorFieldsProofs","type":"bytes[]","internalType":"bytes[]"},{"name":"validatorFields","type":"bytes32[][]","internalType":"bytes32[][]"}],"outputs":[],"stateMutability":"nonpayable"},{"type":"function","name":"withdrawBeforeRestaking","inputs":[],"outputs":[],"stateMutability":"nonpayable"},{"type":"function","name":"withdrawNonBeaconChainETHBalanceWei","inputs":[{"name":"recipient","type":"address","internalType":"address"},{"name":"amountToWithdraw","type":"uint256","internalType":"uint256"}],"outputs":[],"stateMutability":"nonpayable"},{"type":"function","name":"withdrawRestakedBeaconChainETH","inputs":[{"name":"recipient","type":"address","internalType":"address"},{"name":"amountWei","type":"uint256","internalType":"uint256"}],"outputs":[],"stateMutability":"nonpayable"},{"type":"function","name":"withdrawableRestakedExecutionLayerGwei","inputs":[],"outputs":[{"name":"","type":"uint64","internalType":"uint64"}],"stateMutability":"view"},{"type":"event","name":"EigenPodStaked","inputs":[{"name":"pubkey","type":"bytes","indexed":false,"internalType":"bytes"}],"anonymous":false},{"type":"event","name":"FullWithdrawalRedeemed","inputs":[{"name":"validatorIndex","type":"uint40","indexed":false,"internalType":"uint40"},{"name":"withdrawalTimestamp","type":"uint64","indexed":false,"internalType":"uint64"},{"name":"recipient","type":"address","indexed":true,"internalType":"address"},{"name":"withdrawalAmountGwei","type":"uint64","indexed":false,"internalType":"uint64"}],"anonymous":false},{"type":"event","name":"Initialized","inputs":[{"name":"version","type":"uint8","indexed":false,"internalType":"uint8"}],"anonymous":false},{"type":"event","name":"NonBeaconChainETHReceived","inputs":[{"name":"amountReceived","type":"uint256","indexed":false,"internalType":"uint256"}],"anonymous":false},{"type":"event","name":"NonBeaconChainETHWithdrawn","inputs":[{"name":"recipient","type":"address","indexed":true,"internalType":"address"},{"name":"amountWithdrawn","type":"uint256","indexed":false,"internalType":"uint256"}],"anonymous":false},{"type":"event","name":"PartialWithdrawalRedeemed","inputs":[{"name":"validatorIndex","type":"uint40","indexed":false,"internalType":"uint40"},{"name":"withdrawalTimestamp","type":"uint64","indexed":false,"internalType":"uint64"},{"name":"recipient","type":"address","indexed":true,"internalType":"address"},{"name":"partialWithdrawalAmountGwei","type":"uint64","indexed":false,"internalType":"uint64"}],"anonymous":false},{"type":"event","name":"RestakedBeaconChainETHWithdrawn","inputs":[{"name":"recipient","type":"address","indexed":true,"internalType":"address"},{"name":"amount","type":"uint256","indexed":false,"internalType":"uint256"}],"anonymous":false},{"type":"event","name":"RestakingActivated","inputs":[{"name":"podOwner","type":"address","indexed":true,"internalType":"address"}],"anonymous":false},{"type":"event","name":"ValidatorBalanceUpdated","inputs":[{"name":"validatorIndex","type":"uint40","indexed":false,"internalType":"uint40"},{"name":"balanceTimestamp","type":"uint64","indexed":false,"internalType":"uint64"},{"name":"newValidatorBalanceGwei","type":"uint64","indexed":false,"internalType":"uint64"}],"anonymous":false},{"type":"event","name":"ValidatorRestaked","inputs":[{"name":"validatorIndex","type":"uint40","indexed":false,"internalType":"uint40"}],"anonymous":false}],"bytecode":{"object":"0x6101206040523480156200001257600080fd5b5060405162005eb038038062005eb083398101604081905262000035916200016f565b6001600160a01b0380861660805284811660a052831660c0526001600160401b0380831660e0528116610100526200006c62000077565b5050505050620001e7565b600054610100900460ff1615620000e45760405162461bcd60e51b815260206004820152602760248201527f496e697469616c697a61626c653a20636f6e747261637420697320696e697469604482015266616c697a696e6760c81b606482015260840160405180910390fd5b60005460ff908116101562000137576000805460ff191660ff9081179091556040519081527f7f26b83ff96e1f2b6a682f133852f6798a09c465da95921460cefb38474024989060200160405180910390a15b565b6001600160a01b03811681146200014f57600080fd5b50565b80516001600160401b03811681146200016a57600080fd5b919050565b600080600080600060a086880312156200018857600080fd5b8551620001958162000139565b6020870151909550620001a88162000139565b6040870151909450620001bb8162000139565b9250620001cb6060870162000152565b9150620001db6080870162000152565b90509295509295909350565b60805160a05160c05160e05161010051615bd5620002db600039600081816105b5015281816134b10152613568015260008181610275015281816124130152818161244701528181612a7301528181612aa001528181614244015261427f01526000818161036d01528181610614015281816107a701528181610a4501528181610b9a01528181610d2201528181610edd015281816110be015281816111f2015281816113fc01528181611849015281816119f101528181611b3001528181611cfd01528181611de70152612f0a015260008181610241015261317c0152600081816104520152610ded0152615bd56000f3fe6080604052600436106101855760003560e01c806374cdd798116100d1578063c49074421161008a578063e251ef5211610064578063e251ef5214610563578063e2c8344514610583578063f2882461146105a3578063fe80b087146105d757600080fd5b8063c490744214610503578063c4d66de814610523578063dda3346c1461054357600080fd5b806374cdd7981461044057806387e0d289146104745780639b4e46341461049b578063a50600f4146104ae578063b522538a146104ce578063baa7145a146104ee57600080fd5b806334bea20a1161013e57806358eaee791161011857806358eaee791461038f5780635d3f65b6146103bc5780636fcd0e53146103dc5780637439841f1461040957600080fd5b806334bea20a146103005780633f65cf191461033b5780634665bcda1461035b57600080fd5b80630b18ff66146101db5780630cd4649e146102185780631a5057be1461022f5780631d905d5c146102635780633106ab53146102af5780633474aa16146102e057600080fd5b366101d657346037600082825461019c9190614b12565b90915550506040513481527f6fdd3dbdb173299608c0aa9f368735857c8842b581f8389238bf05bd04b3bf499060200160405180910390a1005b600080fd5b3480156101e757600080fd5b506033546101fb906001600160a01b031681565b6040516001600160a01b0390911681526020015b60405180910390f35b34801561022457600080fd5b5061022d6105fb565b005b34801561023b57600080fd5b506101fb7f000000000000000000000000000000000000000000000000000000000000000081565b34801561026f57600080fd5b506102977f000000000000000000000000000000000000000000000000000000000000000081565b6040516001600160401b03909116815260200161020f565b3480156102bb57600080fd5b506034546102d090600160401b900460ff1681565b604051901515815260200161020f565b3480156102ec57600080fd5b50603454610297906001600160401b031681565b34801561030c57600080fd5b506102d061031b366004614b4f565b603560209081526000928352604080842090915290825290205460ff1681565b34801561034757600080fd5b5061022d610356366004614be2565b610764565b34801561036757600080fd5b506101fb7f000000000000000000000000000000000000000000000000000000000000000081565b34801561039b57600080fd5b506103af6103aa366004614cf3565b610c05565b60405161020f9190614d6c565b3480156103c857600080fd5b50603854610297906001600160401b031681565b3480156103e857600080fd5b506103fc6103f7366004614d7a565b610c6a565b60405161020f9190614d93565b34801561041557600080fd5b506103af610424366004614d7a565b600090815260366020526040902054600160c01b900460ff1690565b34801561044c57600080fd5b506101fb7f000000000000000000000000000000000000000000000000000000000000000081565b34801561048057600080fd5b5060335461029790600160a01b90046001600160401b031681565b61022d6104a9366004614ddb565b610d17565b3480156104ba57600080fd5b5061022d6104c9366004614e4e565b610ec4565b3480156104da57600080fd5b506103fc6104e9366004614cf3565b611293565b3480156104fa57600080fd5b5061022d611386565b34801561050f57600080fd5b5061022d61051e366004614ef8565b6113f1565b34801561052f57600080fd5b5061022d61053e366004614f24565b61162e565b34801561054f57600080fd5b5061022d61055e36600461503e565b611806565b34801561056f57600080fd5b5061022d61057e36600461510f565b6119d9565b34801561058f57600080fd5b5061022d61059e366004614ef8565b611da4565b3480156105af57600080fd5b506102977f000000000000000000000000000000000000000000000000000000000000000081565b3480156105e357600080fd5b506105ed60375481565b60405190815260200161020f565b604051635ac86ab760e01b8152600260048201819052907f00000000000000000000000000000000000000000000000000000000000000006001600160a01b031690635ac86ab790602401602060405180830381865afa158015610663573d6000803e3d6000fd5b505050506040513d601f19601f82011682018060405250810190610687919061520a565b156106ad5760405162461bcd60e51b81526004016106a49061522c565b60405180910390fd5b6033546001600160a01b031633146106d75760405162461bcd60e51b81526004016106a490615289565b603454600160401b900460ff16156107015760405162461bcd60e51b81526004016106a4906152d1565b6034805460ff60401b1916600160401b179055603354610729906001600160a01b0316611f87565b6033546040516001600160a01b03909116907fca8dfc8c5e0a67a74501c072a3325f685259bebbae7cfd230ab85198a78b70cd90600090a250565b6033546001600160a01b0316331461078e5760405162461bcd60e51b81526004016106a490615289565b604051635ac86ab760e01b8152600260048201819052907f00000000000000000000000000000000000000000000000000000000000000006001600160a01b031690635ac86ab790602401602060405180830381865afa1580156107f6573d6000803e3d6000fd5b505050506040513d601f19601f8201168201806040525081019061081a919061520a565b156108375760405162461bcd60e51b81526004016106a49061522c565b60335489906001600160401b03600160a01b90910481169082161161086e5760405162461bcd60e51b81526004016106a490615320565b603454600160401b900460ff166108e65760405162461bcd60e51b815260206004820152603660248201527f456967656e506f642e686173456e61626c656452657374616b696e673a2072656044820152751cdd185ada5b99c81a5cc81b9bdd08195b98589b195960521b60648201526084016106a4565b86851480156108f457508483145b6109845760405162461bcd60e51b815260206004820152605560248201527f456967656e506f642e7665726966795769746864726177616c43726564656e7460448201527f69616c733a2076616c696461746f72496e646963657320616e642070726f6f666064820152740e640daeae6e840c4ca40e6c2daca40d8cadccee8d605b1b608482015260a4016106a4565b4261099a613f486001600160401b038d16614b12565b1015610a235760405162461bcd60e51b815260206004820152604c60248201527f456967656e506f642e7665726966795769746864726177616c43726564656e7460448201527f69616c733a207370656369666965642074696d657374616d7020697320746f6f60648201526b0819985c881a5b881c185cdd60a21b608482015260a4016106a4565b60405163d1c64cc960e01b81526001600160401b038b166004820152610acc907f00000000000000000000000000000000000000000000000000000000000000006001600160a01b03169063d1c64cc990602401602060405180830381865afa158015610a94573d6000803e3d6000fd5b505050506040513d601f19601f82011682018060405250810190610ab891906153bb565b8a35610ac760208d018d6153d4565b611fbb565b6000805b88811015610b7057610b528c8c358c8c85818110610af057610af061541a565b9050602002016020810190610b059190615430565b8b8b86818110610b1757610b1761541a565b9050602002810190610b2991906153d4565b8b8b88818110610b3b57610b3b61541a565b9050602002810190610b4d9190615457565b612149565b610b5c9083614b12565b915080610b68816154a0565b915050610ad0565b5060335460405163030b147160e61b81526001600160a01b039182166004820152602481018390527f00000000000000000000000000000000000000000000000000000000000000009091169063c2c51c4090604401600060405180830381600087803b158015610be057600080fd5b505af1158015610bf4573d6000803e3d6000fd5b505050505050505050505050505050565b600080610c4784848080601f0160208091040260200160405190810160405280939291908181526020018383808284376000920191909152506125ee92505050565b600090815260366020526040902054600160c01b900460ff169150505b92915050565b610c926040805160808101825260008082526020820181905291810182905290606082015290565b600082815260366020908152604091829020825160808101845281546001600160401b038082168352600160401b8204811694830194909452600160801b810490931693810193909352906060830190600160c01b900460ff166002811115610cfd57610cfd614d34565b6002811115610d0e57610d0e614d34565b90525092915050565b336001600160a01b037f00000000000000000000000000000000000000000000000000000000000000001614610d5f5760405162461bcd60e51b81526004016106a4906154bb565b346801bc16d674ec80000014610deb5760405162461bcd60e51b8152602060048201526044602482018190527f456967656e506f642e7374616b653a206d75737420696e697469616c6c792073908201527f74616b6520666f7220616e792076616c696461746f72207769746820333220656064820152633a3432b960e11b608482015260a4016106a4565b7f00000000000000000000000000000000000000000000000000000000000000006001600160a01b031663228951186801bc16d674ec8000008787610e2e6126e8565b8888886040518863ffffffff1660e01b8152600401610e529695949392919061558d565b6000604051808303818588803b158015610e6b57600080fd5b505af1158015610e7f573d6000803e3d6000fd5b50505050507f606865b7934a25d4aed43f6cdb426403353fa4b3009c4d228407474581b01e238585604051610eb59291906155dc565b60405180910390a15050505050565b604051635ac86ab760e01b8152600360048201819052907f00000000000000000000000000000000000000000000000000000000000000006001600160a01b031690635ac86ab790602401602060405180830381865afa158015610f2c573d6000803e3d6000fd5b505050506040513d601f19601f82011682018060405250810190610f50919061520a565b15610f6d5760405162461bcd60e51b81526004016106a49061522c565b8684148015610f7b57508382145b6110045760405162461bcd60e51b815260206004820152604e60248201527f456967656e506f642e76657269667942616c616e6365557064617465733a207660448201527f616c696461746f72496e646963657320616e642070726f6f6673206d7573742060648201526d0c4ca40e6c2daca40d8cadccee8d60931b608482015260a4016106a4565b4261101a613f486001600160401b038c16614b12565b101561109c5760405162461bcd60e51b815260206004820152604560248201527f456967656e506f642e76657269667942616c616e6365557064617465733a207360448201527f70656369666965642074696d657374616d7020697320746f6f2066617220696e606482015264081c185cdd60da1b608482015260a4016106a4565b60405163d1c64cc960e01b81526001600160401b038a166004820152611140907f00000000000000000000000000000000000000000000000000000000000000006001600160a01b03169063d1c64cc990602401602060405180830381865afa15801561110d573d6000803e3d6000fd5b505050506040513d601f19601f8201168201806040525081019061113191906153bb565b8735610ac760208a018a6153d4565b6000805b888110156111e4576111c68b8b8b848181106111625761116261541a565b90506020020160208101906111779190615430565b8a358a8a8681811061118b5761118b61541a565b905060200281019061119d91906153d4565b8a8a888181106111af576111af61541a565b90506020028101906111c19190615457565b61272d565b6111d090836155f0565b9150806111dc816154a0565b915050611144565b506033546001600160a01b037f000000000000000000000000000000000000000000000000000000000000000081169163c2c51c409116611229633b9aca0085615631565b6040516001600160e01b031960e085901b1681526001600160a01b0390921660048301526024820152604401600060405180830381600087803b15801561126f57600080fd5b505af1158015611283573d6000803e3d6000fd5b5050505050505050505050505050565b6112bb6040805160808101825260008082526020820181905291810182905290606082015290565b603660006112fe85858080601f0160208091040260200160405190810160405280939291908181526020018383808284376000920191909152506125ee92505050565b81526020808201929092526040908101600020815160808101835281546001600160401b038082168352600160401b8204811695830195909552600160801b81049094169281019290925290916060830190600160c01b900460ff16600281111561136b5761136b614d34565b600281111561137c5761137c614d34565b9052509392505050565b6033546001600160a01b031633146113b05760405162461bcd60e51b81526004016106a490615289565b603454600160401b900460ff16156113da5760405162461bcd60e51b81526004016106a4906152d1565b6033546113ef906001600160a01b0316611f87565b565b336001600160a01b037f000000000000000000000000000000000000000000000000000000000000000016146114395760405162461bcd60e51b81526004016106a4906154bb565b611447633b9aca00826156cc565b156114d15760405162461bcd60e51b815260206004820152604e60248201527f456967656e506f642e776974686472617752657374616b6564426561636f6e4360448201527f6861696e4554483a20616d6f756e74576569206d75737420626520612077686f60648201526d1b194811ddd95a48185b5bdd5b9d60921b608482015260a4016106a4565b60006114e1633b9aca00836156e0565b6034549091506001600160401b03908116908216111561159a5760405162461bcd60e51b815260206004820152606260248201527f456967656e506f642e776974686472617752657374616b6564426561636f6e4360448201527f6861696e4554483a20616d6f756e74477765692065786365656473207769746860648201527f6472617761626c6552657374616b6564457865637574696f6e4c617965724777608482015261656960f01b60a482015260c4016106a4565b603480548291906000906115b89084906001600160401b03166156f4565b92506101000a8154816001600160401b0302191690836001600160401b03160217905550826001600160a01b03167f8947fd2ce07ef9cc302c4e8f0461015615d91ce851564839e91cc804c2f49d8e8360405161161791815260200190565b60405180910390a26116298383612c0b565b505050565b600054610100900460ff161580801561164e5750600054600160ff909116105b806116685750303b158015611668575060005460ff166001145b6116cb5760405162461bcd60e51b815260206004820152602e60248201527f496e697469616c697a61626c653a20636f6e747261637420697320616c72656160448201526d191e481a5b9a5d1a585b1a5e995960921b60648201526084016106a4565b6000805460ff1916600117905580156116ee576000805461ff0019166101001790555b6001600160a01b0382166117615760405162461bcd60e51b815260206004820152603460248201527f456967656e506f642e696e697469616c697a653a20706f644f776e65722063616044820152736e6e6f74206265207a65726f206164647265737360601b60648201526084016106a4565b603380546001600160a01b0384166001600160a01b031990911681179091556034805460ff60401b1916600160401b1790556040517fca8dfc8c5e0a67a74501c072a3325f685259bebbae7cfd230ab85198a78b70cd90600090a28015611802576000805461ff0019169055604051600181527f7f26b83ff96e1f2b6a682f133852f6798a09c465da95921460cefb38474024989060200160405180910390a15b5050565b6033546001600160a01b031633146118305760405162461bcd60e51b81526004016106a490615289565b604051635ac86ab760e01b8152600560048201819052907f00000000000000000000000000000000000000000000000000000000000000006001600160a01b031690635ac86ab790602401602060405180830381865afa158015611898573d6000803e3d6000fd5b505050506040513d601f19601f820116820180604052508101906118bc919061520a565b156118d95760405162461bcd60e51b81526004016106a49061522c565b82518451146119645760405162461bcd60e51b815260206004820152604b60248201527f456967656e506f642e7265636f766572546f6b656e733a20746f6b656e4c697360448201527f7420616e6420616d6f756e7473546f5769746864726177206d7573742062652060648201526a0e6c2daca40d8cadccee8d60ab1b608482015260a4016106a4565b60005b84518110156119d2576119c0838583815181106119865761198661541a565b60200260200101518784815181106119a0576119a061541a565b60200260200101516001600160a01b0316612c159092919063ffffffff16565b806119ca816154a0565b915050611967565b5050505050565b604051635ac86ab760e01b81526004808201819052907f00000000000000000000000000000000000000000000000000000000000000006001600160a01b031690635ac86ab790602401602060405180830381865afa158015611a40573d6000803e3d6000fd5b505050506040513d601f19601f82011682018060405250810190611a64919061520a565b15611a815760405162461bcd60e51b81526004016106a49061522c565b8386148015611a8f57508588145b8015611a9a57508782145b611b0e576040805162461bcd60e51b81526020600482015260248101919091527f456967656e506f642e766572696679416e6450726f636573735769746864726160448201527f77616c733a20696e70757473206d7573742062652073616d65206c656e67746860648201526084016106a4565b60405163d1c64cc960e01b81526001600160401b038c166004820152611bb2907f00000000000000000000000000000000000000000000000000000000000000006001600160a01b03169063d1c64cc990602401602060405180830381865afa158015611b7f573d6000803e3d6000fd5b505050506040513d601f19601f82011682018060405250810190611ba391906153bb565b8b35610ac760208e018e6153d4565b604080518082019091526000808252602082015260005b83811015611cb2576000611c6d8d358d8d85818110611bea57611bea61541a565b9050602002810190611bfc919061571c565b8c8c86818110611c0e57611c0e61541a565b9050602002810190611c2091906153d4565b8c8c88818110611c3257611c3261541a565b9050602002810190611c449190615457565b8c8c8a818110611c5657611c5661541a565b9050602002810190611c689190615457565b612c67565b80518451919250908490611c82908390614b12565b9052506020808201519084018051611c9b9083906155f0565b905250819050611caa816154a0565b915050611bc9565b50805115611ce1576033548151611ce1916001600160a01b031690611cdc90633b9aca009061573d565b613152565b602081015115611d965760335460208201516001600160a01b037f000000000000000000000000000000000000000000000000000000000000000081169263c2c51c4092911690611d3790633b9aca0090615631565b6040516001600160e01b031960e085901b1681526001600160a01b0390921660048301526024820152604401600060405180830381600087803b158015611d7d57600080fd5b505af1158015611d91573d6000803e3d6000fd5b505050505b505050505050505050505050565b6033546001600160a01b03163314611dce5760405162461bcd60e51b81526004016106a490615289565b604051635ac86ab760e01b8152600560048201819052907f00000000000000000000000000000000000000000000000000000000000000006001600160a01b031690635ac86ab790602401602060405180830381865afa158015611e36573d6000803e3d6000fd5b505050506040513d601f19601f82011682018060405250810190611e5a919061520a565b15611e775760405162461bcd60e51b81526004016106a49061522c565b603754821115611f285760405162461bcd60e51b815260206004820152606a60248201527f456967656e506f642e77697468647261776e6f6e426561636f6e436861696e4560448201527f544842616c616e63655765693a20616d6f756e74546f5769746864726177206960648201527f732067726561746572207468616e206e6f6e426561636f6e436861696e45544860848201526942616c616e636557656960b01b60a482015260c4016106a4565b8160376000828254611f3a919061575c565b90915550506040518281526001600160a01b038416907f30420aacd028abb3c1fd03aba253ae725d6ddd52d16c9ac4cb5742cd43f530969060200160405180910390a26116298383613152565b6033805467ffffffffffffffff60a01b19164263ffffffff16600160a01b021790556000603755611fb88147613152565b50565b611fc76003602061573d565b81146120575760405162461bcd60e51b815260206004820152605360248201527f426561636f6e436861696e50726f6f66732e7665726966795374617465526f6f60448201527f74416761696e73744c6174657374426c6f636b526f6f743a2050726f6f6620686064820152720c2e640d2dcc6dee4e4cac6e840d8cadccee8d606b1b608482015260a4016106a4565b61209c82828080601f016020809104026020016040519081016040528093929190818152602001838380828437600092019190915250889250879150600390506131e0565b6121435760405162461bcd60e51b815260206004820152606660248201527f426561636f6e436861696e50726f6f66732e7665726966795374617465526f6f60448201527f74416761696e73744c6174657374426c6f636b526f6f743a20496e76616c696460648201527f206c617465737420626c6f636b2068656164657220726f6f74206d65726b6c6560848201526510383937b7b360d11b60a482015260c4016106a4565b50505050565b6000806121888484808060200260200160405190810160405280939291908181526020018383602002808284376000920191909152506131f892505050565b6000818152603660209081526040808320815160808101835281546001600160401b038082168352600160401b8204811695830195909552600160801b8104909416928101929092529394509192906060830190600160c01b900460ff1660028111156121f7576121f7614d34565b600281111561220857612208614d34565b905250905060008160600151600281111561222557612225614d34565b146122ce5760405162461bcd60e51b815260206004820152606760248201527f456967656e506f642e766572696679436f72726563745769746864726177616c60448201527f43726564656e7469616c733a2056616c696461746f72206d757374206265206960648201527f6e61637469766520746f2070726f7665207769746864726177616c2063726564608482015266656e7469616c7360c81b60a482015260c4016106a4565b6122d66126e8565b6122df90615773565b61231b86868080602002602001604051908101604052809392919081815260200183836020028082843760009201919091525061321c92505050565b146123a25760405162461bcd60e51b815260206004820152604b60248201527f456967656e506f642e766572696679436f72726563745769746864726177616c60448201527f43726564656e7469616c733a2050726f6f66206973206e6f7420666f7220746860648201526a1a5cc8115a59d95b941bd960aa1b608482015260a4016106a4565b60006123e086868080602002602001604051908101604052809392919081815260200183836020028082843760009201919091525061323192505050565b90506123f08a87878b8b8e613256565b6001606083015264ffffffffff891682526001600160401b038b811660408401527f000000000000000000000000000000000000000000000000000000000000000081169082161115612471576001600160401b037f0000000000000000000000000000000000000000000000000000000000000000166020830152612481565b6001600160401b03811660208301525b6000838152603660209081526040918290208451815492860151938601516001600160401b03908116600160801b0267ffffffffffffffff60801b19958216600160401b026001600160801b0319909516919092161792909217928316821781556060850151859391929091839160ff60c01b191668ffffffffffffffffff60801b1990911617600160c01b83600281111561251f5761251f614d34565b02179055505060405164ffffffffff8b1681527f2d0800bbc377ea54a08c5db6a87aafff5e3e9c8fead0eda110e40e0c10441449915060200160405180910390a17f0e5fac175b83177cc047381e030d8fb3b42b37bd1c025e22c280facad62c32df898c84602001516040516125ba9392919064ffffffffff9390931683526001600160401b03918216602084015216604082015260600190565b60405180910390a1633b9aca0082602001516001600160401b03166125df919061573d565b9b9a5050505050505050505050565b600081516030146126775760405162461bcd60e51b815260206004820152604760248201527f456967656e506f642e5f63616c63756c61746556616c696461746f725075626b60448201527f657948617368206d75737420626520612034382d6279746520424c53207075626064820152666c6963206b657960c81b608482015260a4016106a4565b60405160029061268e908490600090602001615797565b60408051601f19818403018152908290526126a8916157c6565b602060405180830381855afa1580156126c5573d6000803e3d6000fd5b5050506040513d601f19601f82011682018060405250810190610c6491906153bb565b60408051600160f81b60208201526000602182015230606090811b6bffffffffffffffffffffffff1916602c8301529101604051602081830303815290604052905090565b60008061276c84848080602002602001604051908101604052809392919081815260200183836020028082843760009201919091525061323192505050565b905060006127ac8585808060200260200160405190810160405280939291908181526020018383602002808284376000920191909152506131f892505050565b6000818152603660209081526040808320815160808101835281546001600160401b038082168352600160401b8204811695830195909552600160801b8104909416928101929092529394509192906060830190600160c01b900460ff16600281111561281b5761281b614d34565b600281111561282c5761282c614d34565b8152505090508a6001600160401b031681604001516001600160401b0316106128e35760405162461bcd60e51b815260206004820152605c60248201527f456967656e506f642e76657269667942616c616e63655570646174653a20566160448201527f6c696461746f72732062616c616e63652068617320616c72656164792062656560648201527f6e207570646174656420666f7220746869732074696d657374616d7000000000608482015260a4016106a4565b6001816060015160028111156128fb576128fb614d34565b146129635760405162461bcd60e51b815260206004820152603260248201527f456967656e506f642e76657269667942616c616e63655570646174653a2056616044820152716c696461746f72206e6f742061637469766560701b60648201526084016106a4565b61296c8b6134ad565b6001600160401b03166129b187878080602002602001604051908101604052809392919081815260200183836020028082843760009201919091525061359792505050565b6001600160401b031611612a54576000836001600160401b031611612a545760405162461bcd60e51b815260206004820152604d60248201527f456967656e506f642e76657269667942616c616e63655570646174653a20766160448201527f6c696461746f7220697320776974686472617761626c6520627574206861732060648201526c3737ba103bb4ba34323930bbb760991b608482015260a4016106a4565b612a628987878b8b8f613256565b602081015160006001600160401b037f000000000000000000000000000000000000000000000000000000000000000081169086161115612ac457507f0000000000000000000000000000000000000000000000000000000000000000612ac7565b50835b6001600160401b0380821660208086019182528f831660408088019182526000898152603690935290912086518154935192518516600160801b0267ffffffffffffffff60801b19938616600160401b026001600160801b031990951691909516179290921790811683178255606086015186939091839160ff60c01b191668ffffffffffffffffff60801b1990911617600160c01b836002811115612b6f57612b6f614d34565b0217905550905050816001600160401b0316816001600160401b031614612bfb577f0e5fac175b83177cc047381e030d8fb3b42b37bd1c025e22c280facad62c32df8c8e83604051612be69392919064ffffffffff9390931683526001600160401b03918216602084015216604082015260600190565b60405180910390a1612bf881836135af565b95505b5050505050979650505050505050565b61180282826135ce565b604080516001600160a01b038416602482015260448082018490528251808303909101815260649091019091526020810180516001600160e01b031663a9059cbb60e01b1790526116299084906136e7565b6040805180820190915260008082526020820152612c8c612c8789615847565b6137b9565b6033546001600160401b03600160a01b909104811690821611612cc15760405162461bcd60e51b81526004016106a490615320565b6000612ccf612c878b615847565b90506000612d0f8888808060200260200160405190810160405280939291908181526020018383602002808284376000920191909152506131f892505050565b905060008082815260366020526040902054600160c01b900460ff166002811115612d3c57612d3c614d34565b1415612df35760405162461bcd60e51b815260206004820152607460248201527f456967656e506f642e5f766572696679416e6450726f6365737357697468647260448201527f6177616c3a2056616c696461746f72206e657665722070726f76656e20746f2060648201527f68617665207769746864726177616c2063726564656e7469616c7320706f696e6084820152731d1959081d1bc81d1a1a5cc818dbdb9d1c9858dd60621b60a482015260c4016106a4565b60008181526035602090815260408083206001600160401b038616845290915290205460ff1615612eb25760405162461bcd60e51b815260206004820152605b60248201527f456967656e506f642e5f766572696679416e6450726f6365737357697468647260448201527f6177616c3a207769746864726177616c2068617320616c72656164792062656560648201527f6e2070726f76656e20666f7220746869732074696d657374616d700000000000608482015260a4016106a4565b6001603560008381526020019081526020016000206000846001600160401b03166001600160401b0316815260200190815260200160002060006101000a81548160ff021916908315150217905550612f8f8c87878e7f00000000000000000000000000000000000000000000000000000000000000006001600160a01b03166344e71c806040518163ffffffff1660e01b8152600401602060405180830381865afa158015612f66573d6000803e3d6000fd5b505050506040513d601f19601f82011682018060405250810190612f8a9190615983565b6137c9565b6000612fcd8787808060200260200160405190810160405280939291908181526020018383602002808284376000920191909152506141ea92505050565b9050612fdd8d8a8a8e8e86613256565b600061301b88888080602002602001604051908101604052809392919081815260200183836020028082843760009201919091525061420292505050565b90506130598a8a8080602002602001604051908101604052809392919081815260200183836020028082843760009201919091525061359792505050565b6001600160401b031661307361306e8f615847565b61421a565b6001600160401b03161061312b57603354600084815260366020908152604091829020825160808101845281546001600160401b038082168352600160401b8204811694830194909452600160801b81049093169381019390935261312093869388938a936001600160a01b03909316928892916060830190600160c01b900460ff16600281111561310757613107614d34565b600281111561311857613118614d34565b90525061422c565b955050505050613145565b60335461312090839086906001600160a01b03168461443d565b5098975050505050505050565b603354604051633036cd5360e21b81526001600160a01b03918216600482015283821660248201527f00000000000000000000000000000000000000000000000000000000000000009091169063c0db354c9083906044016000604051808303818588803b1580156131c357600080fd5b505af11580156131d7573d6000803e3d6000fd5b50505050505050565b6000836131ee86858561451b565b1495945050505050565b60008160008151811061320d5761320d61541a565b60200260200101519050919050565b60008160018151811061320d5761320d61541a565b6000610c64826002815181106132495761324961541a565b6020026020010151614667565b61326260036002615a84565b84146132ed5760405162461bcd60e51b815260206004820152604e60248201527f426561636f6e436861696e50726f6f66732e76657269667956616c696461746f60448201527f724669656c64733a2056616c696461746f72206669656c64732068617320696e60648201526d0c6dee4e4cac6e840d8cadccee8d60931b608482015260a4016106a4565b60056132fb60286001614b12565b6133059190614b12565b61331090602061573d565b82146133905760405162461bcd60e51b815260206004820152604360248201527f426561636f6e436861696e50726f6f66732e76657269667956616c696461746f60448201527f724669656c64733a2050726f6f662068617320696e636f7272656374206c656e6064820152620cee8d60eb1b608482015260a4016106a4565b600064ffffffffff82166133a660286001614b12565b600b901b17905060006133eb8787808060200260200160405190810160405280939291908181526020018383602002808284376000920191909152506146ce92505050565b905061343185858080601f0160208091040260200160405190810160405280939291908181526020018383808284376000920191909152508c92508591508690506131e0565b6134a35760405162461bcd60e51b815260206004820152603d60248201527f426561636f6e436861696e50726f6f66732e76657269667956616c696461746f60448201527f724669656c64733a20496e76616c6964206d65726b6c652070726f6f6600000060648201526084016106a4565b5050505050505050565b60007f00000000000000000000000000000000000000000000000000000000000000006001600160401b0316826001600160401b031610156135575760405162461bcd60e51b815260206004820152603760248201527f456967656e506f642e5f74696d657374616d70546f45706f63683a2074696d6560448201527f7374616d70206973206265666f72652067656e6573697300000000000000000060648201526084016106a4565b613563600c6020615a90565b61358d7f0000000000000000000000000000000000000000000000000000000000000000846156f4565b610c649190615abf565b6000610c64826007815181106132495761324961541a565b60006135c76001600160401b03808416908516615ae5565b9392505050565b8047101561361e5760405162461bcd60e51b815260206004820152601d60248201527f416464726573733a20696e73756666696369656e742062616c616e636500000060448201526064016106a4565b6000826001600160a01b03168260405160006040518083038185875af1925050503d806000811461366b576040519150601f19603f3d011682016040523d82523d6000602084013e613670565b606091505b50509050806116295760405162461bcd60e51b815260206004820152603a60248201527f416464726573733a20756e61626c6520746f2073656e642076616c75652c207260448201527f6563697069656e74206d6179206861766520726576657274656400000000000060648201526084016106a4565b600061373c826040518060400160405280602081526020017f5361666545524332303a206c6f772d6c6576656c2063616c6c206661696c6564815250856001600160a01b031661497b9092919063ffffffff16565b805190915015611629578080602001905181019061375a919061520a565b6116295760405162461bcd60e51b815260206004820152602a60248201527f5361666545524332303a204552433230206f7065726174696f6e20646964206e6044820152691bdd081cdd58d8d9595960b21b60648201526084016106a4565b6000610c64826101400151614667565b6137d4600280615a84565b83146138485760405162461bcd60e51b81526020600482015260496024820152600080516020615b8083398151915260448201527f616c3a207769746864726177616c4669656c64732068617320696e636f7272656064820152680c6e840d8cadccee8d60bb1b608482015260a4016106a4565b613854600d6002615a84565b61386460c0840160a08501615b24565b6001600160401b0316106138ce5760405162461bcd60e51b815260206004820152603f6024820152600080516020615b8083398151915260448201527f616c3a20626c6f636b526f6f74496e64657820697320746f6f206c617267650060648201526084016106a4565b6138da60046002615a84565b6138eb610100840160e08501615b24565b6001600160401b031610613957576040805162461bcd60e51b8152602060048201526024810191909152600080516020615b8083398151915260448201527f616c3a207769746864726177616c496e64657820697320746f6f206c6172676560648201526084016106a4565b61396360186002615a84565b61397360e0840160c08501615b24565b6001600160401b0316106139ed5760405162461bcd60e51b81526020600482015260476024820152600080516020615b8083398151915260448201527f616c3a20686973746f726963616c53756d6d617279496e64657820697320746f6064820152666f206c6172676560c81b608482015260a4016106a4565b60006001600160401b038216613a05612c8785615847565b6001600160401b031610613a1a576005613a1d565b60045b9050613a2a600482614b12565b613a35906001614b12565b613a4090602061573d565b613a4a84806153d4565b905014613abe5760405162461bcd60e51b81526020600482015260486024820152600080516020615b8083398151915260448201527f616c3a207769746864726177616c50726f6f662068617320696e636f727265636064820152670e840d8cadccee8d60c31b608482015260a4016106a4565b613aca60046003614b12565b613ad590602061573d565b613ae260408501856153d4565b905014613b5c5760405162461bcd60e51b815260206004820152604e6024820152600080516020615b8083398151915260448201527f616c3a20657865637574696f6e5061796c6f616450726f6f662068617320696e60648201526d0c6dee4e4cac6e840d8cadccee8d60931b608482015260a4016106a4565b613b686003602061573d565b613b7560208501856153d4565b905014613be35760405162461bcd60e51b81526020600482015260426024820152600080516020615b8083398151915260448201527f616c3a20736c6f7450726f6f662068617320696e636f7272656374206c656e676064820152610e8d60f31b608482015260a4016106a4565b613bee81602061573d565b613bfb60608501856153d4565b905014613c6e5760405162461bcd60e51b81526020600482015260476024820152600080516020615b8083398151915260448201527f616c3a2074696d657374616d7050726f6f662068617320696e636f7272656374606482015266040d8cadccee8d60cb1b608482015260a4016106a4565b600d613c7c60186001614b12565b613c87906005614b12565b613c92906001614b12565b613c9c9190614b12565b613ca790602061573d565b613cb460808501856153d4565b905014613d3d5760405162461bcd60e51b81526020600482015260586024820152600080516020615b8083398151915260448201527f616c3a20686973746f726963616c53756d6d617279426c6f636b526f6f74507260648201527f6f6f662068617320696e636f7272656374206c656e6774680000000000000000608482015260a4016106a4565b6000613d4f60c0850160a08601615b24565b6001600160401b03166000613d66600d6001614b12565b613d7660e0880160c08901615b24565b6001600160401b0316901b600d613d8f60186001614b12565b613d9a906001614b12565b613da49190614b12565b601b901b1717179050613dff613dbd60808601866153d4565b8080601f0160208091040260200160405190810160405280939291908181526020018383808284376000920191909152508b92505050610100870135846131e0565b613e725760405162461bcd60e51b815260206004820152604a6024820152600080516020615b8083398151915260448201527f616c3a20496e76616c696420686973746f726963616c73756d6d617279206d656064820152693935b63290383937b7b360b11b608482015260a4016106a4565b613ec9613e8260208601866153d4565b8080601f01602080910402602001604051908101604052809392919081815260200183838082843760009201829052506101008a013593506101208a0135925090506131e0565b613f295760405162461bcd60e51b815260206004820152603d6024820152600080516020615b8083398151915260448201527f616c3a20496e76616c696420736c6f74206d65726b6c652070726f6f6600000060648201526084016106a4565b6049613f81613f3b60408701876153d4565b8080601f016020809104026020016040519081016040528093929190818152602001838380828437600092019190915250505050610100870135610160880135846131e0565b613ff35760405162461bcd60e51b81526020600482015260496024820152600080516020615b8083398151915260448201527f616c3a20496e76616c696420657865637574696f6e5061796c6f6164206d657260648201526835b63290383937b7b360b91b608482015260a4016106a4565b5061404b61400460608601866153d4565b8080601f01602080910402602001604051908101604052809392919081815260200183838082843760009201919091525050505061016086013561014087013560096131e0565b6140b65760405162461bcd60e51b81526020600482015260426024820152600080516020615b8083398151915260448201527f616c3a20496e76616c69642074696d657374616d70206d65726b6c652070726f60648201526137b360f11b608482015260a4016106a4565b60006140c9610100860160e08701615b24565b6001600160401b03166140de60046001614b12565b600e901b17905060006141238888808060200260200160405190810160405280939291908181526020018383602002808284376000920191909152506146ce92505050565b905061417361413287806153d4565b8080601f01602080910402602001604051908101604052809392919081815260200183838082843760009201919091525050505061016088013583856131e0565b6141df5760405162461bcd60e51b81526020600482015260436024820152600080516020615b8083398151915260448201527f616c3a20496e76616c6964207769746864726177616c206d65726b6c6520707260648201526237b7b360e91b608482015260a4016106a4565b505050505050505050565b6000610c64826001815181106132495761324961541a565b6000610c64826003815181106132495761324961541a565b6000602061358d836101200151614667565b604080518082019091526000808252602082015260007f00000000000000000000000000000000000000000000000000000000000000006001600160401b0316846001600160401b031611156142a357507f00000000000000000000000000000000000000000000000000000000000000006142a6565b50825b60408051808201909152600080825260208201526142c482866156f4565b6001600160401b0390811682526034805484926000916142e691859116615b41565b92506101000a8154816001600160401b0302191690836001600160401b031602179055506143188285602001516135af565b602082810191909152600090850152600260608501819052506000888152603660209081526040918290208651815492880151938801516001600160401b03908116600160801b0267ffffffffffffffff60801b19958216600160401b026001600160801b0319909516919092161792909217928316821781556060870151879391929091839160ff60c01b191668ffffffffffffffffff60801b1990911617600160c01b8360028111156143cf576143cf614d34565b0217905550506040805164ffffffffff8c1681526001600160401b038a8116602083015288168183015290516001600160a01b03891692507fb76a93bb649ece524688f1a01d184e0bbebcda58eae80c28a898bec3fb5a09639181900360600190a298975050505050505050565b60408051808201909152600080825260208201526040805164ffffffffff871681526001600160401b0380871660208301528416918101919091526001600160a01b038416907f8a7335714231dbd551aaba6314f4a97a14c201e53a3e25e1140325cdf67d7a4e9060600160405180910390a2603880548391906000906144ce9084906001600160401b0316615b41565b92506101000a8154816001600160401b0302191690836001600160401b031602179055506040518060400160405280836001600160401b0316815260200160008152509050949350505050565b6000835160001415801561453a57506020845161453891906156cc565b155b6145c95760405162461bcd60e51b815260206004820152605460248201527f4d65726b6c652e70726f63657373496e636c7573696f6e50726f6f665368613260448201527f35363a2070726f6f66206c656e6774682073686f756c642062652061206e6f6e60648201527316bd32b9379036bab63a34b836329037b310199960611b608482015260a4016106a4565b604080516020808201909252848152905b8551811161465d576145ed6002856156cc565b614620578151600052808601516020526020826040600060026107d05a03fa61461557600080fd5b60028404935061464b565b8086015160005281516020526020826040600060026107d05a03fa61464457600080fd5b6002840493505b614656602082614b12565b90506145da565b5051949350505050565b60f881901c60e882901c61ff00161760d882901c62ff0000161760c882901c63ff000000161764ff0000000060b883901c161765ff000000000060a883901c161766ff000000000000609883901c161767ff0000000000000060889290921c919091161790565b600080600283516146df91906156e0565b90506000816001600160401b038111156146fb576146fb614f41565b604051908082528060200260200182016040528015614724578160200160208202803683370190505b50905060005b8281101561482b5760028561473f838361573d565b8151811061474f5761474f61541a565b602002602001015186836002614765919061573d565b614770906001614b12565b815181106147805761478061541a565b60200260200101516040516020016147a2929190918252602082015260400190565b60408051601f19818403018152908290526147bc916157c6565b602060405180830381855afa1580156147d9573d6000803e3d6000fd5b5050506040513d601f19601f820116820180604052508101906147fc91906153bb565b82828151811061480e5761480e61541a565b602090810291909101015280614823816154a0565b91505061472a565b506148376002836156e0565b91505b81156149575760005b8281101561494457600282614858838361573d565b815181106148685761486861541a565b60200260200101518383600261487e919061573d565b614889906001614b12565b815181106148995761489961541a565b60200260200101516040516020016148bb929190918252602082015260400190565b60408051601f19818403018152908290526148d5916157c6565b602060405180830381855afa1580156148f2573d6000803e3d6000fd5b5050506040513d601f19601f8201168201806040525081019061491591906153bb565b8282815181106149275761492761541a565b60209081029190910101528061493c816154a0565b915050614843565b506149506002836156e0565b915061483a565b8060008151811061496a5761496a61541a565b602002602001015192505050919050565b606061498a8484600085614992565b949350505050565b6060824710156149f35760405162461bcd60e51b815260206004820152602660248201527f416464726573733a20696e73756666696369656e742062616c616e636520666f6044820152651c8818d85b1b60d21b60648201526084016106a4565b6001600160a01b0385163b614a4a5760405162461bcd60e51b815260206004820152601d60248201527f416464726573733a2063616c6c20746f206e6f6e2d636f6e747261637400000060448201526064016106a4565b600080866001600160a01b03168587604051614a6691906157c6565b60006040518083038185875af1925050503d8060008114614aa3576040519150601f19603f3d011682016040523d82523d6000602084013e614aa8565b606091505b5091509150614ab8828286614ac3565b979650505050505050565b60608315614ad25750816135c7565b825115614ae25782518084602001fd5b8160405162461bcd60e51b81526004016106a49190615b6c565b634e487b7160e01b600052601160045260246000fd5b60008219821115614b2557614b25614afc565b500190565b6001600160401b0381168114611fb857600080fd5b8035614b4a81614b2a565b919050565b60008060408385031215614b6257600080fd5b823591506020830135614b7481614b2a565b809150509250929050565b600060408284031215614b9157600080fd5b50919050565b60008083601f840112614ba957600080fd5b5081356001600160401b03811115614bc057600080fd5b6020830191508360208260051b8501011115614bdb57600080fd5b9250929050565b60008060008060008060008060a0898b031215614bfe57600080fd5b8835614c0981614b2a565b975060208901356001600160401b0380821115614c2557600080fd5b614c318c838d01614b7f565b985060408b0135915080821115614c4757600080fd5b614c538c838d01614b97565b909850965060608b0135915080821115614c6c57600080fd5b614c788c838d01614b97565b909650945060808b0135915080821115614c9157600080fd5b50614c9e8b828c01614b97565b999c989b5096995094979396929594505050565b60008083601f840112614cc457600080fd5b5081356001600160401b03811115614cdb57600080fd5b602083019150836020828501011115614bdb57600080fd5b60008060208385031215614d0657600080fd5b82356001600160401b03811115614d1c57600080fd5b614d2885828601614cb2565b90969095509350505050565b634e487b7160e01b600052602160045260246000fd5b60038110614d6857634e487b7160e01b600052602160045260246000fd5b9052565b60208101610c648284614d4a565b600060208284031215614d8c57600080fd5b5035919050565b60006080820190506001600160401b03808451168352806020850151166020840152806040850151166040840152506060830151614dd46060840182614d4a565b5092915050565b600080600080600060608688031215614df357600080fd5b85356001600160401b0380821115614e0a57600080fd5b614e1689838a01614cb2565b90975095506020880135915080821115614e2f57600080fd5b50614e3c88828901614cb2565b96999598509660400135949350505050565b60008060008060008060008060a0898b031215614e6a57600080fd5b8835614e7581614b2a565b975060208901356001600160401b0380821115614e9157600080fd5b614e9d8c838d01614b97565b909950975060408b0135915080821115614eb657600080fd5b614ec28c838d01614b7f565b965060608b0135915080821115614c6c57600080fd5b6001600160a01b0381168114611fb857600080fd5b8035614b4a81614ed8565b60008060408385031215614f0b57600080fd5b8235614f1681614ed8565b946020939093013593505050565b600060208284031215614f3657600080fd5b81356135c781614ed8565b634e487b7160e01b600052604160045260246000fd5b60405161018081016001600160401b0381118282101715614f7a57614f7a614f41565b60405290565b604051601f8201601f191681016001600160401b0381118282101715614fa857614fa8614f41565b604052919050565b60006001600160401b03821115614fc957614fc9614f41565b5060051b60200190565b600082601f830112614fe457600080fd5b81356020614ff9614ff483614fb0565b614f80565b82815260059290921b8401810191818101908684111561501857600080fd5b8286015b84811015615033578035835291830191830161501c565b509695505050505050565b60008060006060848603121561505357600080fd5b83356001600160401b038082111561506a57600080fd5b818601915086601f83011261507e57600080fd5b8135602061508e614ff483614fb0565b82815260059290921b8401810191818101908a8411156150ad57600080fd5b948201945b838610156150d45785356150c581614ed8565b825294820194908201906150b2565b975050870135925050808211156150ea57600080fd5b506150f786828701614fd3565b92505061510660408501614eed565b90509250925092565b60008060008060008060008060008060c08b8d03121561512e57600080fd5b6151378b614b3f565b995060208b01356001600160401b038082111561515357600080fd5b61515f8e838f01614b7f565b9a5060408d013591508082111561517557600080fd5b6151818e838f01614b97565b909a50985060608d013591508082111561519a57600080fd5b6151a68e838f01614b97565b909850965060808d01359150808211156151bf57600080fd5b6151cb8e838f01614b97565b909650945060a08d01359150808211156151e457600080fd5b506151f18d828e01614b97565b915080935050809150509295989b9194979a5092959850565b60006020828403121561521c57600080fd5b815180151581146135c757600080fd5b6020808252603e908201527f456967656e506f642e6f6e6c795768656e4e6f745061757365643a20696e646560408201527f782069732070617573656420696e20456967656e506f644d616e616765720000606082015260800190565b60208082526028908201527f456967656e506f642e6f6e6c79456967656e506f644f776e65723a206e6f74206040820152673837b227bbb732b960c11b606082015260800190565b6020808252602f908201527f456967656e506f642e6861734e6576657252657374616b65643a20726573746160408201526e1ada5b99c81a5cc8195b98589b1959608a1b606082015260800190565b6020808252606f908201527f456967656e506f642e70726f6f664973466f7256616c696454696d657374616d60408201527f703a20626561636f6e20636861696e2070726f6f66206d75737420626520666f60608201527f722074696d657374616d70206166746572206d6f7374526563656e745769746860808201526e064726177616c54696d657374616d7608c1b60a082015260c00190565b6000602082840312156153cd57600080fd5b5051919050565b6000808335601e198436030181126153eb57600080fd5b8301803591506001600160401b0382111561540557600080fd5b602001915036819003821315614bdb57600080fd5b634e487b7160e01b600052603260045260246000fd5b60006020828403121561544257600080fd5b813564ffffffffff811681146135c757600080fd5b6000808335601e1984360301811261546e57600080fd5b8301803591506001600160401b0382111561548857600080fd5b6020019150600581901b3603821315614bdb57600080fd5b60006000198214156154b4576154b4614afc565b5060010190565b60208082526031908201527f456967656e506f642e6f6e6c79456967656e506f644d616e616765723a206e6f6040820152703a1032b4b3b2b72837b226b0b730b3b2b960791b606082015260800190565b81835281816020850137506000828201602090810191909152601f909101601f19169091010190565b60005b83811015615550578181015183820152602001615538565b838111156121435750506000910152565b60008151808452615579816020860160208601615535565b601f01601f19169290920160200192915050565b6080815260006155a160808301888a61550c565b82810360208401526155b38188615561565b905082810360408401526155c881868861550c565b915050826060830152979650505050505050565b60208152600061498a60208301848661550c565b600080821280156001600160ff1b038490038513161561561257615612614afc565b600160ff1b839003841281161561562b5761562b614afc565b50500190565b60006001600160ff1b038184138284138082168684048611161561565757615657614afc565b600160ff1b600087128281168783058912161561567657615676614afc565b6000871292508782058712848416161561569257615692614afc565b878505871281841616156156a8576156a8614afc565b505050929093029392505050565b634e487b7160e01b600052601260045260246000fd5b6000826156db576156db6156b6565b500690565b6000826156ef576156ef6156b6565b500490565b60006001600160401b038381169083168181101561571457615714614afc565b039392505050565b6000823561017e1983360301811261573357600080fd5b9190910192915050565b600081600019048311821515161561575757615757614afc565b500290565b60008282101561576e5761576e614afc565b500390565b80516020808301519190811015614b915760001960209190910360031b1b16919050565b600083516157a9818460208801615535565b6001600160801b0319939093169190920190815260100192915050565b60008251615733818460208701615535565b600082601f8301126157e957600080fd5b81356001600160401b0381111561580257615802614f41565b615815601f8201601f1916602001614f80565b81815284602083860101111561582a57600080fd5b816020850160208301376000918101602001919091529392505050565b6000610180823603121561585a57600080fd5b615862614f57565b82356001600160401b038082111561587957600080fd5b615885368387016157d8565b8352602085013591508082111561589b57600080fd5b6158a7368387016157d8565b602084015260408501359150808211156158c057600080fd5b6158cc368387016157d8565b604084015260608501359150808211156158e557600080fd5b6158f1368387016157d8565b6060840152608085013591508082111561590a57600080fd5b50615917368286016157d8565b60808301525061592960a08401614b3f565b60a082015261593a60c08401614b3f565b60c082015261594b60e08401614b3f565b60e082015261010083810135908201526101208084013590820152610140808401359082015261016092830135928101929092525090565b60006020828403121561599557600080fd5b81516135c781614b2a565b600181815b808511156159db5781600019048211156159c1576159c1614afc565b808516156159ce57918102915b93841c93908002906159a5565b509250929050565b6000826159f257506001610c64565b816159ff57506000610c64565b8160018114615a155760028114615a1f57615a3b565b6001915050610c64565b60ff841115615a3057615a30614afc565b50506001821b610c64565b5060208310610133831016604e8410600b8410161715615a5e575081810a610c64565b615a6883836159a0565b8060001904821115615a7c57615a7c614afc565b029392505050565b60006135c783836159e3565b60006001600160401b0380831681851681830481118215151615615ab657615ab6614afc565b02949350505050565b60006001600160401b0380841680615ad957615ad96156b6565b92169190910492915050565b60008083128015600160ff1b850184121615615b0357615b03614afc565b6001600160ff1b0384018313811615615b1e57615b1e614afc565b50500390565b600060208284031215615b3657600080fd5b81356135c781614b2a565b60006001600160401b03808316818516808303821115615b6357615b63614afc565b01949350505050565b6020815260006135c7602083018461556156fe426561636f6e436861696e50726f6f66732e7665726966795769746864726177a2646970667358221220c5a023b4009d91827e91e025d3cc0fa80b6b18c1faa7ad1ea0628a0021ff10f564736f6c634300080c0033","linkReferences":{}},"methodIdentifiers":{"GENESIS_TIME()":"f2882461","MAX_RESTAKED_BALANCE_GWEI_PER_VALIDATOR()":"1d905d5c","activateRestaking()":"0cd4649e","delayedWithdrawalRouter()":"1a5057be","eigenPodManager()":"4665bcda","ethPOS()":"74cdd798","hasRestaked()":"3106ab53","initialize(address)":"c4d66de8","mostRecentWithdrawalTimestamp()":"87e0d289","nonBeaconChainETHBalanceWei()":"fe80b087","podOwner()":"0b18ff66","provenWithdrawal(bytes32,uint64)":"34bea20a","recoverTokens(address[],uint256[],address)":"dda3346c","stake(bytes,bytes,bytes32)":"9b4e4634","sumOfPartialWithdrawalsClaimedGwei()":"5d3f65b6","validatorPubkeyHashToInfo(bytes32)":"6fcd0e53","validatorPubkeyToInfo(bytes)":"b522538a","validatorStatus(bytes)":"58eaee79","validatorStatus(bytes32)":"7439841f","verifyAndProcessWithdrawals(uint64,(bytes32,bytes),(bytes,bytes,bytes,bytes,bytes,uint64,uint64,uint64,bytes32,bytes32,bytes32,bytes32)[],bytes[],bytes32[][],bytes32[][])":"e251ef52","verifyBalanceUpdates(uint64,uint40[],(bytes32,bytes),bytes[],bytes32[][])":"a50600f4","verifyWithdrawalCredentials(uint64,(bytes32,bytes),uint40[],bytes[],bytes32[][])":"3f65cf19","withdrawBeforeRestaking()":"baa7145a","withdrawNonBeaconChainETHBalanceWei(address,uint256)":"e2c83445","withdrawRestakedBeaconChainETH(address,uint256)":"c4907442","withdrawableRestakedExecutionLayerGwei()":"3474aa16"},"id":30}