{"abi":[{"type":"constructor","inputs":[{"name":"_delegation","type":"address","internalType":"contract IDelegationManager"}],"stateMutability":"nonpayable"},{"type":"function","name":"DOMAIN_TYPEHASH","inputs":[],"outputs":[{"name":"","type":"bytes32","internalType":"bytes32"}],"stateMutability":"view"},{"type":"function","name":"OPERATOR_AVS_REGISTRATION_TYPEHASH","inputs":[],"outputs":[{"name":"","type":"bytes32","internalType":"bytes32"}],"stateMutability":"view"},{"type":"function","name":"avsOperatorStatus","inputs":[{"name":"","type":"address","internalType":"address"},{"name":"","type":"address","internalType":"address"}],"outputs":[{"name":"","type":"uint8","internalType":"enum IAVSDirectory.OperatorAVSRegistrationStatus"}],"stateMutability":"view"},{"type":"function","name":"calculateOperatorAVSRegistrationDigestHash","inputs":[{"name":"operator","type":"address","internalType":"address"},{"name":"avs","type":"address","internalType":"address"},{"name":"salt","type":"bytes32","internalType":"bytes32"},{"name":"expiry","type":"uint256","internalType":"uint256"}],"outputs":[{"name":"","type":"bytes32","internalType":"bytes32"}],"stateMutability":"view"},{"type":"function","name":"cancelSalt","inputs":[{"name":"salt","type":"bytes32","internalType":"bytes32"}],"outputs":[],"stateMutability":"nonpayable"},{"type":"function","name":"delegation","inputs":[],"outputs":[{"name":"","type":"address","internalType":"contract IDelegationManager"}],"stateMutability":"view"},{"type":"function","name":"deregisterOperatorFromAVS","inputs":[{"name":"operator","type":"address","internalType":"address"}],"outputs":[],"stateMutability":"nonpayable"},{"type":"function","name":"domainSeparator","inputs":[],"outputs":[{"name":"","type":"bytes32","internalType":"bytes32"}],"stateMutability":"view"},{"type":"function","name":"initialize","inputs":[{"name":"initialOwner","type":"address","internalType":"address"},{"name":"_pauserRegistry","type":"address","internalType":"contract IPauserRegistry"},{"name":"initialPausedStatus","type":"uint256","internalType":"uint256"}],"outputs":[],"stateMutability":"nonpayable"},{"type":"function","name":"operatorSaltIsSpent","inputs":[{"name":"","type":"address","internalType":"address"},{"name":"","type":"bytes32","internalType":"bytes32"}],"outputs":[{"name":"","type":"bool","internalType":"bool"}],"stateMutability":"view"},{"type":"function","name":"owner","inputs":[],"outputs":[{"name":"","type":"address","internalType":"address"}],"stateMutability":"view"},{"type":"function","name":"pause","inputs":[{"name":"newPausedStatus","type":"uint256","internalType":"uint256"}],"outputs":[],"stateMutability":"nonpayable"},{"type":"function","name":"pauseAll","inputs":[],"outputs":[],"stateMutability":"nonpayable"},{"type":"function","name":"paused","inputs":[{"name":"index","type":"uint8","internalType":"uint8"}],"outputs":[{"name":"","type":"bool","internalType":"bool"}],"stateMutability":"view"},{"type":"function","name":"paused","inputs":[],"outputs":[{"name":"","type":"uint256","internalType":"uint256"}],"stateMutability":"view"},{"type":"function","name":"pauserRegistry","inputs":[],"outputs":[{"name":"","type":"address","internalType":"contract IPauserRegistry"}],"stateMutability":"view"},{"type":"function","name":"registerOperatorToAVS","inputs":[{"name":"operator","type":"address","internalType":"address"},{"name":"operatorSignature","type":"tuple","internalType":"struct ISignatureUtils.SignatureWithSaltAndExpiry","components":[{"name":"signature","type":"bytes","internalType":"bytes"},{"name":"salt","type":"bytes32","internalType":"bytes32"},{"name":"expiry","type":"uint256","internalType":"uint256"}]}],"outputs":[],"stateMutability":"nonpayable"},{"type":"function","name":"renounceOwnership","inputs":[],"outputs":[],"stateMutability":"nonpayable"},{"type":"function","name":"setPauserRegistry","inputs":[{"name":"newPauserRegistry","type":"address","internalType":"contract IPauserRegistry"}],"outputs":[],"stateMutability":"nonpayable"},{"type":"function","name":"transferOwnership","inputs":[{"name":"newOwner","type":"address","internalType":"address"}],"outputs":[],"stateMutability":"nonpayable"},{"type":"function","name":"unpause","inputs":[{"name":"newPausedStatus","type":"uint256","internalType":"uint256"}],"outputs":[],"stateMutability":"nonpayable"},{"type":"function","name":"updateAVSMetadataURI","inputs":[{"name":"metadataURI","type":"string","internalType":"string"}],"outputs":[],"stateMutability":"nonpayable"},{"type":"event","name":"AVSMetadataURIUpdated","inputs":[{"name":"avs","type":"address","indexed":true,"internalType":"address"},{"name":"metadataURI","type":"string","indexed":false,"internalType":"string"}],"anonymous":false},{"type":"event","name":"Initialized","inputs":[{"name":"version","type":"uint8","indexed":false,"internalType":"uint8"}],"anonymous":false},{"type":"event","name":"OperatorAVSRegistrationStatusUpdated","inputs":[{"name":"operator","type":"address","indexed":true,"internalType":"address"},{"name":"avs","type":"address","indexed":true,"internalType":"address"},{"name":"status","type":"uint8","indexed":false,"internalType":"enum IAVSDirectory.OperatorAVSRegistrationStatus"}],"anonymous":false},{"type":"event","name":"OwnershipTransferred","inputs":[{"name":"previousOwner","type":"address","indexed":true,"internalType":"address"},{"name":"newOwner","type":"address","indexed":true,"internalType":"address"}],"anonymous":false},{"type":"event","name":"Paused","inputs":[{"name":"account","type":"address","indexed":true,"internalType":"address"},{"name":"newPausedStatus","type":"uint256","indexed":false,"internalType":"uint256"}],"anonymous":false},{"type":"event","name":"PauserRegistrySet","inputs":[{"name":"pauserRegistry","type":"address","indexed":false,"internalType":"contract IPauserRegistry"},{"name":"newPauserRegistry","type":"address","indexed":false,"internalType":"contract IPauserRegistry"}],"anonymous":false},{"type":"event","name":"Unpaused","inputs":[{"name":"account","type":"address","indexed":true,"internalType":"address"},{"name":"newPausedStatus","type":"uint256","indexed":false,"internalType":"uint256"}],"anonymous":false}],"bytecode":{"object":"0x60c06040523480156200001157600080fd5b5060405162001f7838038062001f78833981016040819052620000349162000118565b6001600160a01b0381166080526200004b62000056565b504660a0526200014a565b600054610100900460ff1615620000c35760405162461bcd60e51b815260206004820152602760248201527f496e697469616c697a61626c653a20636f6e747261637420697320696e697469604482015266616c697a696e6760c81b606482015260840160405180910390fd5b60005460ff908116101562000116576000805460ff191660ff9081179091556040519081527f7f26b83ff96e1f2b6a682f133852f6798a09c465da95921460cefb38474024989060200160405180910390a15b565b6000602082840312156200012b57600080fd5b81516001600160a01b03811681146200014357600080fd5b9392505050565b60805160a051611e01620001776000396000610ea801526000818161032401526109830152611e016000f3fe608060405234801561001057600080fd5b50600436106101425760003560e01c80638da5cb5b116100b8578063d79aceab1161007c578063d79aceab146102f8578063df5cf7231461031f578063ec76f44214610346578063f2fde38b14610359578063f698da251461036c578063fabc1cbc1461037457600080fd5b80638da5cb5b1461029b5780639926ee7d146102ac578063a1060c88146102bf578063a364f4da146102d2578063a98fb355146102e557600080fd5b806349075da31161010a57806349075da3146101fa578063595c6a67146102355780635ac86ab71461023d5780635c975abb14610260578063715018a614610268578063886f11951461027057600080fd5b806310d67a2f14610147578063136439dd1461015c5780631794bb3c1461016f57806320606b7014610182578063374823b5146101bc575b600080fd5b61015a6101553660046118ab565b610387565b005b61015a61016a3660046118cf565b610443565b61015a61017d3660046118e8565b610582565b6101a97f8cad95687ba82c2ce50e74f7b754645e5117c3a5bec8151c0726d5857980a86681565b6040519081526020015b60405180910390f35b6101ea6101ca366004611929565b609960209081526000928352604080842090915290825290205460ff1681565b60405190151581526020016101b3565b610228610208366004611955565b609860209081526000928352604080842090915290825290205460ff1681565b6040516101b391906119a4565b61015a6106ac565b6101ea61024b3660046119cc565b606654600160ff9092169190911b9081161490565b6066546101a9565b61015a610773565b606554610283906001600160a01b031681565b6040516001600160a01b0390911681526020016101b3565b6033546001600160a01b0316610283565b61015a6102ba366004611a5f565b610787565b6101a96102cd366004611b46565b610b1a565b61015a6102e03660046118ab565b610bd3565b61015a6102f3366004611b8c565b610d3c565b6101a97fda2c89bafdd34776a2b8bb9c83c82f419e20cc8c67207f70edd58249b92661bd81565b6102837f000000000000000000000000000000000000000000000000000000000000000081565b61015a6103543660046118cf565b610d83565b61015a6103673660046118ab565b610e2e565b6101a9610ea4565b61015a6103823660046118cf565b610ee2565b606560009054906101000a90046001600160a01b03166001600160a01b031663eab66d7a6040518163ffffffff1660e01b8152600401602060405180830381865afa1580156103da573d6000803e3d6000fd5b505050506040513d601f19601f820116820180604052508101906103fe9190611bfe565b6001600160a01b0316336001600160a01b0316146104375760405162461bcd60e51b815260040161042e90611c1b565b60405180910390fd5b6104408161103e565b50565b60655460405163237dfb4760e11b81523360048201526001600160a01b03909116906346fbf68e90602401602060405180830381865afa15801561048b573d6000803e3d6000fd5b505050506040513d601f19601f820116820180604052508101906104af9190611c65565b6104cb5760405162461bcd60e51b815260040161042e90611c87565b606654818116146105445760405162461bcd60e51b815260206004820152603860248201527f5061757361626c652e70617573653a20696e76616c696420617474656d70742060448201527f746f20756e70617573652066756e6374696f6e616c6974790000000000000000606482015260840161042e565b606681905560405181815233907fab40a374bc51de372200a8bc981af8c9ecdc08dfdaef0bb6e09f88f3c616ef3d906020015b60405180910390a250565b600054610100900460ff16158080156105a25750600054600160ff909116105b806105bc5750303b1580156105bc575060005460ff166001145b61061f5760405162461bcd60e51b815260206004820152602e60248201527f496e697469616c697a61626c653a20636f6e747261637420697320616c72656160448201526d191e481a5b9a5d1a585b1a5e995960921b606482015260840161042e565b6000805460ff191660011790558015610642576000805461ff0019166101001790555b61064c8383611135565b61065461121f565b609755610660846112b6565b80156106a6576000805461ff0019169055604051600181527f7f26b83ff96e1f2b6a682f133852f6798a09c465da95921460cefb38474024989060200160405180910390a15b50505050565b60655460405163237dfb4760e11b81523360048201526001600160a01b03909116906346fbf68e90602401602060405180830381865afa1580156106f4573d6000803e3d6000fd5b505050506040513d601f19601f820116820180604052508101906107189190611c65565b6107345760405162461bcd60e51b815260040161042e90611c87565b600019606681905560405190815233907fab40a374bc51de372200a8bc981af8c9ecdc08dfdaef0bb6e09f88f3c616ef3d9060200160405180910390a2565b61077b611308565b61078560006112b6565b565b606654600090600190811614156107dc5760405162461bcd60e51b815260206004820152601960248201527814185d5cd8589b194e881a5b99195e081a5cc81c185d5cd959603a1b604482015260640161042e565b42826040015110156108445760405162461bcd60e51b815260206004820152603e6024820152600080516020611dac83398151915260448201527f56533a206f70657261746f72207369676e617475726520657870697265640000606482015260840161042e565b60013360009081526098602090815260408083206001600160a01b038816845290915290205460ff16600181111561087e5761087e61198e565b14156108e05760405162461bcd60e51b815260206004820152603f6024820152600080516020611dac83398151915260448201527f56533a206f70657261746f7220616c7265616479207265676973746572656400606482015260840161042e565b6001600160a01b038316600090815260996020908152604080832085830151845290915290205460ff16156109645760405162461bcd60e51b81526020600482015260366024820152600080516020611dac8339815191526044820152751594ce881cd85b1d08185b1c9958591e481cdc195b9d60521b606482015260840161042e565b6040516336b87bd760e11b81526001600160a01b0384811660048301527f00000000000000000000000000000000000000000000000000000000000000001690636d70f7ae90602401602060405180830381865afa1580156109ca573d6000803e3d6000fd5b505050506040513d601f19601f820116820180604052508101906109ee9190611c65565b610a645760405162461bcd60e51b815260206004820152604d6024820152600080516020611dac83398151915260448201527f56533a206f70657261746f72206e6f74207265676973746572656420746f204560648201526c1a59d95b93185e595c881e595d609a1b608482015260a40161042e565b6000610a7a843385602001518660400151610b1a565b9050610a8b84828560000151611362565b3360008181526098602090815260408083206001600160a01b0389168085529083528184208054600160ff199182168117909255609985528386208a860151875290945293829020805490931684179092555190917ff0952b1c65271d819d39983d2abb044b9cace59bcc4d4dd389f586ebdcb15b4191610b0c91906119a4565b60405180910390a350505050565b604080517fda2c89bafdd34776a2b8bb9c83c82f419e20cc8c67207f70edd58249b92661bd6020808301919091526001600160a01b0387811683850152861660608301526080820185905260a08083018590528351808403909101815260c0909201909252805191012060009081610b90610ea4565b60405161190160f01b602082015260228101919091526042810183905260620160408051808303601f190181529190528051602090910120979650505050505050565b60665460009060019081161415610c285760405162461bcd60e51b815260206004820152601960248201527814185d5cd8589b194e881a5b99195e081a5cc81c185d5cd959603a1b604482015260640161042e565b60013360009081526098602090815260408083206001600160a01b038716845290915290205460ff166001811115610c6257610c6261198e565b14610cd55760405162461bcd60e51b815260206004820152603f60248201527f4156534469726563746f72792e646572656769737465724f70657261746f724660448201527f726f6d4156533a206f70657261746f72206e6f74207265676973746572656400606482015260840161042e565b3360008181526098602090815260408083206001600160a01b0387168085529252808320805460ff191690555190917ff0952b1c65271d819d39983d2abb044b9cace59bcc4d4dd389f586ebdcb15b4191610d3091906119a4565b60405180910390a35050565b336001600160a01b03167fa89c1dc243d8908a96dd84944bcc97d6bc6ac00dd78e20621576be6a3c9437138383604051610d77929190611ccf565b60405180910390a25050565b33600090815260996020908152604080832084845290915290205460ff1615610e085760405162461bcd60e51b815260206004820152603160248201527f4156534469726563746f72792e63616e63656c53616c743a2063616e6e6f742060448201527018d85b98d95b081cdc195b9d081cd85b1d607a1b606482015260840161042e565b33600090815260996020908152604080832093835292905220805460ff19166001179055565b610e36611308565b6001600160a01b038116610e9b5760405162461bcd60e51b815260206004820152602660248201527f4f776e61626c653a206e6577206f776e657220697320746865207a65726f206160448201526564647265737360d01b606482015260840161042e565b610440816112b6565b60007f0000000000000000000000000000000000000000000000000000000000000000461415610ed5575060975490565b610edd61121f565b905090565b606560009054906101000a90046001600160a01b03166001600160a01b031663eab66d7a6040518163ffffffff1660e01b8152600401602060405180830381865afa158015610f35573d6000803e3d6000fd5b505050506040513d601f19601f82011682018060405250810190610f599190611bfe565b6001600160a01b0316336001600160a01b031614610f895760405162461bcd60e51b815260040161042e90611c1b565b6066541981196066541916146110075760405162461bcd60e51b815260206004820152603860248201527f5061757361626c652e756e70617573653a20696e76616c696420617474656d7060448201527f7420746f2070617573652066756e6374696f6e616c6974790000000000000000606482015260840161042e565b606681905560405181815233907f3582d1828e26bf56bd801502bc021ac0bc8afb57c826e4986b45593c8fad389c90602001610577565b6001600160a01b0381166110cc5760405162461bcd60e51b815260206004820152604960248201527f5061757361626c652e5f73657450617573657252656769737472793a206e657760448201527f50617573657252656769737472792063616e6e6f7420626520746865207a65726064820152686f206164647265737360b81b608482015260a40161042e565b606554604080516001600160a01b03928316815291831660208301527f6e9fcd539896fca60e8b0f01dd580233e48a6b0f7df013b89ba7f565869acdb6910160405180910390a1606580546001600160a01b0319166001600160a01b0392909216919091179055565b6065546001600160a01b031615801561115657506001600160a01b03821615155b6111d85760405162461bcd60e51b815260206004820152604760248201527f5061757361626c652e5f696e697469616c697a655061757365723a205f696e6960448201527f7469616c697a6550617573657228292063616e206f6e6c792062652063616c6c6064820152666564206f6e636560c81b608482015260a40161042e565b606681905560405181815233907fab40a374bc51de372200a8bc981af8c9ecdc08dfdaef0bb6e09f88f3c616ef3d9060200160405180910390a261121b8261103e565b5050565b604080518082018252600a81526922b4b3b2b72630bcb2b960b11b60209182015281517f8cad95687ba82c2ce50e74f7b754645e5117c3a5bec8151c0726d5857980a866818301527f71b625cfad44bac63b13dba07f2e1d6084ee04b6f8752101ece6126d584ee6ea81840152466060820152306080808301919091528351808303909101815260a0909101909252815191012090565b603380546001600160a01b038381166001600160a01b0319831681179093556040519116919082907f8be0079c531659141344cd1fd0a4f28419497f9722a3daafe3b4186f6b6457e090600090a35050565b6033546001600160a01b031633146107855760405162461bcd60e51b815260206004820181905260248201527f4f776e61626c653a2063616c6c6572206973206e6f7420746865206f776e6572604482015260640161042e565b6001600160a01b0383163b1561148157604051630b135d3f60e11b808252906001600160a01b03851690631626ba7e906113a29086908690600401611cfe565b602060405180830381865afa1580156113bf573d6000803e3d6000fd5b505050506040513d601f19601f820116820180604052508101906113e39190611d5b565b6001600160e01b0319161461147c5760405162461bcd60e51b815260206004820152605360248201527f454950313237315369676e61747572655574696c732e636865636b5369676e6160448201527f747572655f454950313237313a2045524331323731207369676e6174757265206064820152721d995c9a599a58d85d1a5bdb8819985a5b1959606a1b608482015260a40161042e565b505050565b826001600160a01b03166114958383611521565b6001600160a01b03161461147c5760405162461bcd60e51b815260206004820152604760248201527f454950313237315369676e61747572655574696c732e636865636b5369676e6160448201527f747572655f454950313237313a207369676e6174757265206e6f742066726f6d6064820152661039b4b3b732b960c91b608482015260a40161042e565b60008060006115308585611545565b9150915061153d816115b5565b509392505050565b60008082516041141561157c5760208301516040840151606085015160001a61157087828585611770565b945094505050506115ae565b8251604014156115a6576020830151604084015161159b86838361185d565b9350935050506115ae565b506000905060025b9250929050565b60008160048111156115c9576115c961198e565b14156115d25750565b60018160048111156115e6576115e661198e565b14156116345760405162461bcd60e51b815260206004820152601860248201527f45434453413a20696e76616c6964207369676e61747572650000000000000000604482015260640161042e565b60028160048111156116485761164861198e565b14156116965760405162461bcd60e51b815260206004820152601f60248201527f45434453413a20696e76616c6964207369676e6174757265206c656e67746800604482015260640161042e565b60038160048111156116aa576116aa61198e565b14156117035760405162461bcd60e51b815260206004820152602260248201527f45434453413a20696e76616c6964207369676e6174757265202773272076616c604482015261756560f01b606482015260840161042e565b60048160048111156117175761171761198e565b14156104405760405162461bcd60e51b815260206004820152602260248201527f45434453413a20696e76616c6964207369676e6174757265202776272076616c604482015261756560f01b606482015260840161042e565b6000807f7fffffffffffffffffffffffffffffff5d576e7357a4501ddfe92f46681b20a08311156117a75750600090506003611854565b8460ff16601b141580156117bf57508460ff16601c14155b156117d05750600090506004611854565b6040805160008082526020820180845289905260ff881692820192909252606081018690526080810185905260019060a0016020604051602081039080840390855afa158015611824573d6000803e3d6000fd5b5050604051601f1901519150506001600160a01b03811661184d57600060019250925050611854565b9150600090505b94509492505050565b6000806001600160ff1b0383168161187a60ff86901c601b611d85565b905061188887828885611770565b935093505050935093915050565b6001600160a01b038116811461044057600080fd5b6000602082840312156118bd57600080fd5b81356118c881611896565b9392505050565b6000602082840312156118e157600080fd5b5035919050565b6000806000606084860312156118fd57600080fd5b833561190881611896565b9250602084013561191881611896565b929592945050506040919091013590565b6000806040838503121561193c57600080fd5b823561194781611896565b946020939093013593505050565b6000806040838503121561196857600080fd5b823561197381611896565b9150602083013561198381611896565b809150509250929050565b634e487b7160e01b600052602160045260246000fd5b60208101600283106119c657634e487b7160e01b600052602160045260246000fd5b91905290565b6000602082840312156119de57600080fd5b813560ff811681146118c857600080fd5b634e487b7160e01b600052604160045260246000fd5b6040516060810167ffffffffffffffff81118282101715611a2857611a286119ef565b60405290565b604051601f8201601f1916810167ffffffffffffffff81118282101715611a5757611a576119ef565b604052919050565b60008060408385031215611a7257600080fd5b8235611a7d81611896565b915060208381013567ffffffffffffffff80821115611a9b57600080fd5b9085019060608288031215611aaf57600080fd5b611ab7611a05565b823582811115611ac657600080fd5b8301601f81018913611ad757600080fd5b803583811115611ae957611ae96119ef565b611afb601f8201601f19168701611a2e565b93508084528986828401011115611b1157600080fd5b808683018786013760008682860101525050818152838301358482015260408301356040820152809450505050509250929050565b60008060008060808587031215611b5c57600080fd5b8435611b6781611896565b93506020850135611b7781611896565b93969395505050506040820135916060013590565b60008060208385031215611b9f57600080fd5b823567ffffffffffffffff80821115611bb757600080fd5b818501915085601f830112611bcb57600080fd5b813581811115611bda57600080fd5b866020828501011115611bec57600080fd5b60209290920196919550909350505050565b600060208284031215611c1057600080fd5b81516118c881611896565b6020808252602a908201527f6d73672e73656e646572206973206e6f74207065726d697373696f6e6564206160408201526939903ab73830bab9b2b960b11b606082015260800190565b600060208284031215611c7757600080fd5b815180151581146118c857600080fd5b60208082526028908201527f6d73672e73656e646572206973206e6f74207065726d697373696f6e6564206160408201526739903830bab9b2b960c11b606082015260800190565b60208152816020820152818360408301376000818301604090810191909152601f909201601f19160101919050565b82815260006020604081840152835180604085015260005b81811015611d3257858101830151858201606001528201611d16565b81811115611d44576000606083870101525b50601f01601f191692909201606001949350505050565b600060208284031215611d6d57600080fd5b81516001600160e01b0319811681146118c857600080fd5b60008219821115611da657634e487b7160e01b600052601160045260246000fd5b50019056fe4156534469726563746f72792e72656769737465724f70657261746f72546f41a26469706673582212202d6ec3cb935f2f90e1539ffde723748afb17b1af4a8b9cd7331ea149c5d48dbe64736f6c634300080c0033","linkReferences":{}},"methodIdentifiers":{"DOMAIN_TYPEHASH()":"20606b70","OPERATOR_AVS_REGISTRATION_TYPEHASH()":"d79aceab","avsOperatorStatus(address,address)":"49075da3","calculateOperatorAVSRegistrationDigestHash(address,address,bytes32,uint256)":"a1060c88","cancelSalt(bytes32)":"ec76f442","delegation()":"df5cf723","deregisterOperatorFromAVS(address)":"a364f4da","domainSeparator()":"f698da25","initialize(address,address,uint256)":"1794bb3c","operatorSaltIsSpent(address,bytes32)":"374823b5","owner()":"8da5cb5b","pause(uint256)":"136439dd","pauseAll()":"595c6a67","paused()":"5c975abb","paused(uint8)":"5ac86ab7","pauserRegistry()":"886f1195","registerOperatorToAVS(address,(bytes,bytes32,uint256))":"9926ee7d","renounceOwnership()":"715018a6","setPauserRegistry(address)":"10d67a2f","transferOwnership(address)":"f2fde38b","unpause(uint256)":"fabc1cbc","updateAVSMetadataURI(string)":"a98fb355"},"id":1}