{"abi":[{"type":"constructor","inputs":[{"name":"_registryCoordinator","type":"address","internalType":"contract IRegistryCoordinator"}],"stateMutability":"nonpayable"},{"type":"function","name":"apkHistory","inputs":[{"name":"","type":"uint8","internalType":"uint8"},{"name":"","type":"uint256","internalType":"uint256"}],"outputs":[{"name":"apkHash","type":"bytes24","internalType":"bytes24"},{"name":"updateBlockNumber","type":"uint32","internalType":"uint32"},{"name":"nextUpdateBlockNumber","type":"uint32","internalType":"uint32"}],"stateMutability":"view"},{"type":"function","name":"currentApk","inputs":[{"name":"","type":"uint8","internalType":"uint8"}],"outputs":[{"name":"X","type":"uint256","internalType":"uint256"},{"name":"Y","type":"uint256","internalType":"uint256"}],"stateMutability":"view"},{"type":"function","name":"deregisterOperator","inputs":[{"name":"operator","type":"address","internalType":"address"},{"name":"quorumNumbers","type":"bytes","internalType":"bytes"}],"outputs":[],"stateMutability":"nonpayable"},{"type":"function","name":"getApk","inputs":[{"name":"quorumNumber","type":"uint8","internalType":"uint8"}],"outputs":[{"name":"","type":"tuple","internalType":"struct BN254.G1Point","components":[{"name":"X","type":"uint256","internalType":"uint256"},{"name":"Y","type":"uint256","internalType":"uint256"}]}],"stateMutability":"view"},{"type":"function","name":"getApkHashAtBlockNumberAndIndex","inputs":[{"name":"quorumNumber","type":"uint8","internalType":"uint8"},{"name":"blockNumber","type":"uint32","internalType":"uint32"},{"name":"index","type":"uint256","internalType":"uint256"}],"outputs":[{"name":"","type":"bytes24","internalType":"bytes24"}],"stateMutability":"view"},{"type":"function","name":"getApkHistoryLength","inputs":[{"name":"quorumNumber","type":"uint8","internalType":"uint8"}],"outputs":[{"name":"","type":"uint32","internalType":"uint32"}],"stateMutability":"view"},{"type":"function","name":"getApkIndicesAtBlockNumber","inputs":[{"name":"quorumNumbers","type":"bytes","internalType":"bytes"},{"name":"blockNumber","type":"uint256","internalType":"uint256"}],"outputs":[{"name":"","type":"uint32[]","internalType":"uint32[]"}],"stateMutability":"view"},{"type":"function","name":"getApkUpdateAtIndex","inputs":[{"name":"quorumNumber","type":"uint8","internalType":"uint8"},{"name":"index","type":"uint256","internalType":"uint256"}],"outputs":[{"name":"","type":"tuple","internalType":"struct IBLSApkRegistry.ApkUpdate","components":[{"name":"apkHash","type":"bytes24","internalType":"bytes24"},{"name":"updateBlockNumber","type":"uint32","internalType":"uint32"},{"name":"nextUpdateBlockNumber","type":"uint32","internalType":"uint32"}]}],"stateMutability":"view"},{"type":"function","name":"getOperatorFromPubkeyHash","inputs":[{"name":"pubkeyHash","type":"bytes32","internalType":"bytes32"}],"outputs":[{"name":"","type":"address","internalType":"address"}],"stateMutability":"view"},{"type":"function","name":"getOperatorId","inputs":[{"name":"operator","type":"address","internalType":"address"}],"outputs":[{"name":"","type":"bytes32","internalType":"bytes32"}],"stateMutability":"view"},{"type":"function","name":"getRegisteredPubkey","inputs":[{"name":"operator","type":"address","internalType":"address"}],"outputs":[{"name":"","type":"tuple","internalType":"struct BN254.G1Point","components":[{"name":"X","type":"uint256","internalType":"uint256"},{"name":"Y","type":"uint256","internalType":"uint256"}]},{"name":"","type":"bytes32","internalType":"bytes32"}],"stateMutability":"view"},{"type":"function","name":"initializeQuorum","inputs":[{"name":"quorumNumber","type":"uint8","internalType":"uint8"}],"outputs":[],"stateMutability":"nonpayable"},{"type":"function","name":"operatorToPubkey","inputs":[{"name":"","type":"address","internalType":"address"}],"outputs":[{"name":"X","type":"uint256","internalType":"uint256"},{"name":"Y","type":"uint256","internalType":"uint256"}],"stateMutability":"view"},{"type":"function","name":"operatorToPubkeyHash","inputs":[{"name":"","type":"address","internalType":"address"}],"outputs":[{"name":"","type":"bytes32","internalType":"bytes32"}],"stateMutability":"view"},{"type":"function","name":"pubkeyHashToOperator","inputs":[{"name":"","type":"bytes32","internalType":"bytes32"}],"outputs":[{"name":"","type":"address","internalType":"address"}],"stateMutability":"view"},{"type":"function","name":"registerBLSPublicKey","inputs":[{"name":"operator","type":"address","internalType":"address"},{"name":"params","type":"tuple","internalType":"struct IBLSApkRegistry.PubkeyRegistrationParams","components":[{"name":"pubkeyRegistrationSignature","type":"tuple","internalType":"struct BN254.G1Point","components":[{"name":"X","type":"uint256","internalType":"uint256"},{"name":"Y","type":"uint256","internalType":"uint256"}]},{"name":"pubkeyG1","type":"tuple","internalType":"struct BN254.G1Point","components":[{"name":"X","type":"uint256","internalType":"uint256"},{"name":"Y","type":"uint256","internalType":"uint256"}]},{"name":"pubkeyG2","type":"tuple","internalType":"struct BN254.G2Point","components":[{"name":"X","type":"uint256[2]","internalType":"uint256[2]"},{"name":"Y","type":"uint256[2]","internalType":"uint256[2]"}]}]},{"name":"pubkeyRegistrationMessageHash","type":"tuple","internalType":"struct BN254.G1Point","components":[{"name":"X","type":"uint256","internalType":"uint256"},{"name":"Y","type":"uint256","internalType":"uint256"}]}],"outputs":[{"name":"operatorId","type":"bytes32","internalType":"bytes32"}],"stateMutability":"nonpayable"},{"type":"function","name":"registerOperator","inputs":[{"name":"operator","type":"address","internalType":"address"},{"name":"quorumNumbers","type":"bytes","internalType":"bytes"}],"outputs":[],"stateMutability":"nonpayable"},{"type":"function","name":"registryCoordinator","inputs":[],"outputs":[{"name":"","type":"address","internalType":"address"}],"stateMutability":"view"},{"type":"event","name":"Initialized","inputs":[{"name":"version","type":"uint8","indexed":false,"internalType":"uint8"}],"anonymous":false},{"type":"event","name":"NewPubkeyRegistration","inputs":[{"name":"operator","type":"address","indexed":true,"internalType":"address"},{"name":"pubkeyG1","type":"tuple","indexed":false,"internalType":"struct BN254.G1Point","components":[{"name":"X","type":"uint256","internalType":"uint256"},{"name":"Y","type":"uint256","internalType":"uint256"}]},{"name":"pubkeyG2","type":"tuple","indexed":false,"internalType":"struct BN254.G2Point","components":[{"name":"X","type":"uint256[2]","internalType":"uint256[2]"},{"name":"Y","type":"uint256[2]","internalType":"uint256[2]"}]}],"anonymous":false},{"type":"event","name":"OperatorAddedToQuorums","inputs":[{"name":"operator","type":"address","indexed":false,"internalType":"address"},{"name":"operatorId","type":"bytes32","indexed":false,"internalType":"bytes32"},{"name":"quorumNumbers","type":"bytes","indexed":false,"internalType":"bytes"}],"anonymous":false},{"type":"event","name":"OperatorRemovedFromQuorums","inputs":[{"name":"operator","type":"address","indexed":false,"internalType":"address"},{"name":"operatorId","type":"bytes32","indexed":false,"internalType":"bytes32"},{"name":"quorumNumbers","type":"bytes","indexed":false,"internalType":"bytes"}],"anonymous":false}],"bytecode":{"object":"0x60a06040523480156200001157600080fd5b506040516200203538038062002035833981016040819052620000349162000116565b6001600160a01b038116608052806200004c62000054565b505062000148565b600054610100900460ff1615620000c15760405162461bcd60e51b815260206004820152602760248201527f496e697469616c697a61626c653a20636f6e747261637420697320696e697469604482015266616c697a696e6760c81b606482015260840160405180910390fd5b60005460ff908116101562000114576000805460ff191660ff9081179091556040519081527f7f26b83ff96e1f2b6a682f133852f6798a09c465da95921460cefb38474024989060200160405180910390a15b565b6000602082840312156200012957600080fd5b81516001600160a01b03811681146200014157600080fd5b9392505050565b608051611eca6200016b6000396000818161030f0152610fd60152611eca6000f3fe608060405234801561001057600080fd5b50600436106101155760003560e01c80636d14a987116100a2578063bf79ce5811610071578063bf79ce58146103cc578063d5254a8c146103df578063de29fac0146103ff578063e8bb9ae61461041f578063f4e24fe51461044857600080fd5b80636d14a9871461030a5780637916cea6146103315780637ff81a8714610372578063a3db80e2146103a557600080fd5b80633fb27952116100e95780633fb27952146101df57806347b314e8146101f25780635f61a88414610233578063605747d51461028f57806368bccaac146102dd57600080fd5b8062a1f4cb1461011a57806313542a4e1461015b57806326d941f214610192578063377ed99d146101a7575b600080fd5b6101416101283660046118b7565b6003602052600090815260409020805460019091015482565b604080519283526020830191909152015b60405180910390f35b6101846101693660046118b7565b6001600160a01b031660009081526001602052604090205490565b604051908152602001610152565b6101a56101a03660046118ea565b61045b565b005b6101ca6101b53660046118ea565b60ff1660009081526004602052604090205490565b60405163ffffffff9091168152602001610152565b6101a56101ed366004611975565b610570565b61021b610200366004611a1b565b6000908152600260205260409020546001600160a01b031690565b6040516001600160a01b039091168152602001610152565b6102826102413660046118ea565b60408051808201909152600080825260208201525060ff16600090815260056020908152604091829020825180840190935280548352600101549082015290565b6040516101529190611a34565b6102a261029d366004611a4b565b6105ee565b60408051825167ffffffffffffffff1916815260208084015163ffffffff908116918301919091529282015190921690820152606001610152565b6102f06102eb366004611a75565b610681565b60405167ffffffffffffffff199091168152602001610152565b61021b7f000000000000000000000000000000000000000000000000000000000000000081565b61034461033f366004611a4b565b61081c565b6040805167ffffffffffffffff19909416845263ffffffff9283166020850152911690820152606001610152565b6103856103803660046118b7565b610867565b604080518351815260209384015193810193909352820152606001610152565b6101416103b33660046118ea565b6005602052600090815260409020805460019091015482565b6101846103da366004611abd565b610934565b6103f26103ed366004611b1a565b610d48565b6040516101529190611b92565b61018461040d3660046118b7565b60016020526000908152604090205481565b61021b61042d366004611a1b565b6002602052600090815260409020546001600160a01b031681565b6101a5610456366004611975565b610f62565b610463610fcb565b60ff8116600090815260046020526040902054156104e75760405162461bcd60e51b815260206004820152603660248201527f424c5341706b52656769737472792e696e697469616c697a6551756f72756d3a6044820152752071756f72756d20616c72656164792065786973747360501b60648201526084015b60405180910390fd5b60ff166000908152600460209081526040808320815160608101835284815263ffffffff4381168286019081528285018781528454600181018655948852959096209151919092018054955194518316600160e01b026001600160e01b0395909316600160c01b026001600160e01b03199096169190931c179390931791909116919091179055565b610578610fcb565b600061058383610867565b5090506105908282611082565b7f73a2b7fb844724b971802ae9b15db094d4b7192df9d7350e14eb466b9b22eb4e836105d1856001600160a01b031660009081526001602052604090205490565b846040516105e193929190611bdc565b60405180910390a1505050565b604080516060810182526000808252602080830182905282840182905260ff86168252600490529190912080548390811061062b5761062b611c48565b600091825260209182902060408051606081018252919092015467ffffffffffffffff1981841b16825263ffffffff600160c01b8204811694830194909452600160e01b90049092169082015290505b92915050565b60ff831660009081526004602052604081208054829190849081106106a8576106a8611c48565b600091825260209182902060408051606081018252919092015467ffffffffffffffff1981841b16825263ffffffff600160c01b82048116948301859052600160e01b90910481169282019290925292508516101561076f5760405162461bcd60e51b815260206004820152603e60248201527f424c5341706b52656769737472792e5f76616c696461746541706b486173684160448201527f74426c6f636b4e756d6265723a20696e64657820746f6f20726563656e74000060648201526084016104de565b604081015163ffffffff1615806107955750806040015163ffffffff168463ffffffff16105b6108135760405162461bcd60e51b815260206004820152604360248201527f424c5341706b52656769737472792e5f76616c696461746541706b486173684160448201527f74426c6f636b4e756d6265723a206e6f74206c61746573742061706b2075706460648201526261746560e81b608482015260a4016104de565b51949350505050565b6004602052816000526040600020818154811061083857600080fd5b600091825260209091200154604081901b925063ffffffff600160c01b820481169250600160e01b9091041683565b60408051808201909152600080825260208201526001600160a01b03821660008181526003602090815260408083208151808301835281548152600191820154818501529484529091528120549091908061092a5760405162461bcd60e51b815260206004820152603e60248201527f424c5341706b52656769737472792e676574526567697374657265645075626b60448201527f65793a206f70657261746f72206973206e6f742072656769737465726564000060648201526084016104de565b9094909350915050565b600061093e610fcb565b600061096c61095536869003860160408701611c5e565b805160009081526020918201519091526040902090565b90507fad3228b676f7d3cd4284a5443f17f1962b36e491b30a40b2405849e597ba5fb58114156109f4576040805162461bcd60e51b8152602060048201526024810191909152600080516020611e7583398151915260448201527f4b65793a2063616e6e6f74207265676973746572207a65726f207075626b657960648201526084016104de565b6001600160a01b03851660009081526001602052604090205415610a7e5760405162461bcd60e51b81526020600482015260476024820152600080516020611e7583398151915260448201527f4b65793a206f70657261746f7220616c72656164792072656769737465726564606482015266207075626b657960c81b608482015260a4016104de565b6000818152600260205260409020546001600160a01b031615610b025760405162461bcd60e51b81526020600482015260426024820152600080516020611e7583398151915260448201527f4b65793a207075626c6963206b657920616c7265616479207265676973746572606482015261195960f21b608482015260a4016104de565b604080516000917f30644e72e131a029b85045b68181585d2833e84879b9709143e1f593f000000191610b5b918835916020808b0135928b01359160608c01359160808d019160c08e01918d35918e8201359101611c90565b6040516020818303038152906040528051906020012060001c610b7e9190611cdb565b9050610c18610bb7610ba283610b9c368a90038a0160408b01611c5e565b906112cd565b610bb136899003890189611c5e565b90611364565b610bbf6113f8565b610c01610bf285610b9c604080518082018252600080825260209182015281518083019092526001825260029082015290565b610bb1368a90038a018a611c5e565b610c13368a90038a0160808b01611d4d565b6114b8565b610cb35760405162461bcd60e51b815260206004820152606c6024820152600080516020611e7583398151915260448201527f4b65793a2065697468657220746865204731207369676e61747572652069732060648201527f77726f6e672c206f7220473120616e642047322070726976617465206b65792060848201526b0c8de40dcdee840dac2e8c6d60a31b60a482015260c4016104de565b6001600160a01b03861660008181526003602090815260408083208982018035825560608b013560019283015590835281842087905586845260029092529182902080546001600160a01b0319168417905590517fe3fb6613af2e8930cf85d47fcf6db10192224a64c6cbe8023e0eee1ba382804191610d379160808a0190611daa565b60405180910390a250949350505050565b606060008367ffffffffffffffff811115610d6557610d65611905565b604051908082528060200260200182016040528015610d8e578160200160208202803683370190505b50905060005b84811015610f59576000868683818110610db057610db0611c48565b919091013560f81c6000818152600460205260409020549092509050801580610e13575060ff821660009081526004602052604081208054909190610df757610df7611c48565b600091825260209091200154600160c01b900463ffffffff1686105b15610ea05760405162461bcd60e51b815260206004820152605160248201527f424c5341706b52656769737472792e67657441706b496e64696365734174426c60448201527f6f636b4e756d6265723a20626c6f636b4e756d626572206973206265666f7265606482015270207468652066697273742075706461746560781b608482015260a4016104de565b805b8015610f435760ff831660009081526004602052604090208790610ec7600184611df4565b81548110610ed757610ed7611c48565b600091825260209091200154600160c01b900463ffffffff1611610f3157610f00600182611df4565b858581518110610f1257610f12611c48565b602002602001019063ffffffff16908163ffffffff1681525050610f43565b80610f3b81611e0b565b915050610ea2565b5050508080610f5190611e22565b915050610d94565b50949350505050565b610f6a610fcb565b6000610f7583610867565b509050610f8a82610f8583611725565b611082565b7ff843ecd53a563675e62107be1494fdde4a3d49aeedaf8d88c616d85346e3500e836105d1856001600160a01b031660009081526001602052604090205490565b336001600160a01b037f000000000000000000000000000000000000000000000000000000000000000016146110805760405162461bcd60e51b815260206004820152604e60248201527f424c5341706b52656769737472792e6f6e6c795265676973747279436f6f726460448201527f696e61746f723a2063616c6c6572206973206e6f74207468652072656769737460648201526d393c9031b7b7b93234b730ba37b960911b608482015260a4016104de565b565b604080518082019091526000808252602082015260005b83518110156112c75760008482815181106110b6576110b6611c48565b0160209081015160f81c60008181526004909252604090912054909150806111465760405162461bcd60e51b815260206004820152603d60248201527f424c5341706b52656769737472792e5f70726f6365737351756f72756d41706b60448201527f5570646174653a2071756f72756d20646f6573206e6f7420657869737400000060648201526084016104de565b60ff8216600090815260056020908152604091829020825180840190935280548352600101549082015261117a9086611364565b60ff831660008181526005602090815260408083208551808255868401805160019384015590855251835281842094845260049092528220939750919290916111c39085611df4565b815481106111d3576111d3611c48565b600091825260209091200180549091504363ffffffff908116600160c01b9092041614156112145780546001600160c01b031916604083901c1781556112b0565b805463ffffffff438116600160e01b8181026001600160e01b0394851617855560ff88166000908152600460209081526040808320815160608101835267ffffffffffffffff198b16815280840196875280830185815282546001810184559286529390942093519301805495519251871690940291909516600160c01b026001600160e01b0319949094169190941c17919091179092161790555b5050505080806112bf90611e22565b915050611099565b50505050565b60408051808201909152600080825260208201526112e96117e4565b835181526020808501519082015260408082018490526000908360608460076107d05a03fa905080801561131c5761131e565bfe5b508061135c5760405162461bcd60e51b815260206004820152600d60248201526c1958cb5b5d5b0b59985a5b1959609a1b60448201526064016104de565b505092915050565b6040805180820190915260008082526020820152611380611802565b835181526020808501518183015283516040808401919091529084015160608301526000908360808460066107d05a03fa905080801561131c57508061135c5760405162461bcd60e51b815260206004820152600d60248201526c1958cb5859190b59985a5b1959609a1b60448201526064016104de565b611400611820565b50604080516080810182527f198e9393920d483a7260bfb731fb5d25f1aa493335a9e71297e485b7aef312c28183019081527f1800deef121f1e76426a00665e5c4479674322d4f75edadd46debd5cd992f6ed6060830152815281518083019092527f275dc4a288d1afb3cbb1ac09187524c7db36395df7be3b99e673b13a075a65ec82527f1d9befcd05a5323e6da4d435f3b617cdb3af83285c2df711ef39c01571827f9d60208381019190915281019190915290565b6040805180820182528581526020808201859052825180840190935285835282018390526000916114e7611845565b60005b60028110156116ac576000611500826006611e3d565b905084826002811061151457611514611c48565b60200201515183611526836000611e5c565b600c811061153657611536611c48565b602002015284826002811061154d5761154d611c48565b602002015160200151838260016115649190611e5c565b600c811061157457611574611c48565b602002015283826002811061158b5761158b611c48565b602002015151518361159e836002611e5c565b600c81106115ae576115ae611c48565b60200201528382600281106115c5576115c5611c48565b60200201515160016020020151836115de836003611e5c565b600c81106115ee576115ee611c48565b602002015283826002811061160557611605611c48565b60200201516020015160006002811061162057611620611c48565b602002015183611631836004611e5c565b600c811061164157611641611c48565b602002015283826002811061165857611658611c48565b60200201516020015160016002811061167357611673611c48565b602002015183611684836005611e5c565b600c811061169457611694611c48565b602002015250806116a481611e22565b9150506114ea565b506116b5611864565b60006020826101808560086107d05a03fa905080801561131c5750806117155760405162461bcd60e51b81526020600482015260156024820152741c185a5c9a5b99cb5bdc18dbd9194b59985a5b1959605a1b60448201526064016104de565b5051151598975050505050505050565b6040805180820190915260008082526020820152815115801561174a57506020820151155b15611768575050604080518082019091526000808252602082015290565b6040518060400160405280836000015181526020017f30644e72e131a029b85045b68181585d97816a916871ca8d3c208c16d87cfd4784602001516117ad9190611cdb565b6117d7907f30644e72e131a029b85045b68181585d97816a916871ca8d3c208c16d87cfd47611df4565b905292915050565b919050565b60405180606001604052806003906020820280368337509192915050565b60405180608001604052806004906020820280368337509192915050565b6040518060400160405280611833611882565b8152602001611840611882565b905290565b604051806101800160405280600c906020820280368337509192915050565b60405180602001604052806001906020820280368337509192915050565b60405180604001604052806002906020820280368337509192915050565b80356001600160a01b03811681146117df57600080fd5b6000602082840312156118c957600080fd5b6118d2826118a0565b9392505050565b803560ff811681146117df57600080fd5b6000602082840312156118fc57600080fd5b6118d2826118d9565b634e487b7160e01b600052604160045260246000fd5b6040805190810167ffffffffffffffff8111828210171561193e5761193e611905565b60405290565b604051601f8201601f1916810167ffffffffffffffff8111828210171561196d5761196d611905565b604052919050565b6000806040838503121561198857600080fd5b611991836118a0565b915060208084013567ffffffffffffffff808211156119af57600080fd5b818601915086601f8301126119c357600080fd5b8135818111156119d5576119d5611905565b6119e7601f8201601f19168501611944565b915080825287848285010111156119fd57600080fd5b80848401858401376000848284010152508093505050509250929050565b600060208284031215611a2d57600080fd5b5035919050565b81518152602080830151908201526040810161067b565b60008060408385031215611a5e57600080fd5b611a67836118d9565b946020939093013593505050565b600080600060608486031215611a8a57600080fd5b611a93846118d9565b9250602084013563ffffffff81168114611aac57600080fd5b929592945050506040919091013590565b6000806000838503610160811215611ad457600080fd5b611add856118a0565b9350610100601f1982011215611af257600080fd5b602085019250604061011f1982011215611b0b57600080fd5b50610120840190509250925092565b600080600060408486031215611b2f57600080fd5b833567ffffffffffffffff80821115611b4757600080fd5b818601915086601f830112611b5b57600080fd5b813581811115611b6a57600080fd5b876020828501011115611b7c57600080fd5b6020928301989097509590910135949350505050565b6020808252825182820181905260009190848201906040850190845b81811015611bd057835163ffffffff1683529284019291840191600101611bae565b50909695505050505050565b60018060a01b038416815260006020848184015260606040840152835180606085015260005b81811015611c1e57858101830151858201608001528201611c02565b81811115611c30576000608083870101525b50601f01601f19169290920160800195945050505050565b634e487b7160e01b600052603260045260246000fd5b600060408284031215611c7057600080fd5b611c7861191b565b82358152602083013560208201528091505092915050565b8881528760208201528660408201528560608201526040856080830137600060c082016000815260408682375050610100810192909252610120820152610140019695505050505050565b600082611cf857634e487b7160e01b600052601260045260246000fd5b500690565b600082601f830112611d0e57600080fd5b611d1661191b565b806040840185811115611d2857600080fd5b845b81811015611d42578035845260209384019301611d2a565b509095945050505050565b600060808284031215611d5f57600080fd5b6040516040810181811067ffffffffffffffff82111715611d8257611d82611905565b604052611d8f8484611cfd565b8152611d9e8460408501611cfd565b60208201529392505050565b823581526020808401359082015260c081016040838184013760808201600081526040808501823750600081529392505050565b634e487b7160e01b600052601160045260246000fd5b600082821015611e0657611e06611dde565b500390565b600081611e1a57611e1a611dde565b506000190190565b6000600019821415611e3657611e36611dde565b5060010190565b6000816000190483118215151615611e5757611e57611dde565b500290565b60008219821115611e6f57611e6f611dde565b50019056fe424c5341706b52656769737472792e7265676973746572424c535075626c6963a26469706673582212203e7f0820f6d021df6871dbe79d9f2afa7dcfc0d4161bdbb16ab42c24715bdc2e64736f6c634300080c0033","linkReferences":{}},"methodIdentifiers":{"apkHistory(uint8,uint256)":"7916cea6","currentApk(uint8)":"a3db80e2","deregisterOperator(address,bytes)":"f4e24fe5","getApk(uint8)":"5f61a884","getApkHashAtBlockNumberAndIndex(uint8,uint32,uint256)":"68bccaac","getApkHistoryLength(uint8)":"377ed99d","getApkIndicesAtBlockNumber(bytes,uint256)":"d5254a8c","getApkUpdateAtIndex(uint8,uint256)":"605747d5","getOperatorFromPubkeyHash(bytes32)":"47b314e8","getOperatorId(address)":"13542a4e","getRegisteredPubkey(address)":"7ff81a87","initializeQuorum(uint8)":"26d941f2","operatorToPubkey(address)":"00a1f4cb","operatorToPubkeyHash(address)":"de29fac0","pubkeyHashToOperator(bytes32)":"e8bb9ae6","registerBLSPublicKey(address,((uint256,uint256),(uint256,uint256),(uint256[2],uint256[2])),(uint256,uint256))":"bf79ce58","registerOperator(address,bytes)":"3fb27952","registryCoordinator()":"6d14a987"},"id":102}