{"abi":[{"type":"function","name":"anvil_test","inputs":[{"name":"","type":"bytes32","internalType":"bytes32"}],"outputs":[{"name":"timestamp","type":"uint256","internalType":"uint256"},{"name":"block_number","type":"uint256","internalType":"uint256"},{"name":"index","type":"int256","internalType":"int256"}],"stateMutability":"view"},{"type":"function","name":"contractCount","inputs":[],"outputs":[{"name":"","type":"uint256","internalType":"uint256"}],"stateMutability":"view"},{"type":"function","name":"contractNames","inputs":[{"name":"","type":"uint256","internalType":"uint256"}],"outputs":[{"name":"","type":"string","internalType":"string"}],"stateMutability":"view"},{"type":"function","name":"contracts","inputs":[{"name":"","type":"string","internalType":"string"}],"outputs":[{"name":"","type":"address","internalType":"address"}],"stateMutability":"view"},{"type":"function","name":"get_test_values","inputs":[{"name":"test_name","type":"string","internalType":"string"},{"name":"index","type":"int256","internalType":"int256"}],"outputs":[{"name":"","type":"uint256","internalType":"uint256"},{"name":"","type":"uint256","internalType":"uint256"},{"name":"","type":"int256","internalType":"int256"}],"stateMutability":"view"},{"type":"function","name":"registerContract","inputs":[{"name":"name","type":"string","internalType":"string"},{"name":"_contract","type":"address","internalType":"address"}],"outputs":[],"stateMutability":"nonpayable"},{"type":"function","name":"store_test","inputs":[{"name":"test_name","type":"string","internalType":"string"},{"name":"index","type":"int256","internalType":"int256"},{"name":"timestamp","type":"uint256","internalType":"uint256"},{"name":"block_number","type":"uint256","internalType":"uint256"}],"outputs":[],"stateMutability":"nonpayable"}],"bytecode":{"object":"0x608060405234801561001057600080fd5b50610885806100206000396000f3fe608060405234801561001057600080fd5b506004361061007d5760003560e01c80637fafbbdd1161005b5780637fafbbdd146100ee5780638736381a1461011d5780638c5b838514610134578063acd5baa21461018057600080fd5b80633ca6bb92146100825780636842109e146100ab5780637f3c2c28146100d9575b600080fd5b610095610090366004610458565b610193565b6040516100a29190610495565b60405180910390f35b6100be6100b936600461056b565b61022d565b604080519384526020840192909252908201526060016100a2565b6100ec6100e73660046105b0565b6102a2565b005b6100be6100fc366004610458565b60036020526000908152604090208054600182015460029092015490919083565b61012660025481565b6040519081526020016100a2565b61016861014236600461060e565b80516020818301810180516000825292820191909301209152546001600160a01b031681565b6040516001600160a01b0390911681526020016100a2565b6100ec61018e36600461064b565b61039a565b600160205260009081526040902080546101ac9061069f565b80601f01602080910402602001604051908101604052809291908181526020018280546101d89061069f565b80156102255780601f106101fa57610100808354040283529160200191610225565b820191906000526020600020905b81548152906001019060200180831161020857829003601f168201915b505050505081565b60008060008060036000878760405160200161024a9291906106d9565b60408051601f1981840301815291815281516020928301208352828201939093529082016000208251606081018452815480825260018301549382018490526002909201549301839052955093509150509250925092565b60006001600160a01b03166000836040516102bd91906106fb565b908152604051908190036020019020546001600160a01b0316146103275760405162461bcd60e51b815260206004820152601b60248201527f636f6e747261637420616c726561647920726567697374657265640000000000604482015260640160405180910390fd5b8060008360405161033891906106fb565b908152604080516020928190038301902080546001600160a01b0319166001600160a01b03949094169390931790925560025460009081526001909152206103808382610768565b506002805490600061039183610828565b91905055505050565b6003600085856040516020016103b19291906106d9565b604051602081830303815290604052805190602001208152602001908152602001600020600001546000146103e557600080fd5b604051806060016040528083815260200182815260200184815250600360008660405160200161041591906106fb565b60408051601f1981840301815291815281516020928301208352828201939093529082016000208351815590830151600182015591015160029091015550505050565b60006020828403121561046a57600080fd5b5035919050565b60005b8381101561048c578181015183820152602001610474565b50506000910152565b60208152600082518060208401526104b4816040850160208701610471565b601f01601f19169190910160400192915050565b634e487b7160e01b600052604160045260246000fd5b600082601f8301126104ef57600080fd5b813567ffffffffffffffff8082111561050a5761050a6104c8565b604051601f8301601f19908116603f01168101908282118183101715610532576105326104c8565b8160405283815286602085880101111561054b57600080fd5b836020870160208301376000602085830101528094505050505092915050565b6000806040838503121561057e57600080fd5b823567ffffffffffffffff81111561059557600080fd5b6105a1858286016104de565b95602094909401359450505050565b600080604083850312156105c357600080fd5b823567ffffffffffffffff8111156105da57600080fd5b6105e6858286016104de565b92505060208301356001600160a01b038116811461060357600080fd5b809150509250929050565b60006020828403121561062057600080fd5b813567ffffffffffffffff81111561063757600080fd5b610643848285016104de565b949350505050565b6000806000806080858703121561066157600080fd5b843567ffffffffffffffff81111561067857600080fd5b610684878288016104de565b97602087013597506040870135966060013595509350505050565b600181811c908216806106b357607f821691505b6020821081036106d357634e487b7160e01b600052602260045260246000fd5b50919050565b600083516106eb818460208801610471565b9190910191825250602001919050565b6000825161070d818460208701610471565b9190910192915050565b601f821115610763576000816000526020600020601f850160051c810160208610156107405750805b601f850160051c820191505b8181101561075f5782815560010161074c565b5050505b505050565b815167ffffffffffffffff811115610782576107826104c8565b61079681610790845461069f565b84610717565b602080601f8311600181146107cb57600084156107b35750858301515b600019600386901b1c1916600185901b17855561075f565b600085815260208120601f198616915b828110156107fa578886015182559484019460019091019084016107db565b50858210156108185787850151600019600388901b60f8161c191681555b5050505050600190811b01905550565b60006001820161084857634e487b7160e01b600052601160045260246000fd5b506001019056fea264697066735822122082e11051c2d52a6af7ca3e10a13ac4c0ed3dca1b217122e1d102090eb9080c4464736f6c63430008180033","linkReferences":{}},"methodIdentifiers":{"anvil_test(bytes32)":"7fafbbdd","contractCount()":"8736381a","contractNames(uint256)":"3ca6bb92","contracts(string)":"8c5b8385","get_test_values(string,int256)":"6842109e","registerContract(string,address)":"7f3c2c28","store_test(string,int256,uint256,uint256)":"acd5baa2"},"id":0}