{
  "abi": [
    {
      "type": "function",
      "name": "contractCount",
      "inputs": [],
      "outputs": [
        {
          "name": "",
          "type": "uint256",
          "internalType": "uint256"
        }
      ],
      "stateMutability": "view"
    },
    {
      "type": "function",
      "name": "contractNames",
      "inputs": [
        {
          "name": "",
          "type": "uint256",
          "internalType": "uint256"
        }
      ],
      "outputs": [
        {
          "name": "",
          "type": "string",
          "internalType": "string"
        }
      ],
      "stateMutability": "view"
    },
    {
      "type": "function",
      "name": "contracts",
      "inputs": [
        {
          "name": "",
          "type": "string",
          "internalType": "string"
        }
      ],
      "outputs": [
        {
          "name": "",
          "type": "address",
          "internalType": "address"
        }
      ],
      "stateMutability": "view"
    },
    {
      "type": "function",
      "name": "registerContract",
      "inputs": [
        {
          "name": "name",
          "type": "string",
          "internalType": "string"
        },
        {
          "name": "_contract",
          "type": "address",
          "internalType": "address"
        }
      ],
      "outputs": [],
      "stateMutability": "nonpayable"
    }
  ],
  "bytecode": {
    "object": "0x608060405234801561001057600080fd5b50610593806100206000396000f3fe608060405234801561001057600080fd5b506004361061004c5760003560e01c80633ca6bb92146100515780637f3c2c281461007a5780638736381a1461008f5780638c5b8385146100a6575b600080fd5b61006461005f366004610323565b6100f2565b604051610071919061036c565b60405180910390f35b61008d610088366004610442565b61018c565b005b61009860025481565b604051908152602001610071565b6100da6100b43660046104a0565b80516020818301810180516000825292820191909301209152546001600160a01b031681565b6040516001600160a01b039091168152602001610071565b6001602052600090815260409020805461010b906104dd565b80601f0160208091040260200160405190810160405280929190818152602001828054610137906104dd565b80156101845780601f1061015957610100808354040283529160200191610184565b820191906000526020600020905b81548152906001019060200180831161016757829003601f168201915b505050505081565b60006001600160a01b03166000836040516101a79190610518565b908152604051908190036020019020546001600160a01b0316146102115760405162461bcd60e51b815260206004820152601b60248201527f636f6e747261637420616c726561647920726567697374657265640000000000604482015260640160405180910390fd5b806000836040516102229190610518565b908152604080516020928190038301902080546001600160a01b0319166001600160a01b0394909416939093179092556002546000908152600182529190912083516102709285019061028a565b506002805490600061028183610534565b91905055505050565b828054610296906104dd565b90600052602060002090601f0160209004810192826102b857600085556102fe565b82601f106102d157805160ff19168380011785556102fe565b828001600101855582156102fe579182015b828111156102fe5782518255916020019190600101906102e3565b5061030a92915061030e565b5090565b5b8082111561030a576000815560010161030f565b60006020828403121561033557600080fd5b5035919050565b60005b8381101561035757818101518382015260200161033f565b83811115610366576000848401525b50505050565b602081526000825180602084015261038b81604085016020870161033c565b601f01601f19169190910160400192915050565b634e487b7160e01b600052604160045260246000fd5b600082601f8301126103c657600080fd5b813567ffffffffffffffff808211156103e1576103e161039f565b604051601f8301601f19908116603f011681019082821181831017156104095761040961039f565b8160405283815286602085880101111561042257600080fd5b836020870160208301376000602085830101528094505050505092915050565b6000806040838503121561045557600080fd5b823567ffffffffffffffff81111561046c57600080fd5b610478858286016103b5565b92505060208301356001600160a01b038116811461049557600080fd5b809150509250929050565b6000602082840312156104b257600080fd5b813567ffffffffffffffff8111156104c957600080fd5b6104d5848285016103b5565b949350505050565b600181811c908216806104f157607f821691505b6020821081141561051257634e487b7160e01b600052602260045260246000fd5b50919050565b6000825161052a81846020870161033c565b9190910192915050565b600060001982141561055657634e487b7160e01b600052601160045260246000fd5b506001019056fea264697066735822122093fd710c54b22aa1f040bee46ef38c898302daad59dae3ad43362792eac272c864736f6c634300080c0033",
    "linkReferences": {}
  },
  "methodIdentifiers": {
    "contractCount()": "8736381a",
    "contractNames(uint256)": "3ca6bb92",
    "contracts(string)": "8c5b8385",
    "registerContract(string,address)": "7f3c2c28"
  },
  "id": 95
}