{"abi":[{"type":"constructor","inputs":[{"name":"_delegationManager","type":"address","internalType":"contract IDelegationManager"}],"stateMutability":"nonpayable"},{"type":"function","name":"deregisterOperator","inputs":[],"outputs":[],"stateMutability":"nonpayable"},{"type":"function","name":"getLastCheckpointOperatorWeight","inputs":[{"name":"_operator","type":"address","internalType":"address"}],"outputs":[{"name":"","type":"uint256","internalType":"uint256"}],"stateMutability":"view"},{"type":"function","name":"getLastCheckpointThresholdWeight","inputs":[],"outputs":[{"name":"","type":"uint256","internalType":"uint256"}],"stateMutability":"view"},{"type":"function","name":"getLastCheckpointThresholdWeightAtBlock","inputs":[{"name":"_blockNumber","type":"uint32","internalType":"uint32"}],"outputs":[{"name":"","type":"uint256","internalType":"uint256"}],"stateMutability":"view"},{"type":"function","name":"getLastCheckpointTotalWeight","inputs":[],"outputs":[{"name":"","type":"uint256","internalType":"uint256"}],"stateMutability":"view"},{"type":"function","name":"getLastCheckpointTotalWeightAtBlock","inputs":[{"name":"_blockNumber","type":"uint32","internalType":"uint32"}],"outputs":[{"name":"","type":"uint256","internalType":"uint256"}],"stateMutability":"view"},{"type":"function","name":"getLastestOperatorSigningKey","inputs":[{"name":"_operator","type":"address","internalType":"address"}],"outputs":[{"name":"","type":"address","internalType":"address"}],"stateMutability":"view"},{"type":"function","name":"getOperatorSigningKeyAtBlock","inputs":[{"name":"_operator","type":"address","internalType":"address"},{"name":"_blockNumber","type":"uint256","internalType":"uint256"}],"outputs":[{"name":"","type":"address","internalType":"address"}],"stateMutability":"view"},{"type":"function","name":"getOperatorWeight","inputs":[{"name":"_operator","type":"address","internalType":"address"}],"outputs":[{"name":"","type":"uint256","internalType":"uint256"}],"stateMutability":"view"},{"type":"function","name":"getOperatorWeightAtBlock","inputs":[{"name":"_operator","type":"address","internalType":"address"},{"name":"_blockNumber","type":"uint32","internalType":"uint32"}],"outputs":[{"name":"","type":"uint256","internalType":"uint256"}],"stateMutability":"view"},{"type":"function","name":"initialize","inputs":[{"name":"_serviceManager","type":"address","internalType":"address"},{"name":"_thresholdWeight","type":"uint256","internalType":"uint256"},{"name":"_quorum","type":"tuple","internalType":"struct Quorum","components":[{"name":"strategies","type":"tuple[]","internalType":"struct StrategyParams[]","components":[{"name":"strategy","type":"address","internalType":"contract IStrategy"},{"name":"multiplier","type":"uint96","internalType":"uint96"}]}]}],"outputs":[],"stateMutability":"nonpayable"},{"type":"function","name":"isValidSignature","inputs":[{"name":"_dataHash","type":"bytes32","internalType":"bytes32"},{"name":"_signatureData","type":"bytes","internalType":"bytes"}],"outputs":[{"name":"","type":"bytes4","internalType":"bytes4"}],"stateMutability":"view"},{"type":"function","name":"minimumWeight","inputs":[],"outputs":[{"name":"","type":"uint256","internalType":"uint256"}],"stateMutability":"view"},{"type":"function","name":"operatorRegistered","inputs":[{"name":"_operator","type":"address","internalType":"address"}],"outputs":[{"name":"","type":"bool","internalType":"bool"}],"stateMutability":"view"},{"type":"function","name":"owner","inputs":[],"outputs":[{"name":"","type":"address","internalType":"address"}],"stateMutability":"view"},{"type":"function","name":"quorum","inputs":[],"outputs":[{"name":"","type":"tuple","internalType":"struct Quorum","components":[{"name":"strategies","type":"tuple[]","internalType":"struct StrategyParams[]","components":[{"name":"strategy","type":"address","internalType":"contract IStrategy"},{"name":"multiplier","type":"uint96","internalType":"uint96"}]}]}],"stateMutability":"view"},{"type":"function","name":"registerOperatorWithSignature","inputs":[{"name":"_operatorSignature","type":"tuple","internalType":"struct ISignatureUtils.SignatureWithSaltAndExpiry","components":[{"name":"signature","type":"bytes","internalType":"bytes"},{"name":"salt","type":"bytes32","internalType":"bytes32"},{"name":"expiry","type":"uint256","internalType":"uint256"}]},{"name":"_signingKey","type":"address","internalType":"address"}],"outputs":[],"stateMutability":"nonpayable"},{"type":"function","name":"renounceOwnership","inputs":[],"outputs":[],"stateMutability":"nonpayable"},{"type":"function","name":"transferOwnership","inputs":[{"name":"newOwner","type":"address","internalType":"address"}],"outputs":[],"stateMutability":"nonpayable"},{"type":"function","name":"updateMinimumWeight","inputs":[{"name":"_newMinimumWeight","type":"uint256","internalType":"uint256"},{"name":"_operators","type":"address[]","internalType":"address[]"}],"outputs":[],"stateMutability":"nonpayable"},{"type":"function","name":"updateOperatorSigningKey","inputs":[{"name":"_newSigningKey","type":"address","internalType":"address"}],"outputs":[],"stateMutability":"nonpayable"},{"type":"function","name":"updateOperators","inputs":[{"name":"_operators","type":"address[]","internalType":"address[]"}],"outputs":[],"stateMutability":"nonpayable"},{"type":"function","name":"updateOperatorsForQuorum","inputs":[{"name":"operatorsPerQuorum","type":"address[][]","internalType":"address[][]"},{"name":"","type":"bytes","internalType":"bytes"}],"outputs":[],"stateMutability":"nonpayable"},{"type":"function","name":"updateQuorumConfig","inputs":[{"name":"_quorum","type":"tuple","internalType":"struct Quorum","components":[{"name":"strategies","type":"tuple[]","internalType":"struct StrategyParams[]","components":[{"name":"strategy","type":"address","internalType":"contract IStrategy"},{"name":"multiplier","type":"uint96","internalType":"uint96"}]}]},{"name":"_operators","type":"address[]","internalType":"address[]"}],"outputs":[],"stateMutability":"nonpayable"},{"type":"function","name":"updateStakeThreshold","inputs":[{"name":"_thresholdWeight","type":"uint256","internalType":"uint256"}],"outputs":[],"stateMutability":"nonpayable"},{"type":"event","name":"Initialized","inputs":[{"name":"version","type":"uint8","indexed":false,"internalType":"uint8"}],"anonymous":false},{"type":"event","name":"MinimumWeightUpdated","inputs":[{"name":"_old","type":"uint256","indexed":false,"internalType":"uint256"},{"name":"_new","type":"uint256","indexed":false,"internalType":"uint256"}],"anonymous":false},{"type":"event","name":"OperatorDeregistered","inputs":[{"name":"_operator","type":"address","indexed":true,"internalType":"address"},{"name":"_avs","type":"address","indexed":true,"internalType":"address"}],"anonymous":false},{"type":"event","name":"OperatorRegistered","inputs":[{"name":"_operator","type":"address","indexed":true,"internalType":"address"},{"name":"_avs","type":"address","indexed":true,"internalType":"address"}],"anonymous":false},{"type":"event","name":"OperatorWeightUpdated","inputs":[{"name":"_operator","type":"address","indexed":true,"internalType":"address"},{"name":"oldWeight","type":"uint256","indexed":false,"internalType":"uint256"},{"name":"newWeight","type":"uint256","indexed":false,"internalType":"uint256"}],"anonymous":false},{"type":"event","name":"OwnershipTransferred","inputs":[{"name":"previousOwner","type":"address","indexed":true,"internalType":"address"},{"name":"newOwner","type":"address","indexed":true,"internalType":"address"}],"anonymous":false},{"type":"event","name":"QuorumUpdated","inputs":[{"name":"_old","type":"tuple","indexed":false,"internalType":"struct Quorum","components":[{"name":"strategies","type":"tuple[]","internalType":"struct StrategyParams[]","components":[{"name":"strategy","type":"address","internalType":"contract IStrategy"},{"name":"multiplier","type":"uint96","internalType":"uint96"}]}]},{"name":"_new","type":"tuple","indexed":false,"internalType":"struct Quorum","components":[{"name":"strategies","type":"tuple[]","internalType":"struct StrategyParams[]","components":[{"name":"strategy","type":"address","internalType":"contract IStrategy"},{"name":"multiplier","type":"uint96","internalType":"uint96"}]}]}],"anonymous":false},{"type":"event","name":"SigningKeyUpdate","inputs":[{"name":"operator","type":"address","indexed":true,"internalType":"address"},{"name":"updateBlock","type":"uint256","indexed":true,"internalType":"uint256"},{"name":"newSigningKey","type":"address","indexed":true,"internalType":"address"},{"name":"oldSigningKey","type":"address","indexed":false,"internalType":"address"}],"anonymous":false},{"type":"event","name":"ThresholdWeightUpdated","inputs":[{"name":"_thresholdWeight","type":"uint256","indexed":false,"internalType":"uint256"}],"anonymous":false},{"type":"event","name":"TotalWeightUpdated","inputs":[{"name":"oldTotalWeight","type":"uint256","indexed":false,"internalType":"uint256"},{"name":"newTotalWeight","type":"uint256","indexed":false,"internalType":"uint256"}],"anonymous":false},{"type":"event","name":"UpdateMinimumWeight","inputs":[{"name":"oldMinimumWeight","type":"uint256","indexed":false,"internalType":"uint256"},{"name":"newMinimumWeight","type":"uint256","indexed":false,"internalType":"uint256"}],"anonymous":false},{"type":"error","name":"InsufficientSignedStake","inputs":[]},{"type":"error","name":"InsufficientWeight","inputs":[]},{"type":"error","name":"InvalidLength","inputs":[]},{"type":"error","name":"InvalidQuorum","inputs":[]},{"type":"error","name":"InvalidReferenceBlock","inputs":[]},{"type":"error","name":"InvalidSignature","inputs":[]},{"type":"error","name":"InvalidSignedWeight","inputs":[]},{"type":"error","name":"InvalidThreshold","inputs":[]},{"type":"error","name":"LengthMismatch","inputs":[]},{"type":"error","name":"MustUpdateAllOperators","inputs":[]},{"type":"error","name":"NotSorted","inputs":[]},{"type":"error","name":"OperatorAlreadyRegistered","inputs":[]},{"type":"error","name":"OperatorNotRegistered","inputs":[]}],"bytecode":{"object":"0x60a06040523480156200001157600080fd5b506040516200299538038062002995833981016040819052620000349162000046565b6001600160a01b031660805262000078565b6000602082840312156200005957600080fd5b81516001600160a01b03811681146200007157600080fd5b9392505050565b60805161290162000094600039600061071901526129016000f3fe608060405234801561001057600080fd5b50600436106101725760003560e01c8063696255be116100de57806398ec1ac911610097578063cdcd358111610071578063cdcd358114610315578063dec5d1f614610328578063ec7fbb311461033b578063f2fde38b1461037757600080fd5b806398ec1ac9146102e7578063ab118995146102fa578063b933fa741461030d57600080fd5b8063696255be1461028d578063715018a6146102a0578063743c31f4146102a8578063857dc190146102bb5780638da5cb5b146102c3578063955f2d90146102d457600080fd5b80633b242e4a116101305780633b242e4a1461020e5780633d5611f61461022157806340bf2fb7146102345780635140a5481461023c5780635e1042e81461024f5780635ef533291461027a57600080fd5b8062cf2ab5146101775780630dba33941461018c5780631626ba7e146101b25780631703a018146101de5780631e4cd85e146101f3578063314f3a4914610206575b600080fd5b61018a610185366004611dee565b61038a565b005b61019f61019a366004611e3c565b610396565b6040519081526020015b60405180910390f35b6101c56101c0366004611ed1565b6103b2565b6040516001600160e01b031990911681526020016101a9565b6101e66103f0565b6040516101a99190611f7a565b61019f610201366004611e3c565b610483565b61019f610499565b61019f61021c366004611f8d565b6104aa565b61018a61022f366004611faa565b6104cb565b60675461019f565b61018a61024a366004612057565b6104da565b61026261025d366004612120565b6104fd565b6040516001600160a01b0390911681526020016101a9565b61018a61028836600461214c565b610526565b61018a61029b366004612165565b610537565b61018a610551565b61018a6102b6366004611f8d565b610565565b61018a61059f565b6033546001600160a01b0316610262565b61019f6102e23660046121a1565b6105a8565b61019f6102f5366004611f8d565b6105d3565b61018a6103083660046122b0565b61083a565b61019f610956565b610262610323366004611f8d565b610962565b61018a610336366004612308565b610983565b610367610349366004611f8d565b6001600160a01b03166000908152606e602052604090205460ff1690565b60405190151581526020016101a9565b61018a610385366004611f8d565b610994565b61039381610a0a565b50565b60006103ac606b63ffffffff80851690610a6116565b92915050565b600080600080848060200190518101906103cc9190612458565b9250925092506103de86848484610b70565b50630b135d3f60e11b95945050505050565b6040805160208101909152606081526040805160668054602081810284018501855283018181529293919284929091849160009085015b8282101561047657600084815260209081902060408051808201909152908401546001600160a01b0381168252600160a01b90046001600160601b031681830152825260019092019101610427565b5050505081525050905090565b60006103ac606c63ffffffff80851690610a6116565b60006104a5606b610c2f565b905090565b6001600160a01b0381166000908152606d602052604081206103ac90610c2f565b6104d6338383610c8b565b5050565b6104d6826000815181106104f0576104f061252c565b6020026020010151610dc3565b6001600160a01b0382166000908152606a6020526040812061051f9083610a61565b9392505050565b61052e610de6565b61039381610e40565b61053f610de6565b61054882610e83565b6104d681610a0a565b610559610de6565b6105636000610ec9565b565b336000908152606e602052604090205460ff16610595576040516325ec6c1f60e01b815260040160405180910390fd5b6103933382610f1b565b61056333610fce565b6001600160a01b0382166000908152606d6020526040812061051f9063ffffffff80851690610a6116565b6000806066600001805480602002602001604051908101604052809291908181526020016000905b8282101561064a57600084815260209081902060408051808201909152908401546001600160a01b0381168252600160a01b90046001600160601b0316818301528252600190920191016105fb565b50505050905060008082516001600160401b0381111561066c5761066c611cb2565b604051908082528060200260200182016040528015610695578160200160208202803683370190505b50905060005b83518110156106fe578381815181106106b6576106b661252c565b6020026020010151600001518282815181106106d4576106d461252c565b6001600160a01b0390921660209283029190910190910152806106f681612558565b91505061069b565b50604051639004134760e01b81526000906001600160a01b037f000000000000000000000000000000000000000000000000000000000000000016906390041347906107509089908690600401612573565b600060405180830381865afa15801561076d573d6000803e3d6000fd5b505050506040513d6000823e601f3d908101601f1916820160405261079591908101906125cf565b905060005b845181101561080c578481815181106107b5576107b561252c565b6020026020010151602001516001600160601b03168282815181106107dc576107dc61252c565b60200260200101516107ee919061265f565b6107f8908561267e565b93508061080481612558565b91505061079a565b5061081961271084612696565b9250606754831061082e575090949350505050565b50600095945050505050565b600054610100900460ff161580801561085a5750600054600160ff909116105b806108745750303b158015610874575060005460ff166001145b6108dc5760405162461bcd60e51b815260206004820152602e60248201527f496e697469616c697a61626c653a20636f6e747261637420697320616c72656160448201526d191e481a5b9a5d1a585b1a5e995960921b60648201526084015b60405180910390fd5b6000805460ff1916600117905580156108ff576000805461ff0019166101001790555b61090a8484846110f1565b8015610950576000805461ff0019169055604051600181527f7f26b83ff96e1f2b6a682f133852f6798a09c465da95921460cefb38474024989060200160405180910390a15b50505050565b60006104a5606c610c2f565b6001600160a01b0381166000908152606a602052604081206103ac90610c2f565b61098b610de6565b61054882611152565b61099c610de6565b6001600160a01b038116610a015760405162461bcd60e51b815260206004820152602660248201527f4f776e61626c653a206e6577206f776e657220697320746865207a65726f206160448201526564647265737360d01b60648201526084016108d3565b61039381610ec9565b6000805b8251811015610a5757610a39838281518110610a2c57610a2c61252c565b60200260200101516112b1565b610a4390836126b8565b915080610a4f81612558565b915050610a0e565b50610950816113d4565b6000438210610ab25760405162461bcd60e51b815260206004820181905260248201527f436865636b706f696e74733a20626c6f636b206e6f7420796574206d696e656460448201526064016108d3565b825460005b81811015610b17576000610acb8284611440565b905084866000018281548110610ae357610ae361252c565b60009182526020909120015463ffffffff161115610b0357809250610b11565b610b0e81600161267e565b91505b50610ab7565b8115610b5b5784610b296001846126f9565b81548110610b3957610b3961252c565b60009182526020909120015464010000000090046001600160e01b0316610b5e565b60005b6001600160e01b031695945050505050565b600083519050600080600080610b8785885161145b565b60005b85811015610c1957888181518110610ba457610ba461252c565b60200260200101519450610bb8858861149c565b9250610bc484866114ef565b610be8838b8a8481518110610bdb57610bdb61252c565b6020026020010151611521565b8493506000610bf78689611552565b9050610c03818461267e565b9250508080610c1190612558565b915050610b8a565b50610c2481876115a5565b505050505050505050565b80546000908015610c785782610c466001836126f9565b81548110610c5657610c5661252c565b60009182526020909120015464010000000090046001600160e01b0316610c7b565b60005b6001600160e01b03169392505050565b6001600160a01b0383166000908152606e602052604090205460ff1615610cc5576040516342ee68b560e01b815260040160405180910390fd5b60658054906000610cd583612558565b90915550506001600160a01b0383166000908152606e60205260408120805460ff19166001179055610d06846112b1565b9050610d11816113d4565b5050610d1d8483610f1b565b606854604051639926ee7d60e01b81526001600160a01b0390911690639926ee7d90610d4f908790879060040161273c565b600060405180830381600087803b158015610d6957600080fd5b505af1158015610d7d573d6000803e3d6000fd5b50506068546040516001600160a01b03918216935090871691507fa453db612af59e5521d6ab9284dc3e2d06af286eb1b1b7b771fce4716c19f2c190600090a350505050565b60655481511461038a5760405163169efb5b60e11b815260040160405180910390fd5b6033546001600160a01b031633146105635760405162461bcd60e51b815260206004820181905260248201527f4f776e61626c653a2063616c6c6572206973206e6f7420746865206f776e657260448201526064016108d3565b610e4b606c82611601565b50506040518181527f9324f7e5a7c0288808a634ccde44b8e979676474b22e29ee9dd569b55e791a4b9060200160405180910390a150565b606780549082905560408051828152602081018490527f713ca53b88d6eb63f5b1854cb8cbdd736ec51eda225e46791aa9298b0160648f91015b60405180910390a15050565b603380546001600160a01b038381166001600160a01b0319831681179093556040519116919082907f8be0079c531659141344cd1fd0a4f28419497f9722a3daafe3b4186f6b6457e090600090a35050565b6001600160a01b0382166000908152606a60205260408120610f3c90610c2f565b9050806001600160a01b0316826001600160a01b03161415610f5d57505050565b6001600160a01b038381166000908152606a60205260409020610f81918416611601565b50506040516001600160a01b0382811682528084169143918616907fd061168252f441733658f09e4d8f5b2d998ed4ef24a2bbfd6ceca52ea13150029060200160405180910390a4505050565b6001600160a01b0381166000908152606e602052604090205460ff16611007576040516325ec6c1f60e01b815260040160405180910390fd5b6065805490600061101783612787565b90915550506001600160a01b0381166000908152606e60205260408120805460ff19169055611045826112b1565b9050611050816113d4565b50506068546040516351b27a6d60e11b81526001600160a01b0384811660048301529091169063a364f4da90602401600060405180830381600087803b15801561109957600080fd5b505af11580156110ad573d6000803e3d6000fd5b50506068546040516001600160a01b03918216935090851691507f31e0adfec71bccee37b6e83a90c2fedb17d8f1693fee863c4771e7bfe2aed58090600090a35050565b600054610100900460ff166111185760405162461bcd60e51b81526004016108d39061279e565b606880546001600160a01b0319166001600160a01b03851617905561113c82610e40565b61114581611152565b61114d61172c565b505050565b61115b8161175b565b6111785760405163d173577960e01b815260040160405180910390fd5b60408051606680546020818102840185018552830181815260009484928491879085015b828210156111eb57600084815260209081902060408051808201909152908401546001600160a01b0381168252600160a01b90046001600160601b03168183015282526001909201910161119c565b5050509152509091506066905060006112048282611c84565b505060005b82515181101561127f5782518051606691908390811061122b5761122b61252c565b6020908102919091018101518254600181018455600093845292829020815191909201516001600160601b0316600160a01b026001600160a01b03909116179101558061127781612558565b915050611209565b507f23aad4e61744ece164130aa415c1616e80136b0f0770e56589438b90b269265e8183604051610ebd9291906127e9565b6001600160a01b0381166000908152606d602052604081208190819081906112d890610c2f565b6001600160a01b0386166000908152606e602052604090205490915060ff1661133d576113058184612817565b9250826113155750909392505050565b6001600160a01b0385166000908152606d6020526040812061133691611601565b5050611387565b611346856105d3565b91506113528183612817565b9250826113625750909392505050565b6001600160a01b0385166000908152606d602052604090206113849083611601565b50505b60408051828152602081018490526001600160a01b038716917f88770dc862e47a7ed586907857eb1b75e4c5ffc8b707c7ee10eb74d6885fe594910160405180910390a250909392505050565b6000806113e1606b610c2f565b915060006113ef84846126b8565b91508190506113ff606b82611601565b505060408051848152602081018490527f86dcf86b12dfeedea74ae9300dbdaa193bcce5809369c8177ea2f4eaaa65729b910160405180910390a150915091565b600061144f6002848418612696565b61051f9084841661267e565b80821461147e576040516001621398b960e31b0319815260040160405180910390fd5b816104d65760405163251f56a160e21b815260040160405180910390fd5b6000438263ffffffff16106114c45760405163e64f180f60e01b815260040160405180910390fd5b6001600160a01b0383166000908152606a6020526040902061051f9063ffffffff80851690610a6116565b806001600160a01b0316826001600160a01b0316106104d65760405163ba50f91160e01b815260040160405180910390fd5b6115356001600160a01b038416838361182b565b61114d57604051638baa579f60e01b815260040160405180910390fd5b6000438263ffffffff161061157a5760405163e64f180f60e01b815260040160405180910390fd5b6001600160a01b0383166000908152606d6020526040902061051f9063ffffffff80851690610a6116565b60006115b082611977565b9050808311156115d357604051634b05a0f760e11b815260040160405180910390fd5b60006115de836119b3565b9050838111156109505760405163e121632f60e01b815260040160405180910390fd5b815460009081908161161286610c2f565b90506000821180156116505750438661162c6001856126f9565b8154811061163c5761163c61252c565b60009182526020909120015463ffffffff16145b156116b05761165e856119ef565b8661166a6001856126f9565b8154811061167a5761167a61252c565b9060005260206000200160000160046101000a8154816001600160e01b0302191690836001600160e01b0316021790555061171e565b8560000160405180604001604052806116c843611a5c565b63ffffffff1681526020016116dc886119ef565b6001600160e01b0390811690915282546001810184556000938452602093849020835194909301519091166401000000000263ffffffff909316929092179101555b9250839150505b9250929050565b600054610100900460ff166117535760405162461bcd60e51b81526004016108d39061279e565b610563611ac1565b8051600090818080805b8451811015611809578481815181106117805761178061252c565b6020026020010151600001519250826001600160a01b0316846001600160a01b0316106117c05760405163ba50f91160e01b815260040160405180910390fd5b8293508481815181106117d5576117d561252c565b6020026020010151602001516001600160601b0316826117f5919061267e565b91508061180181612558565b915050611765565b50612710811461181f5750600095945050505050565b50600195945050505050565b600080600061183a8585611af1565b9092509050600081600481111561185357611853612856565b1480156118715750856001600160a01b0316826001600160a01b0316145b156118815760019250505061051f565b600080876001600160a01b0316631626ba7e60e01b88886040516024016118a992919061286c565b60408051601f198184030181529181526020820180516001600160e01b03166001600160e01b03199094169390931790925290516118e79190612885565b600060405180830381855afa9150503d8060008114611922576040519150601f19603f3d011682016040523d82523d6000602084013e611927565b606091505b509150915081801561193a575080516020145b801561196b57508051630b135d3f60e11b9061195f90830160209081019084016128a1565b6001600160e01b031916145b98975050505050505050565b6000438263ffffffff161061199f5760405163e64f180f60e01b815260040160405180910390fd5b6103ac606b63ffffffff80851690610a6116565b6000438263ffffffff16106119db5760405163e64f180f60e01b815260040160405180910390fd5b6103ac606c63ffffffff80851690610a6116565b60006001600160e01b03821115611a585760405162461bcd60e51b815260206004820152602760248201527f53616665436173743a2076616c756520646f65736e27742066697420696e20326044820152663234206269747360c81b60648201526084016108d3565b5090565b600063ffffffff821115611a585760405162461bcd60e51b815260206004820152602660248201527f53616665436173743a2076616c756520646f65736e27742066697420696e203360448201526532206269747360d01b60648201526084016108d3565b600054610100900460ff16611ae85760405162461bcd60e51b81526004016108d39061279e565b61056333610ec9565b600080825160411415611b285760208301516040840151606085015160001a611b1c87828585611b5e565b94509450505050611725565b825160401415611b525760208301516040840151611b47868383611c4b565b935093505050611725565b50600090506002611725565b6000807f7fffffffffffffffffffffffffffffff5d576e7357a4501ddfe92f46681b20a0831115611b955750600090506003611c42565b8460ff16601b14158015611bad57508460ff16601c14155b15611bbe5750600090506004611c42565b6040805160008082526020820180845289905260ff881692820192909252606081018690526080810185905260019060a0016020604051602081039080840390855afa158015611c12573d6000803e3d6000fd5b5050604051601f1901519150506001600160a01b038116611c3b57600060019250925050611c42565b9150600090505b94509492505050565b6000806001600160ff1b03831681611c6860ff86901c601b61267e565b9050611c7687828885611b5e565b935093505050935093915050565b508054600082559060005260206000209081019061039391905b80821115611a585760008155600101611c9e565b634e487b7160e01b600052604160045260246000fd5b604051602081016001600160401b0381118282101715611cea57611cea611cb2565b60405290565b604080519081016001600160401b0381118282101715611cea57611cea611cb2565b604051601f8201601f191681016001600160401b0381118282101715611d3a57611d3a611cb2565b604052919050565b60006001600160401b03821115611d5b57611d5b611cb2565b5060051b60200190565b6001600160a01b038116811461039357600080fd5b600082601f830112611d8b57600080fd5b81356020611da0611d9b83611d42565b611d12565b82815260059290921b84018101918181019086841115611dbf57600080fd5b8286015b84811015611de3578035611dd681611d65565b8352918301918301611dc3565b509695505050505050565b600060208284031215611e0057600080fd5b81356001600160401b03811115611e1657600080fd5b611e2284828501611d7a565b949350505050565b63ffffffff8116811461039357600080fd5b600060208284031215611e4e57600080fd5b813561051f81611e2a565b60006001600160401b03821115611e7257611e72611cb2565b50601f01601f191660200190565b600082601f830112611e9157600080fd5b8135611e9f611d9b82611e59565b818152846020838601011115611eb457600080fd5b816020850160208301376000918101602001919091529392505050565b60008060408385031215611ee457600080fd5b8235915060208301356001600160401b03811115611f0157600080fd5b611f0d85828601611e80565b9150509250929050565b8051602080845281518482018190526000926040919083019082870190855b81811015611f6d57835180516001600160a01b031684528601516001600160601b0316868401529285019291840191600101611f36565b5090979650505050505050565b60208152600061051f6020830184611f17565b600060208284031215611f9f57600080fd5b813561051f81611d65565b60008060408385031215611fbd57600080fd5b82356001600160401b0380821115611fd457600080fd5b9084019060608287031215611fe857600080fd5b60405160608101818110838211171561200357612003611cb2565b60405282358281111561201557600080fd5b61202188828601611e80565b8252506020830135602082015260408301356040820152809450505050602083013561204c81611d65565b809150509250929050565b6000806040838503121561206a57600080fd5b82356001600160401b038082111561208157600080fd5b818501915085601f83011261209557600080fd5b813560206120a5611d9b83611d42565b82815260059290921b840181019181810190898411156120c457600080fd5b8286015b848110156120fc578035868111156120e05760008081fd5b6120ee8c86838b0101611d7a565b8452509183019183016120c8565b509650508601359250508082111561211357600080fd5b50611f0d85828601611e80565b6000806040838503121561213357600080fd5b823561213e81611d65565b946020939093013593505050565b60006020828403121561215e57600080fd5b5035919050565b6000806040838503121561217857600080fd5b8235915060208301356001600160401b0381111561219557600080fd5b611f0d85828601611d7a565b600080604083850312156121b457600080fd5b82356121bf81611d65565b9150602083013561204c81611e2a565b600060208083850312156121e257600080fd5b6121ea611cc8565b915082356001600160401b0381111561220257600080fd5b8301601f8101851361221357600080fd5b8035612221611d9b82611d42565b81815260069190911b8201830190838101908783111561224057600080fd5b928401925b828410156122a3576040848903121561225e5760008081fd5b612266611cf0565b843561227181611d65565b8152848601356001600160601b038116811461228d5760008081fd5b8187015282526040939093019290840190612245565b8552509295945050505050565b6000806000606084860312156122c557600080fd5b83356122d081611d65565b92506020840135915060408401356001600160401b038111156122f257600080fd5b6122fe868287016121cf565b9150509250925092565b6000806040838503121561231b57600080fd5b82356001600160401b038082111561233257600080fd5b61233e868387016121cf565b9350602085013591508082111561235457600080fd5b50611f0d85828601611d7a565b60005b8381101561237c578181015183820152602001612364565b838111156109505750506000910152565b600082601f83011261239e57600080fd5b815160206123ae611d9b83611d42565b82815260059290921b840181019181810190868411156123cd57600080fd5b8286015b84811015611de35780516001600160401b038111156123f05760008081fd5b8701603f810189136124025760008081fd5b848101516040612414611d9b83611e59565b8281528b828486010111156124295760008081fd5b61243883898301848701612361565b86525050509183019183016123d1565b805161245381611e2a565b919050565b60008060006060848603121561246d57600080fd5b83516001600160401b038082111561248457600080fd5b818601915086601f83011261249857600080fd5b815160206124a8611d9b83611d42565b82815260059290921b8401810191818101908a8411156124c757600080fd5b948201945b838610156124ee5785516124df81611d65565b825294820194908201906124cc565b9189015191975090935050508082111561250757600080fd5b506125148682870161238d565b92505061252360408501612448565b90509250925092565b634e487b7160e01b600052603260045260246000fd5b634e487b7160e01b600052601160045260246000fd5b600060001982141561256c5761256c612542565b5060010190565b6001600160a01b038381168252604060208084018290528451918401829052600092858201929091906060860190855b818110156125c15785518516835294830194918301916001016125a3565b509098975050505050505050565b600060208083850312156125e257600080fd5b82516001600160401b038111156125f857600080fd5b8301601f8101851361260957600080fd5b8051612617611d9b82611d42565b81815260059190911b8201830190838101908783111561263657600080fd5b928401925b828410156126545783518252928401929084019061263b565b979650505050505050565b600081600019048311821515161561267957612679612542565b500290565b6000821982111561269157612691612542565b500190565b6000826126b357634e487b7160e01b600052601260045260246000fd5b500490565b600080821280156001600160ff1b03849003851316156126da576126da612542565b600160ff1b83900384128116156126f3576126f3612542565b50500190565b60008282101561270b5761270b612542565b500390565b60008151808452612728816020860160208601612361565b601f01601f19169290920160200192915050565b60018060a01b038316815260406020820152600082516060604084015261276660a0840182612710565b90506020840151606084015260408401516080840152809150509392505050565b60008161279657612796612542565b506000190190565b6020808252602b908201527f496e697469616c697a61626c653a20636f6e7472616374206973206e6f74206960408201526a6e697469616c697a696e6760a81b606082015260800190565b6040815260006127fc6040830185611f17565b828103602084015261280e8185611f17565b95945050505050565b60008083128015600160ff1b85018412161561283557612835612542565b6001600160ff1b038401831381161561285057612850612542565b50500390565b634e487b7160e01b600052602160045260246000fd5b828152604060208201526000611e226040830184612710565b60008251612897818460208701612361565b9190910192915050565b6000602082840312156128b357600080fd5b81516001600160e01b03198116811461051f57600080fdfea2646970667358221220ef7bf5b07b70e9b0fed8389cab737904693281ccd9b84942e9c8b1c4bed92c6464736f6c634300080c0033","linkReferences":{}},"methodIdentifiers":{"deregisterOperator()":"857dc190","getLastCheckpointOperatorWeight(address)":"3b242e4a","getLastCheckpointThresholdWeight()":"b933fa74","getLastCheckpointThresholdWeightAtBlock(uint32)":"1e4cd85e","getLastCheckpointTotalWeight()":"314f3a49","getLastCheckpointTotalWeightAtBlock(uint32)":"0dba3394","getLastestOperatorSigningKey(address)":"cdcd3581","getOperatorSigningKeyAtBlock(address,uint256)":"5e1042e8","getOperatorWeight(address)":"98ec1ac9","getOperatorWeightAtBlock(address,uint32)":"955f2d90","initialize(address,uint256,((address,uint96)[]))":"ab118995","isValidSignature(bytes32,bytes)":"1626ba7e","minimumWeight()":"40bf2fb7","operatorRegistered(address)":"ec7fbb31","owner()":"8da5cb5b","quorum()":"1703a018","registerOperatorWithSignature((bytes,bytes32,uint256),address)":"3d5611f6","renounceOwnership()":"715018a6","transferOwnership(address)":"f2fde38b","updateMinimumWeight(uint256,address[])":"696255be","updateOperatorSigningKey(address)":"743c31f4","updateOperators(address[])":"00cf2ab5","updateOperatorsForQuorum(address[][],bytes)":"5140a548","updateQuorumConfig(((address,uint96)[]),address[])":"dec5d1f6","updateStakeThreshold(uint256)":"5ef53329"},"id":130}