{"abi":[{"type":"constructor","inputs":[{"name":"_delegationManager","type":"address","internalType":"contract IDelegationManager"}],"stateMutability":"nonpayable"},{"type":"function","name":"deregisterOperator","inputs":[],"outputs":[],"stateMutability":"nonpayable"},{"type":"function","name":"getLastCheckpointOperatorWeight","inputs":[{"name":"_operator","type":"address","internalType":"address"}],"outputs":[{"name":"","type":"uint256","internalType":"uint256"}],"stateMutability":"view"},{"type":"function","name":"getLastCheckpointThresholdWeight","inputs":[],"outputs":[{"name":"","type":"uint256","internalType":"uint256"}],"stateMutability":"view"},{"type":"function","name":"getLastCheckpointThresholdWeightAtBlock","inputs":[{"name":"_blockNumber","type":"uint32","internalType":"uint32"}],"outputs":[{"name":"","type":"uint256","internalType":"uint256"}],"stateMutability":"view"},{"type":"function","name":"getLastCheckpointTotalWeight","inputs":[],"outputs":[{"name":"","type":"uint256","internalType":"uint256"}],"stateMutability":"view"},{"type":"function","name":"getLastCheckpointTotalWeightAtBlock","inputs":[{"name":"_blockNumber","type":"uint32","internalType":"uint32"}],"outputs":[{"name":"","type":"uint256","internalType":"uint256"}],"stateMutability":"view"},{"type":"function","name":"getOperatorWeight","inputs":[{"name":"_operator","type":"address","internalType":"address"}],"outputs":[{"name":"","type":"uint256","internalType":"uint256"}],"stateMutability":"view"},{"type":"function","name":"getOperatorWeightAtBlock","inputs":[{"name":"_operator","type":"address","internalType":"address"},{"name":"_blockNumber","type":"uint32","internalType":"uint32"}],"outputs":[{"name":"","type":"uint256","internalType":"uint256"}],"stateMutability":"view"},{"type":"function","name":"initialize","inputs":[{"name":"_serviceManager","type":"address","internalType":"address"},{"name":"_thresholdWeight","type":"uint256","internalType":"uint256"},{"name":"_quorum","type":"tuple","internalType":"struct Quorum","components":[{"name":"strategies","type":"tuple[]","internalType":"struct StrategyParams[]","components":[{"name":"strategy","type":"address","internalType":"contract IStrategy"},{"name":"multiplier","type":"uint96","internalType":"uint96"}]}]}],"outputs":[],"stateMutability":"nonpayable"},{"type":"function","name":"isValidSignature","inputs":[{"name":"_dataHash","type":"bytes32","internalType":"bytes32"},{"name":"_signatureData","type":"bytes","internalType":"bytes"}],"outputs":[{"name":"","type":"bytes4","internalType":"bytes4"}],"stateMutability":"view"},{"type":"function","name":"minimumWeight","inputs":[],"outputs":[{"name":"","type":"uint256","internalType":"uint256"}],"stateMutability":"view"},{"type":"function","name":"operatorRegistered","inputs":[{"name":"_operator","type":"address","internalType":"address"}],"outputs":[{"name":"","type":"bool","internalType":"bool"}],"stateMutability":"view"},{"type":"function","name":"owner","inputs":[],"outputs":[{"name":"","type":"address","internalType":"address"}],"stateMutability":"view"},{"type":"function","name":"quorum","inputs":[],"outputs":[{"name":"","type":"tuple","internalType":"struct Quorum","components":[{"name":"strategies","type":"tuple[]","internalType":"struct StrategyParams[]","components":[{"name":"strategy","type":"address","internalType":"contract IStrategy"},{"name":"multiplier","type":"uint96","internalType":"uint96"}]}]}],"stateMutability":"view"},{"type":"function","name":"registerOperatorWithSignature","inputs":[{"name":"_operator","type":"address","internalType":"address"},{"name":"_operatorSignature","type":"tuple","internalType":"struct ISignatureUtils.SignatureWithSaltAndExpiry","components":[{"name":"signature","type":"bytes","internalType":"bytes"},{"name":"salt","type":"bytes32","internalType":"bytes32"},{"name":"expiry","type":"uint256","internalType":"uint256"}]}],"outputs":[],"stateMutability":"nonpayable"},{"type":"function","name":"renounceOwnership","inputs":[],"outputs":[],"stateMutability":"nonpayable"},{"type":"function","name":"transferOwnership","inputs":[{"name":"newOwner","type":"address","internalType":"address"}],"outputs":[],"stateMutability":"nonpayable"},{"type":"function","name":"updateMinimumWeight","inputs":[{"name":"_newMinimumWeight","type":"uint256","internalType":"uint256"},{"name":"_operators","type":"address[]","internalType":"address[]"}],"outputs":[],"stateMutability":"nonpayable"},{"type":"function","name":"updateOperators","inputs":[{"name":"_operators","type":"address[]","internalType":"address[]"}],"outputs":[],"stateMutability":"nonpayable"},{"type":"function","name":"updateOperatorsForQuorum","inputs":[{"name":"operatorsPerQuorum","type":"address[][]","internalType":"address[][]"},{"name":"","type":"bytes","internalType":"bytes"}],"outputs":[],"stateMutability":"nonpayable"},{"type":"function","name":"updateQuorumConfig","inputs":[{"name":"_quorum","type":"tuple","internalType":"struct Quorum","components":[{"name":"strategies","type":"tuple[]","internalType":"struct StrategyParams[]","components":[{"name":"strategy","type":"address","internalType":"contract IStrategy"},{"name":"multiplier","type":"uint96","internalType":"uint96"}]}]},{"name":"_operators","type":"address[]","internalType":"address[]"}],"outputs":[],"stateMutability":"nonpayable"},{"type":"function","name":"updateStakeThreshold","inputs":[{"name":"_thresholdWeight","type":"uint256","internalType":"uint256"}],"outputs":[],"stateMutability":"nonpayable"},{"type":"event","name":"Initialized","inputs":[{"name":"version","type":"uint8","indexed":false,"internalType":"uint8"}],"anonymous":false},{"type":"event","name":"MinimumWeightUpdated","inputs":[{"name":"_old","type":"uint256","indexed":false,"internalType":"uint256"},{"name":"_new","type":"uint256","indexed":false,"internalType":"uint256"}],"anonymous":false},{"type":"event","name":"OperatorDeregistered","inputs":[{"name":"_operator","type":"address","indexed":true,"internalType":"address"},{"name":"_avs","type":"address","indexed":true,"internalType":"address"}],"anonymous":false},{"type":"event","name":"OperatorRegistered","inputs":[{"name":"_operator","type":"address","indexed":true,"internalType":"address"},{"name":"_avs","type":"address","indexed":true,"internalType":"address"}],"anonymous":false},{"type":"event","name":"OperatorWeightUpdated","inputs":[{"name":"_operator","type":"address","indexed":true,"internalType":"address"},{"name":"oldWeight","type":"uint256","indexed":false,"internalType":"uint256"},{"name":"newWeight","type":"uint256","indexed":false,"internalType":"uint256"}],"anonymous":false},{"type":"event","name":"OwnershipTransferred","inputs":[{"name":"previousOwner","type":"address","indexed":true,"internalType":"address"},{"name":"newOwner","type":"address","indexed":true,"internalType":"address"}],"anonymous":false},{"type":"event","name":"QuorumUpdated","inputs":[{"name":"_old","type":"tuple","indexed":false,"internalType":"struct Quorum","components":[{"name":"strategies","type":"tuple[]","internalType":"struct StrategyParams[]","components":[{"name":"strategy","type":"address","internalType":"contract IStrategy"},{"name":"multiplier","type":"uint96","internalType":"uint96"}]}]},{"name":"_new","type":"tuple","indexed":false,"internalType":"struct Quorum","components":[{"name":"strategies","type":"tuple[]","internalType":"struct StrategyParams[]","components":[{"name":"strategy","type":"address","internalType":"contract IStrategy"},{"name":"multiplier","type":"uint96","internalType":"uint96"}]}]}],"anonymous":false},{"type":"event","name":"ThresholdWeightUpdated","inputs":[{"name":"_thresholdWeight","type":"uint256","indexed":false,"internalType":"uint256"}],"anonymous":false},{"type":"event","name":"TotalWeightUpdated","inputs":[{"name":"oldTotalWeight","type":"uint256","indexed":false,"internalType":"uint256"},{"name":"newTotalWeight","type":"uint256","indexed":false,"internalType":"uint256"}],"anonymous":false},{"type":"event","name":"UpdateMinimumWeight","inputs":[{"name":"oldMinimumWeight","type":"uint256","indexed":false,"internalType":"uint256"},{"name":"newMinimumWeight","type":"uint256","indexed":false,"internalType":"uint256"}],"anonymous":false},{"type":"error","name":"InsufficientSignedStake","inputs":[]},{"type":"error","name":"InsufficientWeight","inputs":[]},{"type":"error","name":"InvalidLength","inputs":[]},{"type":"error","name":"InvalidQuorum","inputs":[]},{"type":"error","name":"InvalidSignature","inputs":[]},{"type":"error","name":"InvalidSignedWeight","inputs":[]},{"type":"error","name":"InvalidThreshold","inputs":[]},{"type":"error","name":"LengthMismatch","inputs":[]},{"type":"error","name":"MustUpdateAllOperators","inputs":[]},{"type":"error","name":"NotSorted","inputs":[]},{"type":"error","name":"OperatorAlreadyRegistered","inputs":[]},{"type":"error","name":"OperatorNotRegistered","inputs":[]}],"bytecode":{"object":"0x60a06040523480156200001157600080fd5b506040516200275138038062002751833981016040819052620000349162000046565b6001600160a01b031660805262000078565b6000602082840312156200005957600080fd5b81516001600160a01b03811681146200007157600080fd5b9392505050565b6080516126bd62000094600039600061064401526126bd6000f3fe608060405234801561001057600080fd5b50600436106101415760003560e01c8063696255be116100b857806398ec1ac91161007c57806398ec1ac914610282578063ab11899514610295578063b933fa74146102a8578063dec5d1f6146102b0578063ec7fbb31146102c3578063f2fde38b146102ff57600080fd5b8063696255be14610231578063715018a614610244578063857dc1901461024c5780638da5cb5b14610254578063955f2d901461026f57600080fd5b80631e4cd85e1161010a5780631e4cd85e146101d5578063314f3a49146101e85780633b242e4a146101f057806340bf2fb7146102035780635140a5481461020b5780635ef533291461021e57600080fd5b8062cf2ab5146101465780630a601a121461015b5780630dba33941461016e5780631626ba7e146101945780631703a018146101c0575b600080fd5b610159610154366004611bd2565b610312565b005b610159610169366004611c86565b61031e565b61018161017c366004611d43565b61032c565b6040519081526020015b60405180910390f35b6101a76101a2366004611d60565b610348565b6040516001600160e01b0319909116815260200161018b565b6101c8610386565b60405161018b9190611e09565b6101816101e3366004611d43565b610419565b61018161042f565b6101816101fe366004611e1c565b610440565b606754610181565b610159610219366004611e39565b610461565b61015961022c366004611f02565b610484565b61015961023f366004611f1b565b610495565b6101596104af565b6101596104c3565b6033546040516001600160a01b03909116815260200161018b565b61018161027d366004611f57565b6104cc565b610181610290366004611e1c565b6104fe565b6101596102a3366004612071565b610765565b610181610881565b6101596102be3660046120c9565b61088d565b6102ef6102d1366004611e1c565b6001600160a01b03166000908152606d602052604090205460ff1690565b604051901515815260200161018b565b61015961030d366004611e1c565b61089e565b61031b81610914565b50565b610328828261096b565b5050565b6000610342606a63ffffffff80851690610a9816565b92915050565b600080600080848060200190518101906103629190612214565b92509250925061037486848484610ba7565b50630b135d3f60e11b95945050505050565b6040805160208101909152606081526040805160668054602081810284018501855283018181529293919284929091849160009085015b8282101561040c57600084815260209081902060408051808201909152908401546001600160a01b0381168252600160a01b90046001600160601b0316818301528252600190920191016103bd565b5050505081525050905090565b6000610342606b63ffffffff80851690610a9816565b600061043b606a610c58565b905090565b6001600160a01b0381166000908152606c6020526040812061034290610c58565b61032882600081518110610477576104776122e8565b6020026020010151610cb4565b61048c610cd7565b61031b81610d31565b61049d610cd7565b6104a682610d74565b61032881610914565b6104b7610cd7565b6104c16000610dba565b565b6104c133610e0c565b6001600160a01b0382166000908152606c602052604081206104f79063ffffffff80851690610a9816565b9392505050565b6000806066600001805480602002602001604051908101604052809291908181526020016000905b8282101561057557600084815260209081902060408051808201909152908401546001600160a01b0381168252600160a01b90046001600160601b031681830152825260019092019101610526565b50505050905060008082516001600160401b0381111561059757610597611a96565b6040519080825280602002602001820160405280156105c0578160200160208202803683370190505b50905060005b8351811015610629578381815181106105e1576105e16122e8565b6020026020010151600001518282815181106105ff576105ff6122e8565b6001600160a01b03909216602092830291909101909101528061062181612314565b9150506105c6565b50604051639004134760e01b81526000906001600160a01b037f0000000000000000000000000000000000000000000000000000000000000000169063900413479061067b908990869060040161232f565b600060405180830381865afa158015610698573d6000803e3d6000fd5b505050506040513d6000823e601f3d908101601f191682016040526106c0919081019061238b565b905060005b8451811015610737578481815181106106e0576106e06122e8565b6020026020010151602001516001600160601b0316828281518110610707576107076122e8565b6020026020010151610719919061241b565b610723908561243a565b93508061072f81612314565b9150506106c5565b5061074461271084612452565b92506067548310610759575090949350505050565b50600095945050505050565b600054610100900460ff16158080156107855750600054600160ff909116105b8061079f5750303b15801561079f575060005460ff166001145b6108075760405162461bcd60e51b815260206004820152602e60248201527f496e697469616c697a61626c653a20636f6e747261637420697320616c72656160448201526d191e481a5b9a5d1a585b1a5e995960921b60648201526084015b60405180910390fd5b6000805460ff19166001179055801561082a576000805461ff0019166101001790555b610835848484610f2f565b801561087b576000805461ff0019169055604051600181527f7f26b83ff96e1f2b6a682f133852f6798a09c465da95921460cefb38474024989060200160405180910390a15b50505050565b600061043b606b610c58565b610895610cd7565b6104a682610f90565b6108a6610cd7565b6001600160a01b03811661090b5760405162461bcd60e51b815260206004820152602660248201527f4f776e61626c653a206e6577206f776e657220697320746865207a65726f206160448201526564647265737360d01b60648201526084016107fe565b61031b81610dba565b6000805b825181101561096157610943838281518110610936576109366122e8565b60200260200101516110ef565b61094d9083612474565b91508061095981612314565b915050610918565b5061087b81611212565b6001600160a01b0382166000908152606d602052604090205460ff16156109a5576040516342ee68b560e01b815260040160405180910390fd5b606580549060006109b583612314565b90915550506001600160a01b0382166000908152606d60205260408120805460ff191660011790556109e6836110ef565b90506109f181611212565b5050606854604051639926ee7d60e01b81526001600160a01b0390911690639926ee7d90610a2590869086906004016124e1565b600060405180830381600087803b158015610a3f57600080fd5b505af1158015610a53573d6000803e3d6000fd5b50506068546040516001600160a01b03918216935090861691507fa453db612af59e5521d6ab9284dc3e2d06af286eb1b1b7b771fce4716c19f2c190600090a3505050565b6000438210610ae95760405162461bcd60e51b815260206004820181905260248201527f436865636b706f696e74733a20626c6f636b206e6f7420796574206d696e656460448201526064016107fe565b825460005b81811015610b4e576000610b02828461127e565b905084866000018281548110610b1a57610b1a6122e8565b60009182526020909120015463ffffffff161115610b3a57809250610b48565b610b4581600161243a565b91505b50610aee565b8115610b925784610b6060018461252c565b81548110610b7057610b706122e8565b60009182526020909120015464010000000090046001600160e01b0316610b95565b60005b6001600160e01b031695945050505050565b600083519050600080610bbb838651611299565b60005b83811015610c44576000878281518110610bda57610bda6122e8565b60200260200101519050610bee84826112da565b610c12818a898581518110610c0557610c056122e8565b602002602001015161130c565b8093506000610c21828861133d565b9050610c2d818561243a565b935050508080610c3c90612314565b915050610bbe565b50610c4f81856113a0565b50505050505050565b80546000908015610ca15782610c6f60018361252c565b81548110610c7f57610c7f6122e8565b60009182526020909120015464010000000090046001600160e01b0316610ca4565b60005b6001600160e01b03169392505050565b6065548151146103125760405163169efb5b60e11b815260040160405180910390fd5b6033546001600160a01b031633146104c15760405162461bcd60e51b815260206004820181905260248201527f4f776e61626c653a2063616c6c6572206973206e6f7420746865206f776e657260448201526064016107fe565b610d3c606b826113fc565b50506040518181527f9324f7e5a7c0288808a634ccde44b8e979676474b22e29ee9dd569b55e791a4b9060200160405180910390a150565b606780549082905560408051828152602081018490527f713ca53b88d6eb63f5b1854cb8cbdd736ec51eda225e46791aa9298b0160648f91015b60405180910390a15050565b603380546001600160a01b038381166001600160a01b0319831681179093556040519116919082907f8be0079c531659141344cd1fd0a4f28419497f9722a3daafe3b4186f6b6457e090600090a35050565b6001600160a01b0381166000908152606d602052604090205460ff16610e45576040516325ec6c1f60e01b815260040160405180910390fd5b60658054906000610e5583612543565b90915550506001600160a01b0381166000908152606d60205260408120805460ff19169055610e83826110ef565b9050610e8e81611212565b50506068546040516351b27a6d60e11b81526001600160a01b0384811660048301529091169063a364f4da90602401600060405180830381600087803b158015610ed757600080fd5b505af1158015610eeb573d6000803e3d6000fd5b50506068546040516001600160a01b03918216935090851691507f31e0adfec71bccee37b6e83a90c2fedb17d8f1693fee863c4771e7bfe2aed58090600090a35050565b600054610100900460ff16610f565760405162461bcd60e51b81526004016107fe9061255a565b606880546001600160a01b0319166001600160a01b038516179055610f7a82610d31565b610f8381610f90565b610f8b611527565b505050565b610f9981611556565b610fb65760405163d173577960e01b815260040160405180910390fd5b60408051606680546020818102840185018552830181815260009484928491879085015b8282101561102957600084815260209081902060408051808201909152908401546001600160a01b0381168252600160a01b90046001600160601b031681830152825260019092019101610fda565b5050509152509091506066905060006110428282611a68565b505060005b8251518110156110bd57825180516066919083908110611069576110696122e8565b6020908102919091018101518254600181018455600093845292829020815191909201516001600160601b0316600160a01b026001600160a01b0390911617910155806110b581612314565b915050611047565b507f23aad4e61744ece164130aa415c1616e80136b0f0770e56589438b90b269265e8183604051610dae9291906125a5565b6001600160a01b0381166000908152606c6020526040812081908190819061111690610c58565b6001600160a01b0386166000908152606d602052604090205490915060ff1661117b5761114381846125d3565b9250826111535750909392505050565b6001600160a01b0385166000908152606c60205260408120611174916113fc565b50506111c5565b611184856104fe565b915061119081836125d3565b9250826111a05750909392505050565b6001600160a01b0385166000908152606c602052604090206111c290836113fc565b50505b60408051828152602081018490526001600160a01b038716917f88770dc862e47a7ed586907857eb1b75e4c5ffc8b707c7ee10eb74d6885fe594910160405180910390a250909392505050565b60008061121f606a610c58565b9150600061122d8484612474565b915081905061123d606a826113fc565b505060408051848152602081018490527f86dcf86b12dfeedea74ae9300dbdaa193bcce5809369c8177ea2f4eaaa65729b910160405180910390a150915091565b600061128d6002848418612452565b6104f79084841661243a565b8082146112bc576040516001621398b960e31b0319815260040160405180910390fd5b816103285760405163251f56a160e21b815260040160405180910390fd5b806001600160a01b0316826001600160a01b0316106103285760405163ba50f91160e01b815260040160405180910390fd5b6113206001600160a01b0384168383611626565b610f8b57604051638baa579f60e01b815260040160405180910390fd5b600063ffffffff8281161415611375576001600160a01b0383166000908152606c6020526040902061136e90610c58565b9050610342565b6001600160a01b0383166000908152606c6020526040902061136e9063ffffffff80851690610a9816565b60006113ab82611772565b9050808311156113ce57604051634b05a0f760e11b815260040160405180910390fd5b60006113d9836117a5565b90508381111561087b5760405163e121632f60e01b815260040160405180910390fd5b815460009081908161140d86610c58565b905060008211801561144b5750438661142760018561252c565b81548110611437576114376122e8565b60009182526020909120015463ffffffff16145b156114ab57611459856117d3565b8661146560018561252c565b81548110611475576114756122e8565b9060005260206000200160000160046101000a8154816001600160e01b0302191690836001600160e01b03160217905550611519565b8560000160405180604001604052806114c343611840565b63ffffffff1681526020016114d7886117d3565b6001600160e01b0390811690915282546001810184556000938452602093849020835194909301519091166401000000000263ffffffff909316929092179101555b9250839150505b9250929050565b600054610100900460ff1661154e5760405162461bcd60e51b81526004016107fe9061255a565b6104c16118a5565b8051600090818080805b84518110156116045784818151811061157b5761157b6122e8565b6020026020010151600001519250826001600160a01b0316846001600160a01b0316106115bb5760405163ba50f91160e01b815260040160405180910390fd5b8293508481815181106115d0576115d06122e8565b6020026020010151602001516001600160601b0316826115f0919061243a565b9150806115fc81612314565b915050611560565b50612710811461161a5750600095945050505050565b50600195945050505050565b600080600061163585856118d5565b9092509050600081600481111561164e5761164e612612565b14801561166c5750856001600160a01b0316826001600160a01b0316145b1561167c576001925050506104f7565b600080876001600160a01b0316631626ba7e60e01b88886040516024016116a4929190612628565b60408051601f198184030181529181526020820180516001600160e01b03166001600160e01b03199094169390931790925290516116e29190612641565b600060405180830381855afa9150503d806000811461171d576040519150601f19603f3d011682016040523d82523d6000602084013e611722565b606091505b5091509150818015611735575080516020145b801561176657508051630b135d3f60e11b9061175a908301602090810190840161265d565b6001600160e01b031916145b98975050505050505050565b600063ffffffff828116141561178c57610342606a610c58565b610342606a63ffffffff80851690610a9816565b919050565b600063ffffffff82811614156117bf57610342606b610c58565b610342606b63ffffffff80851690610a9816565b60006001600160e01b0382111561183c5760405162461bcd60e51b815260206004820152602760248201527f53616665436173743a2076616c756520646f65736e27742066697420696e20326044820152663234206269747360c81b60648201526084016107fe565b5090565b600063ffffffff82111561183c5760405162461bcd60e51b815260206004820152602660248201527f53616665436173743a2076616c756520646f65736e27742066697420696e203360448201526532206269747360d01b60648201526084016107fe565b600054610100900460ff166118cc5760405162461bcd60e51b81526004016107fe9061255a565b6104c133610dba565b60008082516041141561190c5760208301516040840151606085015160001a61190087828585611942565b94509450505050611520565b825160401415611936576020830151604084015161192b868383611a2f565b935093505050611520565b50600090506002611520565b6000807f7fffffffffffffffffffffffffffffff5d576e7357a4501ddfe92f46681b20a08311156119795750600090506003611a26565b8460ff16601b1415801561199157508460ff16601c14155b156119a25750600090506004611a26565b6040805160008082526020820180845289905260ff881692820192909252606081018690526080810185905260019060a0016020604051602081039080840390855afa1580156119f6573d6000803e3d6000fd5b5050604051601f1901519150506001600160a01b038116611a1f57600060019250925050611a26565b9150600090505b94509492505050565b6000806001600160ff1b03831681611a4c60ff86901c601b61243a565b9050611a5a87828885611942565b935093505050935093915050565b508054600082559060005260206000209081019061031b91905b8082111561183c5760008155600101611a82565b634e487b7160e01b600052604160045260246000fd5b604051602081016001600160401b0381118282101715611ace57611ace611a96565b60405290565b604080519081016001600160401b0381118282101715611ace57611ace611a96565b604051601f8201601f191681016001600160401b0381118282101715611b1e57611b1e611a96565b604052919050565b60006001600160401b03821115611b3f57611b3f611a96565b5060051b60200190565b6001600160a01b038116811461031b57600080fd5b600082601f830112611b6f57600080fd5b81356020611b84611b7f83611b26565b611af6565b82815260059290921b84018101918181019086841115611ba357600080fd5b8286015b84811015611bc7578035611bba81611b49565b8352918301918301611ba7565b509695505050505050565b600060208284031215611be457600080fd5b81356001600160401b03811115611bfa57600080fd5b611c0684828501611b5e565b949350505050565b60006001600160401b03821115611c2757611c27611a96565b50601f01601f191660200190565b600082601f830112611c4657600080fd5b8135611c54611b7f82611c0e565b818152846020838601011115611c6957600080fd5b816020850160208301376000918101602001919091529392505050565b60008060408385031215611c9957600080fd5b8235611ca481611b49565b915060208301356001600160401b0380821115611cc057600080fd5b9084019060608287031215611cd457600080fd5b604051606081018181108382111715611cef57611cef611a96565b604052823582811115611d0157600080fd5b611d0d88828601611c35565b82525060208301356020820152604083013560408201528093505050509250929050565b63ffffffff8116811461031b57600080fd5b600060208284031215611d5557600080fd5b81356104f781611d31565b60008060408385031215611d7357600080fd5b8235915060208301356001600160401b03811115611d9057600080fd5b611d9c85828601611c35565b9150509250929050565b8051602080845281518482018190526000926040919083019082870190855b81811015611dfc57835180516001600160a01b031684528601516001600160601b0316868401529285019291840191600101611dc5565b5090979650505050505050565b6020815260006104f76020830184611da6565b600060208284031215611e2e57600080fd5b81356104f781611b49565b60008060408385031215611e4c57600080fd5b82356001600160401b0380821115611e6357600080fd5b818501915085601f830112611e7757600080fd5b81356020611e87611b7f83611b26565b82815260059290921b84018101918181019089841115611ea657600080fd5b8286015b84811015611ede57803586811115611ec25760008081fd5b611ed08c86838b0101611b5e565b845250918301918301611eaa565b5096505086013592505080821115611ef557600080fd5b50611d9c85828601611c35565b600060208284031215611f1457600080fd5b5035919050565b60008060408385031215611f2e57600080fd5b8235915060208301356001600160401b03811115611f4b57600080fd5b611d9c85828601611b5e565b60008060408385031215611f6a57600080fd5b8235611f7581611b49565b91506020830135611f8581611d31565b809150509250929050565b60006020808385031215611fa357600080fd5b611fab611aac565b915082356001600160401b03811115611fc357600080fd5b8301601f81018513611fd457600080fd5b8035611fe2611b7f82611b26565b81815260069190911b8201830190838101908783111561200157600080fd5b928401925b82841015612064576040848903121561201f5760008081fd5b612027611ad4565b843561203281611b49565b8152848601356001600160601b038116811461204e5760008081fd5b8187015282526040939093019290840190612006565b8552509295945050505050565b60008060006060848603121561208657600080fd5b833561209181611b49565b92506020840135915060408401356001600160401b038111156120b357600080fd5b6120bf86828701611f90565b9150509250925092565b600080604083850312156120dc57600080fd5b82356001600160401b03808211156120f357600080fd5b6120ff86838701611f90565b9350602085013591508082111561211557600080fd5b50611d9c85828601611b5e565b60005b8381101561213d578181015183820152602001612125565b8381111561087b5750506000910152565b600082601f83011261215f57600080fd5b8151602061216f611b7f83611b26565b82815260059290921b8401810191818101908684111561218e57600080fd5b8286015b84811015611bc75780516001600160401b038111156121b15760008081fd5b8701603f810189136121c35760008081fd5b8481015160406121d5611b7f83611c0e565b8281528b828486010111156121ea5760008081fd5b6121f983898301848701612122565b8652505050918301918301612192565b80516117a081611d31565b60008060006060848603121561222957600080fd5b83516001600160401b038082111561224057600080fd5b818601915086601f83011261225457600080fd5b81516020612264611b7f83611b26565b82815260059290921b8401810191818101908a84111561228357600080fd5b948201945b838610156122aa57855161229b81611b49565b82529482019490820190612288565b918901519197509093505050808211156122c357600080fd5b506122d08682870161214e565b9250506122df60408501612209565b90509250925092565b634e487b7160e01b600052603260045260246000fd5b634e487b7160e01b600052601160045260246000fd5b6000600019821415612328576123286122fe565b5060010190565b6001600160a01b038381168252604060208084018290528451918401829052600092858201929091906060860190855b8181101561237d57855185168352948301949183019160010161235f565b509098975050505050505050565b6000602080838503121561239e57600080fd5b82516001600160401b038111156123b457600080fd5b8301601f810185136123c557600080fd5b80516123d3611b7f82611b26565b81815260059190911b820183019083810190878311156123f257600080fd5b928401925b82841015612410578351825292840192908401906123f7565b979650505050505050565b6000816000190483118215151615612435576124356122fe565b500290565b6000821982111561244d5761244d6122fe565b500190565b60008261246f57634e487b7160e01b600052601260045260246000fd5b500490565b600080821280156001600160ff1b0384900385131615612496576124966122fe565b600160ff1b83900384128116156124af576124af6122fe565b50500190565b600081518084526124cd816020860160208601612122565b601f01601f19169290920160200192915050565b60018060a01b038316815260406020820152600082516060604084015261250b60a08401826124b5565b90506020840151606084015260408401516080840152809150509392505050565b60008282101561253e5761253e6122fe565b500390565b600081612552576125526122fe565b506000190190565b6020808252602b908201527f496e697469616c697a61626c653a20636f6e7472616374206973206e6f74206960408201526a6e697469616c697a696e6760a81b606082015260800190565b6040815260006125b86040830185611da6565b82810360208401526125ca8185611da6565b95945050505050565b60008083128015600160ff1b8501841216156125f1576125f16122fe565b6001600160ff1b038401831381161561260c5761260c6122fe565b50500390565b634e487b7160e01b600052602160045260246000fd5b828152604060208201526000611c0660408301846124b5565b60008251612653818460208701612122565b9190910192915050565b60006020828403121561266f57600080fd5b81516001600160e01b0319811681146104f757600080fdfea26469706673582212205bdc206c8530186d6258dd0a6c43ccbe767db75fc5021b7f43a5752fbde2df5f64736f6c634300080c0033","linkReferences":{}},"methodIdentifiers":{"deregisterOperator()":"857dc190","getLastCheckpointOperatorWeight(address)":"3b242e4a","getLastCheckpointThresholdWeight()":"b933fa74","getLastCheckpointThresholdWeightAtBlock(uint32)":"1e4cd85e","getLastCheckpointTotalWeight()":"314f3a49","getLastCheckpointTotalWeightAtBlock(uint32)":"0dba3394","getOperatorWeight(address)":"98ec1ac9","getOperatorWeightAtBlock(address,uint32)":"955f2d90","initialize(address,uint256,((address,uint96)[]))":"ab118995","isValidSignature(bytes32,bytes)":"1626ba7e","minimumWeight()":"40bf2fb7","operatorRegistered(address)":"ec7fbb31","owner()":"8da5cb5b","quorum()":"1703a018","registerOperatorWithSignature(address,(bytes,bytes32,uint256))":"0a601a12","renounceOwnership()":"715018a6","transferOwnership(address)":"f2fde38b","updateMinimumWeight(uint256,address[])":"696255be","updateOperators(address[])":"00cf2ab5","updateOperatorsForQuorum(address[][],bytes)":"5140a548","updateQuorumConfig(((address,uint96)[]),address[])":"dec5d1f6","updateStakeThreshold(uint256)":"5ef53329"},"id":118}