{"abi":[{"type":"constructor","inputs":[{"name":"_registryCoordinator","type":"address","internalType":"contract IRegistryCoordinator"},{"name":"_avsDirectory","type":"address","internalType":"contract IAVSDirectory"},{"name":"_rewardsCoordinator","type":"address","internalType":"contract IRewardsCoordinator"}],"stateMutability":"nonpayable"},{"type":"function","name":"avsDirectory","inputs":[],"outputs":[{"name":"","type":"address","internalType":"address"}],"stateMutability":"view"},{"type":"function","name":"blsApkRegistry","inputs":[],"outputs":[{"name":"","type":"address","internalType":"contract IBLSApkRegistry"}],"stateMutability":"view"},{"type":"function","name":"checkSignatures","inputs":[{"name":"msgHash","type":"bytes32","internalType":"bytes32"},{"name":"quorumNumbers","type":"bytes","internalType":"bytes"},{"name":"referenceBlockNumber","type":"uint32","internalType":"uint32"},{"name":"params","type":"tuple","internalType":"struct IBLSSignatureChecker.NonSignerStakesAndSignature","components":[{"name":"nonSignerQuorumBitmapIndices","type":"uint32[]","internalType":"uint32[]"},{"name":"nonSignerPubkeys","type":"tuple[]","internalType":"struct BN254.G1Point[]","components":[{"name":"X","type":"uint256","internalType":"uint256"},{"name":"Y","type":"uint256","internalType":"uint256"}]},{"name":"quorumApks","type":"tuple[]","internalType":"struct BN254.G1Point[]","components":[{"name":"X","type":"uint256","internalType":"uint256"},{"name":"Y","type":"uint256","internalType":"uint256"}]},{"name":"apkG2","type":"tuple","internalType":"struct BN254.G2Point","components":[{"name":"X","type":"uint256[2]","internalType":"uint256[2]"},{"name":"Y","type":"uint256[2]","internalType":"uint256[2]"}]},{"name":"sigma","type":"tuple","internalType":"struct BN254.G1Point","components":[{"name":"X","type":"uint256","internalType":"uint256"},{"name":"Y","type":"uint256","internalType":"uint256"}]},{"name":"quorumApkIndices","type":"uint32[]","internalType":"uint32[]"},{"name":"totalStakeIndices","type":"uint32[]","internalType":"uint32[]"},{"name":"nonSignerStakeIndices","type":"uint32[][]","internalType":"uint32[][]"}]}],"outputs":[{"name":"","type":"tuple","internalType":"struct IBLSSignatureChecker.QuorumStakeTotals","components":[{"name":"signedStakeForQuorum","type":"uint96[]","internalType":"uint96[]"},{"name":"totalStakeForQuorum","type":"uint96[]","internalType":"uint96[]"}]},{"name":"","type":"bytes32","internalType":"bytes32"}],"stateMutability":"view"},{"type":"function","name":"createAVSRewardsSubmission","inputs":[{"name":"rewardsSubmissions","type":"tuple[]","internalType":"struct IRewardsCoordinator.RewardsSubmission[]","components":[{"name":"strategiesAndMultipliers","type":"tuple[]","internalType":"struct IRewardsCoordinator.StrategyAndMultiplier[]","components":[{"name":"strategy","type":"address","internalType":"contract IStrategy"},{"name":"multiplier","type":"uint96","internalType":"uint96"}]},{"name":"token","type":"address","internalType":"contract IERC20"},{"name":"amount","type":"uint256","internalType":"uint256"},{"name":"startTimestamp","type":"uint32","internalType":"uint32"},{"name":"duration","type":"uint32","internalType":"uint32"}]}],"outputs":[],"stateMutability":"nonpayable"},{"type":"function","name":"delegation","inputs":[],"outputs":[{"name":"","type":"address","internalType":"contract IDelegationManager"}],"stateMutability":"view"},{"type":"function","name":"deregisterOperatorFromAVS","inputs":[{"name":"operator","type":"address","internalType":"address"}],"outputs":[],"stateMutability":"nonpayable"},{"type":"function","name":"getOperatorRestakedStrategies","inputs":[{"name":"operator","type":"address","internalType":"address"}],"outputs":[{"name":"","type":"address[]","internalType":"address[]"}],"stateMutability":"view"},{"type":"function","name":"getRestakeableStrategies","inputs":[],"outputs":[{"name":"","type":"address[]","internalType":"address[]"}],"stateMutability":"view"},{"type":"function","name":"initialize","inputs":[{"name":"_initialOwner","type":"address","internalType":"address"}],"outputs":[],"stateMutability":"nonpayable"},{"type":"function","name":"owner","inputs":[],"outputs":[{"name":"","type":"address","internalType":"address"}],"stateMutability":"view"},{"type":"function","name":"registerOperatorToAVS","inputs":[{"name":"operator","type":"address","internalType":"address"},{"name":"operatorSignature","type":"tuple","internalType":"struct ISignatureUtils.SignatureWithSaltAndExpiry","components":[{"name":"signature","type":"bytes","internalType":"bytes"},{"name":"salt","type":"bytes32","internalType":"bytes32"},{"name":"expiry","type":"uint256","internalType":"uint256"}]}],"outputs":[],"stateMutability":"nonpayable"},{"type":"function","name":"registryCoordinator","inputs":[],"outputs":[{"name":"","type":"address","internalType":"contract IRegistryCoordinator"}],"stateMutability":"view"},{"type":"function","name":"renounceOwnership","inputs":[],"outputs":[],"stateMutability":"nonpayable"},{"type":"function","name":"rewardsInitiator","inputs":[],"outputs":[{"name":"","type":"address","internalType":"address"}],"stateMutability":"view"},{"type":"function","name":"setRewardsInitiator","inputs":[{"name":"newRewardsInitiator","type":"address","internalType":"address"}],"outputs":[],"stateMutability":"nonpayable"},{"type":"function","name":"setStaleStakesForbidden","inputs":[{"name":"value","type":"bool","internalType":"bool"}],"outputs":[],"stateMutability":"nonpayable"},{"type":"function","name":"stakeRegistry","inputs":[],"outputs":[{"name":"","type":"address","internalType":"contract IStakeRegistry"}],"stateMutability":"view"},{"type":"function","name":"staleStakesForbidden","inputs":[],"outputs":[{"name":"","type":"bool","internalType":"bool"}],"stateMutability":"view"},{"type":"function","name":"transferOwnership","inputs":[{"name":"newOwner","type":"address","internalType":"address"}],"outputs":[],"stateMutability":"nonpayable"},{"type":"function","name":"trySignatureAndApkVerification","inputs":[{"name":"msgHash","type":"bytes32","internalType":"bytes32"},{"name":"apk","type":"tuple","internalType":"struct BN254.G1Point","components":[{"name":"X","type":"uint256","internalType":"uint256"},{"name":"Y","type":"uint256","internalType":"uint256"}]},{"name":"apkG2","type":"tuple","internalType":"struct BN254.G2Point","components":[{"name":"X","type":"uint256[2]","internalType":"uint256[2]"},{"name":"Y","type":"uint256[2]","internalType":"uint256[2]"}]},{"name":"sigma","type":"tuple","internalType":"struct BN254.G1Point","components":[{"name":"X","type":"uint256","internalType":"uint256"},{"name":"Y","type":"uint256","internalType":"uint256"}]}],"outputs":[{"name":"pairingSuccessful","type":"bool","internalType":"bool"},{"name":"siganatureIsValid","type":"bool","internalType":"bool"}],"stateMutability":"view"},{"type":"function","name":"updateAVSMetadataURI","inputs":[{"name":"_metadataURI","type":"string","internalType":"string"}],"outputs":[],"stateMutability":"nonpayable"},{"type":"event","name":"Initialized","inputs":[{"name":"version","type":"uint8","indexed":false,"internalType":"uint8"}],"anonymous":false},{"type":"event","name":"OwnershipTransferred","inputs":[{"name":"previousOwner","type":"address","indexed":true,"internalType":"address"},{"name":"newOwner","type":"address","indexed":true,"internalType":"address"}],"anonymous":false},{"type":"event","name":"RewardsInitiatorUpdated","inputs":[{"name":"prevRewardsInitiator","type":"address","indexed":false,"internalType":"address"},{"name":"newRewardsInitiator","type":"address","indexed":false,"internalType":"address"}],"anonymous":false},{"type":"event","name":"StaleStakesForbiddenUpdate","inputs":[{"name":"value","type":"bool","indexed":false,"internalType":"bool"}],"anonymous":false}],"bytecode":{"object":"0x6101806040523480156200001257600080fd5b50604051620044e5380380620044e583398101604081905262000035916200033f565b82828285866001600160a01b031663683048356040518163ffffffff1660e01b8152600401602060405180830381865afa15801562000078573d6000803e3d6000fd5b505050506040513d601f19601f820116820180604052508101906200009e919062000393565b6001600160a01b0380851660805280841660a05280831660c052811660e052620000c762000264565b50505050806001600160a01b0316610100816001600160a01b031681525050806001600160a01b031663683048356040518163ffffffff1660e01b8152600401602060405180830381865afa15801562000125573d6000803e3d6000fd5b505050506040513d601f19601f820116820180604052508101906200014b919062000393565b6001600160a01b0316610120816001600160a01b031681525050806001600160a01b0316635df459466040518163ffffffff1660e01b8152600401602060405180830381865afa158015620001a4573d6000803e3d6000fd5b505050506040513d601f19601f82011682018060405250810190620001ca919062000393565b6001600160a01b0316610140816001600160a01b031681525050610120516001600160a01b031663df5cf7236040518163ffffffff1660e01b8152600401602060405180830381865afa15801562000226573d6000803e3d6000fd5b505050506040513d601f19601f820116820180604052508101906200024c919062000393565b6001600160a01b03166101605250620003ba92505050565b600054610100900460ff1615620002d15760405162461bcd60e51b815260206004820152602760248201527f496e697469616c697a61626c653a20636f6e747261637420697320696e697469604482015266616c697a696e6760c81b606482015260840160405180910390fd5b60005460ff908116101562000324576000805460ff191660ff9081179091556040519081527f7f26b83ff96e1f2b6a682f133852f6798a09c465da95921460cefb38474024989060200160405180910390a15b565b6001600160a01b03811681146200033c57600080fd5b50565b6000806000606084860312156200035557600080fd5b8351620003628162000326565b6020850151909350620003758162000326565b6040850151909250620003888162000326565b809150509250925092565b600060208284031215620003a657600080fd5b8151620003b38162000326565b9392505050565b60805160a05160c05160e0516101005161012051610140516101605161401d620004c86000396000818161030e01526112020152600081816101b801526113e40152600081816101f7015281816115ba015261177c015260008181610244015281816109e001528181610ecd01528181611065015261129f0152600081816106f501528181610850015281816108e701528181611e0801528181611f8b015261202a015260008181610520015281816105af0152818161062f01528181611a5001528181611b1c01528181611d460152611ee601526000818161235801528181612414015261250001526000818161021b01528181611aa401528181611b780152611bf7015261401d6000f3fe608060405234801561001057600080fd5b50600436106101375760003560e01c80638da5cb5b116100b8578063c4d66de81161007c578063c4d66de8146102f6578063df5cf72314610309578063e481af9d14610330578063f2fde38b14610338578063fc299dee1461034b578063fce36c7d1461035e57600080fd5b80638da5cb5b1461028f5780639926ee7d146102a0578063a364f4da146102b3578063a98fb355146102c6578063b98d0908146102d957600080fd5b806368304835116100ff57806368304835146101f25780636b3aa72e146102195780636d14a9871461023f5780636efb463614610266578063715018a61461028757600080fd5b8063171f1d5b1461013c57806333cfb7b71461016b5780633bc28c8c1461018b578063416c7e5e146101a05780635df45946146101b3575b600080fd5b61014f61014a3660046133b2565b610371565b6040805192151583529015156020830152015b60405180910390f35b61017e610179366004613418565b6104fb565b6040516101629190613435565b61019e610199366004613418565b6109ca565b005b61019e6101ae366004613490565b6109de565b6101da7f000000000000000000000000000000000000000000000000000000000000000081565b6040516001600160a01b039091168152602001610162565b6101da7f000000000000000000000000000000000000000000000000000000000000000081565b7f00000000000000000000000000000000000000000000000000000000000000006101da565b6101da7f000000000000000000000000000000000000000000000000000000000000000081565b610279610274366004613763565b610b1a565b604051610162929190613856565b61019e611a31565b6033546001600160a01b03166101da565b61019e6102ae3660046138f6565b611a45565b61019e6102c1366004613418565b611b11565b61019e6102d43660046139a0565b611bd8565b6097546102e69060ff1681565b6040519015158152602001610162565b61019e610304366004613418565b611c2c565b6101da7f000000000000000000000000000000000000000000000000000000000000000081565b61017e611d40565b61019e610346366004613418565b612109565b6065546101da906001600160a01b031681565b61019e61036c3660046139f0565b61217f565b60008060007f30644e72e131a029b85045b68181585d2833e84879b9709143e1f593f0000001878760000151886020015188600001516000600281106103b9576103b9613a64565b60200201518951600160200201518a602001516000600281106103de576103de613a64565b60200201518b602001516001600281106103fa576103fa613a64565b602090810291909101518c518d8301516040516104579a99989796959401988952602089019790975260408801959095526060870193909352608086019190915260a085015260c084015260e08301526101008201526101200190565b6040516020818303038152906040528051906020012060001c61047a9190613a7a565b90506104ed61049361048c8884612537565b86906125ce565b61049b612662565b6104e36104d4856104ce604080518082018252600080825260209182015281518083019092526001825260029082015290565b90612537565b6104dd8c612722565b906125ce565b886201d4c06127b2565b909890975095505050505050565b6040516309aa152760e11b81526001600160a01b0382811660048301526060916000917f000000000000000000000000000000000000000000000000000000000000000016906313542a4e90602401602060405180830381865afa158015610567573d6000803e3d6000fd5b505050506040513d601f19601f8201168201806040525081019061058b9190613a9c565b60405163871ef04960e01b8152600481018290529091506000906001600160a01b037f0000000000000000000000000000000000000000000000000000000000000000169063871ef04990602401602060405180830381865afa1580156105f6573d6000803e3d6000fd5b505050506040513d601f19601f8201168201806040525081019061061a9190613ab5565b90506001600160c01b03811615806106b457507f00000000000000000000000000000000000000000000000000000000000000006001600160a01b0316639aa1653d6040518163ffffffff1660e01b8152600401602060405180830381865afa15801561068b573d6000803e3d6000fd5b505050506040513d601f19601f820116820180604052508101906106af9190613ade565b60ff16155b156106d057505060408051600081526020810190915292915050565b60006106e4826001600160c01b03166129d6565b90506000805b82518110156107ba577f00000000000000000000000000000000000000000000000000000000000000006001600160a01b0316633ca5a5f584838151811061073457610734613a64565b01602001516040516001600160e01b031960e084901b16815260f89190911c6004820152602401602060405180830381865afa158015610778573d6000803e3d6000fd5b505050506040513d601f19601f8201168201806040525081019061079c9190613a9c565b6107a69083613b17565b9150806107b281613b2f565b9150506106ea565b506000816001600160401b038111156107d5576107d561323f565b6040519080825280602002602001820160405280156107fe578160200160208202803683370190505b5090506000805b84518110156109bd57600085828151811061082257610822613a64565b0160200151604051633ca5a5f560e01b815260f89190911c6004820181905291506000906001600160a01b037f00000000000000000000000000000000000000000000000000000000000000001690633ca5a5f590602401602060405180830381865afa158015610897573d6000803e3d6000fd5b505050506040513d601f19601f820116820180604052508101906108bb9190613a9c565b905060005b818110156109a7576040516356e4026d60e11b815260ff84166004820152602481018290527f00000000000000000000000000000000000000000000000000000000000000006001600160a01b03169063adc804da906044016040805180830381865afa158015610935573d6000803e3d6000fd5b505050506040513d601f19601f820116820180604052508101906109599190613b5f565b6000015186868151811061096f5761096f613a64565b6001600160a01b03909216602092830291909101909101528461099181613b2f565b955050808061099f90613b2f565b9150506108c0565b50505080806109b590613b2f565b915050610805565b5090979650505050505050565b6109d2612a98565b6109db81612af2565b50565b7f00000000000000000000000000000000000000000000000000000000000000006001600160a01b0316638da5cb5b6040518163ffffffff1660e01b8152600401602060405180830381865afa158015610a3c573d6000803e3d6000fd5b505050506040513d601f19601f82011682018060405250810190610a609190613ba0565b6001600160a01b0316336001600160a01b031614610b115760405162461bcd60e51b815260206004820152605c60248201527f424c535369676e6174757265436865636b65722e6f6e6c79436f6f7264696e6160448201527f746f724f776e65723a2063616c6c6572206973206e6f7420746865206f776e6560648201527f72206f6620746865207265676973747279436f6f7264696e61746f7200000000608482015260a4015b60405180910390fd5b6109db81612b5b565b6040805180820190915260608082526020820152600084610b915760405162461bcd60e51b81526020600482015260376024820152600080516020613fc883398151915260448201527f7265733a20656d7074792071756f72756d20696e7075740000000000000000006064820152608401610b08565b60408301515185148015610ba9575060a08301515185145b8015610bb9575060c08301515185145b8015610bc9575060e08301515185145b610c335760405162461bcd60e51b81526020600482015260416024820152600080516020613fc883398151915260448201527f7265733a20696e7075742071756f72756d206c656e677468206d69736d6174636064820152600d60fb1b608482015260a401610b08565b82515160208401515114610cab5760405162461bcd60e51b815260206004820152604460248201819052600080516020613fc8833981519152908201527f7265733a20696e707574206e6f6e7369676e6572206c656e677468206d69736d6064820152630c2e8c6d60e31b608482015260a401610b08565b4363ffffffff168463ffffffff1610610d1a5760405162461bcd60e51b815260206004820152603c6024820152600080516020613fc883398151915260448201527f7265733a20696e76616c6964207265666572656e636520626c6f636b000000006064820152608401610b08565b6040805180820182526000808252602080830191909152825180840190935260608084529083015290866001600160401b03811115610d5b57610d5b61323f565b604051908082528060200260200182016040528015610d84578160200160208202803683370190505b506020820152866001600160401b03811115610da257610da261323f565b604051908082528060200260200182016040528015610dcb578160200160208202803683370190505b50815260408051808201909152606080825260208201528560200151516001600160401b03811115610dff57610dff61323f565b604051908082528060200260200182016040528015610e28578160200160208202803683370190505b5081526020860151516001600160401b03811115610e4857610e4861323f565b604051908082528060200260200182016040528015610e71578160200160208202803683370190505b5081602001819052506000610f438a8a8080601f0160208091040260200160405190810160405280939291908181526020018383808284376000920191909152505060408051639aa1653d60e01b815290516001600160a01b037f0000000000000000000000000000000000000000000000000000000000000000169350639aa1653d925060048083019260209291908290030181865afa158015610f1a573d6000803e3d6000fd5b505050506040513d601f19601f82011682018060405250810190610f3e9190613ade565b612ba2565b905060005b8760200151518110156111de57610f8d88602001518281518110610f6e57610f6e613a64565b6020026020010151805160009081526020918201519091526040902090565b83602001518281518110610fa357610fa3613a64565b60209081029190910101528015611063576020830151610fc4600183613bbd565b81518110610fd457610fd4613a64565b602002602001015160001c83602001518281518110610ff557610ff5613a64565b602002602001015160001c11611063576040805162461bcd60e51b8152602060048201526024810191909152600080516020613fc883398151915260448201527f7265733a206e6f6e5369676e65725075626b657973206e6f7420736f727465646064820152608401610b08565b7f00000000000000000000000000000000000000000000000000000000000000006001600160a01b03166304ec6351846020015183815181106110a8576110a8613a64565b60200260200101518b8b6000015185815181106110c7576110c7613a64565b60200260200101516040518463ffffffff1660e01b81526004016111049392919092835263ffffffff918216602084015216604082015260600190565b602060405180830381865afa158015611121573d6000803e3d6000fd5b505050506040513d601f19601f820116820180604052508101906111459190613ab5565b6001600160c01b03168360000151828151811061116457611164613a64565b6020026020010181815250506111ca61048c61119e848660000151858151811061119057611190613a64565b602002602001015116612c35565b8a6020015184815181106111b4576111b4613a64565b6020026020010151612c6090919063ffffffff16565b9450806111d681613b2f565b915050610f48565b50506111e983612d44565b60975490935060ff16600081611200576000611282565b7f00000000000000000000000000000000000000000000000000000000000000006001600160a01b031663c448feb86040518163ffffffff1660e01b8152600401602060405180830381865afa15801561125e573d6000803e3d6000fd5b505050506040513d601f19601f820116820180604052508101906112829190613a9c565b905060005b8a8110156119005782156113e2578963ffffffff16827f00000000000000000000000000000000000000000000000000000000000000006001600160a01b031663249a0c428f8f868181106112de576112de613a64565b60405160e085901b6001600160e01b031916815292013560f81c600483015250602401602060405180830381865afa15801561131e573d6000803e3d6000fd5b505050506040513d601f19601f820116820180604052508101906113429190613a9c565b61134c9190613b17565b116113e25760405162461bcd60e51b81526020600482015260666024820152600080516020613fc883398151915260448201527f7265733a205374616b6552656769737472792075706461746573206d7573742060648201527f62652077697468696e207769746864726177616c44656c6179426c6f636b732060848201526577696e646f7760d01b60a482015260c401610b08565b7f00000000000000000000000000000000000000000000000000000000000000006001600160a01b03166368bccaac8d8d8481811061142357611423613a64565b9050013560f81c60f81b60f81c8c8c60a00151858151811061144757611447613a64565b60209081029190910101516040516001600160e01b031960e086901b16815260ff909316600484015263ffffffff9182166024840152166044820152606401602060405180830381865afa1580156114a3573d6000803e3d6000fd5b505050506040513d601f19601f820116820180604052508101906114c79190613bd4565b6001600160401b0319166114ea8a604001518381518110610f6e57610f6e613a64565b67ffffffffffffffff1916146115865760405162461bcd60e51b81526020600482015260616024820152600080516020613fc883398151915260448201527f7265733a2071756f72756d41706b206861736820696e2073746f72616765206460648201527f6f6573206e6f74206d617463682070726f76696465642071756f72756d2061706084820152606b60f81b60a482015260c401610b08565b6115b68960400151828151811061159f5761159f613a64565b6020026020010151876125ce90919063ffffffff16565b95507f00000000000000000000000000000000000000000000000000000000000000006001600160a01b031663c8294c568d8d848181106115f9576115f9613a64565b9050013560f81c60f81b60f81c8c8c60c00151858151811061161d5761161d613a64565b60209081029190910101516040516001600160e01b031960e086901b16815260ff909316600484015263ffffffff9182166024840152166044820152606401602060405180830381865afa158015611679573d6000803e3d6000fd5b505050506040513d601f19601f8201168201806040525081019061169d9190613bff565b856020015182815181106116b3576116b3613a64565b6001600160601b039092166020928302919091018201528501518051829081106116df576116df613a64565b6020026020010151856000015182815181106116fd576116fd613a64565b60200260200101906001600160601b031690816001600160601b0316815250506000805b8a60200151518110156118eb576117758660000151828151811061174757611747613a64565b60200260200101518f8f8681811061176157611761613a64565b600192013560f81c9290921c811614919050565b156118d9577f00000000000000000000000000000000000000000000000000000000000000006001600160a01b031663f2be94ae8f8f868181106117bb576117bb613a64565b9050013560f81c60f81b60f81c8e896020015185815181106117df576117df613a64565b60200260200101518f60e0015188815181106117fd576117fd613a64565b6020026020010151878151811061181657611816613a64565b60209081029190910101516040516001600160e01b031960e087901b16815260ff909416600485015263ffffffff92831660248501526044840191909152166064820152608401602060405180830381865afa15801561187a573d6000803e3d6000fd5b505050506040513d601f19601f8201168201806040525081019061189e9190613bff565b87518051859081106118b2576118b2613a64565b602002602001018181516118c69190613c1c565b6001600160601b03169052506001909101905b806118e381613b2f565b915050611721565b505080806118f890613b2f565b915050611287565b50505060008061191a8c868a606001518b60800151610371565b915091508161198b5760405162461bcd60e51b81526020600482015260436024820152600080516020613fc883398151915260448201527f7265733a2070616972696e6720707265636f6d70696c652063616c6c206661696064820152621b195960ea1b608482015260a401610b08565b806119ec5760405162461bcd60e51b81526020600482015260396024820152600080516020613fc883398151915260448201527f7265733a207369676e617475726520697320696e76616c6964000000000000006064820152608401610b08565b50506000878260200151604051602001611a07929190613c44565b60408051808303601f190181529190528051602090910120929b929a509198505050505050505050565b611a39612a98565b611a436000612ddf565b565b336001600160a01b037f00000000000000000000000000000000000000000000000000000000000000001614611a8d5760405162461bcd60e51b8152600401610b0890613c8c565b604051639926ee7d60e01b81526001600160a01b037f00000000000000000000000000000000000000000000000000000000000000001690639926ee7d90611adb9085908590600401613d51565b600060405180830381600087803b158015611af557600080fd5b505af1158015611b09573d6000803e3d6000fd5b505050505050565b336001600160a01b037f00000000000000000000000000000000000000000000000000000000000000001614611b595760405162461bcd60e51b8152600401610b0890613c8c565b6040516351b27a6d60e11b81526001600160a01b0382811660048301527f0000000000000000000000000000000000000000000000000000000000000000169063a364f4da906024015b600060405180830381600087803b158015611bbd57600080fd5b505af1158015611bd1573d6000803e3d6000fd5b5050505050565b611be0612a98565b60405163a98fb35560e01b81526001600160a01b037f0000000000000000000000000000000000000000000000000000000000000000169063a98fb35590611ba3908490600401613d9c565b600054610100900460ff1615808015611c4c5750600054600160ff909116105b80611c665750303b158015611c66575060005460ff166001145b611cc95760405162461bcd60e51b815260206004820152602e60248201527f496e697469616c697a61626c653a20636f6e747261637420697320616c72656160448201526d191e481a5b9a5d1a585b1a5e995960921b6064820152608401610b08565b6000805460ff191660011790558015611cec576000805461ff0019166101001790555b611cf68283612e31565b8015611d3c576000805461ff0019169055604051600181527f7f26b83ff96e1f2b6a682f133852f6798a09c465da95921460cefb38474024989060200160405180910390a15b5050565b606060007f00000000000000000000000000000000000000000000000000000000000000006001600160a01b0316639aa1653d6040518163ffffffff1660e01b8152600401602060405180830381865afa158015611da2573d6000803e3d6000fd5b505050506040513d601f19601f82011682018060405250810190611dc69190613ade565b60ff16905080611de457505060408051600081526020810190915290565b6000805b82811015611e9957604051633ca5a5f560e01b815260ff821660048201527f00000000000000000000000000000000000000000000000000000000000000006001600160a01b031690633ca5a5f590602401602060405180830381865afa158015611e57573d6000803e3d6000fd5b505050506040513d601f19601f82011682018060405250810190611e7b9190613a9c565b611e859083613b17565b915080611e9181613b2f565b915050611de8565b506000816001600160401b03811115611eb457611eb461323f565b604051908082528060200260200182016040528015611edd578160200160208202803683370190505b5090506000805b7f00000000000000000000000000000000000000000000000000000000000000006001600160a01b0316639aa1653d6040518163ffffffff1660e01b8152600401602060405180830381865afa158015611f42573d6000803e3d6000fd5b505050506040513d601f19601f82011682018060405250810190611f669190613ade565b60ff168110156120ff57604051633ca5a5f560e01b815260ff821660048201526000907f00000000000000000000000000000000000000000000000000000000000000006001600160a01b031690633ca5a5f590602401602060405180830381865afa158015611fda573d6000803e3d6000fd5b505050506040513d601f19601f82011682018060405250810190611ffe9190613a9c565b905060005b818110156120ea576040516356e4026d60e11b815260ff84166004820152602481018290527f00000000000000000000000000000000000000000000000000000000000000006001600160a01b03169063adc804da906044016040805180830381865afa158015612078573d6000803e3d6000fd5b505050506040513d601f19601f8201168201806040525081019061209c9190613b5f565b600001518585815181106120b2576120b2613a64565b6001600160a01b0390921660209283029190910190910152836120d481613b2f565b94505080806120e290613b2f565b915050612003565b505080806120f790613b2f565b915050611ee4565b5090949350505050565b612111612a98565b6001600160a01b0381166121765760405162461bcd60e51b815260206004820152602660248201527f4f776e61626c653a206e6577206f776e657220697320746865207a65726f206160448201526564647265737360d01b6064820152608401610b08565b6109db81612ddf565b6065546001600160a01b031633146122145760405162461bcd60e51b815260206004820152604c60248201527f536572766963654d616e61676572426173652e6f6e6c7952657761726473496e60448201527f69746961746f723a2063616c6c6572206973206e6f742074686520726577617260648201526b32399034b734ba34b0ba37b960a11b608482015260a401610b08565b60005b818110156124e85782828281811061223157612231613a64565b90506020028101906122439190613db6565b612254906040810190602001613418565b6001600160a01b03166323b872dd333086868681811061227657612276613a64565b90506020028101906122889190613db6565b604080516001600160e01b031960e087901b1681526001600160a01b039485166004820152939092166024840152013560448201526064016020604051808303816000875af11580156122df573d6000803e3d6000fd5b505050506040513d601f19601f820116820180604052508101906123039190613de1565b50600083838381811061231857612318613a64565b905060200281019061232a9190613db6565b61233b906040810190602001613418565b604051636eb1769f60e11b81523060048201526001600160a01b037f000000000000000000000000000000000000000000000000000000000000000081166024830152919091169063dd62ed3e90604401602060405180830381865afa1580156123a9573d6000803e3d6000fd5b505050506040513d601f19601f820116820180604052508101906123cd9190613a9c565b90508383838181106123e1576123e1613a64565b90506020028101906123f39190613db6565b612404906040810190602001613418565b6001600160a01b031663095ea7b37f00000000000000000000000000000000000000000000000000000000000000008387878781811061244657612446613a64565b90506020028101906124589190613db6565b604001356124669190613b17565b6040516001600160e01b031960e085901b1681526001600160a01b03909216600483015260248201526044016020604051808303816000875af11580156124b1573d6000803e3d6000fd5b505050506040513d601f19601f820116820180604052508101906124d59190613de1565b5050806124e190613b2f565b9050612217565b5060405163fce36c7d60e01b81526001600160a01b037f0000000000000000000000000000000000000000000000000000000000000000169063fce36c7d90611adb9085908590600401613e59565b6040805180820190915260008082526020820152612553613165565b835181526020808501519082015260408082018490526000908360608460076107d05a03fa905080801561258657612588565bfe5b50806125c65760405162461bcd60e51b815260206004820152600d60248201526c1958cb5b5d5b0b59985a5b1959609a1b6044820152606401610b08565b505092915050565b60408051808201909152600080825260208201526125ea613183565b835181526020808501518183015283516040808401919091529084015160608301526000908360808460066107d05a03fa90508080156125865750806125c65760405162461bcd60e51b815260206004820152600d60248201526c1958cb5859190b59985a5b1959609a1b6044820152606401610b08565b61266a6131a1565b50604080516080810182527f198e9393920d483a7260bfb731fb5d25f1aa493335a9e71297e485b7aef312c28183019081527f1800deef121f1e76426a00665e5c4479674322d4f75edadd46debd5cd992f6ed6060830152815281518083019092527f275dc4a288d1afb3cbb1ac09187524c7db36395df7be3b99e673b13a075a65ec82527f1d9befcd05a5323e6da4d435f3b617cdb3af83285c2df711ef39c01571827f9d60208381019190915281019190915290565b604080518082019091526000808252602082015260008080612752600080516020613fa883398151915286613a7a565b90505b61275e81612eae565b9093509150600080516020613fa8833981519152828309831415612798576040805180820190915290815260208101919091529392505050565b600080516020613fa8833981519152600182089050612755565b6040805180820182528681526020808201869052825180840190935286835282018490526000918291906127e46131c6565b60005b60028110156129a95760006127fd826006613f66565b905084826002811061281157612811613a64565b60200201515183612823836000613b17565b600c811061283357612833613a64565b602002015284826002811061284a5761284a613a64565b602002015160200151838260016128619190613b17565b600c811061287157612871613a64565b602002015283826002811061288857612888613a64565b602002015151518361289b836002613b17565b600c81106128ab576128ab613a64565b60200201528382600281106128c2576128c2613a64565b60200201515160016020020151836128db836003613b17565b600c81106128eb576128eb613a64565b602002015283826002811061290257612902613a64565b60200201516020015160006002811061291d5761291d613a64565b60200201518361292e836004613b17565b600c811061293e5761293e613a64565b602002015283826002811061295557612955613a64565b60200201516020015160016002811061297057612970613a64565b602002015183612981836005613b17565b600c811061299157612991613a64565b602002015250806129a181613b2f565b9150506127e7565b506129b26131e5565b60006020826101808560088cfa9151919c9115159b50909950505050505050505050565b60606000806129e484612c35565b61ffff166001600160401b038111156129ff576129ff61323f565b6040519080825280601f01601f191660200182016040528015612a29576020820181803683370190505b5090506000805b825182108015612a41575061010081105b156120ff576001811b935085841615612a88578060f81b838381518110612a6a57612a6a613a64565b60200101906001600160f81b031916908160001a9053508160010191505b612a9181613b2f565b9050612a30565b6033546001600160a01b03163314611a435760405162461bcd60e51b815260206004820181905260248201527f4f776e61626c653a2063616c6c6572206973206e6f7420746865206f776e65726044820152606401610b08565b606554604080516001600160a01b03928316815291831660208301527fe11cddf1816a43318ca175bbc52cd0185436e9cbead7c83acc54a73e461717e3910160405180910390a1606580546001600160a01b0319166001600160a01b0392909216919091179055565b6097805460ff19168215159081179091556040519081527f40e4ed880a29e0f6ddce307457fb75cddf4feef7d3ecb0301bfdf4976a0e2dfc9060200160405180910390a150565b600080612bae84612f30565b9050808360ff166001901b11612c2c5760405162461bcd60e51b815260206004820152603f60248201527f4269746d61705574696c732e6f72646572656442797465734172726179546f4260448201527f69746d61703a206269746d61702065786365656473206d61782076616c7565006064820152608401610b08565b90505b92915050565b6000805b8215612c2f57612c4a600184613bbd565b9092169180612c5881613f85565b915050612c39565b60408051808201909152600080825260208201526102008261ffff1610612cbc5760405162461bcd60e51b815260206004820152601060248201526f7363616c61722d746f6f2d6c6172676560801b6044820152606401610b08565b8161ffff1660011415612cd0575081612c2f565b6040805180820190915260008082526020820181905284906001905b8161ffff168661ffff1610612d3957600161ffff871660ff83161c81161415612d1c57612d1984846125ce565b93505b612d2683846125ce565b92506201fffe600192831b169101612cec565b509195945050505050565b60408051808201909152600080825260208201528151158015612d6957506020820151155b15612d87575050604080518082019091526000808252602082015290565b604051806040016040528083600001518152602001600080516020613fa88339815191528460200151612dba9190613a7a565b612dd290600080516020613fa8833981519152613bbd565b905292915050565b919050565b603380546001600160a01b038381166001600160a01b0319831681179093556040519116919082907f8be0079c531659141344cd1fd0a4f28419497f9722a3daafe3b4186f6b6457e090600090a35050565b600054610100900460ff16612e9c5760405162461bcd60e51b815260206004820152602b60248201527f496e697469616c697a61626c653a20636f6e7472616374206973206e6f74206960448201526a6e697469616c697a696e6760a81b6064820152608401610b08565b612ea582612ddf565b611d3c81612af2565b60008080600080516020613fa88339815191526003600080516020613fa883398151915286600080516020613fa8833981519152888909090890506000612f24827f0c19139cb84c680a6e14116da060561765e05aa45a1c72a34f082305b61f3f52600080516020613fa88339815191526130bd565b91959194509092505050565b600061010082511115612fb95760405162461bcd60e51b8152602060048201526044602482018190527f4269746d61705574696c732e6f72646572656442797465734172726179546f42908201527f69746d61703a206f7264657265644279746573417272617920697320746f6f206064820152636c6f6e6760e01b608482015260a401610b08565b8151612fc757506000919050565b60008083600081518110612fdd57612fdd613a64565b0160200151600160f89190911c81901b92505b84518110156130b45784818151811061300b5761300b613a64565b0160200151600160f89190911c1b91508282116130a05760405162461bcd60e51b815260206004820152604760248201527f4269746d61705574696c732e6f72646572656442797465734172726179546f4260448201527f69746d61703a206f72646572656442797465734172726179206973206e6f74206064820152661bdc99195c995960ca1b608482015260a401610b08565b918117916130ad81613b2f565b9050612ff0565b50909392505050565b6000806130c86131e5565b6130d0613203565b602080825281810181905260408201819052606082018890526080820187905260a082018690528260c08360056107d05a03fa925082801561258657508261315a5760405162461bcd60e51b815260206004820152601a60248201527f424e3235342e6578704d6f643a2063616c6c206661696c7572650000000000006044820152606401610b08565b505195945050505050565b60405180606001604052806003906020820280368337509192915050565b60405180608001604052806004906020820280368337509192915050565b60405180604001604052806131b4613221565b81526020016131c1613221565b905290565b604051806101800160405280600c906020820280368337509192915050565b60405180602001604052806001906020820280368337509192915050565b6040518060c001604052806006906020820280368337509192915050565b60405180604001604052806002906020820280368337509192915050565b634e487b7160e01b600052604160045260246000fd5b604080519081016001600160401b03811182821017156132775761327761323f565b60405290565b60405161010081016001600160401b03811182821017156132775761327761323f565b604051606081016001600160401b03811182821017156132775761327761323f565b604051601f8201601f191681016001600160401b03811182821017156132ea576132ea61323f565b604052919050565b60006040828403121561330457600080fd5b61330c613255565b9050813581526020820135602082015292915050565b600082601f83011261333357600080fd5b61333b613255565b80604084018581111561334d57600080fd5b845b8181101561336757803584526020938401930161334f565b509095945050505050565b60006080828403121561338457600080fd5b61338c613255565b90506133988383613322565b81526133a78360408401613322565b602082015292915050565b60008060008061012085870312156133c957600080fd5b843593506133da86602087016132f2565b92506133e98660608701613372565b91506133f88660e087016132f2565b905092959194509250565b6001600160a01b03811681146109db57600080fd5b60006020828403121561342a57600080fd5b8135612c2c81613403565b6020808252825182820181905260009190848201906040850190845b818110156134765783516001600160a01b031683529284019291840191600101613451565b50909695505050505050565b80151581146109db57600080fd5b6000602082840312156134a257600080fd5b8135612c2c81613482565b803563ffffffff81168114612dda57600080fd5b60006001600160401b038211156134da576134da61323f565b5060051b60200190565b600082601f8301126134f557600080fd5b8135602061350a613505836134c1565b6132c2565b82815260059290921b8401810191818101908684111561352957600080fd5b8286015b8481101561354b5761353e816134ad565b835291830191830161352d565b509695505050505050565b600082601f83011261356757600080fd5b81356020613577613505836134c1565b82815260069290921b8401810191818101908684111561359657600080fd5b8286015b8481101561354b576135ac88826132f2565b83529183019160400161359a565b600082601f8301126135cb57600080fd5b813560206135db613505836134c1565b82815260059290921b840181019181810190868411156135fa57600080fd5b8286015b8481101561354b5780356001600160401b0381111561361d5760008081fd5b61362b8986838b01016134e4565b8452509183019183016135fe565b6000610180828403121561364c57600080fd5b61365461327d565b905081356001600160401b038082111561366d57600080fd5b613679858386016134e4565b8352602084013591508082111561368f57600080fd5b61369b85838601613556565b602084015260408401359150808211156136b457600080fd5b6136c085838601613556565b60408401526136d28560608601613372565b60608401526136e48560e086016132f2565b60808401526101208401359150808211156136fe57600080fd5b61370a858386016134e4565b60a084015261014084013591508082111561372457600080fd5b613730858386016134e4565b60c084015261016084013591508082111561374a57600080fd5b50613757848285016135ba565b60e08301525092915050565b60008060008060006080868803121561377b57600080fd5b8535945060208601356001600160401b038082111561379957600080fd5b818801915088601f8301126137ad57600080fd5b8135818111156137bc57600080fd5b8960208285010111156137ce57600080fd5b60208301965094506137e2604089016134ad565b935060608801359150808211156137f857600080fd5b5061380588828901613639565b9150509295509295909350565b600081518084526020808501945080840160005b8381101561384b5781516001600160601b031687529582019590820190600101613826565b509495945050505050565b60408152600083516040808401526138716080840182613812565b90506020850151603f1984830301606085015261388e8282613812565b925050508260208301529392505050565b60006001600160401b038311156138b8576138b861323f565b6138cb601f8401601f19166020016132c2565b90508281528383830111156138df57600080fd5b828260208301376000602084830101529392505050565b6000806040838503121561390957600080fd5b823561391481613403565b915060208301356001600160401b038082111561393057600080fd5b908401906060828703121561394457600080fd5b61394c6132a0565b82358281111561395b57600080fd5b83019150601f8201871361396e57600080fd5b61397d8783356020850161389f565b815260208301356020820152604083013560408201528093505050509250929050565b6000602082840312156139b257600080fd5b81356001600160401b038111156139c857600080fd5b8201601f810184136139d957600080fd5b6139e88482356020840161389f565b949350505050565b60008060208385031215613a0357600080fd5b82356001600160401b0380821115613a1a57600080fd5b818501915085601f830112613a2e57600080fd5b813581811115613a3d57600080fd5b8660208260051b8501011115613a5257600080fd5b60209290920196919550909350505050565b634e487b7160e01b600052603260045260246000fd5b600082613a9757634e487b7160e01b600052601260045260246000fd5b500690565b600060208284031215613aae57600080fd5b5051919050565b600060208284031215613ac757600080fd5b81516001600160c01b0381168114612c2c57600080fd5b600060208284031215613af057600080fd5b815160ff81168114612c2c57600080fd5b634e487b7160e01b600052601160045260246000fd5b60008219821115613b2a57613b2a613b01565b500190565b6000600019821415613b4357613b43613b01565b5060010190565b6001600160601b03811681146109db57600080fd5b600060408284031215613b7157600080fd5b613b79613255565b8251613b8481613403565b81526020830151613b9481613b4a565b60208201529392505050565b600060208284031215613bb257600080fd5b8151612c2c81613403565b600082821015613bcf57613bcf613b01565b500390565b600060208284031215613be657600080fd5b815167ffffffffffffffff1981168114612c2c57600080fd5b600060208284031215613c1157600080fd5b8151612c2c81613b4a565b60006001600160601b0383811690831681811015613c3c57613c3c613b01565b039392505050565b63ffffffff60e01b8360e01b1681526000600482018351602080860160005b83811015613c7f57815185529382019390820190600101613c63565b5092979650505050505050565b60208082526052908201527f536572766963654d616e61676572426173652e6f6e6c7952656769737472794360408201527f6f6f7264696e61746f723a2063616c6c6572206973206e6f742074686520726560608201527133b4b9ba393c9031b7b7b93234b730ba37b960711b608082015260a00190565b6000815180845260005b81811015613d2a57602081850181015186830182015201613d0e565b81811115613d3c576000602083870101525b50601f01601f19169290920160200192915050565b60018060a01b0383168152604060208201526000825160606040840152613d7b60a0840182613d04565b90506020840151606084015260408401516080840152809150509392505050565b602081526000613daf6020830184613d04565b9392505050565b60008235609e19833603018112613dcc57600080fd5b9190910192915050565b8035612dda81613403565b600060208284031215613df357600080fd5b8151612c2c81613482565b8183526000602080850194508260005b8581101561384b578135613e2181613403565b6001600160a01b0316875281830135613e3981613b4a565b6001600160601b0316878401526040968701969190910190600101613e0e565b60208082528181018390526000906040808401600586901b8501820187855b88811015613f5857878303603f190184528135368b9003609e19018112613e9e57600080fd5b8a0160a0813536839003601e19018112613eb757600080fd5b820180356001600160401b03811115613ecf57600080fd5b8060061b3603841315613ee157600080fd5b828752613ef3838801828c8501613dfe565b92505050613f02888301613dd6565b6001600160a01b03168886015281870135878601526060613f248184016134ad565b63ffffffff16908601526080613f3b8382016134ad565b63ffffffff16950194909452509285019290850190600101613e78565b509098975050505050505050565b6000816000190483118215151615613f8057613f80613b01565b500290565b600061ffff80831681811415613f9d57613f9d613b01565b600101939250505056fe30644e72e131a029b85045b68181585d97816a916871ca8d3c208c16d87cfd47424c535369676e6174757265436865636b65722e636865636b5369676e617475a2646970667358221220385b53c243615f73fcb197652c1559cfc53f572d7d4298a65f9389029abee49064736f6c634300080c0033","linkReferences":{}},"methodIdentifiers":{"avsDirectory()":"6b3aa72e","blsApkRegistry()":"5df45946","checkSignatures(bytes32,bytes,uint32,(uint32[],(uint256,uint256)[],(uint256,uint256)[],(uint256[2],uint256[2]),(uint256,uint256),uint32[],uint32[],uint32[][]))":"6efb4636","createAVSRewardsSubmission(((address,uint96)[],address,uint256,uint32,uint32)[])":"fce36c7d","delegation()":"df5cf723","deregisterOperatorFromAVS(address)":"a364f4da","getOperatorRestakedStrategies(address)":"33cfb7b7","getRestakeableStrategies()":"e481af9d","initialize(address)":"c4d66de8","owner()":"8da5cb5b","registerOperatorToAVS(address,(bytes,bytes32,uint256))":"9926ee7d","registryCoordinator()":"6d14a987","renounceOwnership()":"715018a6","rewardsInitiator()":"fc299dee","setRewardsInitiator(address)":"3bc28c8c","setStaleStakesForbidden(bool)":"416c7e5e","stakeRegistry()":"68304835","staleStakesForbidden()":"b98d0908","transferOwnership(address)":"f2fde38b","trySignatureAndApkVerification(bytes32,(uint256,uint256),(uint256[2],uint256[2]),(uint256,uint256))":"171f1d5b","updateAVSMetadataURI(string)":"a98fb355"},"id":98}