{"abi":[{"type":"function","name":"getCheckSignaturesIndices","inputs":[{"name":"registryCoordinator","type":"address","internalType":"contract IRegistryCoordinator"},{"name":"referenceBlockNumber","type":"uint32","internalType":"uint32"},{"name":"quorumNumbers","type":"bytes","internalType":"bytes"},{"name":"nonSignerOperatorIds","type":"bytes32[]","internalType":"bytes32[]"}],"outputs":[{"name":"","type":"tuple","internalType":"struct OperatorStateRetriever.CheckSignaturesIndices","components":[{"name":"nonSignerQuorumBitmapIndices","type":"uint32[]","internalType":"uint32[]"},{"name":"quorumApkIndices","type":"uint32[]","internalType":"uint32[]"},{"name":"totalStakeIndices","type":"uint32[]","internalType":"uint32[]"},{"name":"nonSignerStakeIndices","type":"uint32[][]","internalType":"uint32[][]"}]}],"stateMutability":"view"},{"type":"function","name":"getOperatorState","inputs":[{"name":"registryCoordinator","type":"address","internalType":"contract IRegistryCoordinator"},{"name":"quorumNumbers","type":"bytes","internalType":"bytes"},{"name":"blockNumber","type":"uint32","internalType":"uint32"}],"outputs":[{"name":"","type":"tuple[][]","internalType":"struct OperatorStateRetriever.Operator[][]","components":[{"name":"operator","type":"address","internalType":"address"},{"name":"operatorId","type":"bytes32","internalType":"bytes32"},{"name":"stake","type":"uint96","internalType":"uint96"}]}],"stateMutability":"view"},{"type":"function","name":"getOperatorState","inputs":[{"name":"registryCoordinator","type":"address","internalType":"contract IRegistryCoordinator"},{"name":"operatorId","type":"bytes32","internalType":"bytes32"},{"name":"blockNumber","type":"uint32","internalType":"uint32"}],"outputs":[{"name":"","type":"uint256","internalType":"uint256"},{"name":"","type":"tuple[][]","internalType":"struct OperatorStateRetriever.Operator[][]","components":[{"name":"operator","type":"address","internalType":"address"},{"name":"operatorId","type":"bytes32","internalType":"bytes32"},{"name":"stake","type":"uint96","internalType":"uint96"}]}],"stateMutability":"view"},{"type":"function","name":"getQuorumBitmapsAtBlockNumber","inputs":[{"name":"registryCoordinator","type":"address","internalType":"contract IRegistryCoordinator"},{"name":"operatorIds","type":"bytes32[]","internalType":"bytes32[]"},{"name":"blockNumber","type":"uint32","internalType":"uint32"}],"outputs":[{"name":"","type":"uint256[]","internalType":"uint256[]"}],"stateMutability":"view"}],"bytecode":{"object":"0x608060405234801561001057600080fd5b50611a05806100206000396000f3fe608060405234801561001057600080fd5b506004361061004c5760003560e01c80633563b0d1146100515780634f739f741461007a5780635c1556621461009a578063cefdc1d4146100ba575b600080fd5b61006461005f366004611172565b6100db565b60405161007191906112cd565b60405180910390f35b61008d610088366004611332565b610571565b6040516100719190611435565b6100ad6100a8366004611513565b610c9b565b60405161007191906115c4565b6100cd6100c8366004611608565b610e63565b60405161007192919061164a565b60606000846001600160a01b031663683048356040518163ffffffff1660e01b8152600401602060405180830381865afa15801561011d573d6000803e3d6000fd5b505050506040513d601f19601f82011682018060405250810190610141919061166b565b90506000856001600160a01b0316639e9923c26040518163ffffffff1660e01b8152600401602060405180830381865afa158015610183573d6000803e3d6000fd5b505050506040513d601f19601f820116820180604052508101906101a7919061166b565b90506000866001600160a01b0316635df459466040518163ffffffff1660e01b8152600401602060405180830381865afa1580156101e9573d6000803e3d6000fd5b505050506040513d601f19601f8201168201806040525081019061020d919061166b565b9050600086516001600160401b0381111561022a5761022a61110a565b60405190808252806020026020018201604052801561025d57816020015b60608152602001906001900390816102485790505b50905060005b875181101561056557600088828151811061028057610280611688565b0160200151604051638902624560e01b815260f89190911c6004820181905263ffffffff8a16602483015291506000906001600160a01b03871690638902624590604401600060405180830381865afa1580156102e1573d6000803e3d6000fd5b505050506040513d6000823e601f3d908101601f19168201604052610309919081019061169e565b905080516001600160401b038111156103245761032461110a565b60405190808252806020026020018201604052801561036f57816020015b60408051606081018252600080825260208083018290529282015282526000199092019101816103425790505b5084848151811061038257610382611688565b602002602001018190525060005b815181101561054f576040518060600160405280876001600160a01b03166347b314e88585815181106103c5576103c5611688565b60200260200101516040518263ffffffff1660e01b81526004016103eb91815260200190565b602060405180830381865afa158015610408573d6000803e3d6000fd5b505050506040513d601f19601f8201168201806040525081019061042c919061166b565b6001600160a01b0316815260200183838151811061044c5761044c611688565b60200260200101518152602001896001600160a01b031663fa28c62785858151811061047a5761047a611688565b60209081029190910101516040516001600160e01b031960e084901b168152600481019190915260ff8816602482015263ffffffff8f166044820152606401602060405180830381865afa1580156104d6573d6000803e3d6000fd5b505050506040513d601f19601f820116820180604052508101906104fa919061172e565b6001600160601b031681525085858151811061051857610518611688565b6020026020010151828151811061053157610531611688565b602002602001018190525080806105479061176d565b915050610390565b505050808061055d9061176d565b915050610263565b50979650505050505050565b61059c6040518060800160405280606081526020016060815260200160608152602001606081525090565b6000876001600160a01b031663683048356040518163ffffffff1660e01b8152600401602060405180830381865afa1580156105dc573d6000803e3d6000fd5b505050506040513d601f19601f82011682018060405250810190610600919061166b565b905061062d6040518060800160405280606081526020016060815260200160608152602001606081525090565b6040516361c8a12f60e11b81526001600160a01b038a169063c391425e9061065d908b9089908990600401611788565b600060405180830381865afa15801561067a573d6000803e3d6000fd5b505050506040513d6000823e601f3d908101601f191682016040526106a291908101906117d2565b81526040516340e03a8160e11b81526001600160a01b038316906381c07502906106d4908b908b908b90600401611889565b600060405180830381865afa1580156106f1573d6000803e3d6000fd5b505050506040513d6000823e601f3d908101601f1916820160405261071991908101906117d2565b6040820152856001600160401b038111156107365761073661110a565b60405190808252806020026020018201604052801561076957816020015b60608152602001906001900390816107545790505b50606082015260005b60ff8116871115610bac576000856001600160401b038111156107975761079761110a565b6040519080825280602002602001820160405280156107c0578160200160208202803683370190505b5083606001518360ff16815181106107da576107da611688565b602002602001018190525060005b86811015610aac5760008c6001600160a01b03166304ec63518a8a8581811061081357610813611688565b905060200201358e8860000151868151811061083157610831611688565b60200260200101516040518463ffffffff1660e01b815260040161086e9392919092835263ffffffff918216602084015216604082015260600190565b602060405180830381865afa15801561088b573d6000803e3d6000fd5b505050506040513d601f19601f820116820180604052508101906108af91906118b2565b90506001600160c01b0381166109575760405162461bcd60e51b815260206004820152605c60248201527f4f70657261746f7253746174655265747269657665722e676574436865636b5360448201527f69676e617475726573496e64696365733a206f70657261746f72206d7573742060648201527f6265207265676973746572656420617420626c6f636b6e756d62657200000000608482015260a40160405180910390fd5b8a8a8560ff1681811061096c5761096c611688565b6001600160c01b03841692013560f81c9190911c600190811614159050610a9957856001600160a01b031663dd9846b98a8a858181106109ae576109ae611688565b905060200201358d8d8860ff168181106109ca576109ca611688565b6040516001600160e01b031960e087901b1681526004810194909452919091013560f81c60248301525063ffffffff8f166044820152606401602060405180830381865afa158015610a20573d6000803e3d6000fd5b505050506040513d601f19601f82011682018060405250810190610a4491906118db565b85606001518560ff1681518110610a5d57610a5d611688565b60200260200101518481518110610a7657610a76611688565b63ffffffff9092166020928302919091019091015282610a958161176d565b9350505b5080610aa48161176d565b9150506107e8565b506000816001600160401b03811115610ac757610ac761110a565b604051908082528060200260200182016040528015610af0578160200160208202803683370190505b50905060005b82811015610b715784606001518460ff1681518110610b1757610b17611688565b60200260200101518181518110610b3057610b30611688565b6020026020010151828281518110610b4a57610b4a611688565b63ffffffff9092166020928302919091019091015280610b698161176d565b915050610af6565b508084606001518460ff1681518110610b8c57610b8c611688565b602002602001018190525050508080610ba4906118f8565b915050610772565b506000896001600160a01b0316635df459466040518163ffffffff1660e01b8152600401602060405180830381865afa158015610bed573d6000803e3d6000fd5b505050506040513d601f19601f82011682018060405250810190610c11919061166b565b60405163354952a360e21b81529091506001600160a01b0382169063d5254a8c90610c44908b908b908e90600401611918565b600060405180830381865afa158015610c61573d6000803e3d6000fd5b505050506040513d6000823e601f3d908101601f19168201604052610c8991908101906117d2565b60208301525098975050505050505050565b60606000846001600160a01b031663c391425e84866040518363ffffffff1660e01b8152600401610ccd929190611942565b600060405180830381865afa158015610cea573d6000803e3d6000fd5b505050506040513d6000823e601f3d908101601f19168201604052610d1291908101906117d2565b9050600084516001600160401b03811115610d2f57610d2f61110a565b604051908082528060200260200182016040528015610d58578160200160208202803683370190505b50905060005b8551811015610e5957866001600160a01b03166304ec6351878381518110610d8857610d88611688565b602002602001015187868581518110610da357610da3611688565b60200260200101516040518463ffffffff1660e01b8152600401610de09392919092835263ffffffff918216602084015216604082015260600190565b602060405180830381865afa158015610dfd573d6000803e3d6000fd5b505050506040513d601f19601f82011682018060405250810190610e2191906118b2565b6001600160c01b0316828281518110610e3c57610e3c611688565b602090810291909101015280610e518161176d565b915050610d5e565b5095945050505050565b6040805160018082528183019092526000916060918391602080830190803683370190505090508481600081518110610e9e57610e9e611688565b60209081029190910101526040516361c8a12f60e11b81526000906001600160a01b0388169063c391425e90610eda9088908690600401611942565b600060405180830381865afa158015610ef7573d6000803e3d6000fd5b505050506040513d6000823e601f3d908101601f19168201604052610f1f91908101906117d2565b600081518110610f3157610f31611688565b60209081029190910101516040516304ec635160e01b81526004810188905263ffffffff87811660248301529091166044820181905291506000906001600160a01b038916906304ec635190606401602060405180830381865afa158015610f9d573d6000803e3d6000fd5b505050506040513d601f19601f82011682018060405250810190610fc191906118b2565b6001600160c01b031690506000610fd782610ff5565b905081610fe58a838a6100db565b9550955050505050935093915050565b6060600080611003846110c1565b61ffff166001600160401b0381111561101e5761101e61110a565b6040519080825280601f01601f191660200182016040528015611048576020820181803683370190505b5090506000805b825182108015611060575061010081105b156110b7576001811b9350858416156110a7578060f81b83838151811061108957611089611688565b60200101906001600160f81b031916908160001a9053508160010191505b6110b08161176d565b905061104f565b5090949350505050565b6000805b82156110ec576110d6600184611996565b90921691806110e4816119ad565b9150506110c5565b92915050565b6001600160a01b038116811461110757600080fd5b50565b634e487b7160e01b600052604160045260246000fd5b604051601f8201601f191681016001600160401b03811182821017156111485761114861110a565b604052919050565b63ffffffff8116811461110757600080fd5b803561116d81611150565b919050565b60008060006060848603121561118757600080fd5b8335611192816110f2565b92506020848101356001600160401b03808211156111af57600080fd5b818701915087601f8301126111c357600080fd5b8135818111156111d5576111d561110a565b6111e7601f8201601f19168501611120565b915080825288848285010111156111fd57600080fd5b808484018584013760008482840101525080945050505061122060408501611162565b90509250925092565b600081518084526020808501808196508360051b810191508286016000805b868110156112bf578385038a52825180518087529087019087870190845b818110156112aa57835180516001600160a01b031684528a8101518b8501526040908101516001600160601b03169084015292890192606090920191600101611266565b50509a87019a95505091850191600101611248565b509298975050505050505050565b6020815260006112e06020830184611229565b9392505050565b60008083601f8401126112f957600080fd5b5081356001600160401b0381111561131057600080fd5b6020830191508360208260051b850101111561132b57600080fd5b9250929050565b6000806000806000806080878903121561134b57600080fd5b8635611356816110f2565b9550602087013561136681611150565b945060408701356001600160401b038082111561138257600080fd5b818901915089601f83011261139657600080fd5b8135818111156113a557600080fd5b8a60208285010111156113b757600080fd5b6020830196508095505060608901359150808211156113d557600080fd5b506113e289828a016112e7565b979a9699509497509295939492505050565b600081518084526020808501945080840160005b8381101561142a57815163ffffffff1687529582019590820190600101611408565b509495945050505050565b60006020808352835160808285015261145160a08501826113f4565b905081850151601f198086840301604087015261146e83836113f4565b9250604087015191508086840301606087015261148b83836113f4565b60608801518782038301608089015280518083529194508501925084840190600581901b8501860160005b828110156114e257848783030184526114d08287516113f4565b958801959388019391506001016114b6565b509998505050505050505050565b60006001600160401b038211156115095761150961110a565b5060051b60200190565b60008060006060848603121561152857600080fd5b8335611533816110f2565b92506020848101356001600160401b0381111561154f57600080fd5b8501601f8101871361156057600080fd5b803561157361156e826114f0565b611120565b81815260059190911b8201830190838101908983111561159257600080fd5b928401925b828410156115b057833582529284019290840190611597565b809650505050505061122060408501611162565b6020808252825182820181905260009190848201906040850190845b818110156115fc578351835292840192918401916001016115e0565b50909695505050505050565b60008060006060848603121561161d57600080fd5b8335611628816110f2565b925060208401359150604084013561163f81611150565b809150509250925092565b8281526040602082015260006116636040830184611229565b949350505050565b60006020828403121561167d57600080fd5b81516112e0816110f2565b634e487b7160e01b600052603260045260246000fd5b600060208083850312156116b157600080fd5b82516001600160401b038111156116c757600080fd5b8301601f810185136116d857600080fd5b80516116e661156e826114f0565b81815260059190911b8201830190838101908783111561170557600080fd5b928401925b828410156117235783518252928401929084019061170a565b979650505050505050565b60006020828403121561174057600080fd5b81516001600160601b03811681146112e057600080fd5b634e487b7160e01b600052601160045260246000fd5b600060001982141561178157611781611757565b5060010190565b63ffffffff84168152604060208201819052810182905260006001600160fb1b038311156117b557600080fd5b8260051b8085606085013760009201606001918252509392505050565b600060208083850312156117e557600080fd5b82516001600160401b038111156117fb57600080fd5b8301601f8101851361180c57600080fd5b805161181a61156e826114f0565b81815260059190911b8201830190838101908783111561183957600080fd5b928401925b8284101561172357835161185181611150565b8252928401929084019061183e565b81835281816020850137506000828201602090810191909152601f909101601f19169091010190565b63ffffffff841681526040602082015260006118a9604083018486611860565b95945050505050565b6000602082840312156118c457600080fd5b81516001600160c01b03811681146112e057600080fd5b6000602082840312156118ed57600080fd5b81516112e081611150565b600060ff821660ff81141561190f5761190f611757565b60010192915050565b60408152600061192c604083018587611860565b905063ffffffff83166020830152949350505050565b60006040820163ffffffff851683526020604081850152818551808452606086019150828701935060005b818110156119895784518352938301939183019160010161196d565b5090979650505050505050565b6000828210156119a8576119a8611757565b500390565b600061ffff808316818114156119c5576119c5611757565b600101939250505056fea2646970667358221220196e622dd45bd36100017611c9871df09eb9e71d102f84ca0b1889e5f3362eb264736f6c634300080c0033","linkReferences":{}},"methodIdentifiers":{"getCheckSignaturesIndices(address,uint32,bytes,bytes32[])":"4f739f74","getOperatorState(address,bytes,uint32)":"3563b0d1","getOperatorState(address,bytes32,uint32)":"cefdc1d4","getQuorumBitmapsAtBlockNumber(address,bytes32[],uint32)":"5c155662"},"id":100}