{"abi":[{"type":"constructor","inputs":[{"name":"_serviceManager","type":"address","internalType":"contract IServiceManager"},{"name":"_stakeRegistry","type":"address","internalType":"contract IStakeRegistry"},{"name":"_blsApkRegistry","type":"address","internalType":"contract IBLSApkRegistry"},{"name":"_indexRegistry","type":"address","internalType":"contract IIndexRegistry"}],"stateMutability":"nonpayable"},{"type":"function","name":"OPERATOR_CHURN_APPROVAL_TYPEHASH","inputs":[],"outputs":[{"name":"","type":"bytes32","internalType":"bytes32"}],"stateMutability":"view"},{"type":"function","name":"PUBKEY_REGISTRATION_TYPEHASH","inputs":[],"outputs":[{"name":"","type":"bytes32","internalType":"bytes32"}],"stateMutability":"view"},{"type":"function","name":"blsApkRegistry","inputs":[],"outputs":[{"name":"","type":"address","internalType":"contract IBLSApkRegistry"}],"stateMutability":"view"},{"type":"function","name":"calculateOperatorChurnApprovalDigestHash","inputs":[{"name":"registeringOperator","type":"address","internalType":"address"},{"name":"registeringOperatorId","type":"bytes32","internalType":"bytes32"},{"name":"operatorKickParams","type":"tuple[]","internalType":"struct IRegistryCoordinator.OperatorKickParam[]","components":[{"name":"quorumNumber","type":"uint8","internalType":"uint8"},{"name":"operator","type":"address","internalType":"address"}]},{"name":"salt","type":"bytes32","internalType":"bytes32"},{"name":"expiry","type":"uint256","internalType":"uint256"}],"outputs":[{"name":"","type":"bytes32","internalType":"bytes32"}],"stateMutability":"view"},{"type":"function","name":"churnApprover","inputs":[],"outputs":[{"name":"","type":"address","internalType":"address"}],"stateMutability":"view"},{"type":"function","name":"createQuorum","inputs":[{"name":"operatorSetParams","type":"tuple","internalType":"struct IRegistryCoordinator.OperatorSetParam","components":[{"name":"maxOperatorCount","type":"uint32","internalType":"uint32"},{"name":"kickBIPsOfOperatorStake","type":"uint16","internalType":"uint16"},{"name":"kickBIPsOfTotalStake","type":"uint16","internalType":"uint16"}]},{"name":"minimumStake","type":"uint96","internalType":"uint96"},{"name":"strategyParams","type":"tuple[]","internalType":"struct IStakeRegistry.StrategyParams[]","components":[{"name":"strategy","type":"address","internalType":"contract IStrategy"},{"name":"multiplier","type":"uint96","internalType":"uint96"}]}],"outputs":[],"stateMutability":"nonpayable"},{"type":"function","name":"deregisterOperator","inputs":[{"name":"quorumNumbers","type":"bytes","internalType":"bytes"}],"outputs":[],"stateMutability":"nonpayable"},{"type":"function","name":"ejectOperator","inputs":[{"name":"operator","type":"address","internalType":"address"},{"name":"quorumNumbers","type":"bytes","internalType":"bytes"}],"outputs":[],"stateMutability":"nonpayable"},{"type":"function","name":"ejectionCooldown","inputs":[],"outputs":[{"name":"","type":"uint256","internalType":"uint256"}],"stateMutability":"view"},{"type":"function","name":"ejector","inputs":[],"outputs":[{"name":"","type":"address","internalType":"address"}],"stateMutability":"view"},{"type":"function","name":"getCurrentQuorumBitmap","inputs":[{"name":"operatorId","type":"bytes32","internalType":"bytes32"}],"outputs":[{"name":"","type":"uint192","internalType":"uint192"}],"stateMutability":"view"},{"type":"function","name":"getOperator","inputs":[{"name":"operator","type":"address","internalType":"address"}],"outputs":[{"name":"","type":"tuple","internalType":"struct IRegistryCoordinator.OperatorInfo","components":[{"name":"operatorId","type":"bytes32","internalType":"bytes32"},{"name":"status","type":"uint8","internalType":"enum IRegistryCoordinator.OperatorStatus"}]}],"stateMutability":"view"},{"type":"function","name":"getOperatorFromId","inputs":[{"name":"operatorId","type":"bytes32","internalType":"bytes32"}],"outputs":[{"name":"","type":"address","internalType":"address"}],"stateMutability":"view"},{"type":"function","name":"getOperatorId","inputs":[{"name":"operator","type":"address","internalType":"address"}],"outputs":[{"name":"","type":"bytes32","internalType":"bytes32"}],"stateMutability":"view"},{"type":"function","name":"getOperatorSetParams","inputs":[{"name":"quorumNumber","type":"uint8","internalType":"uint8"}],"outputs":[{"name":"","type":"tuple","internalType":"struct IRegistryCoordinator.OperatorSetParam","components":[{"name":"maxOperatorCount","type":"uint32","internalType":"uint32"},{"name":"kickBIPsOfOperatorStake","type":"uint16","internalType":"uint16"},{"name":"kickBIPsOfTotalStake","type":"uint16","internalType":"uint16"}]}],"stateMutability":"view"},{"type":"function","name":"getOperatorStatus","inputs":[{"name":"operator","type":"address","internalType":"address"}],"outputs":[{"name":"","type":"uint8","internalType":"enum IRegistryCoordinator.OperatorStatus"}],"stateMutability":"view"},{"type":"function","name":"getQuorumBitmapAtBlockNumberByIndex","inputs":[{"name":"operatorId","type":"bytes32","internalType":"bytes32"},{"name":"blockNumber","type":"uint32","internalType":"uint32"},{"name":"index","type":"uint256","internalType":"uint256"}],"outputs":[{"name":"","type":"uint192","internalType":"uint192"}],"stateMutability":"view"},{"type":"function","name":"getQuorumBitmapHistoryLength","inputs":[{"name":"operatorId","type":"bytes32","internalType":"bytes32"}],"outputs":[{"name":"","type":"uint256","internalType":"uint256"}],"stateMutability":"view"},{"type":"function","name":"getQuorumBitmapIndicesAtBlockNumber","inputs":[{"name":"blockNumber","type":"uint32","internalType":"uint32"},{"name":"operatorIds","type":"bytes32[]","internalType":"bytes32[]"}],"outputs":[{"name":"","type":"uint32[]","internalType":"uint32[]"}],"stateMutability":"view"},{"type":"function","name":"getQuorumBitmapUpdateByIndex","inputs":[{"name":"operatorId","type":"bytes32","internalType":"bytes32"},{"name":"index","type":"uint256","internalType":"uint256"}],"outputs":[{"name":"","type":"tuple","internalType":"struct IRegistryCoordinator.QuorumBitmapUpdate","components":[{"name":"updateBlockNumber","type":"uint32","internalType":"uint32"},{"name":"nextUpdateBlockNumber","type":"uint32","internalType":"uint32"},{"name":"quorumBitmap","type":"uint192","internalType":"uint192"}]}],"stateMutability":"view"},{"type":"function","name":"indexRegistry","inputs":[],"outputs":[{"name":"","type":"address","internalType":"contract IIndexRegistry"}],"stateMutability":"view"},{"type":"function","name":"initialize","inputs":[{"name":"_initialOwner","type":"address","internalType":"address"},{"name":"_churnApprover","type":"address","internalType":"address"},{"name":"_ejector","type":"address","internalType":"address"},{"name":"_pauserRegistry","type":"address","internalType":"contract IPauserRegistry"},{"name":"_initialPausedStatus","type":"uint256","internalType":"uint256"},{"name":"_operatorSetParams","type":"tuple[]","internalType":"struct IRegistryCoordinator.OperatorSetParam[]","components":[{"name":"maxOperatorCount","type":"uint32","internalType":"uint32"},{"name":"kickBIPsOfOperatorStake","type":"uint16","internalType":"uint16"},{"name":"kickBIPsOfTotalStake","type":"uint16","internalType":"uint16"}]},{"name":"_minimumStakes","type":"uint96[]","internalType":"uint96[]"},{"name":"_strategyParams","type":"tuple[][]","internalType":"struct IStakeRegistry.StrategyParams[][]","components":[{"name":"strategy","type":"address","internalType":"contract IStrategy"},{"name":"multiplier","type":"uint96","internalType":"uint96"}]}],"outputs":[],"stateMutability":"nonpayable"},{"type":"function","name":"isChurnApproverSaltUsed","inputs":[{"name":"","type":"bytes32","internalType":"bytes32"}],"outputs":[{"name":"","type":"bool","internalType":"bool"}],"stateMutability":"view"},{"type":"function","name":"lastEjectionTimestamp","inputs":[{"name":"","type":"address","internalType":"address"}],"outputs":[{"name":"","type":"uint256","internalType":"uint256"}],"stateMutability":"view"},{"type":"function","name":"numRegistries","inputs":[],"outputs":[{"name":"","type":"uint256","internalType":"uint256"}],"stateMutability":"view"},{"type":"function","name":"owner","inputs":[],"outputs":[{"name":"","type":"address","internalType":"address"}],"stateMutability":"view"},{"type":"function","name":"pause","inputs":[{"name":"newPausedStatus","type":"uint256","internalType":"uint256"}],"outputs":[],"stateMutability":"nonpayable"},{"type":"function","name":"pauseAll","inputs":[],"outputs":[],"stateMutability":"nonpayable"},{"type":"function","name":"paused","inputs":[{"name":"index","type":"uint8","internalType":"uint8"}],"outputs":[{"name":"","type":"bool","internalType":"bool"}],"stateMutability":"view"},{"type":"function","name":"paused","inputs":[],"outputs":[{"name":"","type":"uint256","internalType":"uint256"}],"stateMutability":"view"},{"type":"function","name":"pauserRegistry","inputs":[],"outputs":[{"name":"","type":"address","internalType":"contract IPauserRegistry"}],"stateMutability":"view"},{"type":"function","name":"pubkeyRegistrationMessageHash","inputs":[{"name":"operator","type":"address","internalType":"address"}],"outputs":[{"name":"","type":"tuple","internalType":"struct BN254.G1Point","components":[{"name":"X","type":"uint256","internalType":"uint256"},{"name":"Y","type":"uint256","internalType":"uint256"}]}],"stateMutability":"view"},{"type":"function","name":"quorumCount","inputs":[],"outputs":[{"name":"","type":"uint8","internalType":"uint8"}],"stateMutability":"view"},{"type":"function","name":"quorumUpdateBlockNumber","inputs":[{"name":"","type":"uint8","internalType":"uint8"}],"outputs":[{"name":"","type":"uint256","internalType":"uint256"}],"stateMutability":"view"},{"type":"function","name":"registerOperator","inputs":[{"name":"quorumNumbers","type":"bytes","internalType":"bytes"},{"name":"socket","type":"string","internalType":"string"},{"name":"params","type":"tuple","internalType":"struct IBLSApkRegistry.PubkeyRegistrationParams","components":[{"name":"pubkeyRegistrationSignature","type":"tuple","internalType":"struct BN254.G1Point","components":[{"name":"X","type":"uint256","internalType":"uint256"},{"name":"Y","type":"uint256","internalType":"uint256"}]},{"name":"pubkeyG1","type":"tuple","internalType":"struct BN254.G1Point","components":[{"name":"X","type":"uint256","internalType":"uint256"},{"name":"Y","type":"uint256","internalType":"uint256"}]},{"name":"pubkeyG2","type":"tuple","internalType":"struct BN254.G2Point","components":[{"name":"X","type":"uint256[2]","internalType":"uint256[2]"},{"name":"Y","type":"uint256[2]","internalType":"uint256[2]"}]}]},{"name":"operatorSignature","type":"tuple","internalType":"struct ISignatureUtils.SignatureWithSaltAndExpiry","components":[{"name":"signature","type":"bytes","internalType":"bytes"},{"name":"salt","type":"bytes32","internalType":"bytes32"},{"name":"expiry","type":"uint256","internalType":"uint256"}]}],"outputs":[],"stateMutability":"nonpayable"},{"type":"function","name":"registerOperatorWithChurn","inputs":[{"name":"quorumNumbers","type":"bytes","internalType":"bytes"},{"name":"socket","type":"string","internalType":"string"},{"name":"params","type":"tuple","internalType":"struct IBLSApkRegistry.PubkeyRegistrationParams","components":[{"name":"pubkeyRegistrationSignature","type":"tuple","internalType":"struct BN254.G1Point","components":[{"name":"X","type":"uint256","internalType":"uint256"},{"name":"Y","type":"uint256","internalType":"uint256"}]},{"name":"pubkeyG1","type":"tuple","internalType":"struct BN254.G1Point","components":[{"name":"X","type":"uint256","internalType":"uint256"},{"name":"Y","type":"uint256","internalType":"uint256"}]},{"name":"pubkeyG2","type":"tuple","internalType":"struct BN254.G2Point","components":[{"name":"X","type":"uint256[2]","internalType":"uint256[2]"},{"name":"Y","type":"uint256[2]","internalType":"uint256[2]"}]}]},{"name":"operatorKickParams","type":"tuple[]","internalType":"struct IRegistryCoordinator.OperatorKickParam[]","components":[{"name":"quorumNumber","type":"uint8","internalType":"uint8"},{"name":"operator","type":"address","internalType":"address"}]},{"name":"churnApproverSignature","type":"tuple","internalType":"struct ISignatureUtils.SignatureWithSaltAndExpiry","components":[{"name":"signature","type":"bytes","internalType":"bytes"},{"name":"salt","type":"bytes32","internalType":"bytes32"},{"name":"expiry","type":"uint256","internalType":"uint256"}]},{"name":"operatorSignature","type":"tuple","internalType":"struct ISignatureUtils.SignatureWithSaltAndExpiry","components":[{"name":"signature","type":"bytes","internalType":"bytes"},{"name":"salt","type":"bytes32","internalType":"bytes32"},{"name":"expiry","type":"uint256","internalType":"uint256"}]}],"outputs":[],"stateMutability":"nonpayable"},{"type":"function","name":"registries","inputs":[{"name":"","type":"uint256","internalType":"uint256"}],"outputs":[{"name":"","type":"address","internalType":"address"}],"stateMutability":"view"},{"type":"function","name":"renounceOwnership","inputs":[],"outputs":[],"stateMutability":"nonpayable"},{"type":"function","name":"serviceManager","inputs":[],"outputs":[{"name":"","type":"address","internalType":"contract IServiceManager"}],"stateMutability":"view"},{"type":"function","name":"setChurnApprover","inputs":[{"name":"_churnApprover","type":"address","internalType":"address"}],"outputs":[],"stateMutability":"nonpayable"},{"type":"function","name":"setEjectionCooldown","inputs":[{"name":"_ejectionCooldown","type":"uint256","internalType":"uint256"}],"outputs":[],"stateMutability":"nonpayable"},{"type":"function","name":"setEjector","inputs":[{"name":"_ejector","type":"address","internalType":"address"}],"outputs":[],"stateMutability":"nonpayable"},{"type":"function","name":"setOperatorSetParams","inputs":[{"name":"quorumNumber","type":"uint8","internalType":"uint8"},{"name":"operatorSetParams","type":"tuple","internalType":"struct IRegistryCoordinator.OperatorSetParam","components":[{"name":"maxOperatorCount","type":"uint32","internalType":"uint32"},{"name":"kickBIPsOfOperatorStake","type":"uint16","internalType":"uint16"},{"name":"kickBIPsOfTotalStake","type":"uint16","internalType":"uint16"}]}],"outputs":[],"stateMutability":"nonpayable"},{"type":"function","name":"setPauserRegistry","inputs":[{"name":"newPauserRegistry","type":"address","internalType":"contract IPauserRegistry"}],"outputs":[],"stateMutability":"nonpayable"},{"type":"function","name":"stakeRegistry","inputs":[],"outputs":[{"name":"","type":"address","internalType":"contract IStakeRegistry"}],"stateMutability":"view"},{"type":"function","name":"transferOwnership","inputs":[{"name":"newOwner","type":"address","internalType":"address"}],"outputs":[],"stateMutability":"nonpayable"},{"type":"function","name":"unpause","inputs":[{"name":"newPausedStatus","type":"uint256","internalType":"uint256"}],"outputs":[],"stateMutability":"nonpayable"},{"type":"function","name":"updateOperators","inputs":[{"name":"operators","type":"address[]","internalType":"address[]"}],"outputs":[],"stateMutability":"nonpayable"},{"type":"function","name":"updateOperatorsForQuorum","inputs":[{"name":"operatorsPerQuorum","type":"address[][]","internalType":"address[][]"},{"name":"quorumNumbers","type":"bytes","internalType":"bytes"}],"outputs":[],"stateMutability":"nonpayable"},{"type":"function","name":"updateSocket","inputs":[{"name":"socket","type":"string","internalType":"string"}],"outputs":[],"stateMutability":"nonpayable"},{"type":"event","name":"ChurnApproverUpdated","inputs":[{"name":"prevChurnApprover","type":"address","indexed":false,"internalType":"address"},{"name":"newChurnApprover","type":"address","indexed":false,"internalType":"address"}],"anonymous":false},{"type":"event","name":"EjectorUpdated","inputs":[{"name":"prevEjector","type":"address","indexed":false,"internalType":"address"},{"name":"newEjector","type":"address","indexed":false,"internalType":"address"}],"anonymous":false},{"type":"event","name":"Initialized","inputs":[{"name":"version","type":"uint8","indexed":false,"internalType":"uint8"}],"anonymous":false},{"type":"event","name":"OperatorDeregistered","inputs":[{"name":"operator","type":"address","indexed":true,"internalType":"address"},{"name":"operatorId","type":"bytes32","indexed":true,"internalType":"bytes32"}],"anonymous":false},{"type":"event","name":"OperatorRegistered","inputs":[{"name":"operator","type":"address","indexed":true,"internalType":"address"},{"name":"operatorId","type":"bytes32","indexed":true,"internalType":"bytes32"}],"anonymous":false},{"type":"event","name":"OperatorSetParamsUpdated","inputs":[{"name":"quorumNumber","type":"uint8","indexed":true,"internalType":"uint8"},{"name":"operatorSetParams","type":"tuple","indexed":false,"internalType":"struct IRegistryCoordinator.OperatorSetParam","components":[{"name":"maxOperatorCount","type":"uint32","internalType":"uint32"},{"name":"kickBIPsOfOperatorStake","type":"uint16","internalType":"uint16"},{"name":"kickBIPsOfTotalStake","type":"uint16","internalType":"uint16"}]}],"anonymous":false},{"type":"event","name":"OperatorSocketUpdate","inputs":[{"name":"operatorId","type":"bytes32","indexed":true,"internalType":"bytes32"},{"name":"socket","type":"string","indexed":false,"internalType":"string"}],"anonymous":false},{"type":"event","name":"OwnershipTransferred","inputs":[{"name":"previousOwner","type":"address","indexed":true,"internalType":"address"},{"name":"newOwner","type":"address","indexed":true,"internalType":"address"}],"anonymous":false},{"type":"event","name":"Paused","inputs":[{"name":"account","type":"address","indexed":true,"internalType":"address"},{"name":"newPausedStatus","type":"uint256","indexed":false,"internalType":"uint256"}],"anonymous":false},{"type":"event","name":"PauserRegistrySet","inputs":[{"name":"pauserRegistry","type":"address","indexed":false,"internalType":"contract IPauserRegistry"},{"name":"newPauserRegistry","type":"address","indexed":false,"internalType":"contract IPauserRegistry"}],"anonymous":false},{"type":"event","name":"QuorumBlockNumberUpdated","inputs":[{"name":"quorumNumber","type":"uint8","indexed":true,"internalType":"uint8"},{"name":"blocknumber","type":"uint256","indexed":false,"internalType":"uint256"}],"anonymous":false},{"type":"event","name":"Unpaused","inputs":[{"name":"account","type":"address","indexed":true,"internalType":"address"},{"name":"newPausedStatus","type":"uint256","indexed":false,"internalType":"uint256"}],"anonymous":false}],"bytecode":{"object":"0x6101c06040523480156200001257600080fd5b506040516200639938038062006399833981016040819052620000359162000254565b604080518082018252601681527f4156535265676973747279436f6f7264696e61746f720000000000000000000060208083019182528351808501909452600684526576302e302e3160d01b908401528151902060e08190527f6bda7e3f385e48841048390444cced5cc795af87758af67622e5f4f0882c4a996101008190524660a05287938793879387939192917f8b73c3c69bb8fe3d512ecc4cf759cc79239f7b179b0ffacaa9a75d522b39400f620001358184846040805160208101859052908101839052606081018290524660808201523060a082015260009060c0016040516020818303038152906040528051906020012090509392505050565b6080523060c05261012052505050506001600160a01b039384166101405291831661018052821661016052166101a0526200016f62000179565b50505050620002bc565b600054610100900460ff1615620001e65760405162461bcd60e51b815260206004820152602760248201527f496e697469616c697a61626c653a20636f6e747261637420697320696e697469604482015266616c697a696e6760c81b606482015260840160405180910390fd5b60005460ff908116101562000239576000805460ff191660ff9081179091556040519081527f7f26b83ff96e1f2b6a682f133852f6798a09c465da95921460cefb38474024989060200160405180910390a15b565b6001600160a01b03811681146200025157600080fd5b50565b600080600080608085870312156200026b57600080fd5b845162000278816200023b565b60208601519094506200028b816200023b565b60408601519093506200029e816200023b565b6060860151909250620002b1816200023b565b939692955090935050565b60805160a05160c05160e05161010051610120516101405161016051610180516101a051615fd5620003c4600039600081816106ab0152818161119d0152818161208501528181612eb50152818161376c0152613d440152600081816105f001528181612010015281816124b801528181612e35015281816136c3015281816139190152613cc30152600081816105b601528181610f380152818161204e01528181612db701528181612f9d01528181613013015281816136430152613dc00152600081816104fa01528181612d0d015261358b01526000613fc70152600061401601526000613ff101526000613f4a01526000613f7401526000613f9e0152615fd56000f3fe608060405234801561001057600080fd5b50600436106102d55760003560e01c80635df45946116101825780639feab859116100e9578063d72d8dd6116100a2578063e65797ad1161007c578063e65797ad14610798578063f2fde38b1461083b578063fabc1cbc1461084e578063fd39105a1461086157600080fd5b8063d72d8dd61461076a578063d75b4c8814610772578063dd8283f31461078557600080fd5b80639feab859146106cd578063a50857bf146106f4578063a96f783e14610707578063c391425e14610710578063ca0de88214610730578063ca4f2d971461075757600080fd5b8063871ef0491161013b578063871ef04914610640578063886f1195146106535780638da5cb5b1461066c5780639aa1653d146106745780639b5d177b146106935780639e9923c2146106a657600080fd5b80635df45946146105b15780636347c900146105d857806368304835146105eb5780636e3b17db14610612578063715018a61461062557806384ca52131461062d57600080fd5b8063249a0c42116102415780633c2a7f4c116101fa578063595c6a67116101d4578063595c6a671461056f5780635ac86ab7146105775780635b0b829f146105965780635c975abb146105a957600080fd5b80633c2a7f4c1461051c5780635140a5481461053c5780635865c60c1461054f57600080fd5b8063249a0c421461048957806328f61b31146104a9578063296bb064146104bc57806329d1e0c3146104cf5780632cdd1e86146104e25780633998fdd3146104f557600080fd5b806310d67a2f1161029357806310d67a2f1461039e578063125e0584146103b157806313542a4e146103d1578063136439dd146103fa5780631478851f1461040d5780631eb812da1461044057600080fd5b8062cf2ab5146102da57806303fd3492146102ef57806304ec635114610322578063054310e61461034d5780630cf4b767146103785780630d3f21341461038b575b600080fd5b6102ed6102e8366004614ac7565b61089d565b005b61030f6102fd366004614b08565b60009081526098602052604090205490565b6040519081526020015b60405180910390f35b610335610330366004614b33565b6109b3565b6040516001600160c01b039091168152602001610319565b609d54610360906001600160a01b031681565b6040516001600160a01b039091168152602001610319565b6102ed610386366004614c52565b610ba9565b6102ed610399366004614b08565b610c91565b6102ed6103ac366004614cc7565b610c9e565b61030f6103bf366004614cc7565b609f6020526000908152604090205481565b61030f6103df366004614cc7565b6001600160a01b031660009081526099602052604090205490565b6102ed610408366004614b08565b610d51565b61043061041b366004614b08565b609a6020526000908152604090205460ff1681565b6040519015158152602001610319565b61045361044e366004614ce4565b610e8e565b60408051825163ffffffff908116825260208085015190911690820152918101516001600160c01b031690820152606001610319565b61030f610497366004614d17565b609b6020526000908152604090205481565b609e54610360906001600160a01b031681565b6103606104ca366004614b08565b610f1f565b6102ed6104dd366004614cc7565b610fab565b6102ed6104f0366004614cc7565b610fbc565b6103607f000000000000000000000000000000000000000000000000000000000000000081565b61052f61052a366004614cc7565b610fcd565b6040516103199190614d32565b6102ed61054a366004614d8a565b61104c565b61056261055d366004614cc7565b61155d565b6040516103199190614e2d565b6102ed6115d1565b610430610585366004614d17565b6001805460ff9092161b9081161490565b6102ed6105a4366004614eb2565b61169d565b60015461030f565b6103607f000000000000000000000000000000000000000000000000000000000000000081565b6103606105e6366004614b08565b6116be565b6103607f000000000000000000000000000000000000000000000000000000000000000081565b6102ed610620366004614ee6565b6116e8565b6102ed6117fe565b61030f61063b366004614f9d565b611812565b61033561064e366004614b08565b61185c565b600054610360906201000090046001600160a01b031681565b610360611867565b6096546106819060ff1681565b60405160ff9091168152602001610319565b6102ed6106a1366004615136565b611880565b6103607f000000000000000000000000000000000000000000000000000000000000000081565b61030f7f2bd82124057f0913bc3b772ce7b83e8057c1ad1f3510fc83778be20f10ec5de681565b6102ed61070236600461522f565b611bb8565b61030f60a05481565b61072361071e3660046152d7565b611d3c565b604051610319919061537c565b61030f7f4d404e3276e7ac2163d8ee476afa6a41d1f68fb71f2d8b6546b24e55ce01b72a81565b6102ed6107653660046153c6565b611df5565b609c5461030f565b6102ed6107803660046154ac565b611e5c565b6102ed61079336600461565f565b611e6f565b6108076107a6366004614d17565b60408051606080820183526000808352602080840182905292840181905260ff9490941684526097825292829020825193840183525463ffffffff8116845261ffff600160201b8204811692850192909252600160301b9004169082015290565b60408051825163ffffffff16815260208084015161ffff908116918301919091529282015190921690820152606001610319565b6102ed610849366004614cc7565b612173565b6102ed61085c366004614b08565b6121e9565b61089061086f366004614cc7565b6001600160a01b031660009081526099602052604090206001015460ff1690565b6040516103199190615733565b600154600290600490811614156108cf5760405162461bcd60e51b81526004016108c690615741565b60405180910390fd5b60005b828110156109ad5760008484838181106108ee576108ee615778565b90506020020160208101906109039190614cc7565b6001600160a01b03811660009081526099602090815260408083208151808301909252805482526001810154949550929390929183019060ff16600281111561094e5761094e614df5565b600281111561095f5761095f614df5565b9052508051909150600061097282612345565b90506000610988826001600160c01b03166123ae565b905061099585858361247a565b505050505080806109a5906157a4565b9150506108d2565b50505050565b60008381526098602052604081208054829190849081106109d6576109d6615778565b600091825260209182902060408051606081018252929091015463ffffffff808216808552600160201b8304821695850195909552600160401b9091046001600160c01b03169183019190915290925085161015610ad05760405162461bcd60e51b815260206004820152606560248201527f5265676973747279436f6f7264696e61746f722e67657451756f72756d42697460448201527f6d61704174426c6f636b4e756d6265724279496e6465783a2071756f72756d4260648201527f69746d61705570646174652069732066726f6d20616674657220626c6f636b4e6084820152643ab6b132b960d91b60a482015260c4016108c6565b602081015163ffffffff161580610af65750806020015163ffffffff168463ffffffff16105b610b9d5760405162461bcd60e51b815260206004820152606660248201527f5265676973747279436f6f7264696e61746f722e67657451756f72756d42697460448201527f6d61704174426c6f636b4e756d6265724279496e6465783a2071756f72756d4260648201527f69746d61705570646174652069732066726f6d206265666f726520626c6f636b608482015265273ab6b132b960d11b60a482015260c4016108c6565b60400151949350505050565b60013360009081526099602052604090206001015460ff166002811115610bd257610bd2614df5565b14610c455760405162461bcd60e51b815260206004820152603c60248201527f5265676973747279436f6f7264696e61746f722e757064617465536f636b657460448201527f3a206f70657261746f72206973206e6f7420726567697374657265640000000060648201526084016108c6565b33600090815260996020526040908190205490517fec2963ab21c1e50e1e582aa542af2e4bf7bf38e6e1403c27b42e1c5d6e621eaa90610c8690849061580c565b60405180910390a250565b610c99612567565b60a055565b600060029054906101000a90046001600160a01b03166001600160a01b031663eab66d7a6040518163ffffffff1660e01b8152600401602060405180830381865afa158015610cf1573d6000803e3d6000fd5b505050506040513d601f19601f82011682018060405250810190610d15919061581f565b6001600160a01b0316336001600160a01b031614610d455760405162461bcd60e51b81526004016108c69061583c565b610d4e816125c6565b50565b60005460405163237dfb4760e11b8152336004820152620100009091046001600160a01b0316906346fbf68e90602401602060405180830381865afa158015610d9e573d6000803e3d6000fd5b505050506040513d601f19601f82011682018060405250810190610dc29190615886565b610dde5760405162461bcd60e51b81526004016108c6906158a8565b60015481811614610e575760405162461bcd60e51b815260206004820152603860248201527f5061757361626c652e70617573653a20696e76616c696420617474656d70742060448201527f746f20756e70617573652066756e6374696f6e616c697479000000000000000060648201526084016108c6565b600181905560405181815233907fab40a374bc51de372200a8bc981af8c9ecdc08dfdaef0bb6e09f88f3c616ef3d90602001610c86565b60408051606081018252600080825260208201819052918101919091526000838152609860205260409020805483908110610ecb57610ecb615778565b600091825260209182902060408051606081018252919092015463ffffffff8082168352600160201b820416938201939093526001600160c01b03600160401b909304929092169082015290505b92915050565b6040516308f6629d60e31b8152600481018290526000907f00000000000000000000000000000000000000000000000000000000000000006001600160a01b0316906347b314e890602401602060405180830381865afa158015610f87573d6000803e3d6000fd5b505050506040513d601f19601f82011682018060405250810190610f19919061581f565b610fb3612567565b610d4e816126cb565b610fc4612567565b610d4e81612734565b6040805180820190915260008082526020820152610f196110477f2bd82124057f0913bc3b772ce7b83e8057c1ad1f3510fc83778be20f10ec5de68460405160200161102c9291909182526001600160a01b0316602082015260400190565b6040516020818303038152906040528051906020012061279d565b6127eb565b600154600290600490811614156110755760405162461bcd60e51b81526004016108c690615741565b60006110bd84848080601f0160208091040260200160405190810160405280939291908181526020018383808284376000920191909152505060965460ff16915061287b9050565b905084831461112e5760405162461bcd60e51b81526020600482015260436024820152600080516020615f4083398151915260448201527f6f7273466f7251756f72756d3a20696e707574206c656e677468206d69736d616064820152620e8c6d60eb1b608482015260a4016108c6565b60005b8381101561155457600085858381811061114d5761114d615778565b919091013560f81c9150369050600089898581811061116e5761116e615778565b905060200281019061118091906158f0565b6040516379a0849160e11b815260ff8616600482015291935091507f00000000000000000000000000000000000000000000000000000000000000006001600160a01b03169063f341092290602401602060405180830381865afa1580156111ec573d6000803e3d6000fd5b505050506040513d601f19601f820116820180604052508101906112109190615939565b63ffffffff1681146112ac5760405162461bcd60e51b81526020600482015260656024820152600080516020615f4083398151915260448201527f6f7273466f7251756f72756d3a206e756d626572206f6620757064617465642060648201527f6f70657261746f727320646f6573206e6f74206d617463682071756f72756d206084820152641d1bdd185b60da1b60a482015260c4016108c6565b6000805b828110156114f35760008484838181106112cc576112cc615778565b90506020020160208101906112e19190614cc7565b6001600160a01b03811660009081526099602090815260408083208151808301909252805482526001810154949550929390929183019060ff16600281111561132c5761132c614df5565b600281111561133d5761133d614df5565b9052508051909150600061135082612345565b905060016001600160c01b03821660ff8b161c8116146113d45760405162461bcd60e51b815260206004820152604460248201819052600080516020615f40833981519152908201527f6f7273466f7251756f72756d3a206f70657261746f72206e6f7420696e2071756064820152636f72756d60e01b608482015260a4016108c6565b856001600160a01b0316846001600160a01b03161161147f5760405162461bcd60e51b81526020600482015260676024820152600080516020615f4083398151915260448201527f6f7273466f7251756f72756d3a206f70657261746f7273206172726179206d7560648201527f737420626520736f7274656420696e20617363656e64696e6720616464726573608482015266399037b93232b960c91b60a482015260c4016108c6565b506114dd83838f8f8d908e60016114969190615956565b926114a39392919061596e565b8080601f01602080910402602001604051908101604052809392919081815260200183838082843760009201919091525061247a92505050565b509092506114ec9050816157a4565b90506112b0565b5060ff84166000818152609b6020908152604091829020439081905591519182527f46077d55330763f16269fd75e5761663f4192d2791747c0189b16ad31db07db4910160405180910390a2505050508061154d906157a4565b9050611131565b50505050505050565b60408051808201909152600080825260208201526001600160a01b0382166000908152609960209081526040918290208251808401909352805483526001810154909183019060ff1660028111156115b7576115b7614df5565b60028111156115c8576115c8614df5565b90525092915050565b60005460405163237dfb4760e11b8152336004820152620100009091046001600160a01b0316906346fbf68e90602401602060405180830381865afa15801561161e573d6000803e3d6000fd5b505050506040513d601f19601f820116820180604052508101906116429190615886565b61165e5760405162461bcd60e51b81526004016108c6906158a8565b600019600181905560405190815233907fab40a374bc51de372200a8bc981af8c9ecdc08dfdaef0bb6e09f88f3c616ef3d9060200160405180910390a2565b6116a5612567565b816116af8161290c565b6116b9838361298a565b505050565b609c81815481106116ce57600080fd5b6000918252602090912001546001600160a01b0316905081565b6116f0612a37565b6001600160a01b0383166000908152609f602090815260408083204290556099825280832080548251601f870185900485028101850190935285835290939092909161175d9187908790819084018382808284376000920191909152505060965460ff16915061287b9050565b9050600061176a83612345565b905060018085015460ff16600281111561178657611786614df5565b14801561179b57506001600160c01b03821615155b80156117b957506117b96001600160c01b0383811690831681161490565b15611554576115548787878080601f016020809104026020016040519081016040528093929190818152602001838380828437600092019190915250612ab792505050565b611806612567565b6118106000612f29565b565b60006118527f4d404e3276e7ac2163d8ee476afa6a41d1f68fb71f2d8b6546b24e55ce01b72a878787878760405160200161102c96959493929190615998565b9695505050505050565b6000610f1982612345565b600061187b6064546001600160a01b031690565b905090565b6001805460009190811614156118a85760405162461bcd60e51b81526004016108c690615741565b83891461192b5760405162461bcd60e51b8152602060048201526044602482018190527f5265676973747279436f6f7264696e61746f722e72656769737465724f706572908201527f61746f7257697468436875726e3a20696e707574206c656e677468206d69736d6064820152630c2e8c6d60e31b608482015260a4016108c6565b60006119373388612f7b565b905061199733828888808060200260200160405190810160405280939291908181526020016000905b8282101561198c5761197d60408302860136819003810190615a1d565b81526020019060010190611960565b5050505050876130ac565b60006119de33838e8e8e8e8080601f0160208091040260200160405190810160405280939291908181526020018383808284376000920191909152508c9250613239915050565b905060005b8b811015611ba9576000609760008f8f85818110611a0357611a03615778565b919091013560f81c82525060208082019290925260409081016000208151606081018352905463ffffffff811680835261ffff600160201b8304811695840195909552600160301b90910490931691810191909152845180519193509084908110611a7057611a70615778565b602002602001015163ffffffff161115611b9657611b118e8e84818110611a9957611a99615778565b9050013560f81c60f81b60f81c84604001518481518110611abc57611abc615778565b60200260200101513386602001518681518110611adb57611adb615778565b60200260200101518d8d88818110611af557611af5615778565b905060400201803603810190611b0b9190615a1d565b866137fa565b611b96898984818110611b2657611b26615778565b9050604002016020016020810190611b3e9190614cc7565b8f8f8590866001611b4f9190615956565b92611b5c9392919061596e565b8080601f016020809104026020016040519081016040528093929190818152602001838380828437600092019190915250612ab792505050565b5080611ba1816157a4565b9150506119e3565b50505050505050505050505050565b600180546000919081161415611be05760405162461bcd60e51b81526004016108c690615741565b6000611bec3385612f7b565b90506000611c3533838b8b8b8b8080601f0160208091040260200160405190810160405280939291908181526020018383808284376000920191909152508c9250613239915050565b51905060005b88811015611d305760008a8a83818110611c5757611c57615778565b919091013560f81c600081815260976020526040902054855191935063ffffffff169150849084908110611c8d57611c8d615778565b602002602001015163ffffffff161115611d1d5760405162461bcd60e51b8152602060048201526044602482018190527f5265676973747279436f6f7264696e61746f722e72656769737465724f706572908201527f61746f723a206f70657261746f7220636f756e742065786365656473206d6178606482015263696d756d60e01b608482015260a4016108c6565b5080611d28816157a4565b915050611c3b565b50505050505050505050565b6060600082516001600160401b03811115611d5957611d59614b6b565b604051908082528060200260200182016040528015611d82578160200160208202803683370190505b50905060005b8351811015611ded57611db485858381518110611da757611da7615778565b6020026020010151613acf565b828281518110611dc657611dc6615778565b63ffffffff9092166020928302919091019091015280611de5816157a4565b915050611d88565b509392505050565b6001805460029081161415611e1c5760405162461bcd60e51b81526004016108c690615741565b6116b93384848080601f016020809104026020016040519081016040528093929190818152602001838380828437600092019190915250612ab792505050565b611e64612567565b6116b9838383613c0b565b600054610100900460ff1615808015611e8f5750600054600160ff909116105b80611ea95750303b158015611ea9575060005460ff166001145b611f0c5760405162461bcd60e51b815260206004820152602e60248201527f496e697469616c697a61626c653a20636f6e747261637420697320616c72656160448201526d191e481a5b9a5d1a585b1a5e995960921b60648201526084016108c6565b6000805460ff191660011790558015611f2f576000805461ff0019166101001790555b82518451148015611f41575081518351145b611fab5760405162461bcd60e51b815260206004820152603560248201527f5265676973747279436f6f7264696e61746f722e696e697469616c697a653a206044820152740d2dce0eae840d8cadccee8d040dad2e6dac2e8c6d605b1b60648201526084016108c6565b611fb489612f29565b611fbe8686613e22565b611fc7886126cb565b611fd087612734565b609c80546001818101835560008381527faf85b9071dfafeac1409d3f1d19bafc9bc7c37974cde8df0ee6168f0086e539c92830180546001600160a01b037f000000000000000000000000000000000000000000000000000000000000000081166001600160a01b03199283161790925585548085018755850180547f0000000000000000000000000000000000000000000000000000000000000000841690831617905585549384019095559190920180547f000000000000000000000000000000000000000000000000000000000000000090921691909316179091555b84518110156121215761210f8582815181106120ce576120ce615778565b60200260200101518583815181106120e8576120e8615778565b602002602001015185848151811061210257612102615778565b6020026020010151613c0b565b80612119816157a4565b9150506120b0565b508015612168576000805461ff0019169055604051600181527f7f26b83ff96e1f2b6a682f133852f6798a09c465da95921460cefb38474024989060200160405180910390a15b505050505050505050565b61217b612567565b6001600160a01b0381166121e05760405162461bcd60e51b815260206004820152602660248201527f4f776e61626c653a206e6577206f776e657220697320746865207a65726f206160448201526564647265737360d01b60648201526084016108c6565b610d4e81612f29565b600060029054906101000a90046001600160a01b03166001600160a01b031663eab66d7a6040518163ffffffff1660e01b8152600401602060405180830381865afa15801561223c573d6000803e3d6000fd5b505050506040513d601f19601f82011682018060405250810190612260919061581f565b6001600160a01b0316336001600160a01b0316146122905760405162461bcd60e51b81526004016108c69061583c565b60015419811960015419161461230e5760405162461bcd60e51b815260206004820152603860248201527f5061757361626c652e756e70617573653a20696e76616c696420617474656d7060448201527f7420746f2070617573652066756e6374696f6e616c697479000000000000000060648201526084016108c6565b600181905560405181815233907f3582d1828e26bf56bd801502bc021ac0bc8afb57c826e4986b45593c8fad389c90602001610c86565b600081815260986020526040812054806123625750600092915050565b600083815260986020526040902061237b600183615a39565b8154811061238b5761238b615778565b600091825260209091200154600160401b90046001600160c01b03169392505050565b60606000806123bc84613f12565b61ffff166001600160401b038111156123d7576123d7614b6b565b6040519080825280601f01601f191660200182016040528015612401576020820181803683370190505b5090506000805b825182108015612419575061010081105b15612470576001811b935085841615612460578060f81b83838151811061244257612442615778565b60200101906001600160f81b031916908160001a9053508160010191505b612469816157a4565b9050612408565b5090949350505050565b60018260200151600281111561249257612492614df5565b1461249c57505050565b81516040516333567f7f60e11b81526000906001600160a01b037f000000000000000000000000000000000000000000000000000000000000000016906366acfefe906124f190889086908890600401615a50565b6020604051808303816000875af1158015612510573d6000803e3d6000fd5b505050506040513d601f19601f820116820180604052508101906125349190615a80565b90506001600160c01b03811615612560576125608561255b836001600160c01b03166123ae565b612ab7565b5050505050565b33612570611867565b6001600160a01b0316146118105760405162461bcd60e51b815260206004820181905260248201527f4f776e61626c653a2063616c6c6572206973206e6f7420746865206f776e657260448201526064016108c6565b6001600160a01b0381166126545760405162461bcd60e51b815260206004820152604960248201527f5061757361626c652e5f73657450617573657252656769737472793a206e657760448201527f50617573657252656769737472792063616e6e6f7420626520746865207a65726064820152686f206164647265737360b81b608482015260a4016108c6565b600054604080516001600160a01b03620100009093048316815291831660208301527f6e9fcd539896fca60e8b0f01dd580233e48a6b0f7df013b89ba7f565869acdb6910160405180910390a1600080546001600160a01b03909216620100000262010000600160b01b0319909216919091179055565b609d54604080516001600160a01b03928316815291831660208301527f315457d8a8fe60f04af17c16e2f5a5e1db612b31648e58030360759ef8f3528c910160405180910390a1609d80546001600160a01b0319166001600160a01b0392909216919091179055565b609e54604080516001600160a01b03928316815291831660208301527f8f30ab09f43a6c157d7fce7e0a13c003042c1c95e8a72e7a146a21c0caa24dc9910160405180910390a1609e80546001600160a01b0319166001600160a01b0392909216919091179055565b6000610f196127aa613f3d565b8360405161190160f01b6020820152602281018390526042810182905260009060620160405160208183030381529060405280519060200120905092915050565b60408051808201909152600080825260208201526000808061281b600080516020615f8083398151915286615abf565b90505b61282781614064565b9093509150600080516020615f80833981519152828309831415612861576040805180820190915290815260208101919091529392505050565b600080516020615f8083398151915260018208905061281e565b600080612887846140e6565b9050808360ff166001901b116129055760405162461bcd60e51b815260206004820152603f60248201527f4269746d61705574696c732e6f72646572656442797465734172726179546f4260448201527f69746d61703a206269746d61702065786365656473206d61782076616c75650060648201526084016108c6565b9392505050565b60965460ff90811690821610610d4e5760405162461bcd60e51b815260206004820152603760248201527f5265676973747279436f6f7264696e61746f722e71756f72756d45786973747360448201527f3a2071756f72756d20646f6573206e6f7420657869737400000000000000000060648201526084016108c6565b60ff8216600081815260976020908152604091829020845181548684018051888701805163ffffffff90951665ffffffffffff199094168417600160201b61ffff938416021767ffff0000000000001916600160301b95831695909502949094179094558551918252518316938101939093525116918101919091527f3ee6fe8d54610244c3e9d3c066ae4aee997884aa28f10616ae821925401318ac9060600160405180910390a25050565b609e546001600160a01b031633146118105760405162461bcd60e51b815260206004820152603a60248201527f5265676973747279436f6f7264696e61746f722e6f6e6c79456a6563746f723a60448201527f2063616c6c6572206973206e6f742074686520656a6563746f7200000000000060648201526084016108c6565b6001600160a01b0382166000908152609960205260409020805460018083015460ff166002811115612aeb57612aeb614df5565b14612b6a5760405162461bcd60e51b815260206004820152604360248201527f5265676973747279436f6f7264696e61746f722e5f646572656769737465724f60448201527f70657261746f723a206f70657261746f72206973206e6f7420726567697374656064820152621c995960ea1b608482015260a4016108c6565b609654600090612b7e90859060ff1661287b565b90506000612b8b83612345565b90506001600160c01b038216612c095760405162461bcd60e51b815260206004820152603b60248201527f5265676973747279436f6f7264696e61746f722e5f646572656769737465724f60448201527f70657261746f723a206269746d61702063616e6e6f742062652030000000000060648201526084016108c6565b612c206001600160c01b0383811690831681161490565b612cb85760405162461bcd60e51b815260206004820152605960248201527f5265676973747279436f6f7264696e61746f722e5f646572656769737465724f60448201527f70657261746f723a206f70657261746f72206973206e6f74207265676973746560648201527f72656420666f72207370656369666965642071756f72756d7300000000000000608482015260a4016108c6565b6001600160c01b0382811619821616612cd18482614273565b6001600160c01b038116612da05760018501805460ff191660021790556040516351b27a6d60e11b81526001600160a01b0388811660048301527f0000000000000000000000000000000000000000000000000000000000000000169063a364f4da90602401600060405180830381600087803b158015612d5157600080fd5b505af1158015612d65573d6000803e3d6000fd5b50506040518692506001600160a01b038a1691507f396fdcb180cb0fea26928113fb0fd1c3549863f9cd563e6a184f1d578116c8e490600090a35b60405163f4e24fe560e01b81526001600160a01b037f0000000000000000000000000000000000000000000000000000000000000000169063f4e24fe590612dee908a908a90600401615ad3565b600060405180830381600087803b158015612e0857600080fd5b505af1158015612e1c573d6000803e3d6000fd5b505060405163bd29b8cd60e01b81526001600160a01b037f000000000000000000000000000000000000000000000000000000000000000016925063bd29b8cd9150612e6e9087908a90600401615af7565b600060405180830381600087803b158015612e8857600080fd5b505af1158015612e9c573d6000803e3d6000fd5b505060405163bd29b8cd60e01b81526001600160a01b037f000000000000000000000000000000000000000000000000000000000000000016925063bd29b8cd9150612eee9087908a90600401615af7565b600060405180830381600087803b158015612f0857600080fd5b505af1158015612f1c573d6000803e3d6000fd5b5050505050505050505050565b606480546001600160a01b038381166001600160a01b0319831681179093556040519116919082907f8be0079c531659141344cd1fd0a4f28419497f9722a3daafe3b4186f6b6457e090600090a35050565b6040516309aa152760e11b81526001600160a01b0383811660048301526000917f0000000000000000000000000000000000000000000000000000000000000000909116906313542a4e90602401602060405180830381865afa158015612fe6573d6000803e3d6000fd5b505050506040513d601f19601f8201168201806040525081019061300a9190615b10565b905080610f19577f00000000000000000000000000000000000000000000000000000000000000006001600160a01b031663bf79ce58848461304b87610fcd565b6040518463ffffffff1660e01b815260040161306993929190615b29565b6020604051808303816000875af1158015613088573d6000803e3d6000fd5b505050506040513d601f19601f820116820180604052508101906129059190615b10565b6020808201516000908152609a909152604090205460ff16156131525760405162461bcd60e51b815260206004820152605260248201527f5265676973747279436f6f7264696e61746f722e5f766572696679436875726e60448201527f417070726f7665725369676e61747572653a20636875726e417070726f766572606482015271081cd85b1d08185b1c9958591e481d5cd95960721b608482015260a4016108c6565b42816040015110156131e75760405162461bcd60e51b815260206004820152605260248201527f5265676973747279436f6f7264696e61746f722e5f766572696679436875726e60448201527f417070726f7665725369676e61747572653a20636875726e417070726f766572606482015271081cda59db985d1d5c9948195e1c1a5c995960721b608482015260a4016108c6565b602080820180516000908152609a909252604091829020805460ff19166001179055609d549051918301516109ad926001600160a01b03909216916132329188918891889190611812565b8351614433565b61325d60405180606001604052806060815260200160608152602001606081525090565b60006132a586868080601f0160208091040260200160405190810160405280939291908181526020018383808284376000920191909152505060965460ff16915061287b9050565b905060006132b288612345565b90506001600160c01b0382166133305760405162461bcd60e51b815260206004820152603960248201527f5265676973747279436f6f7264696e61746f722e5f72656769737465724f706560448201527f7261746f723a206269746d61702063616e6e6f7420626520300000000000000060648201526084016108c6565b8082166001600160c01b0316156133e65760405162461bcd60e51b815260206004820152606860248201527f5265676973747279436f6f7264696e61746f722e5f72656769737465724f706560448201527f7261746f723a206f70657261746f7220616c726561647920726567697374657260648201527f656420666f7220736f6d652071756f72756d73206265696e672072656769737460848201526732b932b2103337b960c11b60a482015260c4016108c6565b60a0546001600160a01b038a166000908152609f60205260409020546001600160c01b038381169085161791429161341e9190615956565b1061349f5760405162461bcd60e51b815260206004820152604560248201527f5265676973747279436f6f7264696e61746f722e5f72656769737465724f706560448201527f7261746f723a206f70657261746f722063616e6e6f74207265726567697374656064820152641c881e595d60da1b608482015260a4016108c6565b6134a98982614273565b887fec2963ab21c1e50e1e582aa542af2e4bf7bf38e6e1403c27b42e1c5d6e621eaa876040516134d9919061580c565b60405180910390a260016001600160a01b038b1660009081526099602052604090206001015460ff16600281111561351357613513614df5565b1461362c576040805180820182528a8152600160208083018281526001600160a01b038f166000908152609990925293902082518155925183820180549394939192909160ff19169083600281111561356e5761356e614df5565b021790555050604051639926ee7d60e01b81526001600160a01b037f0000000000000000000000000000000000000000000000000000000000000000169150639926ee7d906135c3908d908990600401615ba8565b600060405180830381600087803b1580156135dd57600080fd5b505af11580156135f1573d6000803e3d6000fd5b50506040518b92506001600160a01b038d1691507fe8e68cef1c3a761ed7be7e8463a375f27f7bc335e51824223cacce636ec5c3fe90600090a35b604051631fd93ca960e11b81526001600160a01b037f00000000000000000000000000000000000000000000000000000000000000001690633fb279529061367c908d908c908c90600401615c1c565b600060405180830381600087803b15801561369657600080fd5b505af11580156136aa573d6000803e3d6000fd5b5050604051632550477760e01b81526001600160a01b037f000000000000000000000000000000000000000000000000000000000000000016925063255047779150613700908d908d908d908d90600401615c41565b6000604051808303816000875af115801561371f573d6000803e3d6000fd5b505050506040513d6000823e601f3d908101601f191682016040526137479190810190615ccd565b60408087019190915260208601919091525162bff04d60e01b81526001600160a01b037f0000000000000000000000000000000000000000000000000000000000000000169062bff04d906137a4908c908c908c90600401615d30565b6000604051808303816000875af11580156137c3573d6000803e3d6000fd5b505050506040513d6000823e601f3d908101601f191682016040526137eb9190810190615d4a565b84525050509695505050505050565b6020808301516001600160a01b03808216600081815260999094526040909320549192908716141561387a5760405162461bcd60e51b81526020600482015260356024820152600080516020615f6083398151915260448201527439371d1031b0b73737ba1031b43ab9371039b2b63360591b60648201526084016108c6565b8760ff16846000015160ff16146138f75760405162461bcd60e51b81526020600482015260476024820152600080516020615f6083398151915260448201527f726e3a2071756f72756d4e756d626572206e6f74207468652073616d65206173606482015266081cda59db995960ca1b608482015260a4016108c6565b604051635401ed2760e01b81526004810182905260ff891660248201526000907f00000000000000000000000000000000000000000000000000000000000000006001600160a01b031690635401ed2790604401602060405180830381865afa158015613968573d6000803e3d6000fd5b505050506040513d601f19601f8201168201806040525081019061398c9190615de3565b905061399881856145ed565b6001600160601b0316866001600160601b031611613a2b5760405162461bcd60e51b81526020600482015260566024820152600080516020615f6083398151915260448201527f726e3a20696e636f6d696e67206f70657261746f722068617320696e7375666660648201527534b1b4b2b73a1039ba30b5b2903337b91031b43ab93760511b608482015260a4016108c6565b613a358885614611565b6001600160601b0316816001600160601b0316106121685760405162461bcd60e51b815260206004820152605c6024820152600080516020615f6083398151915260448201527f726e3a2063616e6e6f74206b69636b206f70657261746f722077697468206d6f60648201527f7265207468616e206b69636b424950734f66546f74616c5374616b6500000000608482015260a4016108c6565b600081815260986020526040812054815b81811015613b61576001613af48284615a39565b613afe9190615a39565b92508463ffffffff16609860008681526020019081526020016000208463ffffffff1681548110613b3157613b31615778565b60009182526020909120015463ffffffff1611613b4f575050610f19565b80613b59816157a4565b915050613ae0565b5060405162461bcd60e51b815260206004820152606c60248201527f5265676973747279436f6f7264696e61746f722e67657451756f72756d42697460448201527f6d6170496e6465784174426c6f636b4e756d6265723a206e6f206269746d617060648201527f2075706461746520666f756e6420666f72206f70657261746f7249642061742060848201526b313637b1b590373ab6b132b960a11b60a482015260c4016108c6565b60965460ff1660c08110613c7f5760405162461bcd60e51b815260206004820152603560248201527f5265676973747279436f6f7264696e61746f722e63726561746551756f72756d6044820152740e881b585e081c5d5bdc9d5b5cc81c995858da1959605a1b60648201526084016108c6565b613c8a816001615e00565b6096805460ff191660ff9290921691909117905580613ca9818661298a565b60405160016296b58960e01b031981526001600160a01b037f0000000000000000000000000000000000000000000000000000000000000000169063ff694a7790613cfc90849088908890600401615e25565b600060405180830381600087803b158015613d1657600080fd5b505af1158015613d2a573d6000803e3d6000fd5b505060405163136ca0f960e11b815260ff841660048201527f00000000000000000000000000000000000000000000000000000000000000006001600160a01b031692506326d941f29150602401600060405180830381600087803b158015613d9257600080fd5b505af1158015613da6573d6000803e3d6000fd5b505060405163136ca0f960e11b815260ff841660048201527f00000000000000000000000000000000000000000000000000000000000000006001600160a01b031692506326d941f29150602401600060405180830381600087803b158015613e0e57600080fd5b505af1158015612168573d6000803e3d6000fd5b6000546201000090046001600160a01b0316158015613e4957506001600160a01b03821615155b613ecb5760405162461bcd60e51b815260206004820152604760248201527f5061757361626c652e5f696e697469616c697a655061757365723a205f696e6960448201527f7469616c697a6550617573657228292063616e206f6e6c792062652063616c6c6064820152666564206f6e636560c81b608482015260a4016108c6565b600181905560405181815233907fab40a374bc51de372200a8bc981af8c9ecdc08dfdaef0bb6e09f88f3c616ef3d9060200160405180910390a2613f0e826125c6565b5050565b6000805b8215610f1957613f27600184615a39565b9092169180613f3581615e9e565b915050613f16565b6000306001600160a01b037f000000000000000000000000000000000000000000000000000000000000000016148015613f9657507f000000000000000000000000000000000000000000000000000000000000000046145b15613fc057507f000000000000000000000000000000000000000000000000000000000000000090565b50604080517f00000000000000000000000000000000000000000000000000000000000000006020808301919091527f0000000000000000000000000000000000000000000000000000000000000000828401527f000000000000000000000000000000000000000000000000000000000000000060608301524660808301523060a0808401919091528351808403909101815260c0909201909252805191012090565b60008080600080516020615f808339815191526003600080516020615f8083398151915286600080516020615f808339815191528889090908905060006140da827f0c19139cb84c680a6e14116da060561765e05aa45a1c72a34f082305b61f3f52600080516020615f8083398151915261462b565b91959194509092505050565b60006101008251111561416f5760405162461bcd60e51b8152602060048201526044602482018190527f4269746d61705574696c732e6f72646572656442797465734172726179546f42908201527f69746d61703a206f7264657265644279746573417272617920697320746f6f206064820152636c6f6e6760e01b608482015260a4016108c6565b815161417d57506000919050565b6000808360008151811061419357614193615778565b0160200151600160f89190911c81901b92505b845181101561426a578481815181106141c1576141c1615778565b0160200151600160f89190911c1b91508282116142565760405162461bcd60e51b815260206004820152604760248201527f4269746d61705574696c732e6f72646572656442797465734172726179546f4260448201527f69746d61703a206f72646572656442797465734172726179206973206e6f74206064820152661bdc99195c995960ca1b608482015260a4016108c6565b91811791614263816157a4565b90506141a6565b50909392505050565b60008281526098602052604090205480614318576000838152609860209081526040808320815160608101835263ffffffff43811682528185018681526001600160c01b03808a16958401958652845460018101865594885295909620915191909201805495519351909416600160401b026001600160401b03938316600160201b0267ffffffffffffffff1990961691909216179390931716919091179055505050565b6000838152609860205260408120614331600184615a39565b8154811061434157614341615778565b600091825260209091200180549091504363ffffffff908116911614156143855780546001600160401b0316600160401b6001600160c01b038516021781556109ad565b805463ffffffff438116600160201b81810267ffffffff0000000019909416939093178455600087815260986020908152604080832081516060810183529485528483018481526001600160c01b03808c1693870193845282546001810184559286529390942094519401805493519151909216600160401b026001600160401b0391861690960267ffffffffffffffff199093169390941692909217179190911691909117905550505050565b6001600160a01b0383163b1561454d57604051630b135d3f60e11b808252906001600160a01b03851690631626ba7e906144739086908690600401615af7565b602060405180830381865afa158015614490573d6000803e3d6000fd5b505050506040513d601f19601f820116820180604052508101906144b49190615ec0565b6001600160e01b031916146116b95760405162461bcd60e51b815260206004820152605360248201527f454950313237315369676e61747572655574696c732e636865636b5369676e6160448201527f747572655f454950313237313a2045524331323731207369676e6174757265206064820152721d995c9a599a58d85d1a5bdb8819985a5b1959606a1b608482015260a4016108c6565b826001600160a01b031661456183836146da565b6001600160a01b0316146116b95760405162461bcd60e51b815260206004820152604760248201527f454950313237315369676e61747572655574696c732e636865636b5369676e6160448201527f747572655f454950313237313a207369676e6174757265206e6f742066726f6d6064820152661039b4b3b732b960c91b608482015260a4016108c6565b6020810151600090612710906146079061ffff1685615eea565b6129059190615f19565b6040810151600090612710906146079061ffff1685615eea565b600080614636614a47565b61463e614a65565b602080825281810181905260408201819052606082018890526080820187905260a082018690528260c08360056107d05a03fa925082801561467f57614681565bfe5b50826146cf5760405162461bcd60e51b815260206004820152601a60248201527f424e3235342e6578704d6f643a2063616c6c206661696c75726500000000000060448201526064016108c6565b505195945050505050565b60008060006146e985856146f6565b91509150611ded81614766565b60008082516041141561472d5760208301516040840151606085015160001a61472187828585614921565b9450945050505061475f565b825160401415614757576020830151604084015161474c868383614a0e565b93509350505061475f565b506000905060025b9250929050565b600081600481111561477a5761477a614df5565b14156147835750565b600181600481111561479757614797614df5565b14156147e55760405162461bcd60e51b815260206004820152601860248201527f45434453413a20696e76616c6964207369676e6174757265000000000000000060448201526064016108c6565b60028160048111156147f9576147f9614df5565b14156148475760405162461bcd60e51b815260206004820152601f60248201527f45434453413a20696e76616c6964207369676e6174757265206c656e6774680060448201526064016108c6565b600381600481111561485b5761485b614df5565b14156148b45760405162461bcd60e51b815260206004820152602260248201527f45434453413a20696e76616c6964207369676e6174757265202773272076616c604482015261756560f01b60648201526084016108c6565b60048160048111156148c8576148c8614df5565b1415610d4e5760405162461bcd60e51b815260206004820152602260248201527f45434453413a20696e76616c6964207369676e6174757265202776272076616c604482015261756560f01b60648201526084016108c6565b6000807f7fffffffffffffffffffffffffffffff5d576e7357a4501ddfe92f46681b20a08311156149585750600090506003614a05565b8460ff16601b1415801561497057508460ff16601c14155b156149815750600090506004614a05565b6040805160008082526020820180845289905260ff881692820192909252606081018690526080810185905260019060a0016020604051602081039080840390855afa1580156149d5573d6000803e3d6000fd5b5050604051601f1901519150506001600160a01b0381166149fe57600060019250925050614a05565b9150600090505b94509492505050565b6000806001600160ff1b03831681614a2b60ff86901c601b615956565b9050614a3987828885614921565b935093505050935093915050565b60405180602001604052806001906020820280368337509192915050565b6040518060c001604052806006906020820280368337509192915050565b60008083601f840112614a9557600080fd5b5081356001600160401b03811115614aac57600080fd5b6020830191508360208260051b850101111561475f57600080fd5b60008060208385031215614ada57600080fd5b82356001600160401b03811115614af057600080fd5b614afc85828601614a83565b90969095509350505050565b600060208284031215614b1a57600080fd5b5035919050565b63ffffffff81168114610d4e57600080fd5b600080600060608486031215614b4857600080fd5b833592506020840135614b5a81614b21565b929592945050506040919091013590565b634e487b7160e01b600052604160045260246000fd5b604051606081016001600160401b0381118282101715614ba357614ba3614b6b565b60405290565b604080519081016001600160401b0381118282101715614ba357614ba3614b6b565b604051601f8201601f191681016001600160401b0381118282101715614bf357614bf3614b6b565b604052919050565b60006001600160401b03831115614c1457614c14614b6b565b614c27601f8401601f1916602001614bcb565b9050828152838383011115614c3b57600080fd5b828260208301376000602084830101529392505050565b600060208284031215614c6457600080fd5b81356001600160401b03811115614c7a57600080fd5b8201601f81018413614c8b57600080fd5b614c9a84823560208401614bfb565b949350505050565b6001600160a01b0381168114610d4e57600080fd5b8035614cc281614ca2565b919050565b600060208284031215614cd957600080fd5b813561290581614ca2565b60008060408385031215614cf757600080fd5b50508035926020909101359150565b803560ff81168114614cc257600080fd5b600060208284031215614d2957600080fd5b61290582614d06565b815181526020808301519082015260408101610f19565b60008083601f840112614d5b57600080fd5b5081356001600160401b03811115614d7257600080fd5b60208301915083602082850101111561475f57600080fd5b60008060008060408587031215614da057600080fd5b84356001600160401b0380821115614db757600080fd5b614dc388838901614a83565b90965094506020870135915080821115614ddc57600080fd5b50614de987828801614d49565b95989497509550505050565b634e487b7160e01b600052602160045260246000fd5b60038110614e2957634e487b7160e01b600052602160045260246000fd5b9052565b815181526020808301516040830191614e4890840182614e0b565b5092915050565b803561ffff81168114614cc257600080fd5b600060608284031215614e7357600080fd5b614e7b614b81565b90508135614e8881614b21565b8152614e9660208301614e4f565b6020820152614ea760408301614e4f565b604082015292915050565b60008060808385031215614ec557600080fd5b614ece83614d06565b9150614edd8460208501614e61565b90509250929050565b600080600060408486031215614efb57600080fd5b8335614f0681614ca2565b925060208401356001600160401b03811115614f2157600080fd5b614f2d86828701614d49565b9497909650939450505050565b60006001600160401b03821115614f5357614f53614b6b565b5060051b60200190565b600060408284031215614f6f57600080fd5b614f77614ba9565b9050614f8282614d06565b81526020820135614f9281614ca2565b602082015292915050565b600080600080600060a08688031215614fb557600080fd5b8535614fc081614ca2565b945060208681013594506040808801356001600160401b03811115614fe457600080fd5b8801601f81018a13614ff557600080fd5b803561500861500382614f3a565b614bcb565b81815260069190911b8201840190848101908c83111561502757600080fd5b928501925b8284101561504d5761503e8d85614f5d565b8252928401929085019061502c565b999c989b5098996060810135995060800135979650505050505050565b6000610100828403121561507d57600080fd5b50919050565b60008083601f84011261509557600080fd5b5081356001600160401b038111156150ac57600080fd5b6020830191508360208260061b850101111561475f57600080fd5b6000606082840312156150d957600080fd5b6150e1614b81565b905081356001600160401b038111156150f957600080fd5b8201601f8101841361510a57600080fd5b61511984823560208401614bfb565b825250602082013560208201526040820135604082015292915050565b60008060008060008060008060006101a08a8c03121561515557600080fd5b89356001600160401b038082111561516c57600080fd5b6151788d838e01614d49565b909b50995060208c013591508082111561519157600080fd5b61519d8d838e01614d49565b90995097508791506151b28d60408e0161506a565b96506101408c01359150808211156151c957600080fd5b6151d58d838e01615083565b90965094506101608c01359150808211156151ef57600080fd5b6151fb8d838e016150c7565b93506101808c013591508082111561521257600080fd5b5061521f8c828d016150c7565b9150509295985092959850929598565b600080600080600080610160878903121561524957600080fd5b86356001600160401b038082111561526057600080fd5b61526c8a838b01614d49565b9098509650602089013591508082111561528557600080fd5b6152918a838b01614d49565b90965094508491506152a68a60408b0161506a565b93506101408901359150808211156152bd57600080fd5b506152ca89828a016150c7565b9150509295509295509295565b600080604083850312156152ea57600080fd5b82356152f581614b21565b91506020838101356001600160401b0381111561531157600080fd5b8401601f8101861361532257600080fd5b803561533061500382614f3a565b81815260059190911b8201830190838101908883111561534f57600080fd5b928401925b8284101561536d57833582529284019290840190615354565b80955050505050509250929050565b6020808252825182820181905260009190848201906040850190845b818110156153ba57835163ffffffff1683529284019291840191600101615398565b50909695505050505050565b600080602083850312156153d957600080fd5b82356001600160401b038111156153ef57600080fd5b614afc85828601614d49565b6001600160601b0381168114610d4e57600080fd5b600082601f83011261542157600080fd5b8135602061543161500383614f3a565b82815260069290921b8401810191818101908684111561545057600080fd5b8286015b848110156154a1576040818903121561546d5760008081fd5b615475614ba9565b813561548081614ca2565b81528185013561548f816153fb565b81860152835291830191604001615454565b509695505050505050565b600080600060a084860312156154c157600080fd5b6154cb8585614e61565b925060608401356154db816153fb565b915060808401356001600160401b038111156154f657600080fd5b61550286828701615410565b9150509250925092565b600082601f83011261551d57600080fd5b8135602061552d61500383614f3a565b8281526060928302850182019282820191908785111561554c57600080fd5b8387015b8581101561556f576155628982614e61565b8452928401928101615550565b5090979650505050505050565b600082601f83011261558d57600080fd5b8135602061559d61500383614f3a565b82815260059290921b840181019181810190868411156155bc57600080fd5b8286015b848110156154a15780356155d3816153fb565b83529183019183016155c0565b600082601f8301126155f157600080fd5b8135602061560161500383614f3a565b82815260059290921b8401810191818101908684111561562057600080fd5b8286015b848110156154a15780356001600160401b038111156156435760008081fd5b6156518986838b0101615410565b845250918301918301615624565b600080600080600080600080610100898b03121561567c57600080fd5b61568589614cb7565b975061569360208a01614cb7565b96506156a160408a01614cb7565b95506156af60608a01614cb7565b94506080890135935060a08901356001600160401b03808211156156d257600080fd5b6156de8c838d0161550c565b945060c08b01359150808211156156f457600080fd5b6157008c838d0161557c565b935060e08b013591508082111561571657600080fd5b506157238b828c016155e0565b9150509295985092959890939650565b60208101610f198284614e0b565b60208082526019908201527f5061757361626c653a20696e6465782069732070617573656400000000000000604082015260600190565b634e487b7160e01b600052603260045260246000fd5b634e487b7160e01b600052601160045260246000fd5b60006000198214156157b8576157b861578e565b5060010190565b6000815180845260005b818110156157e5576020818501810151868301820152016157c9565b818111156157f7576000602083870101525b50601f01601f19169290920160200192915050565b60208152600061290560208301846157bf565b60006020828403121561583157600080fd5b815161290581614ca2565b6020808252602a908201527f6d73672e73656e646572206973206e6f74207065726d697373696f6e6564206160408201526939903ab73830bab9b2b960b11b606082015260800190565b60006020828403121561589857600080fd5b8151801515811461290557600080fd5b60208082526028908201527f6d73672e73656e646572206973206e6f74207065726d697373696f6e6564206160408201526739903830bab9b2b960c11b606082015260800190565b6000808335601e1984360301811261590757600080fd5b8301803591506001600160401b0382111561592157600080fd5b6020019150600581901b360382131561475f57600080fd5b60006020828403121561594b57600080fd5b815161290581614b21565b600082198211156159695761596961578e565b500190565b6000808585111561597e57600080fd5b8386111561598b57600080fd5b5050820193919092039150565b600060c08201888352602060018060a01b03808a16828601526040898187015260c0606087015283895180865260e088019150848b01955060005b818110156159fd578651805160ff16845286015185168684015295850195918301916001016159d3565b505060808701989098525050505060a09091019190915250949350505050565b600060408284031215615a2f57600080fd5b6129058383614f5d565b600082821015615a4b57615a4b61578e565b500390565b60018060a01b0384168152826020820152606060408201526000615a7760608301846157bf565b95945050505050565b600060208284031215615a9257600080fd5b81516001600160c01b038116811461290557600080fd5b634e487b7160e01b600052601260045260246000fd5b600082615ace57615ace615aa9565b500690565b6001600160a01b0383168152604060208201819052600090614c9a908301846157bf565b828152604060208201526000614c9a60408301846157bf565b600060208284031215615b2257600080fd5b5051919050565b6001600160a01b03841681526101608101615b51602083018580358252602090810135910152565b615b6b606083016040860180358252602090810135910152565b60406080850160a084013760e0820160008152604060c0860182375060006101208301908152835190526020909201516101409091015292915050565b60018060a01b0383168152604060208201526000825160606040840152615bd260a08401826157bf565b90506020840151606084015260408401516080840152809150509392505050565b81835281816020850137506000828201602090810191909152601f909101601f19169091010190565b6001600160a01b0384168152604060208201819052600090615a779083018486615bf3565b60018060a01b0385168152836020820152606060408201526000611852606083018486615bf3565b600082601f830112615c7a57600080fd5b81516020615c8a61500383614f3a565b82815260059290921b84018101918181019086841115615ca957600080fd5b8286015b848110156154a1578051615cc0816153fb565b8352918301918301615cad565b60008060408385031215615ce057600080fd5b82516001600160401b0380821115615cf757600080fd5b615d0386838701615c69565b93506020850151915080821115615d1957600080fd5b50615d2685828601615c69565b9150509250929050565b838152604060208201526000615a77604083018486615bf3565b60006020808385031215615d5d57600080fd5b82516001600160401b03811115615d7357600080fd5b8301601f81018513615d8457600080fd5b8051615d9261500382614f3a565b81815260059190911b82018301908381019087831115615db157600080fd5b928401925b82841015615dd8578351615dc981614b21565b82529284019290840190615db6565b979650505050505050565b600060208284031215615df557600080fd5b8151612905816153fb565b600060ff821660ff84168060ff03821115615e1d57615e1d61578e565b019392505050565b60006060820160ff8616835260206001600160601b03808716828601526040606081870152838751808652608088019150848901955060005b81811015615e8e57865180516001600160a01b031684528601518516868401529585019591830191600101615e5e565b50909a9950505050505050505050565b600061ffff80831681811415615eb657615eb661578e565b6001019392505050565b600060208284031215615ed257600080fd5b81516001600160e01b03198116811461290557600080fd5b60006001600160601b0380831681851681830481118215151615615f1057615f1061578e565b02949350505050565b60006001600160601b0380841680615f3357615f33615aa9565b9216919091049291505056fe5265676973747279436f6f7264696e61746f722e7570646174654f70657261745265676973747279436f6f7264696e61746f722e5f76616c696461746543687530644e72e131a029b85045b68181585d97816a916871ca8d3c208c16d87cfd47a2646970667358221220b3b96acc3fd8d6ed8baaaad85df4f4645aa86948a29034efd691e01e7c925a7564736f6c634300080c0033","linkReferences":{}},"methodIdentifiers":{"OPERATOR_CHURN_APPROVAL_TYPEHASH()":"ca0de882","PUBKEY_REGISTRATION_TYPEHASH()":"9feab859","blsApkRegistry()":"5df45946","calculateOperatorChurnApprovalDigestHash(address,bytes32,(uint8,address)[],bytes32,uint256)":"84ca5213","churnApprover()":"054310e6","createQuorum((uint32,uint16,uint16),uint96,(address,uint96)[])":"d75b4c88","deregisterOperator(bytes)":"ca4f2d97","ejectOperator(address,bytes)":"6e3b17db","ejectionCooldown()":"a96f783e","ejector()":"28f61b31","getCurrentQuorumBitmap(bytes32)":"871ef049","getOperator(address)":"5865c60c","getOperatorFromId(bytes32)":"296bb064","getOperatorId(address)":"13542a4e","getOperatorSetParams(uint8)":"e65797ad","getOperatorStatus(address)":"fd39105a","getQuorumBitmapAtBlockNumberByIndex(bytes32,uint32,uint256)":"04ec6351","getQuorumBitmapHistoryLength(bytes32)":"03fd3492","getQuorumBitmapIndicesAtBlockNumber(uint32,bytes32[])":"c391425e","getQuorumBitmapUpdateByIndex(bytes32,uint256)":"1eb812da","indexRegistry()":"9e9923c2","initialize(address,address,address,address,uint256,(uint32,uint16,uint16)[],uint96[],(address,uint96)[][])":"dd8283f3","isChurnApproverSaltUsed(bytes32)":"1478851f","lastEjectionTimestamp(address)":"125e0584","numRegistries()":"d72d8dd6","owner()":"8da5cb5b","pause(uint256)":"136439dd","pauseAll()":"595c6a67","paused()":"5c975abb","paused(uint8)":"5ac86ab7","pauserRegistry()":"886f1195","pubkeyRegistrationMessageHash(address)":"3c2a7f4c","quorumCount()":"9aa1653d","quorumUpdateBlockNumber(uint8)":"249a0c42","registerOperator(bytes,string,((uint256,uint256),(uint256,uint256),(uint256[2],uint256[2])),(bytes,bytes32,uint256))":"a50857bf","registerOperatorWithChurn(bytes,string,((uint256,uint256),(uint256,uint256),(uint256[2],uint256[2])),(uint8,address)[],(bytes,bytes32,uint256),(bytes,bytes32,uint256))":"9b5d177b","registries(uint256)":"6347c900","renounceOwnership()":"715018a6","serviceManager()":"3998fdd3","setChurnApprover(address)":"29d1e0c3","setEjectionCooldown(uint256)":"0d3f2134","setEjector(address)":"2cdd1e86","setOperatorSetParams(uint8,(uint32,uint16,uint16))":"5b0b829f","setPauserRegistry(address)":"10d67a2f","stakeRegistry()":"68304835","transferOwnership(address)":"f2fde38b","unpause(uint256)":"fabc1cbc","updateOperators(address[])":"00cf2ab5","updateOperatorsForQuorum(address[][],bytes)":"5140a548","updateSocket(string)":"0cf4b767"},"id":109}