{"abi":[{"type":"constructor","inputs":[{"name":"_registryCoordinator","type":"address","internalType":"contract IRegistryCoordinator"},{"name":"_delegationManager","type":"address","internalType":"contract IDelegationManager"}],"stateMutability":"nonpayable"},{"type":"function","name":"MAX_WEIGHING_FUNCTION_LENGTH","inputs":[],"outputs":[{"name":"","type":"uint8","internalType":"uint8"}],"stateMutability":"view"},{"type":"function","name":"WEIGHTING_DIVISOR","inputs":[],"outputs":[{"name":"","type":"uint256","internalType":"uint256"}],"stateMutability":"view"},{"type":"function","name":"addStrategies","inputs":[{"name":"quorumNumber","type":"uint8","internalType":"uint8"},{"name":"_strategyParams","type":"tuple[]","internalType":"struct IStakeRegistry.StrategyParams[]","components":[{"name":"strategy","type":"address","internalType":"contract IStrategy"},{"name":"multiplier","type":"uint96","internalType":"uint96"}]}],"outputs":[],"stateMutability":"nonpayable"},{"type":"function","name":"delegation","inputs":[],"outputs":[{"name":"","type":"address","internalType":"contract IDelegationManager"}],"stateMutability":"view"},{"type":"function","name":"deregisterOperator","inputs":[{"name":"operatorId","type":"bytes32","internalType":"bytes32"},{"name":"quorumNumbers","type":"bytes","internalType":"bytes"}],"outputs":[],"stateMutability":"nonpayable"},{"type":"function","name":"getCurrentStake","inputs":[{"name":"operatorId","type":"bytes32","internalType":"bytes32"},{"name":"quorumNumber","type":"uint8","internalType":"uint8"}],"outputs":[{"name":"","type":"uint96","internalType":"uint96"}],"stateMutability":"view"},{"type":"function","name":"getCurrentTotalStake","inputs":[{"name":"quorumNumber","type":"uint8","internalType":"uint8"}],"outputs":[{"name":"","type":"uint96","internalType":"uint96"}],"stateMutability":"view"},{"type":"function","name":"getLatestStakeUpdate","inputs":[{"name":"operatorId","type":"bytes32","internalType":"bytes32"},{"name":"quorumNumber","type":"uint8","internalType":"uint8"}],"outputs":[{"name":"","type":"tuple","internalType":"struct IStakeRegistry.StakeUpdate","components":[{"name":"updateBlockNumber","type":"uint32","internalType":"uint32"},{"name":"nextUpdateBlockNumber","type":"uint32","internalType":"uint32"},{"name":"stake","type":"uint96","internalType":"uint96"}]}],"stateMutability":"view"},{"type":"function","name":"getStakeAtBlockNumber","inputs":[{"name":"operatorId","type":"bytes32","internalType":"bytes32"},{"name":"quorumNumber","type":"uint8","internalType":"uint8"},{"name":"blockNumber","type":"uint32","internalType":"uint32"}],"outputs":[{"name":"","type":"uint96","internalType":"uint96"}],"stateMutability":"view"},{"type":"function","name":"getStakeAtBlockNumberAndIndex","inputs":[{"name":"quorumNumber","type":"uint8","internalType":"uint8"},{"name":"blockNumber","type":"uint32","internalType":"uint32"},{"name":"operatorId","type":"bytes32","internalType":"bytes32"},{"name":"index","type":"uint256","internalType":"uint256"}],"outputs":[{"name":"","type":"uint96","internalType":"uint96"}],"stateMutability":"view"},{"type":"function","name":"getStakeHistory","inputs":[{"name":"operatorId","type":"bytes32","internalType":"bytes32"},{"name":"quorumNumber","type":"uint8","internalType":"uint8"}],"outputs":[{"name":"","type":"tuple[]","internalType":"struct IStakeRegistry.StakeUpdate[]","components":[{"name":"updateBlockNumber","type":"uint32","internalType":"uint32"},{"name":"nextUpdateBlockNumber","type":"uint32","internalType":"uint32"},{"name":"stake","type":"uint96","internalType":"uint96"}]}],"stateMutability":"view"},{"type":"function","name":"getStakeHistoryLength","inputs":[{"name":"operatorId","type":"bytes32","internalType":"bytes32"},{"name":"quorumNumber","type":"uint8","internalType":"uint8"}],"outputs":[{"name":"","type":"uint256","internalType":"uint256"}],"stateMutability":"view"},{"type":"function","name":"getStakeUpdateAtIndex","inputs":[{"name":"quorumNumber","type":"uint8","internalType":"uint8"},{"name":"operatorId","type":"bytes32","internalType":"bytes32"},{"name":"index","type":"uint256","internalType":"uint256"}],"outputs":[{"name":"","type":"tuple","internalType":"struct IStakeRegistry.StakeUpdate","components":[{"name":"updateBlockNumber","type":"uint32","internalType":"uint32"},{"name":"nextUpdateBlockNumber","type":"uint32","internalType":"uint32"},{"name":"stake","type":"uint96","internalType":"uint96"}]}],"stateMutability":"view"},{"type":"function","name":"getStakeUpdateIndexAtBlockNumber","inputs":[{"name":"operatorId","type":"bytes32","internalType":"bytes32"},{"name":"quorumNumber","type":"uint8","internalType":"uint8"},{"name":"blockNumber","type":"uint32","internalType":"uint32"}],"outputs":[{"name":"","type":"uint32","internalType":"uint32"}],"stateMutability":"view"},{"type":"function","name":"getTotalStakeAtBlockNumberFromIndex","inputs":[{"name":"quorumNumber","type":"uint8","internalType":"uint8"},{"name":"blockNumber","type":"uint32","internalType":"uint32"},{"name":"index","type":"uint256","internalType":"uint256"}],"outputs":[{"name":"","type":"uint96","internalType":"uint96"}],"stateMutability":"view"},{"type":"function","name":"getTotalStakeHistoryLength","inputs":[{"name":"quorumNumber","type":"uint8","internalType":"uint8"}],"outputs":[{"name":"","type":"uint256","internalType":"uint256"}],"stateMutability":"view"},{"type":"function","name":"getTotalStakeIndicesAtBlockNumber","inputs":[{"name":"blockNumber","type":"uint32","internalType":"uint32"},{"name":"quorumNumbers","type":"bytes","internalType":"bytes"}],"outputs":[{"name":"","type":"uint32[]","internalType":"uint32[]"}],"stateMutability":"view"},{"type":"function","name":"getTotalStakeUpdateAtIndex","inputs":[{"name":"quorumNumber","type":"uint8","internalType":"uint8"},{"name":"index","type":"uint256","internalType":"uint256"}],"outputs":[{"name":"","type":"tuple","internalType":"struct IStakeRegistry.StakeUpdate","components":[{"name":"updateBlockNumber","type":"uint32","internalType":"uint32"},{"name":"nextUpdateBlockNumber","type":"uint32","internalType":"uint32"},{"name":"stake","type":"uint96","internalType":"uint96"}]}],"stateMutability":"view"},{"type":"function","name":"initializeQuorum","inputs":[{"name":"quorumNumber","type":"uint8","internalType":"uint8"},{"name":"minimumStake","type":"uint96","internalType":"uint96"},{"name":"_strategyParams","type":"tuple[]","internalType":"struct IStakeRegistry.StrategyParams[]","components":[{"name":"strategy","type":"address","internalType":"contract IStrategy"},{"name":"multiplier","type":"uint96","internalType":"uint96"}]}],"outputs":[],"stateMutability":"nonpayable"},{"type":"function","name":"minimumStakeForQuorum","inputs":[{"name":"","type":"uint8","internalType":"uint8"}],"outputs":[{"name":"","type":"uint96","internalType":"uint96"}],"stateMutability":"view"},{"type":"function","name":"modifyStrategyParams","inputs":[{"name":"quorumNumber","type":"uint8","internalType":"uint8"},{"name":"strategyIndices","type":"uint256[]","internalType":"uint256[]"},{"name":"newMultipliers","type":"uint96[]","internalType":"uint96[]"}],"outputs":[],"stateMutability":"nonpayable"},{"type":"function","name":"registerOperator","inputs":[{"name":"operator","type":"address","internalType":"address"},{"name":"operatorId","type":"bytes32","internalType":"bytes32"},{"name":"quorumNumbers","type":"bytes","internalType":"bytes"}],"outputs":[{"name":"","type":"uint96[]","internalType":"uint96[]"},{"name":"","type":"uint96[]","internalType":"uint96[]"}],"stateMutability":"nonpayable"},{"type":"function","name":"registryCoordinator","inputs":[],"outputs":[{"name":"","type":"address","internalType":"address"}],"stateMutability":"view"},{"type":"function","name":"removeStrategies","inputs":[{"name":"quorumNumber","type":"uint8","internalType":"uint8"},{"name":"indicesToRemove","type":"uint256[]","internalType":"uint256[]"}],"outputs":[],"stateMutability":"nonpayable"},{"type":"function","name":"setMinimumStakeForQuorum","inputs":[{"name":"quorumNumber","type":"uint8","internalType":"uint8"},{"name":"minimumStake","type":"uint96","internalType":"uint96"}],"outputs":[],"stateMutability":"nonpayable"},{"type":"function","name":"strategiesPerQuorum","inputs":[{"name":"","type":"uint8","internalType":"uint8"},{"name":"","type":"uint256","internalType":"uint256"}],"outputs":[{"name":"","type":"address","internalType":"contract IStrategy"}],"stateMutability":"view"},{"type":"function","name":"strategyParams","inputs":[{"name":"","type":"uint8","internalType":"uint8"},{"name":"","type":"uint256","internalType":"uint256"}],"outputs":[{"name":"strategy","type":"address","internalType":"contract IStrategy"},{"name":"multiplier","type":"uint96","internalType":"uint96"}],"stateMutability":"view"},{"type":"function","name":"strategyParamsByIndex","inputs":[{"name":"quorumNumber","type":"uint8","internalType":"uint8"},{"name":"index","type":"uint256","internalType":"uint256"}],"outputs":[{"name":"","type":"tuple","internalType":"struct IStakeRegistry.StrategyParams","components":[{"name":"strategy","type":"address","internalType":"contract IStrategy"},{"name":"multiplier","type":"uint96","internalType":"uint96"}]}],"stateMutability":"view"},{"type":"function","name":"strategyParamsLength","inputs":[{"name":"quorumNumber","type":"uint8","internalType":"uint8"}],"outputs":[{"name":"","type":"uint256","internalType":"uint256"}],"stateMutability":"view"},{"type":"function","name":"updateOperatorStake","inputs":[{"name":"operator","type":"address","internalType":"address"},{"name":"operatorId","type":"bytes32","internalType":"bytes32"},{"name":"quorumNumbers","type":"bytes","internalType":"bytes"}],"outputs":[{"name":"","type":"uint192","internalType":"uint192"}],"stateMutability":"nonpayable"},{"type":"function","name":"weightOfOperatorForQuorum","inputs":[{"name":"quorumNumber","type":"uint8","internalType":"uint8"},{"name":"operator","type":"address","internalType":"address"}],"outputs":[{"name":"","type":"uint96","internalType":"uint96"}],"stateMutability":"view"},{"type":"event","name":"MinimumStakeForQuorumUpdated","inputs":[{"name":"quorumNumber","type":"uint8","indexed":true,"internalType":"uint8"},{"name":"minimumStake","type":"uint96","indexed":false,"internalType":"uint96"}],"anonymous":false},{"type":"event","name":"OperatorStakeUpdate","inputs":[{"name":"operatorId","type":"bytes32","indexed":true,"internalType":"bytes32"},{"name":"quorumNumber","type":"uint8","indexed":false,"internalType":"uint8"},{"name":"stake","type":"uint96","indexed":false,"internalType":"uint96"}],"anonymous":false},{"type":"event","name":"QuorumCreated","inputs":[{"name":"quorumNumber","type":"uint8","indexed":true,"internalType":"uint8"}],"anonymous":false},{"type":"event","name":"StrategyAddedToQuorum","inputs":[{"name":"quorumNumber","type":"uint8","indexed":true,"internalType":"uint8"},{"name":"strategy","type":"address","indexed":false,"internalType":"contract IStrategy"}],"anonymous":false},{"type":"event","name":"StrategyMultiplierUpdated","inputs":[{"name":"quorumNumber","type":"uint8","indexed":true,"internalType":"uint8"},{"name":"strategy","type":"address","indexed":false,"internalType":"contract IStrategy"},{"name":"multiplier","type":"uint256","indexed":false,"internalType":"uint256"}],"anonymous":false},{"type":"event","name":"StrategyRemovedFromQuorum","inputs":[{"name":"quorumNumber","type":"uint8","indexed":true,"internalType":"uint8"},{"name":"strategy","type":"address","indexed":false,"internalType":"contract IStrategy"}],"anonymous":false}],"bytecode":{"object":"0x60c06040523480156200001157600080fd5b50604051620033c8380380620033c8833981016040819052620000349162000065565b6001600160a01b0391821660a05216608052620000a4565b6001600160a01b03811681146200006257600080fd5b50565b600080604083850312156200007957600080fd5b825162000086816200004c565b602084015190925062000099816200004c565b809150509250929050565b60805160a0516132e9620000df6000396000818161037a01528181611a470152611b7901526000818161052901526118a801526132e96000f3fe608060405234801561001057600080fd5b50600436106101e55760003560e01c80639f3ccf651161010f578063c8294c56116100a2578063f2be94ae11610071578063f2be94ae1461054b578063f851e1981461055e578063fa28c62714610571578063ff694a771461058457600080fd5b8063c8294c56146104d6578063d5eccc05146104e9578063dd9846b9146104fc578063df5cf7231461052457600080fd5b8063bc9a40c3116100de578063bc9a40c314610474578063bd29b8cd14610487578063c46778a51461049a578063c601527d146104c357600080fd5b80639f3ccf65146103ee578063ac6bfb0314610401578063adc804da14610421578063b6904b781461046157600080fd5b80634bd26e091161018757806366acfefe1161015657806366acfefe1461034a5780636d14a987146103755780637c172347146103b457806381c07502146103ce57600080fd5b80634bd26e09146102e55780635401ed27146103155780635e5a6775146103285780635f1f2d771461033757600080fd5b806320b66298116101c357806320b662981461026c57806325504777146102815780632cd95940146102a25780633ca5a5f5146102c257600080fd5b80630491b41c146101ea57806308732461146102205780631f9b74e014610241575b600080fd5b61020d6101f8366004612803565b60ff1660009081526001602052604090205490565b6040519081526020015b60405180910390f35b61023361022e36600461281e565b610597565b604051610217929190612848565b61025461024f36600461287f565b6105e0565b6040516001600160601b039091168152602001610217565b61027f61027a3660046128fa565b610602565b005b61029461028f3660046129bb565b610860565b604051610217929190612a5a565b6102b56102b0366004612a7f565b610a78565b6040516102179190612aab565b61020d6102d0366004612803565b60ff1660009081526003602052604090205490565b61020d6102f3366004612a7f565b600091825260026020908152604080842060ff93909316845291905290205490565b610254610323366004612a7f565b610b17565b61020d670de0b6b3a764000081565b61027f610345366004612bb4565b610b30565b61035d6103583660046129bb565b610e78565b6040516001600160c01b039091168152602001610217565b61039c7f000000000000000000000000000000000000000000000000000000000000000081565b6040516001600160a01b039091168152602001610217565b6103bc602081565b60405160ff9091168152602001610217565b6103e16103dc366004612c70565b610f17565b6040516102179190612cc2565b61039c6103fc36600461281e565b611157565b61041461040f366004612d00565b61118f565b6040516102179190612d33565b61043461042f36600461281e565b611227565b6040805182516001600160a01b031681526020928301516001600160601b03169281019290925201610217565b61041461046f36600461281e565b6112a1565b61027f610482366004612d7f565b611330565b61027f610495366004612da9565b611351565b6102546104a8366004612803565b6000602081905290815260409020546001600160601b031681565b61027f6104d1366004612e75565b6113c3565b6102546104e4366004612ec2565b6113df565b6102546104f7366004612803565b61145d565b61050f61050a366004612efe565b6114b0565b60405163ffffffff9091168152602001610217565b61039c7f000000000000000000000000000000000000000000000000000000000000000081565b610254610559366004612f3a565b6114c5565b61041461056c366004612a7f565b61155a565b61025461057f366004612efe565b61163f565b61027f610592366004612f7c565b6116a0565b600360205281600052604060002081815481106105b357600080fd5b6000918252602090912001546001600160a01b0381169250600160a01b90046001600160601b0316905082565b6000826105ec816117cb565b60006105f88585611847565b5095945050505050565b61060a611a45565b84610614816117cb565b838061068f576040805162461bcd60e51b81526020600482015260248101919091527f5374616b6552656769737472792e6d6f6469667953747261746567795061726160448201527f6d733a206e6f20737472617465677920696e64696365732070726f766964656460648201526084015b60405180910390fd5b8281146107045760405162461bcd60e51b815260206004820152603960248201527f5374616b6552656769737472792e6d6f6469667953747261746567795061726160448201527f6d733a20696e707574206c656e677468206d69736d61746368000000000000006064820152608401610686565b60ff87166000908152600360205260408120905b828110156108555785858281811061073257610732612fd9565b90506020020160208101906107479190612fef565b8289898481811061075a5761075a612fd9565b905060200201358154811061077157610771612fd9565b9060005260206000200160000160146101000a8154816001600160601b0302191690836001600160601b031602179055508860ff167f11a5641322da1dff56a4b66eaac31ffa465295ece907cd163437793b4d009a75838a8a858181106107da576107da612fd9565b90506020020135815481106107f1576107f1612fd9565b6000918252602090912001546001600160a01b031688888581811061081857610818612fd9565b905060200201602081019061082d9190612fef565b60405161083b929190612848565b60405180910390a28061084d81613020565b915050610718565b505050505050505050565b60608061086b611b6e565b6000836001600160401b0381111561088557610885612b23565b6040519080825280602002602001820160405280156108ae578160200160208202803683370190505b5090506000846001600160401b038111156108cb576108cb612b23565b6040519080825280602002602001820160405280156108f4578160200160208202803683370190505b50905060005b85811015610a6a57600087878381811061091657610916612fd9565b919091013560f81c915061092b9050816117cb565b600080610938838d611847565b91509150806109d55760405162461bcd60e51b815260206004820152605b60248201527f5374616b6552656769737472792e72656769737465724f70657261746f723a2060448201527f4f70657261746f7220646f6573206e6f74206d656574206d696e696d756d207360648201527f74616b6520726571756972656d656e7420666f722071756f72756d0000000000608482015260a401610686565b60006109e28c8585611c21565b9050828786815181106109f7576109f7612fd9565b60200260200101906001600160601b031690816001600160601b031681525050610a218482611ea1565b868681518110610a3357610a33612fd9565b60200260200101906001600160601b031690816001600160601b031681525050505050508080610a6290613020565b9150506108fa565b509097909650945050505050565b600082815260026020908152604080832060ff851684528252808320805482518185028101850190935280835260609492939192909184015b82821015610b0a576000848152602090819020604080516060810182529185015463ffffffff8082168452600160201b82041683850152600160401b90046001600160601b031690820152825260019092019101610ab1565b5050505090505b92915050565b600080610b24848461155a565b60400151949350505050565b610b38611a45565b81610b42816117cb565b815180610bb75760405162461bcd60e51b815260206004820152603d60248201527f5374616b6552656769737472792e72656d6f7665537472617465676965733a2060448201527f6e6f20696e646963657320746f2072656d6f76652070726f76696465640000006064820152608401610686565b60ff841660009081526003602090815260408083206004909252822090915b83811015610e6f578660ff167f31fa2e2cd280c9375e13ffcf3d81e2378100186e4058f8d3ddb690b82dcd31f784888481518110610c1657610c16612fd9565b602002602001015181548110610c2e57610c2e612fd9565b600091825260209182902001546040516001600160a01b0390911681520160405180910390a28660ff167f11a5641322da1dff56a4b66eaac31ffa465295ece907cd163437793b4d009a7584888481518110610c8c57610c8c612fd9565b602002602001015181548110610ca457610ca4612fd9565b600091825260208083209190910154604080516001600160a01b039092168252918101929092520160405180910390a282548390610ce49060019061303b565b81548110610cf457610cf4612fd9565b9060005260206000200183878381518110610d1157610d11612fd9565b602002602001015181548110610d2957610d29612fd9565b600091825260209091208254910180546001600160a01b0319166001600160a01b03909216918217815591546001600160601b03600160a01b9182900416021790558254839080610d7c57610d7c613052565b60008281526020812082016000199081019190915501905581548290610da49060019061303b565b81548110610db457610db4612fd9565b9060005260206000200160009054906101000a90046001600160a01b031682878381518110610de557610de5612fd9565b602002602001015181548110610dfd57610dfd612fd9565b9060005260206000200160006101000a8154816001600160a01b0302191690836001600160a01b0316021790555081805480610e3b57610e3b613052565b600082815260209020810160001990810180546001600160a01b031916905501905580610e6781613020565b915050610bd6565b50505050505050565b6000610e82611b6e565b6000805b838110156105f8576000858583818110610ea257610ea2612fd9565b919091013560f81c9150610eb79050816117cb565b600080610ec4838b611847565b9150915080610ee65760009150600160ff84161b6001600160c01b0386161794505b6000610ef38a8585611c21565b9050610eff8482611ea1565b50505050508080610f0f90613020565b915050610e86565b60606000826001600160401b03811115610f3357610f33612b23565b604051908082528060200260200182016040528015610f5c578160200160208202803683370190505b50905060005b8381101561114c576000858583818110610f7e57610f7e612fd9565b919091013560f81c9150610f939050816117cb565b60ff81166000908152600160205260408120805463ffffffff8a169290610fbc57610fbc612fd9565b60009182526020909120015463ffffffff1611156110685760405162461bcd60e51b815260206004820152605b60248201527f5374616b6552656769737472792e676574546f74616c5374616b65496e64696360448201527f65734174426c6f636b4e756d6265723a2071756f72756d20686173206e6f207360648201527f74616b6520686973746f727920617420626c6f636b4e756d6265720000000000608482015260a401610686565b60ff8116600090815260016020526040812054905b818110156111365760ff8316600090815260016020819052604090912063ffffffff8b16916110ac848661303b565b6110b6919061303b565b815481106110c6576110c6612fd9565b60009182526020909120015463ffffffff16116111245760016110e9828461303b565b6110f3919061303b565b85858151811061110557611105612fd9565b602002602001019063ffffffff16908163ffffffff1681525050611136565b8061112e81613020565b91505061107d565b505050808061114490613020565b915050610f62565b5090505b9392505050565b6004602052816000526040600020818154811061117357600080fd5b6000918252602090912001546001600160a01b03169150829050565b60408051606081018252600080825260208083018290528284018290528582526002815283822060ff881683529052919091208054839081106111d4576111d4612fd9565b600091825260209182902060408051606081018252929091015463ffffffff8082168452600160201b82041693830193909352600160401b9092046001600160601b031691810191909152949350505050565b604080518082019091526000808252602082015260ff8316600090815260036020526040902080548390811061125f5761125f612fd9565b6000918252602091829020604080518082019091529101546001600160a01b0381168252600160a01b90046001600160601b0316918101919091529392505050565b604080516060810182526000808252602080830182905282840182905260ff8616825260019052919091208054839081106112de576112de612fd9565b600091825260209182902060408051606081018252929091015463ffffffff8082168452600160201b82041693830193909352600160401b9092046001600160601b0316918101919091529392505050565b611338611a45565b81611342816117cb565b61134c838361201b565b505050565b611359611b6e565b60005b818110156113bd57600083838381811061137857611378612fd9565b919091013560f81c915061138d9050816117cb565b600061139b86836000611c21565b90506113a78282611ea1565b50505080806113b590613020565b91505061135c565b50505050565b6113cb611a45565b816113d5816117cb565b61134c8383612084565b60ff8316600090815260016020526040812080548291908490811061140657611406612fd9565b600091825260209182902060408051606081018252919092015463ffffffff8082168352600160201b820416938201939093526001600160601b03600160401b90930492909216908201529050610b2481856124c7565b60ff8116600090815260016020819052604082208054909161147e9161303b565b8154811061148e5761148e612fd9565b600091825260209091200154600160401b90046001600160601b031692915050565b60006114bd848484612641565b949350505050565b600082815260026020908152604080832060ff8816845290915281208054829190849081106114f6576114f6612fd9565b600091825260209182902060408051606081018252919092015463ffffffff8082168352600160201b820416938201939093526001600160601b03600160401b9093049290921690820152905061154d81866124c7565b6040015195945050505050565b6040805160608082018352600080835260208084018290528385018290528682526002815284822060ff871683528152848220548551938401865282845290830182905293820152909190816115b3579150610b119050565b600085815260026020908152604080832060ff8816845290915290206115da60018461303b565b815481106115ea576115ea612fd9565b600091825260209182902060408051606081018252919092015463ffffffff8082168352600160201b820416938201939093526001600160601b03600160401b90930492909216908201529250610b11915050565b600083815260026020908152604080832060ff861684529091528120611666858585612641565b63ffffffff168154811061167c5761167c612fd9565b600091825260209091200154600160401b90046001600160601b0316949350505050565b6116a8611b6e565b60ff8316600090815260016020526040902054156117265760405162461bcd60e51b815260206004820152603560248201527f5374616b6552656769737472792e696e697469616c697a6551756f72756d3a2060448201527471756f72756d20616c72656164792065786973747360581b6064820152608401610686565b6117308382612084565b61173a838361201b565b505060ff166000908152600160208181526040808420815160608101835263ffffffff438116825281850187815293820187815283549687018455928752939095209451949093018054915193516001600160601b0316600160401b02600160401b600160a01b0319948416600160201b0267ffffffffffffffff1990931695909316949094171791909116179055565b60ff81166000908152600160205260409020546118445760405162461bcd60e51b815260206004820152603160248201527f5374616b6552656769737472792e71756f72756d4578697374733a2071756f726044820152701d5b48191bd95cc81b9bdd08195e1a5cdd607a1b6064820152608401610686565b50565b6000806000806118668660ff1660009081526003602052604090205490565b604080518082019091526000808252602082015290915060ff871660009081526004602081905260408083209051639004134760e01b81526001600160a01b037f000000000000000000000000000000000000000000000000000000000000000016926390041347926118db928c9201613068565b600060405180830381865afa1580156118f8573d6000803e3d6000fd5b505050506040513d6000823e601f3d908101601f1916820160405261192091908101906130c7565b905060005b83811015611a115760ff8916600090815260036020526040902080548290811061195157611951612fd9565b60009182526020808320604080518082019091529201546001600160a01b0381168352600160a01b90046001600160601b031690820152835190945083908390811061199f5761199f612fd9565b602002602001015111156119ff57670de0b6b3a764000083602001516001600160601b03168383815181106119d6576119d6612fd9565b60200260200101516119e89190613157565b6119f29190613176565b6119fc9086613198565b94505b80611a0981613020565b915050611925565b50505060ff8616600090815260208190526040902054919350506001600160601b03908116908316101590505b9250929050565b7f00000000000000000000000000000000000000000000000000000000000000006001600160a01b0316638da5cb5b6040518163ffffffff1660e01b8152600401602060405180830381865afa158015611aa3573d6000803e3d6000fd5b505050506040513d601f19601f82011682018060405250810190611ac791906131c3565b6001600160a01b0316336001600160a01b031614611b6c5760405162461bcd60e51b815260206004820152605660248201527f5374616b6552656769737472792e6f6e6c79436f6f7264696e61746f724f776e60448201527f65723a2063616c6c6572206973206e6f7420746865206f776e6572206f6620746064820152753432903932b3b4b9ba393ca1b7b7b93234b730ba37b960511b608482015260a401610686565b565b336001600160a01b037f00000000000000000000000000000000000000000000000000000000000000001614611b6c5760405162461bcd60e51b815260206004820152604c60248201527f5374616b6552656769737472792e6f6e6c795265676973747279436f6f72646960448201527f6e61746f723a2063616c6c6572206973206e6f7420746865205265676973747260648201526b3ca1b7b7b93234b730ba37b960a11b608482015260a401610686565b600083815260026020908152604080832060ff86168452909152812054819080611ce557600086815260026020908152604080832060ff891684528252808320815160608101835263ffffffff43811682528185018681526001600160601b03808c16958401958652845460018101865594885295909620915191909201805495519351909416600160401b02600160401b600160a01b0319938316600160201b0267ffffffffffffffff1990961691909216179390931716919091179055611e47565b600086815260026020908152604080832060ff891684529091528120611d0c60018461303b565b81548110611d1c57611d1c612fd9565b600091825260209091200180546001600160601b03600160401b909104811694509091508516831415611d555760009350505050611150565b80544363ffffffff90811691161415611d8f578054600160401b600160a01b031916600160401b6001600160601b03871602178155611e45565b805467ffffffff000000001916600160201b4363ffffffff90811682810293909317845560008a815260026020908152604080832060ff8d168452825280832081516060810183529687528683018481526001600160601b038d81169389019384528254600181018455928652939094209651960180549351915196851667ffffffffffffffff1990941693909317931690930291909117600160401b600160a01b031916600160401b93909216929092021790555b505b6040805160ff871681526001600160601b038616602082015287917f2f527d527e95d8fe40aec55377743bb779087da3f6d0d08f12e36444da62327d910160405180910390a2611e9782856127a7565b9695505050505050565b60ff821660009081526001602081905260408220805491839190611ec5908461303b565b81548110611ed557611ed5612fd9565b9060005260206000200190508360001415611f045754600160401b90046001600160601b03169150610b119050565b8054600090611f2390600160401b90046001600160601b0316866127bf565b82549091504363ffffffff90811691161415611f60578154600160401b600160a01b031916600160401b6001600160601b03831602178255612012565b815463ffffffff438116600160201b81810267ffffffff000000001990941693909317855560ff8916600090815260016020818152604080842081516060810183529586528583018581526001600160601b03808b169388019384528254958601835591865292909420945194909201805491519251909316600160401b02600160401b600160a01b031992861690960267ffffffffffffffff19909116939094169290921792909217169190911790555b95945050505050565b60ff82166000818152602081815260409182902080546bffffffffffffffffffffffff19166001600160601b03861690811790915591519182527f26eecff2b70b0a71104ff4d940ba7162d23a95c248771fc487a7be17a596b3cf910160405180910390a25050565b60008151116120e95760405162461bcd60e51b8152602060048201526038602482015260008051602061329483398151915260448201527f3a206e6f20737472617465676965732070726f766964656400000000000000006064820152608401610686565b805160ff83166000908152600360209081526040909120549061210c83836131e0565b111561217c5760405162461bcd60e51b8152602060048201526045602482015260008051602061329483398151915260448201527f3a20657863656564204d41585f5745494748494e475f46554e4354494f4e5f4c60648201526408a9c8ea8960db1b608482015260a401610686565b60005b828110156124c05760005b61219482846131e0565b811015612275578482815181106121ad576121ad612fd9565b6020026020010151600001516001600160a01b0316600360008860ff1660ff16815260200190815260200160002082815481106121ec576121ec612fd9565b6000918252602090912001546001600160a01b031614156122635760405162461bcd60e51b815260206004820152603d602482015260008051602061329483398151915260448201527f3a2063616e6e6f74206164642073616d652073747261746567792032780000006064820152608401610686565b8061226d81613020565b91505061218a565b50600084828151811061228a5761228a612fd9565b6020026020010151602001516001600160601b03161161230f5760405162461bcd60e51b8152602060048201526046602482015260008051602061329483398151915260448201527f3a2063616e6e6f74206164642073747261746567792077697468207a65726f206064820152651dd95a59da1d60d21b608482015260a401610686565b60ff85166000908152600360205260409020845185908390811061233557612335612fd9565b602090810291909101810151825460018101845560009384528284208251928401516001600160601b0316600160a01b026001600160a01b039093169290921791015560ff871682526004905260409020845185908390811061239a5761239a612fd9565b6020908102919091018101515182546001810184556000938452919092200180546001600160a01b0319166001600160a01b03909216919091179055835160ff8616907f10565e56cacbf32eca267945f054fec02e59750032d113d3302182ad967f54049086908490811061241157612411612fd9565b602090810291909101810151516040516001600160a01b0390911681520160405180910390a28460ff167f11a5641322da1dff56a4b66eaac31ffa465295ece907cd163437793b4d009a7585838151811061246e5761246e612fd9565b60200260200101516000015186848151811061248c5761248c612fd9565b6020026020010151602001516040516124a6929190612848565b60405180910390a2806124b881613020565b91505061217f565b5050505050565b816000015163ffffffff168163ffffffff16101561256c5760405162461bcd60e51b815260206004820152605660248201527f5374616b6552656769737472792e5f76616c69646174655374616b655570646160448201527f74654174426c6f636b4e756d6265723a207374616b6555706461746520697320606482015275333937b69030b33a32b910313637b1b5a73ab6b132b960511b608482015260a401610686565b602082015163ffffffff1615806125925750816020015163ffffffff168163ffffffff16105b61263d5760405162461bcd60e51b815260206004820152606a60248201527f5374616b6552656769737472792e5f76616c69646174655374616b655570646160448201527f74654174426c6f636b4e756d6265723a2074686572652069732061206e65776560648201527f72207374616b6555706461746520617661696c61626c65206265666f726520626084820152693637b1b5a73ab6b132b960b11b60a482015260c401610686565b5050565b600083815260026020908152604080832060ff86168452909152812054805b80156126e257600086815260026020908152604080832060ff89168452909152902063ffffffff85169061269560018461303b565b815481106126a5576126a5612fd9565b60009182526020909120015463ffffffff16116126d0576126c760018261303b565b92505050611150565b806126da816131f8565b915050612660565b5060405162461bcd60e51b815260206004820152608160248201527f5374616b6552656769737472792e5f6765745374616b65557064617465496e6460448201527f6578466f724f70657261746f724174426c6f636b4e756d6265723a206e6f207360648201527f74616b652075706461746520666f756e6420666f72206f70657261746f72496460848201527f20616e642071756f72756d4e756d62657220617420626c6f636b206e756d626560a4820152603960f91b60c482015260e401610686565b60006111506001600160601b0380851690841661320f565b6000808212156127e3576127d28261324e565b6127dc908461326b565b9050610b11565b6127dc8284613198565b803560ff811681146127fe57600080fd5b919050565b60006020828403121561281557600080fd5b611150826127ed565b6000806040838503121561283157600080fd5b61283a836127ed565b946020939093013593505050565b6001600160a01b039290921682526001600160601b0316602082015260400190565b6001600160a01b038116811461184457600080fd5b6000806040838503121561289257600080fd5b61289b836127ed565b915060208301356128ab8161286a565b809150509250929050565b60008083601f8401126128c857600080fd5b5081356001600160401b038111156128df57600080fd5b6020830191508360208260051b8501011115611a3e57600080fd5b60008060008060006060868803121561291257600080fd5b61291b866127ed565b945060208601356001600160401b038082111561293757600080fd5b61294389838a016128b6565b9096509450604088013591508082111561295c57600080fd5b50612969888289016128b6565b969995985093965092949392505050565b60008083601f84011261298c57600080fd5b5081356001600160401b038111156129a357600080fd5b602083019150836020828501011115611a3e57600080fd5b600080600080606085870312156129d157600080fd5b84356129dc8161286a565b93506020850135925060408501356001600160401b038111156129fe57600080fd5b612a0a8782880161297a565b95989497509550505050565b600081518084526020808501945080840160005b83811015612a4f5781516001600160601b031687529582019590820190600101612a2a565b509495945050505050565b604081526000612a6d6040830185612a16565b82810360208401526120128185612a16565b60008060408385031215612a9257600080fd5b82359150612aa2602084016127ed565b90509250929050565b6020808252825182820181905260009190848201906040850190845b81811015612b1757612b0483855163ffffffff808251168352806020830151166020840152506001600160601b0360408201511660408301525050565b9284019260609290920191600101612ac7565b50909695505050505050565b634e487b7160e01b600052604160045260246000fd5b604080519081016001600160401b0381118282101715612b5b57612b5b612b23565b60405290565b604051601f8201601f191681016001600160401b0381118282101715612b8957612b89612b23565b604052919050565b60006001600160401b03821115612baa57612baa612b23565b5060051b60200190565b60008060408385031215612bc757600080fd5b612bd0836127ed565b91506020808401356001600160401b03811115612bec57600080fd5b8401601f81018613612bfd57600080fd5b8035612c10612c0b82612b91565b612b61565b81815260059190911b82018301908381019088831115612c2f57600080fd5b928401925b82841015612c4d57833582529284019290840190612c34565b80955050505050509250929050565b803563ffffffff811681146127fe57600080fd5b600080600060408486031215612c8557600080fd5b612c8e84612c5c565b925060208401356001600160401b03811115612ca957600080fd5b612cb58682870161297a565b9497909650939450505050565b6020808252825182820181905260009190848201906040850190845b81811015612b1757835163ffffffff1683529284019291840191600101612cde565b600080600060608486031215612d1557600080fd5b612d1e846127ed565b95602085013595506040909401359392505050565b815163ffffffff9081168252602080840151909116908201526040808301516001600160601b03169082015260608101610b11565b80356001600160601b03811681146127fe57600080fd5b60008060408385031215612d9257600080fd5b612d9b836127ed565b9150612aa260208401612d68565b600080600060408486031215612dbe57600080fd5b8335925060208401356001600160401b03811115612ca957600080fd5b600082601f830112612dec57600080fd5b81356020612dfc612c0b83612b91565b82815260069290921b84018101918181019086841115612e1b57600080fd5b8286015b84811015612e6a5760408189031215612e385760008081fd5b612e40612b39565b8135612e4b8161286a565b8152612e58828601612d68565b81860152835291830191604001612e1f565b509695505050505050565b60008060408385031215612e8857600080fd5b612e91836127ed565b915060208301356001600160401b03811115612eac57600080fd5b612eb885828601612ddb565b9150509250929050565b600080600060608486031215612ed757600080fd5b612ee0846127ed565b9250612eee60208501612c5c565b9150604084013590509250925092565b600080600060608486031215612f1357600080fd5b83359250612f23602085016127ed565b9150612f3160408501612c5c565b90509250925092565b60008060008060808587031215612f5057600080fd5b612f59856127ed565b9350612f6760208601612c5c565b93969395505050506040820135916060013590565b600080600060608486031215612f9157600080fd5b612f9a846127ed565b9250612fa860208501612d68565b915060408401356001600160401b03811115612fc357600080fd5b612fcf86828701612ddb565b9150509250925092565b634e487b7160e01b600052603260045260246000fd5b60006020828403121561300157600080fd5b61115082612d68565b634e487b7160e01b600052601160045260246000fd5b60006000198214156130345761303461300a565b5060010190565b60008282101561304d5761304d61300a565b500390565b634e487b7160e01b600052603160045260246000fd5b60006040820160018060a01b03808616845260206040818601528286548085526060870191508760005282600020945060005b818110156130b957855485168352600195860195928401920161309b565b509098975050505050505050565b600060208083850312156130da57600080fd5b82516001600160401b038111156130f057600080fd5b8301601f8101851361310157600080fd5b805161310f612c0b82612b91565b81815260059190911b8201830190838101908783111561312e57600080fd5b928401925b8284101561314c57835182529284019290840190613133565b979650505050505050565b60008160001904831182151516156131715761317161300a565b500290565b60008261319357634e487b7160e01b600052601260045260246000fd5b500490565b60006001600160601b038083168185168083038211156131ba576131ba61300a565b01949350505050565b6000602082840312156131d557600080fd5b81516111508161286a565b600082198211156131f3576131f361300a565b500190565b6000816132075761320761300a565b506000190190565b60008083128015600160ff1b85018412161561322d5761322d61300a565b6001600160ff1b03840183138116156132485761324861300a565b50500390565b6000600160ff1b8214156132645761326461300a565b5060000390565b60006001600160601b038381169083168181101561328b5761328b61300a565b03939250505056fe5374616b6552656769737472792e5f6164645374726174656779506172616d73a26469706673582212207b72f563413fb53c0f8ff144d548aad42f4e832e38dfc440a167c508b5bac04364736f6c634300080c0033","linkReferences":{}},"methodIdentifiers":{"MAX_WEIGHING_FUNCTION_LENGTH()":"7c172347","WEIGHTING_DIVISOR()":"5e5a6775","addStrategies(uint8,(address,uint96)[])":"c601527d","delegation()":"df5cf723","deregisterOperator(bytes32,bytes)":"bd29b8cd","getCurrentStake(bytes32,uint8)":"5401ed27","getCurrentTotalStake(uint8)":"d5eccc05","getLatestStakeUpdate(bytes32,uint8)":"f851e198","getStakeAtBlockNumber(bytes32,uint8,uint32)":"fa28c627","getStakeAtBlockNumberAndIndex(uint8,uint32,bytes32,uint256)":"f2be94ae","getStakeHistory(bytes32,uint8)":"2cd95940","getStakeHistoryLength(bytes32,uint8)":"4bd26e09","getStakeUpdateAtIndex(uint8,bytes32,uint256)":"ac6bfb03","getStakeUpdateIndexAtBlockNumber(bytes32,uint8,uint32)":"dd9846b9","getTotalStakeAtBlockNumberFromIndex(uint8,uint32,uint256)":"c8294c56","getTotalStakeHistoryLength(uint8)":"0491b41c","getTotalStakeIndicesAtBlockNumber(uint32,bytes)":"81c07502","getTotalStakeUpdateAtIndex(uint8,uint256)":"b6904b78","initializeQuorum(uint8,uint96,(address,uint96)[])":"ff694a77","minimumStakeForQuorum(uint8)":"c46778a5","modifyStrategyParams(uint8,uint256[],uint96[])":"20b66298","registerOperator(address,bytes32,bytes)":"25504777","registryCoordinator()":"6d14a987","removeStrategies(uint8,uint256[])":"5f1f2d77","setMinimumStakeForQuorum(uint8,uint96)":"bc9a40c3","strategiesPerQuorum(uint8,uint256)":"9f3ccf65","strategyParams(uint8,uint256)":"08732461","strategyParamsByIndex(uint8,uint256)":"adc804da","strategyParamsLength(uint8)":"3ca5a5f5","updateOperatorStake(address,bytes32,bytes)":"66acfefe","weightOfOperatorForQuorum(uint8,address)":"1f9b74e0"},"id":114}