{"abi":[{"type":"constructor","inputs":[{"name":"_registryCoordinator","type":"address","internalType":"contract IRegistryCoordinator"}],"stateMutability":"nonpayable"},{"type":"function","name":"apkHistory","inputs":[{"name":"","type":"uint8","internalType":"uint8"},{"name":"","type":"uint256","internalType":"uint256"}],"outputs":[{"name":"apkHash","type":"bytes24","internalType":"bytes24"},{"name":"updateBlockNumber","type":"uint32","internalType":"uint32"},{"name":"nextUpdateBlockNumber","type":"uint32","internalType":"uint32"}],"stateMutability":"view"},{"type":"function","name":"currentApk","inputs":[{"name":"","type":"uint8","internalType":"uint8"}],"outputs":[{"name":"X","type":"uint256","internalType":"uint256"},{"name":"Y","type":"uint256","internalType":"uint256"}],"stateMutability":"view"},{"type":"function","name":"deregisterOperator","inputs":[{"name":"operator","type":"address","internalType":"address"},{"name":"quorumNumbers","type":"bytes","internalType":"bytes"}],"outputs":[],"stateMutability":"nonpayable"},{"type":"function","name":"getApk","inputs":[{"name":"quorumNumber","type":"uint8","internalType":"uint8"}],"outputs":[{"name":"","type":"tuple","internalType":"struct BN254.G1Point","components":[{"name":"X","type":"uint256","internalType":"uint256"},{"name":"Y","type":"uint256","internalType":"uint256"}]}],"stateMutability":"view"},{"type":"function","name":"getApkHashAtBlockNumberAndIndex","inputs":[{"name":"quorumNumber","type":"uint8","internalType":"uint8"},{"name":"blockNumber","type":"uint32","internalType":"uint32"},{"name":"index","type":"uint256","internalType":"uint256"}],"outputs":[{"name":"","type":"bytes24","internalType":"bytes24"}],"stateMutability":"view"},{"type":"function","name":"getApkHistoryLength","inputs":[{"name":"quorumNumber","type":"uint8","internalType":"uint8"}],"outputs":[{"name":"","type":"uint32","internalType":"uint32"}],"stateMutability":"view"},{"type":"function","name":"getApkIndicesAtBlockNumber","inputs":[{"name":"quorumNumbers","type":"bytes","internalType":"bytes"},{"name":"blockNumber","type":"uint256","internalType":"uint256"}],"outputs":[{"name":"","type":"uint32[]","internalType":"uint32[]"}],"stateMutability":"view"},{"type":"function","name":"getApkUpdateAtIndex","inputs":[{"name":"quorumNumber","type":"uint8","internalType":"uint8"},{"name":"index","type":"uint256","internalType":"uint256"}],"outputs":[{"name":"","type":"tuple","internalType":"struct IBLSApkRegistry.ApkUpdate","components":[{"name":"apkHash","type":"bytes24","internalType":"bytes24"},{"name":"updateBlockNumber","type":"uint32","internalType":"uint32"},{"name":"nextUpdateBlockNumber","type":"uint32","internalType":"uint32"}]}],"stateMutability":"view"},{"type":"function","name":"getOperatorFromPubkeyHash","inputs":[{"name":"pubkeyHash","type":"bytes32","internalType":"bytes32"}],"outputs":[{"name":"","type":"address","internalType":"address"}],"stateMutability":"view"},{"type":"function","name":"getOperatorId","inputs":[{"name":"operator","type":"address","internalType":"address"}],"outputs":[{"name":"","type":"bytes32","internalType":"bytes32"}],"stateMutability":"view"},{"type":"function","name":"getRegisteredPubkey","inputs":[{"name":"operator","type":"address","internalType":"address"}],"outputs":[{"name":"","type":"tuple","internalType":"struct BN254.G1Point","components":[{"name":"X","type":"uint256","internalType":"uint256"},{"name":"Y","type":"uint256","internalType":"uint256"}]},{"name":"","type":"bytes32","internalType":"bytes32"}],"stateMutability":"view"},{"type":"function","name":"initializeQuorum","inputs":[{"name":"quorumNumber","type":"uint8","internalType":"uint8"}],"outputs":[],"stateMutability":"nonpayable"},{"type":"function","name":"operatorToPubkey","inputs":[{"name":"","type":"address","internalType":"address"}],"outputs":[{"name":"X","type":"uint256","internalType":"uint256"},{"name":"Y","type":"uint256","internalType":"uint256"}],"stateMutability":"view"},{"type":"function","name":"operatorToPubkeyHash","inputs":[{"name":"","type":"address","internalType":"address"}],"outputs":[{"name":"","type":"bytes32","internalType":"bytes32"}],"stateMutability":"view"},{"type":"function","name":"pubkeyHashToOperator","inputs":[{"name":"","type":"bytes32","internalType":"bytes32"}],"outputs":[{"name":"","type":"address","internalType":"address"}],"stateMutability":"view"},{"type":"function","name":"registerBLSPublicKey","inputs":[{"name":"operator","type":"address","internalType":"address"},{"name":"params","type":"tuple","internalType":"struct IBLSApkRegistry.PubkeyRegistrationParams","components":[{"name":"pubkeyRegistrationSignature","type":"tuple","internalType":"struct BN254.G1Point","components":[{"name":"X","type":"uint256","internalType":"uint256"},{"name":"Y","type":"uint256","internalType":"uint256"}]},{"name":"pubkeyG1","type":"tuple","internalType":"struct BN254.G1Point","components":[{"name":"X","type":"uint256","internalType":"uint256"},{"name":"Y","type":"uint256","internalType":"uint256"}]},{"name":"pubkeyG2","type":"tuple","internalType":"struct BN254.G2Point","components":[{"name":"X","type":"uint256[2]","internalType":"uint256[2]"},{"name":"Y","type":"uint256[2]","internalType":"uint256[2]"}]}]},{"name":"pubkeyRegistrationMessageHash","type":"tuple","internalType":"struct BN254.G1Point","components":[{"name":"X","type":"uint256","internalType":"uint256"},{"name":"Y","type":"uint256","internalType":"uint256"}]}],"outputs":[{"name":"operatorId","type":"bytes32","internalType":"bytes32"}],"stateMutability":"nonpayable"},{"type":"function","name":"registerOperator","inputs":[{"name":"operator","type":"address","internalType":"address"},{"name":"quorumNumbers","type":"bytes","internalType":"bytes"}],"outputs":[],"stateMutability":"nonpayable"},{"type":"function","name":"registryCoordinator","inputs":[],"outputs":[{"name":"","type":"address","internalType":"address"}],"stateMutability":"view"},{"type":"event","name":"Initialized","inputs":[{"name":"version","type":"uint8","indexed":false,"internalType":"uint8"}],"anonymous":false},{"type":"event","name":"NewPubkeyRegistration","inputs":[{"name":"operator","type":"address","indexed":true,"internalType":"address"},{"name":"pubkeyG1","type":"tuple","indexed":false,"internalType":"struct BN254.G1Point","components":[{"name":"X","type":"uint256","internalType":"uint256"},{"name":"Y","type":"uint256","internalType":"uint256"}]},{"name":"pubkeyG2","type":"tuple","indexed":false,"internalType":"struct BN254.G2Point","components":[{"name":"X","type":"uint256[2]","internalType":"uint256[2]"},{"name":"Y","type":"uint256[2]","internalType":"uint256[2]"}]}],"anonymous":false},{"type":"event","name":"OperatorAddedToQuorums","inputs":[{"name":"operator","type":"address","indexed":false,"internalType":"address"},{"name":"operatorId","type":"bytes32","indexed":false,"internalType":"bytes32"},{"name":"quorumNumbers","type":"bytes","indexed":false,"internalType":"bytes"}],"anonymous":false},{"type":"event","name":"OperatorRemovedFromQuorums","inputs":[{"name":"operator","type":"address","indexed":false,"internalType":"address"},{"name":"operatorId","type":"bytes32","indexed":false,"internalType":"bytes32"},{"name":"quorumNumbers","type":"bytes","indexed":false,"internalType":"bytes"}],"anonymous":false}],"bytecode":{"object":"0x60a06040523480156200001157600080fd5b506040516200210b3803806200210b833981016040819052620000349162000116565b6001600160a01b038116608052806200004c62000054565b505062000148565b600054610100900460ff1615620000c15760405162461bcd60e51b815260206004820152602760248201527f496e697469616c697a61626c653a20636f6e747261637420697320696e697469604482015266616c697a696e6760c81b606482015260840160405180910390fd5b60005460ff908116101562000114576000805460ff191660ff9081179091556040519081527f7f26b83ff96e1f2b6a682f133852f6798a09c465da95921460cefb38474024989060200160405180910390a15b565b6000602082840312156200012957600080fd5b81516001600160a01b03811681146200014157600080fd5b9392505050565b608051611f8b620001806000396000818161030f01528181610466015281816105bf015281816109c501526110310152611f8b6000f3fe608060405234801561001057600080fd5b50600436106101155760003560e01c80636d14a987116100a2578063bf79ce5811610071578063bf79ce58146103cc578063d5254a8c146103df578063de29fac0146103ff578063e8bb9ae61461041f578063f4e24fe51461044857600080fd5b80636d14a9871461030a5780637916cea6146103315780637ff81a8714610372578063a3db80e2146103a557600080fd5b80633fb27952116100e95780633fb27952146101df57806347b314e8146101f25780635f61a88414610233578063605747d51461028f57806368bccaac146102dd57600080fd5b8062a1f4cb1461011a57806313542a4e1461015b57806326d941f214610192578063377ed99d146101a7575b600080fd5b610141610128366004611904565b6003602052600090815260409020805460019091015482565b604080519283526020830191909152015b60405180910390f35b610184610169366004611904565b6001600160a01b031660009081526001602052604090205490565b604051908152602001610152565b6101a56101a0366004611937565b61045b565b005b6101ca6101b5366004611937565b60ff1660009081526004602052604090205490565b60405163ffffffff9091168152602001610152565b6101a56101ed3660046119c2565b6105b4565b61021b610200366004611a68565b6000908152600260205260409020546001600160a01b031690565b6040516001600160a01b039091168152602001610152565b610282610241366004611937565b60408051808201909152600080825260208201525060ff16600090815260056020908152604091829020825180840190935280548352600101549082015290565b6040516101529190611a81565b6102a261029d366004611a98565b610672565b60408051825167ffffffffffffffff1916815260208084015163ffffffff908116918301919091529282015190921690820152606001610152565b6102f06102eb366004611ac2565b610705565b60405167ffffffffffffffff199091168152602001610152565b61021b7f000000000000000000000000000000000000000000000000000000000000000081565b61034461033f366004611a98565b6108a0565b6040805167ffffffffffffffff19909416845263ffffffff9283166020850152911690820152606001610152565b610385610380366004611904565b6108eb565b604080518351815260209384015193810193909352820152606001610152565b6101416103b3366004611937565b6005602052600090815260409020805460019091015482565b6101846103da366004611b0a565b6109b8565b6103f26103ed366004611b67565b610e0c565b6040516101529190611bdf565b61018461040d366004611904565b60016020526000908152604090205481565b61021b61042d366004611a68565b6002602052600090815260409020546001600160a01b031681565b6101a56104563660046119c2565b611026565b336001600160a01b037f000000000000000000000000000000000000000000000000000000000000000016146104ac5760405162461bcd60e51b81526004016104a390611c29565b60405180910390fd5b60ff81166000908152600460205260409020541561052b5760405162461bcd60e51b815260206004820152603660248201527f424c5341706b52656769737472792e696e697469616c697a6551756f72756d3a6044820152752071756f72756d20616c72656164792065786973747360501b60648201526084016104a3565b60ff166000908152600460209081526040808320815160608101835284815263ffffffff4381168286019081528285018781528454600181018655948852959096209151919092018054955194518316600160e01b026001600160e01b0395909316600160c01b026001600160e01b03199096169190931c179390931791909116919091179055565b336001600160a01b037f000000000000000000000000000000000000000000000000000000000000000016146105fc5760405162461bcd60e51b81526004016104a390611c29565b6000610607836108eb565b50905061061482826110cf565b7f73a2b7fb844724b971802ae9b15db094d4b7192df9d7350e14eb466b9b22eb4e83610655856001600160a01b031660009081526001602052604090205490565b8460405161066593929190611c9d565b60405180910390a1505050565b604080516060810182526000808252602080830182905282840182905260ff8616825260049052919091208054839081106106af576106af611d09565b600091825260209182902060408051606081018252919092015467ffffffffffffffff1981841b16825263ffffffff600160c01b8204811694830194909452600160e01b90049092169082015290505b92915050565b60ff8316600090815260046020526040812080548291908490811061072c5761072c611d09565b600091825260209182902060408051606081018252919092015467ffffffffffffffff1981841b16825263ffffffff600160c01b82048116948301859052600160e01b9091048116928201929092529250851610156107f35760405162461bcd60e51b815260206004820152603e60248201527f424c5341706b52656769737472792e5f76616c696461746541706b486173684160448201527f74426c6f636b4e756d6265723a20696e64657820746f6f20726563656e74000060648201526084016104a3565b604081015163ffffffff1615806108195750806040015163ffffffff168463ffffffff16105b6108975760405162461bcd60e51b815260206004820152604360248201527f424c5341706b52656769737472792e5f76616c696461746541706b486173684160448201527f74426c6f636b4e756d6265723a206e6f74206c61746573742061706b2075706460648201526261746560e81b608482015260a4016104a3565b51949350505050565b600460205281600052604060002081815481106108bc57600080fd5b600091825260209091200154604081901b925063ffffffff600160c01b820481169250600160e01b9091041683565b60408051808201909152600080825260208201526001600160a01b0382166000818152600360209081526040808320815180830183528154815260019182015481850152948452909152812054909190806109ae5760405162461bcd60e51b815260206004820152603e60248201527f424c5341706b52656769737472792e676574526567697374657265645075626b60448201527f65793a206f70657261746f72206973206e6f742072656769737465726564000060648201526084016104a3565b9094909350915050565b6000336001600160a01b037f00000000000000000000000000000000000000000000000000000000000000001614610a025760405162461bcd60e51b81526004016104a390611c29565b6000610a30610a1936869003860160408701611d1f565b805160009081526020918201519091526040902090565b90507fad3228b676f7d3cd4284a5443f17f1962b36e491b30a40b2405849e597ba5fb5811415610ab8576040805162461bcd60e51b8152602060048201526024810191909152600080516020611f3683398151915260448201527f4b65793a2063616e6e6f74207265676973746572207a65726f207075626b657960648201526084016104a3565b6001600160a01b03851660009081526001602052604090205415610b425760405162461bcd60e51b81526020600482015260476024820152600080516020611f3683398151915260448201527f4b65793a206f70657261746f7220616c72656164792072656769737465726564606482015266207075626b657960c81b608482015260a4016104a3565b6000818152600260205260409020546001600160a01b031615610bc65760405162461bcd60e51b81526020600482015260426024820152600080516020611f3683398151915260448201527f4b65793a207075626c6963206b657920616c7265616479207265676973746572606482015261195960f21b608482015260a4016104a3565b604080516000917f30644e72e131a029b85045b68181585d2833e84879b9709143e1f593f000000191610c1f918835916020808b0135928b01359160608c01359160808d019160c08e01918d35918e8201359101611d51565b6040516020818303038152906040528051906020012060001c610c429190611d9c565b9050610cdc610c7b610c6683610c60368a90038a0160408b01611d1f565b9061131a565b610c7536899003890189611d1f565b906113b1565b610c83611445565b610cc5610cb685610c60604080518082018252600080825260209182015281518083019092526001825260029082015290565b610c75368a90038a018a611d1f565b610cd7368a90038a0160808b01611e0e565b611505565b610d775760405162461bcd60e51b815260206004820152606c6024820152600080516020611f3683398151915260448201527f4b65793a2065697468657220746865204731207369676e61747572652069732060648201527f77726f6e672c206f7220473120616e642047322070726976617465206b65792060848201526b0c8de40dcdee840dac2e8c6d60a31b60a482015260c4016104a3565b6001600160a01b03861660008181526003602090815260408083208982018035825560608b013560019283015590835281842087905586845260029092529182902080546001600160a01b0319168417905590517fe3fb6613af2e8930cf85d47fcf6db10192224a64c6cbe8023e0eee1ba382804191610dfb9160808a0190611e6b565b60405180910390a250949350505050565b606060008367ffffffffffffffff811115610e2957610e29611952565b604051908082528060200260200182016040528015610e52578160200160208202803683370190505b50905060005b8481101561101d576000868683818110610e7457610e74611d09565b919091013560f81c6000818152600460205260409020549092509050801580610ed7575060ff821660009081526004602052604081208054909190610ebb57610ebb611d09565b600091825260209091200154600160c01b900463ffffffff1686105b15610f645760405162461bcd60e51b815260206004820152605160248201527f424c5341706b52656769737472792e67657441706b496e64696365734174426c60448201527f6f636b4e756d6265723a20626c6f636b4e756d626572206973206265666f7265606482015270207468652066697273742075706461746560781b608482015260a4016104a3565b805b80156110075760ff831660009081526004602052604090208790610f8b600184611eb5565b81548110610f9b57610f9b611d09565b600091825260209091200154600160c01b900463ffffffff1611610ff557610fc4600182611eb5565b858581518110610fd657610fd6611d09565b602002602001019063ffffffff16908163ffffffff1681525050611007565b80610fff81611ecc565b915050610f66565b505050808061101590611ee3565b915050610e58565b50949350505050565b336001600160a01b037f0000000000000000000000000000000000000000000000000000000000000000161461106e5760405162461bcd60e51b81526004016104a390611c29565b6000611079836108eb565b50905061108e8261108983611772565b6110cf565b7ff843ecd53a563675e62107be1494fdde4a3d49aeedaf8d88c616d85346e3500e83610655856001600160a01b031660009081526001602052604090205490565b604080518082019091526000808252602082015260005b835181101561131457600084828151811061110357611103611d09565b0160209081015160f81c60008181526004909252604090912054909150806111935760405162461bcd60e51b815260206004820152603d60248201527f424c5341706b52656769737472792e5f70726f6365737351756f72756d41706b60448201527f5570646174653a2071756f72756d20646f6573206e6f7420657869737400000060648201526084016104a3565b60ff821660009081526005602090815260409182902082518084019093528054835260010154908201526111c790866113b1565b60ff831660008181526005602090815260408083208551808255868401805160019384015590855251835281842094845260049092528220939750919290916112109085611eb5565b8154811061122057611220611d09565b600091825260209091200180549091504363ffffffff908116600160c01b9092041614156112615780546001600160c01b031916604083901c1781556112fd565b805463ffffffff438116600160e01b8181026001600160e01b0394851617855560ff88166000908152600460209081526040808320815160608101835267ffffffffffffffff198b16815280840196875280830185815282546001810184559286529390942093519301805495519251871690940291909516600160c01b026001600160e01b0319949094169190941c17919091179092161790555b50505050808061130c90611ee3565b9150506110e6565b50505050565b6040805180820190915260008082526020820152611336611831565b835181526020808501519082015260408082018490526000908360608460076107d05a03fa90508080156113695761136b565bfe5b50806113a95760405162461bcd60e51b815260206004820152600d60248201526c1958cb5b5d5b0b59985a5b1959609a1b60448201526064016104a3565b505092915050565b60408051808201909152600080825260208201526113cd61184f565b835181526020808501518183015283516040808401919091529084015160608301526000908360808460066107d05a03fa90508080156113695750806113a95760405162461bcd60e51b815260206004820152600d60248201526c1958cb5859190b59985a5b1959609a1b60448201526064016104a3565b61144d61186d565b50604080516080810182527f198e9393920d483a7260bfb731fb5d25f1aa493335a9e71297e485b7aef312c28183019081527f1800deef121f1e76426a00665e5c4479674322d4f75edadd46debd5cd992f6ed6060830152815281518083019092527f275dc4a288d1afb3cbb1ac09187524c7db36395df7be3b99e673b13a075a65ec82527f1d9befcd05a5323e6da4d435f3b617cdb3af83285c2df711ef39c01571827f9d60208381019190915281019190915290565b604080518082018252858152602080820185905282518084019093528583528201839052600091611534611892565b60005b60028110156116f957600061154d826006611efe565b905084826002811061156157611561611d09565b60200201515183611573836000611f1d565b600c811061158357611583611d09565b602002015284826002811061159a5761159a611d09565b602002015160200151838260016115b19190611f1d565b600c81106115c1576115c1611d09565b60200201528382600281106115d8576115d8611d09565b60200201515151836115eb836002611f1d565b600c81106115fb576115fb611d09565b602002015283826002811061161257611612611d09565b602002015151600160200201518361162b836003611f1d565b600c811061163b5761163b611d09565b602002015283826002811061165257611652611d09565b60200201516020015160006002811061166d5761166d611d09565b60200201518361167e836004611f1d565b600c811061168e5761168e611d09565b60200201528382600281106116a5576116a5611d09565b6020020151602001516001600281106116c0576116c0611d09565b6020020151836116d1836005611f1d565b600c81106116e1576116e1611d09565b602002015250806116f181611ee3565b915050611537565b506117026118b1565b60006020826101808560086107d05a03fa90508080156113695750806117625760405162461bcd60e51b81526020600482015260156024820152741c185a5c9a5b99cb5bdc18dbd9194b59985a5b1959605a1b60448201526064016104a3565b5051151598975050505050505050565b6040805180820190915260008082526020820152815115801561179757506020820151155b156117b5575050604080518082019091526000808252602082015290565b6040518060400160405280836000015181526020017f30644e72e131a029b85045b68181585d97816a916871ca8d3c208c16d87cfd4784602001516117fa9190611d9c565b611824907f30644e72e131a029b85045b68181585d97816a916871ca8d3c208c16d87cfd47611eb5565b905292915050565b919050565b60405180606001604052806003906020820280368337509192915050565b60405180608001604052806004906020820280368337509192915050565b60405180604001604052806118806118cf565b815260200161188d6118cf565b905290565b604051806101800160405280600c906020820280368337509192915050565b60405180602001604052806001906020820280368337509192915050565b60405180604001604052806002906020820280368337509192915050565b80356001600160a01b038116811461182c57600080fd5b60006020828403121561191657600080fd5b61191f826118ed565b9392505050565b803560ff8116811461182c57600080fd5b60006020828403121561194957600080fd5b61191f82611926565b634e487b7160e01b600052604160045260246000fd5b6040805190810167ffffffffffffffff8111828210171561198b5761198b611952565b60405290565b604051601f8201601f1916810167ffffffffffffffff811182821017156119ba576119ba611952565b604052919050565b600080604083850312156119d557600080fd5b6119de836118ed565b915060208084013567ffffffffffffffff808211156119fc57600080fd5b818601915086601f830112611a1057600080fd5b813581811115611a2257611a22611952565b611a34601f8201601f19168501611991565b91508082528784828501011115611a4a57600080fd5b80848401858401376000848284010152508093505050509250929050565b600060208284031215611a7a57600080fd5b5035919050565b8151815260208083015190820152604081016106ff565b60008060408385031215611aab57600080fd5b611ab483611926565b946020939093013593505050565b600080600060608486031215611ad757600080fd5b611ae084611926565b9250602084013563ffffffff81168114611af957600080fd5b929592945050506040919091013590565b6000806000838503610160811215611b2157600080fd5b611b2a856118ed565b9350610100601f1982011215611b3f57600080fd5b602085019250604061011f1982011215611b5857600080fd5b50610120840190509250925092565b600080600060408486031215611b7c57600080fd5b833567ffffffffffffffff80821115611b9457600080fd5b818601915086601f830112611ba857600080fd5b813581811115611bb757600080fd5b876020828501011115611bc957600080fd5b6020928301989097509590910135949350505050565b6020808252825182820181905260009190848201906040850190845b81811015611c1d57835163ffffffff1683529284019291840191600101611bfb565b50909695505050505050565b6020808252604e908201527f424c5341706b52656769737472792e6f6e6c795265676973747279436f6f726460408201527f696e61746f723a2063616c6c6572206973206e6f74207468652072656769737460608201526d393c9031b7b7b93234b730ba37b960911b608082015260a00190565b60018060a01b038416815260006020848184015260606040840152835180606085015260005b81811015611cdf57858101830151858201608001528201611cc3565b81811115611cf1576000608083870101525b50601f01601f19169290920160800195945050505050565b634e487b7160e01b600052603260045260246000fd5b600060408284031215611d3157600080fd5b611d39611968565b82358152602083013560208201528091505092915050565b8881528760208201528660408201528560608201526040856080830137600060c082016000815260408682375050610100810192909252610120820152610140019695505050505050565b600082611db957634e487b7160e01b600052601260045260246000fd5b500690565b600082601f830112611dcf57600080fd5b611dd7611968565b806040840185811115611de957600080fd5b845b81811015611e03578035845260209384019301611deb565b509095945050505050565b600060808284031215611e2057600080fd5b6040516040810181811067ffffffffffffffff82111715611e4357611e43611952565b604052611e508484611dbe565b8152611e5f8460408501611dbe565b60208201529392505050565b823581526020808401359082015260c081016040838184013760808201600081526040808501823750600081529392505050565b634e487b7160e01b600052601160045260246000fd5b600082821015611ec757611ec7611e9f565b500390565b600081611edb57611edb611e9f565b506000190190565b6000600019821415611ef757611ef7611e9f565b5060010190565b6000816000190483118215151615611f1857611f18611e9f565b500290565b60008219821115611f3057611f30611e9f565b50019056fe424c5341706b52656769737472792e7265676973746572424c535075626c6963a264697066735822122044bb981e27682ab293ee1752137a42dd38682fede22b289bb682206a9284e7a364736f6c634300080c0033","linkReferences":{}},"methodIdentifiers":{"apkHistory(uint8,uint256)":"7916cea6","currentApk(uint8)":"a3db80e2","deregisterOperator(address,bytes)":"f4e24fe5","getApk(uint8)":"5f61a884","getApkHashAtBlockNumberAndIndex(uint8,uint32,uint256)":"68bccaac","getApkHistoryLength(uint8)":"377ed99d","getApkIndicesAtBlockNumber(bytes,uint256)":"d5254a8c","getApkUpdateAtIndex(uint8,uint256)":"605747d5","getOperatorFromPubkeyHash(bytes32)":"47b314e8","getOperatorId(address)":"13542a4e","getRegisteredPubkey(address)":"7ff81a87","initializeQuorum(uint8)":"26d941f2","operatorToPubkey(address)":"00a1f4cb","operatorToPubkeyHash(address)":"de29fac0","pubkeyHashToOperator(bytes32)":"e8bb9ae6","registerBLSPublicKey(address,((uint256,uint256),(uint256,uint256),(uint256[2],uint256[2])),(uint256,uint256))":"bf79ce58","registerOperator(address,bytes)":"3fb27952","registryCoordinator()":"6d14a987"},"id":95}