{"abi":[{"type":"constructor","inputs":[{"name":"_delegation","type":"address","internalType":"contract IDelegationManager"},{"name":"_eigenPodManager","type":"address","internalType":"contract IEigenPodManager"},{"name":"_slasher","type":"address","internalType":"contract ISlasher"}],"stateMutability":"nonpayable"},{"type":"function","name":"DEPOSIT_TYPEHASH","inputs":[],"outputs":[{"name":"","type":"bytes32","internalType":"bytes32"}],"stateMutability":"view"},{"type":"function","name":"DOMAIN_TYPEHASH","inputs":[],"outputs":[{"name":"","type":"bytes32","internalType":"bytes32"}],"stateMutability":"view"},{"type":"function","name":"addShares","inputs":[{"name":"staker","type":"address","internalType":"address"},{"name":"token","type":"address","internalType":"contract IERC20"},{"name":"strategy","type":"address","internalType":"contract IStrategy"},{"name":"shares","type":"uint256","internalType":"uint256"}],"outputs":[],"stateMutability":"nonpayable"},{"type":"function","name":"addStrategiesToDepositWhitelist","inputs":[{"name":"strategiesToWhitelist","type":"address[]","internalType":"contract IStrategy[]"},{"name":"thirdPartyTransfersForbiddenValues","type":"bool[]","internalType":"bool[]"}],"outputs":[],"stateMutability":"nonpayable"},{"type":"function","name":"calculateWithdrawalRoot","inputs":[{"name":"queuedWithdrawal","type":"tuple","internalType":"struct IStrategyManager.DeprecatedStruct_QueuedWithdrawal","components":[{"name":"strategies","type":"address[]","internalType":"contract IStrategy[]"},{"name":"shares","type":"uint256[]","internalType":"uint256[]"},{"name":"staker","type":"address","internalType":"address"},{"name":"withdrawerAndNonce","type":"tuple","internalType":"struct IStrategyManager.DeprecatedStruct_WithdrawerAndNonce","components":[{"name":"withdrawer","type":"address","internalType":"address"},{"name":"nonce","type":"uint96","internalType":"uint96"}]},{"name":"withdrawalStartBlock","type":"uint32","internalType":"uint32"},{"name":"delegatedAddress","type":"address","internalType":"address"}]}],"outputs":[{"name":"","type":"bytes32","internalType":"bytes32"}],"stateMutability":"pure"},{"type":"function","name":"delegation","inputs":[],"outputs":[{"name":"","type":"address","internalType":"contract IDelegationManager"}],"stateMutability":"view"},{"type":"function","name":"depositIntoStrategy","inputs":[{"name":"strategy","type":"address","internalType":"contract IStrategy"},{"name":"token","type":"address","internalType":"contract IERC20"},{"name":"amount","type":"uint256","internalType":"uint256"}],"outputs":[{"name":"shares","type":"uint256","internalType":"uint256"}],"stateMutability":"nonpayable"},{"type":"function","name":"depositIntoStrategyWithSignature","inputs":[{"name":"strategy","type":"address","internalType":"contract IStrategy"},{"name":"token","type":"address","internalType":"contract IERC20"},{"name":"amount","type":"uint256","internalType":"uint256"},{"name":"staker","type":"address","internalType":"address"},{"name":"expiry","type":"uint256","internalType":"uint256"},{"name":"signature","type":"bytes","internalType":"bytes"}],"outputs":[{"name":"shares","type":"uint256","internalType":"uint256"}],"stateMutability":"nonpayable"},{"type":"function","name":"domainSeparator","inputs":[],"outputs":[{"name":"","type":"bytes32","internalType":"bytes32"}],"stateMutability":"view"},{"type":"function","name":"eigenPodManager","inputs":[],"outputs":[{"name":"","type":"address","internalType":"contract IEigenPodManager"}],"stateMutability":"view"},{"type":"function","name":"getDeposits","inputs":[{"name":"staker","type":"address","internalType":"address"}],"outputs":[{"name":"","type":"address[]","internalType":"contract IStrategy[]"},{"name":"","type":"uint256[]","internalType":"uint256[]"}],"stateMutability":"view"},{"type":"function","name":"initialize","inputs":[{"name":"initialOwner","type":"address","internalType":"address"},{"name":"initialStrategyWhitelister","type":"address","internalType":"address"},{"name":"_pauserRegistry","type":"address","internalType":"contract IPauserRegistry"},{"name":"initialPausedStatus","type":"uint256","internalType":"uint256"}],"outputs":[],"stateMutability":"nonpayable"},{"type":"function","name":"migrateQueuedWithdrawal","inputs":[{"name":"queuedWithdrawal","type":"tuple","internalType":"struct IStrategyManager.DeprecatedStruct_QueuedWithdrawal","components":[{"name":"strategies","type":"address[]","internalType":"contract IStrategy[]"},{"name":"shares","type":"uint256[]","internalType":"uint256[]"},{"name":"staker","type":"address","internalType":"address"},{"name":"withdrawerAndNonce","type":"tuple","internalType":"struct IStrategyManager.DeprecatedStruct_WithdrawerAndNonce","components":[{"name":"withdrawer","type":"address","internalType":"address"},{"name":"nonce","type":"uint96","internalType":"uint96"}]},{"name":"withdrawalStartBlock","type":"uint32","internalType":"uint32"},{"name":"delegatedAddress","type":"address","internalType":"address"}]}],"outputs":[{"name":"","type":"bool","internalType":"bool"},{"name":"","type":"bytes32","internalType":"bytes32"}],"stateMutability":"nonpayable"},{"type":"function","name":"nonces","inputs":[{"name":"","type":"address","internalType":"address"}],"outputs":[{"name":"","type":"uint256","internalType":"uint256"}],"stateMutability":"view"},{"type":"function","name":"owner","inputs":[],"outputs":[{"name":"","type":"address","internalType":"address"}],"stateMutability":"view"},{"type":"function","name":"pause","inputs":[{"name":"newPausedStatus","type":"uint256","internalType":"uint256"}],"outputs":[],"stateMutability":"nonpayable"},{"type":"function","name":"pauseAll","inputs":[],"outputs":[],"stateMutability":"nonpayable"},{"type":"function","name":"paused","inputs":[{"name":"index","type":"uint8","internalType":"uint8"}],"outputs":[{"name":"","type":"bool","internalType":"bool"}],"stateMutability":"view"},{"type":"function","name":"paused","inputs":[],"outputs":[{"name":"","type":"uint256","internalType":"uint256"}],"stateMutability":"view"},{"type":"function","name":"pauserRegistry","inputs":[],"outputs":[{"name":"","type":"address","internalType":"contract IPauserRegistry"}],"stateMutability":"view"},{"type":"function","name":"removeShares","inputs":[{"name":"staker","type":"address","internalType":"address"},{"name":"strategy","type":"address","internalType":"contract IStrategy"},{"name":"shares","type":"uint256","internalType":"uint256"}],"outputs":[],"stateMutability":"nonpayable"},{"type":"function","name":"removeStrategiesFromDepositWhitelist","inputs":[{"name":"strategiesToRemoveFromWhitelist","type":"address[]","internalType":"contract IStrategy[]"}],"outputs":[],"stateMutability":"nonpayable"},{"type":"function","name":"renounceOwnership","inputs":[],"outputs":[],"stateMutability":"nonpayable"},{"type":"function","name":"setPauserRegistry","inputs":[{"name":"newPauserRegistry","type":"address","internalType":"contract IPauserRegistry"}],"outputs":[],"stateMutability":"nonpayable"},{"type":"function","name":"setStrategyWhitelister","inputs":[{"name":"newStrategyWhitelister","type":"address","internalType":"address"}],"outputs":[],"stateMutability":"nonpayable"},{"type":"function","name":"setThirdPartyTransfersForbidden","inputs":[{"name":"strategy","type":"address","internalType":"contract IStrategy"},{"name":"value","type":"bool","internalType":"bool"}],"outputs":[],"stateMutability":"nonpayable"},{"type":"function","name":"slasher","inputs":[],"outputs":[{"name":"","type":"address","internalType":"contract ISlasher"}],"stateMutability":"view"},{"type":"function","name":"stakerStrategyList","inputs":[{"name":"","type":"address","internalType":"address"},{"name":"","type":"uint256","internalType":"uint256"}],"outputs":[{"name":"","type":"address","internalType":"contract IStrategy"}],"stateMutability":"view"},{"type":"function","name":"stakerStrategyListLength","inputs":[{"name":"staker","type":"address","internalType":"address"}],"outputs":[{"name":"","type":"uint256","internalType":"uint256"}],"stateMutability":"view"},{"type":"function","name":"stakerStrategyShares","inputs":[{"name":"","type":"address","internalType":"address"},{"name":"","type":"address","internalType":"contract IStrategy"}],"outputs":[{"name":"","type":"uint256","internalType":"uint256"}],"stateMutability":"view"},{"type":"function","name":"strategyIsWhitelistedForDeposit","inputs":[{"name":"","type":"address","internalType":"contract IStrategy"}],"outputs":[{"name":"","type":"bool","internalType":"bool"}],"stateMutability":"view"},{"type":"function","name":"strategyWhitelister","inputs":[],"outputs":[{"name":"","type":"address","internalType":"address"}],"stateMutability":"view"},{"type":"function","name":"thirdPartyTransfersForbidden","inputs":[{"name":"","type":"address","internalType":"contract IStrategy"}],"outputs":[{"name":"","type":"bool","internalType":"bool"}],"stateMutability":"view"},{"type":"function","name":"transferOwnership","inputs":[{"name":"newOwner","type":"address","internalType":"address"}],"outputs":[],"stateMutability":"nonpayable"},{"type":"function","name":"unpause","inputs":[{"name":"newPausedStatus","type":"uint256","internalType":"uint256"}],"outputs":[],"stateMutability":"nonpayable"},{"type":"function","name":"withdrawSharesAsTokens","inputs":[{"name":"recipient","type":"address","internalType":"address"},{"name":"strategy","type":"address","internalType":"contract IStrategy"},{"name":"shares","type":"uint256","internalType":"uint256"},{"name":"token","type":"address","internalType":"contract IERC20"}],"outputs":[],"stateMutability":"nonpayable"},{"type":"function","name":"withdrawalRootPending","inputs":[{"name":"","type":"bytes32","internalType":"bytes32"}],"outputs":[{"name":"","type":"bool","internalType":"bool"}],"stateMutability":"view"},{"type":"event","name":"Deposit","inputs":[{"name":"staker","type":"address","indexed":false,"internalType":"address"},{"name":"token","type":"address","indexed":false,"internalType":"contract IERC20"},{"name":"strategy","type":"address","indexed":false,"internalType":"contract IStrategy"},{"name":"shares","type":"uint256","indexed":false,"internalType":"uint256"}],"anonymous":false},{"type":"event","name":"Initialized","inputs":[{"name":"version","type":"uint8","indexed":false,"internalType":"uint8"}],"anonymous":false},{"type":"event","name":"OwnershipTransferred","inputs":[{"name":"previousOwner","type":"address","indexed":true,"internalType":"address"},{"name":"newOwner","type":"address","indexed":true,"internalType":"address"}],"anonymous":false},{"type":"event","name":"Paused","inputs":[{"name":"account","type":"address","indexed":true,"internalType":"address"},{"name":"newPausedStatus","type":"uint256","indexed":false,"internalType":"uint256"}],"anonymous":false},{"type":"event","name":"PauserRegistrySet","inputs":[{"name":"pauserRegistry","type":"address","indexed":false,"internalType":"contract IPauserRegistry"},{"name":"newPauserRegistry","type":"address","indexed":false,"internalType":"contract IPauserRegistry"}],"anonymous":false},{"type":"event","name":"StrategyAddedToDepositWhitelist","inputs":[{"name":"strategy","type":"address","indexed":false,"internalType":"contract IStrategy"}],"anonymous":false},{"type":"event","name":"StrategyRemovedFromDepositWhitelist","inputs":[{"name":"strategy","type":"address","indexed":false,"internalType":"contract IStrategy"}],"anonymous":false},{"type":"event","name":"StrategyWhitelisterChanged","inputs":[{"name":"previousAddress","type":"address","indexed":false,"internalType":"address"},{"name":"newAddress","type":"address","indexed":false,"internalType":"address"}],"anonymous":false},{"type":"event","name":"Unpaused","inputs":[{"name":"account","type":"address","indexed":true,"internalType":"address"},{"name":"newPausedStatus","type":"uint256","indexed":false,"internalType":"uint256"}],"anonymous":false},{"type":"event","name":"UpdatedThirdPartyTransfersForbidden","inputs":[{"name":"strategy","type":"address","indexed":false,"internalType":"contract IStrategy"},{"name":"value","type":"bool","indexed":false,"internalType":"bool"}],"anonymous":false}],"bytecode":{"object":"0x6101006040523480156200001257600080fd5b506040516200382938038062003829833981016040819052620000359162000140565b6001600160a01b0380841660805280831660a052811660c0526200005862000065565b50504660e0525062000194565b600054610100900460ff1615620000d25760405162461bcd60e51b815260206004820152602760248201527f496e697469616c697a61626c653a20636f6e747261637420697320696e697469604482015266616c697a696e6760c81b606482015260840160405180910390fd5b60005460ff908116101562000125576000805460ff191660ff9081179091556040519081527f7f26b83ff96e1f2b6a682f133852f6798a09c465da95921460cefb38474024989060200160405180910390a15b565b6001600160a01b03811681146200013d57600080fd5b50565b6000806000606084860312156200015657600080fd5b8351620001638162000127565b6020850151909350620001768162000127565b6040850151909250620001898162000127565b809150509250925092565b60805160a05160c05160e051613638620001f1600039600061161d0152600061048f015260006102a601526000818161059b01528181610c0501528181610f9f01528181610ff3015281816110f70152611bd301526136386000f3fe608060405234801561001057600080fd5b50600436106102275760003560e01c806394f649dd11610130578063c6656702116100b8578063df5cf7231161007c578063df5cf72314610596578063e7a050aa146105bd578063f2fde38b146105d0578063f698da25146105e3578063fabc1cbc146105eb57600080fd5b8063c665670214610520578063cbc2bd6214610533578063cd293f6f14610546578063cf756fdf14610570578063df5b35471461058357600080fd5b8063b43b514b116100ff578063b43b514b146104b1578063b5d8b5b8146104c4578063c3c6b3a9146104d7578063c4623ea1146104fa578063c608c7f31461050d57600080fd5b806394f649dd14610433578063967fc0d2146104545780639b4da03d14610467578063b13442711461048a57600080fd5b80635c975abb116101b35780637ecebe00116101825780637ecebe00146103b3578063886f1195146103d35780638b8aac3c146103e65780638c80d4e51461040f5780638da5cb5b1461042257600080fd5b80635c975abb14610355578063663c1de41461035d578063715018a6146103805780637a7e0d921461038857600080fd5b80634665bcda116101fa5780634665bcda146102a157806348825e94146102e05780634e5a426314610307578063595c6a671461031a5780635ac86ab71461032257600080fd5b806310d67a2f1461022c578063136439dd1461024157806320606b701461025457806332e89ace1461028e575b600080fd5b61023f61023a366004612b4a565b6105fe565b005b61023f61024f366004612b67565b6106ba565b61027b7f8cad95687ba82c2ce50e74f7b754645e5117c3a5bec8151c0726d5857980a86681565b6040519081526020015b60405180910390f35b61027b61029c366004612c00565b6107f9565b6102c87f000000000000000000000000000000000000000000000000000000000000000081565b6040516001600160a01b039091168152602001610285565b61027b7f4337f82d142e41f2a8c10547cd8c859bddb92262a61058e77842e24d9dea922481565b61023f610315366004612ced565b610ae7565b61023f610b1f565b610345610330366004612d26565b609854600160ff9092169190911b9081161490565b6040519015158152602001610285565b60985461027b565b61034561036b366004612b4a565b60d16020526000908152604090205460ff1681565b61023f610be6565b61027b610396366004612d49565b60cd60209081526000928352604080842090915290825290205481565b61027b6103c1366004612b4a565b60ca6020526000908152604090205481565b6097546102c8906001600160a01b031681565b61027b6103f4366004612b4a565b6001600160a01b0316600090815260ce602052604090205490565b61023f61041d366004612d77565b610bfa565b6033546001600160a01b03166102c8565b610446610441366004612b4a565b610c53565b604051610285929190612e2c565b60cb546102c8906001600160a01b031681565b610345610475366004612b4a565b60d36020526000908152604090205460ff1681565b6102c87f000000000000000000000000000000000000000000000000000000000000000081565b61027b6104bf366004612fd5565b610dd3565b61023f6104d23660046130f0565b610e20565b6103456104e5366004612b67565b60cf6020526000908152604090205460ff1681565b61023f610508366004613132565b610f94565b61023f61051b366004613183565b610fe8565b61023f61052e366004612b4a565b6110a0565b6102c86105413660046131d6565b6110b1565b610559610554366004612fd5565b6110e9565b604080519215158352602083019190915201610285565b61023f61057e366004613132565b61117d565b61023f610591366004613202565b6112b1565b6102c87f000000000000000000000000000000000000000000000000000000000000000081565b61027b6105cb366004612d77565b6114da565b61023f6105de366004612b4a565b6115a3565b61027b611619565b61023f6105f9366004612b67565b611657565b609760009054906101000a90046001600160a01b03166001600160a01b031663eab66d7a6040518163ffffffff1660e01b8152600401602060405180830381865afa158015610651573d6000803e3d6000fd5b505050506040513d601f19601f82011682018060405250810190610675919061326e565b6001600160a01b0316336001600160a01b0316146106ae5760405162461bcd60e51b81526004016106a59061328b565b60405180910390fd5b6106b7816117b3565b50565b60975460405163237dfb4760e11b81523360048201526001600160a01b03909116906346fbf68e90602401602060405180830381865afa158015610702573d6000803e3d6000fd5b505050506040513d601f19601f8201168201806040525081019061072691906132d5565b6107425760405162461bcd60e51b81526004016106a5906132f2565b609854818116146107bb5760405162461bcd60e51b815260206004820152603860248201527f5061757361626c652e70617573653a20696e76616c696420617474656d70742060448201527f746f20756e70617573652066756e6374696f6e616c697479000000000000000060648201526084016106a5565b609881905560405181815233907fab40a374bc51de372200a8bc981af8c9ecdc08dfdaef0bb6e09f88f3c616ef3d906020015b60405180910390a250565b6098546000908190600190811614156108505760405162461bcd60e51b815260206004820152601960248201527814185d5cd8589b194e881a5b99195e081a5cc81c185d5cd959603a1b60448201526064016106a5565b600260655414156108a35760405162461bcd60e51b815260206004820152601f60248201527f5265656e7472616e637947756172643a207265656e7472616e742063616c6c0060448201526064016106a5565b60026065556001600160a01b038816600090815260d3602052604090205460ff161561094a5760405162461bcd60e51b815260206004820152604a60248201527f53747261746567794d616e616765722e6465706f736974496e746f537472617460448201527f656779576974685369676e61747572653a207468697264207472616e736665726064820152691cc8191a5cd8589b195960b21b608482015260a4016106a5565b428410156109cc5760405162461bcd60e51b815260206004820152604360248201527f53747261746567794d616e616765722e6465706f736974496e746f537472617460448201527f656779576974685369676e61747572653a207369676e617475726520657870696064820152621c995960ea1b608482015260a4016106a5565b6001600160a01b03858116600081815260ca602090815260408083205481517f4337f82d142e41f2a8c10547cd8c859bddb92262a61058e77842e24d9dea922493810193909352908201939093528b84166060820152928a16608084015260a0830189905260c0830182905260e0830187905290916101000160408051601f1981840301815291815281516020928301206001600160a01b038a16600090815260ca9093529082206001850190559150610a84611619565b60405161190160f01b6020820152602281019190915260428101839052606201604051602081830303815290604052805190602001209050610ac78882886118aa565b610ad3888c8c8c611a69565b60016065559b9a5050505050505050505050565b60cb546001600160a01b03163314610b115760405162461bcd60e51b81526004016106a59061333a565b610b1b8282611c38565b5050565b60975460405163237dfb4760e11b81523360048201526001600160a01b03909116906346fbf68e90602401602060405180830381865afa158015610b67573d6000803e3d6000fd5b505050506040513d601f19601f82011682018060405250810190610b8b91906132d5565b610ba75760405162461bcd60e51b81526004016106a5906132f2565b600019609881905560405190815233907fab40a374bc51de372200a8bc981af8c9ecdc08dfdaef0bb6e09f88f3c616ef3d9060200160405180910390a2565b610bee611ca6565b610bf86000611d00565b565b336001600160a01b037f00000000000000000000000000000000000000000000000000000000000000001614610c425760405162461bcd60e51b81526004016106a5906133a4565b610c4d838383611d52565b50505050565b6001600160a01b038116600090815260ce60205260408120546060918291908167ffffffffffffffff811115610c8b57610c8b612b90565b604051908082528060200260200182016040528015610cb4578160200160208202803683370190505b50905060005b82811015610d45576001600160a01b038616600090815260cd6020908152604080832060ce9092528220805491929184908110610cf957610cf9613402565b60009182526020808320909101546001600160a01b031683528201929092526040019020548251839083908110610d3257610d32613402565b6020908102919091010152600101610cba565b5060ce6000866001600160a01b03166001600160a01b031681526020019081526020016000208181805480602002602001604051908101604052809291908181526020018280548015610dc157602002820191906000526020600020905b81546001600160a01b03168152600190910190602001808311610da3575b50505050509150935093505050915091565b80516020808301516040808501516060860151608087015160a08801519351600097610e03979096959101613418565b604051602081830303815290604052805190602001209050919050565b60cb546001600160a01b03163314610e4a5760405162461bcd60e51b81526004016106a59061333a565b8060005b81811015610c4d5760d16000858584818110610e6c57610e6c613402565b9050602002016020810190610e819190612b4a565b6001600160a01b0316815260208101919091526040016000205460ff1615610f8c57600060d16000868685818110610ebb57610ebb613402565b9050602002016020810190610ed09190612b4a565b6001600160a01b031681526020810191909152604001600020805460ff19169115159190911790557f4074413b4b443e4e58019f2855a8765113358c7c72e39509c6af45fc0f5ba030848483818110610f2b57610f2b613402565b9050602002016020810190610f409190612b4a565b6040516001600160a01b03909116815260200160405180910390a1610f8c848483818110610f7057610f70613402565b9050602002016020810190610f859190612b4a565b6000611c38565b600101610e4e565b336001600160a01b037f00000000000000000000000000000000000000000000000000000000000000001614610fdc5760405162461bcd60e51b81526004016106a5906133a4565b610c4d84848484611eae565b336001600160a01b037f000000000000000000000000000000000000000000000000000000000000000016146110305760405162461bcd60e51b81526004016106a5906133a4565b604051636ce5768960e11b81526001600160a01b03858116600483015282811660248301526044820184905284169063d9caed1290606401600060405180830381600087803b15801561108257600080fd5b505af1158015611096573d6000803e3d6000fd5b5050505050505050565b6110a8611ca6565b6106b78161213b565b60ce60205281600052604060002081815481106110cd57600080fd5b6000918252602090912001546001600160a01b03169150829050565b600080336001600160a01b037f000000000000000000000000000000000000000000000000000000000000000016146111345760405162461bcd60e51b81526004016106a5906133a4565b600061113f84610dd3565b600081815260cf60205260408120549192509060ff16156111745750600081815260cf60205260409020805460ff1916905560015b92509050915091565b600054610100900460ff161580801561119d5750600054600160ff909116105b806111b75750303b1580156111b7575060005460ff166001145b61121a5760405162461bcd60e51b815260206004820152602e60248201527f496e697469616c697a61626c653a20636f6e747261637420697320616c72656160448201526d191e481a5b9a5d1a585b1a5e995960921b60648201526084016106a5565b6000805460ff19166001179055801561123d576000805461ff0019166101001790555b6112456121a4565b60c955611252838361223b565b61125b85611d00565b6112648461213b565b80156112aa576000805461ff0019169055604051600181527f7f26b83ff96e1f2b6a682f133852f6798a09c465da95921460cefb38474024989060200160405180910390a15b5050505050565b60cb546001600160a01b031633146112db5760405162461bcd60e51b81526004016106a59061333a565b8281146113645760405162461bcd60e51b815260206004820152604b60248201527f53747261746567794d616e616765722e61646453747261746567696573546f4460448201527f65706f73697457686974656c6973743a206172726179206c656e67746873206460648201526a0de40dcdee840dac2e8c6d60ab1b608482015260a4016106a5565b8260005b818110156114d25760d1600087878481811061138657611386613402565b905060200201602081019061139b9190612b4a565b6001600160a01b0316815260208101919091526040016000205460ff166114ca57600160d160008888858181106113d4576113d4613402565b90506020020160208101906113e99190612b4a565b6001600160a01b031681526020810191909152604001600020805460ff19169115159190911790557f0c35b17d91c96eb2751cd456e1252f42a386e524ef9ff26ecc9950859fdc04fe86868381811061144457611444613402565b90506020020160208101906114599190612b4a565b6040516001600160a01b03909116815260200160405180910390a16114ca86868381811061148957611489613402565b905060200201602081019061149e9190612b4a565b8585848181106114b0576114b0613402565b90506020020160208101906114c59190613491565b611c38565b600101611368565b505050505050565b6098546000908190600190811614156115315760405162461bcd60e51b815260206004820152601960248201527814185d5cd8589b194e881a5b99195e081a5cc81c185d5cd959603a1b60448201526064016106a5565b600260655414156115845760405162461bcd60e51b815260206004820152601f60248201527f5265656e7472616e637947756172643a207265656e7472616e742063616c6c0060448201526064016106a5565b600260655561159533868686611a69565b600160655595945050505050565b6115ab611ca6565b6001600160a01b0381166116105760405162461bcd60e51b815260206004820152602660248201527f4f776e61626c653a206e6577206f776e657220697320746865207a65726f206160448201526564647265737360d01b60648201526084016106a5565b6106b781611d00565b60007f000000000000000000000000000000000000000000000000000000000000000046141561164a575060c95490565b6116526121a4565b905090565b609760009054906101000a90046001600160a01b03166001600160a01b031663eab66d7a6040518163ffffffff1660e01b8152600401602060405180830381865afa1580156116aa573d6000803e3d6000fd5b505050506040513d601f19601f820116820180604052508101906116ce919061326e565b6001600160a01b0316336001600160a01b0316146116fe5760405162461bcd60e51b81526004016106a59061328b565b60985419811960985419161461177c5760405162461bcd60e51b815260206004820152603860248201527f5061757361626c652e756e70617573653a20696e76616c696420617474656d7060448201527f7420746f2070617573652066756e6374696f6e616c697479000000000000000060648201526084016106a5565b609881905560405181815233907f3582d1828e26bf56bd801502bc021ac0bc8afb57c826e4986b45593c8fad389c906020016107ee565b6001600160a01b0381166118415760405162461bcd60e51b815260206004820152604960248201527f5061757361626c652e5f73657450617573657252656769737472793a206e657760448201527f50617573657252656769737472792063616e6e6f7420626520746865207a65726064820152686f206164647265737360b81b608482015260a4016106a5565b609754604080516001600160a01b03928316815291831660208301527f6e9fcd539896fca60e8b0f01dd580233e48a6b0f7df013b89ba7f565869acdb6910160405180910390a1609780546001600160a01b0319166001600160a01b0392909216919091179055565b6001600160a01b0383163b156119c957604051630b135d3f60e11b808252906001600160a01b03851690631626ba7e906118ea9086908690600401613506565b602060405180830381865afa158015611907573d6000803e3d6000fd5b505050506040513d601f19601f8201168201806040525081019061192b919061351f565b6001600160e01b031916146119c45760405162461bcd60e51b815260206004820152605360248201527f454950313237315369676e61747572655574696c732e636865636b5369676e6160448201527f747572655f454950313237313a2045524331323731207369676e6174757265206064820152721d995c9a599a58d85d1a5bdb8819985a5b1959606a1b608482015260a4016106a5565b505050565b826001600160a01b03166119dd8383612321565b6001600160a01b0316146119c45760405162461bcd60e51b815260206004820152604760248201527f454950313237315369676e61747572655574696c732e636865636b5369676e6160448201527f747572655f454950313237313a207369676e6174757265206e6f742066726f6d6064820152661039b4b3b732b960c91b608482015260a4016106a5565b6001600160a01b038316600090815260d16020526040812054849060ff16611b0f5760405162461bcd60e51b815260206004820152604d60248201527f53747261746567794d616e616765722e6f6e6c7953747261746567696573576860448201527f6974656c6973746564466f724465706f7369743a207374726174656779206e6f60648201526c1d081dda1a5d195b1a5cdd1959609a1b608482015260a4016106a5565b611b246001600160a01b038516338786612345565b6040516311f9fbc960e21b81526001600160a01b038581166004830152602482018590528616906347e7ef24906044016020604051808303816000875af1158015611b73573d6000803e3d6000fd5b505050506040513d601f19601f82011682018060405250810190611b979190613549565b9150611ba586858785611eae565b604051631452b9d760e11b81526001600160a01b0387811660048301528681166024830152604482018490527f000000000000000000000000000000000000000000000000000000000000000016906328a573ae90606401600060405180830381600087803b158015611c1757600080fd5b505af1158015611c2b573d6000803e3d6000fd5b5050505050949350505050565b604080516001600160a01b038416815282151560208201527f77d930df4937793473a95024d87a98fd2ccb9e92d3c2463b3dacd65d3e6a5786910160405180910390a16001600160a01b0391909116600090815260d360205260409020805460ff1916911515919091179055565b6033546001600160a01b03163314610bf85760405162461bcd60e51b815260206004820181905260248201527f4f776e61626c653a2063616c6c6572206973206e6f7420746865206f776e657260448201526064016106a5565b603380546001600160a01b038381166001600160a01b0319831681179093556040519116919082907f8be0079c531659141344cd1fd0a4f28419497f9722a3daafe3b4186f6b6457e090600090a35050565b600081611dc75760405162461bcd60e51b815260206004820152603e60248201527f53747261746567794d616e616765722e5f72656d6f76655368617265733a207360448201527f68617265416d6f756e742073686f756c64206e6f74206265207a65726f21000060648201526084016106a5565b6001600160a01b03808516600090815260cd602090815260408083209387168352929052205480831115611e595760405162461bcd60e51b815260206004820152603360248201527f53747261746567794d616e616765722e5f72656d6f76655368617265733a20736044820152720d0c2e4ca82dadeeadce840e8dede40d0d2ced606b1b60648201526084016106a5565b6001600160a01b03808616600090815260cd602090815260408083209388168352929052208382039081905590831415611ea157611e97858561239f565b6001915050611ea7565b60009150505b9392505050565b6001600160a01b038416611f2a5760405162461bcd60e51b815260206004820152603960248201527f53747261746567794d616e616765722e5f6164645368617265733a207374616b60448201527f65722063616e6e6f74206265207a65726f20616464726573730000000000000060648201526084016106a5565b80611f965760405162461bcd60e51b815260206004820152603660248201527f53747261746567794d616e616765722e5f6164645368617265733a207368617260448201527565732073686f756c64206e6f74206265207a65726f2160501b60648201526084016106a5565b6001600160a01b03808516600090815260cd60209081526040808320938616835292905220546120a7576001600160a01b038416600090815260ce6020908152604090912054106120685760405162461bcd60e51b815260206004820152605060248201527f53747261746567794d616e616765722e5f6164645368617265733a206465706f60448201527f73697420776f756c6420657863656564204d41585f5354414b45525f5354524160648201526f0a88a8eb2be9892a6a8be988a9c8ea8960831b608482015260a4016106a5565b6001600160a01b03848116600090815260ce602090815260408220805460018101825590835291200180546001600160a01b0319169184169190911790555b6001600160a01b03808516600090815260cd60209081526040808320938616835292905290812080548392906120de908490613578565b9091555050604080516001600160a01b03868116825285811660208301528416818301526060810183905290517f7cfff908a4b583f36430b25d75964c458d8ede8a99bd61be750e97ee1b2f3a969181900360800190a150505050565b60cb54604080516001600160a01b03928316815291831660208301527f4264275e593955ff9d6146a51a4525f6ddace2e81db9391abcc9d1ca48047d29910160405180910390a160cb80546001600160a01b0319166001600160a01b0392909216919091179055565b604080518082018252600a81526922b4b3b2b72630bcb2b960b11b60209182015281517f8cad95687ba82c2ce50e74f7b754645e5117c3a5bec8151c0726d5857980a866818301527f71b625cfad44bac63b13dba07f2e1d6084ee04b6f8752101ece6126d584ee6ea81840152466060820152306080808301919091528351808303909101815260a0909101909252815191012090565b6097546001600160a01b031615801561225c57506001600160a01b03821615155b6122de5760405162461bcd60e51b815260206004820152604760248201527f5061757361626c652e5f696e697469616c697a655061757365723a205f696e6960448201527f7469616c697a6550617573657228292063616e206f6e6c792062652063616c6c6064820152666564206f6e636560c81b608482015260a4016106a5565b609881905560405181815233907fab40a374bc51de372200a8bc981af8c9ecdc08dfdaef0bb6e09f88f3c616ef3d9060200160405180910390a2610b1b826117b3565b60008060006123308585612591565b9150915061233d81612601565b509392505050565b604080516001600160a01b0385811660248301528416604482015260648082018490528251808303909101815260849091019091526020810180516001600160e01b03166323b872dd60e01b179052610c4d9085906127bc565b6001600160a01b038216600090815260ce6020526040812054905b818110156124ba576001600160a01b03848116600090815260ce60205260409020805491851691839081106123f1576123f1613402565b6000918252602090912001546001600160a01b031614156124b2576001600160a01b038416600090815260ce60205260409020805461243290600190613590565b8154811061244257612442613402565b60009182526020808320909101546001600160a01b03878116845260ce909252604090922080549190921691908390811061247f5761247f613402565b9060005260206000200160006101000a8154816001600160a01b0302191690836001600160a01b031602179055506124ba565b6001016123ba565b818114156125425760405162461bcd60e51b815260206004820152604960248201527f53747261746567794d616e616765722e5f72656d6f766553747261746567794660448201527f726f6d5374616b657253747261746567794c6973743a207374726174656779206064820152681b9bdd08199bdd5b9960ba1b608482015260a4016106a5565b6001600160a01b038416600090815260ce60205260409020805480612569576125696135a7565b600082815260209020810160001990810180546001600160a01b031916905501905550505050565b6000808251604114156125c85760208301516040840151606085015160001a6125bc8782858561288e565b945094505050506125fa565b8251604014156125f257602083015160408401516125e786838361297b565b9350935050506125fa565b506000905060025b9250929050565b6000816004811115612615576126156135bd565b141561261e5750565b6001816004811115612632576126326135bd565b14156126805760405162461bcd60e51b815260206004820152601860248201527f45434453413a20696e76616c6964207369676e6174757265000000000000000060448201526064016106a5565b6002816004811115612694576126946135bd565b14156126e25760405162461bcd60e51b815260206004820152601f60248201527f45434453413a20696e76616c6964207369676e6174757265206c656e6774680060448201526064016106a5565b60038160048111156126f6576126f66135bd565b141561274f5760405162461bcd60e51b815260206004820152602260248201527f45434453413a20696e76616c6964207369676e6174757265202773272076616c604482015261756560f01b60648201526084016106a5565b6004816004811115612763576127636135bd565b14156106b75760405162461bcd60e51b815260206004820152602260248201527f45434453413a20696e76616c6964207369676e6174757265202776272076616c604482015261756560f01b60648201526084016106a5565b6000612811826040518060400160405280602081526020017f5361666545524332303a206c6f772d6c6576656c2063616c6c206661696c6564815250856001600160a01b03166129b49092919063ffffffff16565b8051909150156119c4578080602001905181019061282f91906132d5565b6119c45760405162461bcd60e51b815260206004820152602a60248201527f5361666545524332303a204552433230206f7065726174696f6e20646964206e6044820152691bdd081cdd58d8d9595960b21b60648201526084016106a5565b6000807f7fffffffffffffffffffffffffffffff5d576e7357a4501ddfe92f46681b20a08311156128c55750600090506003612972565b8460ff16601b141580156128dd57508460ff16601c14155b156128ee5750600090506004612972565b6040805160008082526020820180845289905260ff881692820192909252606081018690526080810185905260019060a0016020604051602081039080840390855afa158015612942573d6000803e3d6000fd5b5050604051601f1901519150506001600160a01b03811661296b57600060019250925050612972565b9150600090505b94509492505050565b6000806001600160ff1b0383168161299860ff86901c601b613578565b90506129a68782888561288e565b935093505050935093915050565b60606129c384846000856129cb565b949350505050565b606082471015612a2c5760405162461bcd60e51b815260206004820152602660248201527f416464726573733a20696e73756666696369656e742062616c616e636520666f6044820152651c8818d85b1b60d21b60648201526084016106a5565b6001600160a01b0385163b612a835760405162461bcd60e51b815260206004820152601d60248201527f416464726573733a2063616c6c20746f206e6f6e2d636f6e747261637400000060448201526064016106a5565b600080866001600160a01b03168587604051612a9f91906135d3565b60006040518083038185875af1925050503d8060008114612adc576040519150601f19603f3d011682016040523d82523d6000602084013e612ae1565b606091505b5091509150612af1828286612afc565b979650505050505050565b60608315612b0b575081611ea7565b825115612b1b5782518084602001fd5b8160405162461bcd60e51b81526004016106a591906135ef565b6001600160a01b03811681146106b757600080fd5b600060208284031215612b5c57600080fd5b8135611ea781612b35565b600060208284031215612b7957600080fd5b5035919050565b8035612b8b81612b35565b919050565b634e487b7160e01b600052604160045260246000fd5b60405160c0810167ffffffffffffffff81118282101715612bc957612bc9612b90565b60405290565b604051601f8201601f1916810167ffffffffffffffff81118282101715612bf857612bf8612b90565b604052919050565b60008060008060008060c08789031215612c1957600080fd5b8635612c2481612b35565b9550602087810135612c3581612b35565b9550604088013594506060880135612c4c81612b35565b93506080880135925060a088013567ffffffffffffffff80821115612c7057600080fd5b818a0191508a601f830112612c8457600080fd5b813581811115612c9657612c96612b90565b612ca8601f8201601f19168501612bcf565b91508082528b84828501011115612cbe57600080fd5b80848401858401376000848284010152508093505050509295509295509295565b80151581146106b757600080fd5b60008060408385031215612d0057600080fd5b8235612d0b81612b35565b91506020830135612d1b81612cdf565b809150509250929050565b600060208284031215612d3857600080fd5b813560ff81168114611ea757600080fd5b60008060408385031215612d5c57600080fd5b8235612d6781612b35565b91506020830135612d1b81612b35565b600080600060608486031215612d8c57600080fd5b8335612d9781612b35565b92506020840135612da781612b35565b929592945050506040919091013590565b600081518084526020808501945080840160005b83811015612df15781516001600160a01b031687529582019590820190600101612dcc565b509495945050505050565b600081518084526020808501945080840160005b83811015612df157815187529582019590820190600101612e10565b604081526000612e3f6040830185612db8565b8281036020840152612e518185612dfc565b95945050505050565b600067ffffffffffffffff821115612e7457612e74612b90565b5060051b60200190565b600082601f830112612e8f57600080fd5b81356020612ea4612e9f83612e5a565b612bcf565b82815260059290921b84018101918181019086841115612ec357600080fd5b8286015b84811015612ee7578035612eda81612b35565b8352918301918301612ec7565b509695505050505050565b600082601f830112612f0357600080fd5b81356020612f13612e9f83612e5a565b82815260059290921b84018101918181019086841115612f3257600080fd5b8286015b84811015612ee75780358352918301918301612f36565b600060408284031215612f5f57600080fd5b6040516040810181811067ffffffffffffffff82111715612f8257612f82612b90565b6040529050808235612f9381612b35565b815260208301356bffffffffffffffffffffffff81168114612fb457600080fd5b6020919091015292915050565b803563ffffffff81168114612b8b57600080fd5b600060208284031215612fe757600080fd5b813567ffffffffffffffff80821115612fff57600080fd5b9083019060e0828603121561301357600080fd5b61301b612ba6565b82358281111561302a57600080fd5b61303687828601612e7e565b82525060208301358281111561304b57600080fd5b61305787828601612ef2565b60208301525061306960408401612b80565b604082015261307b8660608501612f4d565b606082015261308c60a08401612fc1565b608082015261309d60c08401612b80565b60a082015295945050505050565b60008083601f8401126130bd57600080fd5b50813567ffffffffffffffff8111156130d557600080fd5b6020830191508360208260051b85010111156125fa57600080fd5b6000806020838503121561310357600080fd5b823567ffffffffffffffff81111561311a57600080fd5b613126858286016130ab565b90969095509350505050565b6000806000806080858703121561314857600080fd5b843561315381612b35565b9350602085013561316381612b35565b9250604085013561317381612b35565b9396929550929360600135925050565b6000806000806080858703121561319957600080fd5b84356131a481612b35565b935060208501356131b481612b35565b92506040850135915060608501356131cb81612b35565b939692955090935050565b600080604083850312156131e957600080fd5b82356131f481612b35565b946020939093013593505050565b6000806000806040858703121561321857600080fd5b843567ffffffffffffffff8082111561323057600080fd5b61323c888389016130ab565b9096509450602087013591508082111561325557600080fd5b50613262878288016130ab565b95989497509550505050565b60006020828403121561328057600080fd5b8151611ea781612b35565b6020808252602a908201527f6d73672e73656e646572206973206e6f74207065726d697373696f6e6564206160408201526939903ab73830bab9b2b960b11b606082015260800190565b6000602082840312156132e757600080fd5b8151611ea781612cdf565b60208082526028908201527f6d73672e73656e646572206973206e6f74207065726d697373696f6e6564206160408201526739903830bab9b2b960c11b606082015260800190565b60208082526044908201527f53747261746567794d616e616765722e6f6e6c7953747261746567795768697460408201527f656c69737465723a206e6f742074686520737472617465677957686974656c6960608201526339ba32b960e11b608082015260a00190565b602080825260409082018190527f53747261746567794d616e616765722e6f6e6c7944656c65676174696f6e4d61908201527f6e616765723a206e6f74207468652044656c65676174696f6e4d616e61676572606082015260800190565b634e487b7160e01b600052603260045260246000fd5b60e08152600061342b60e0830189612db8565b828103602084015261343d8189612dfc565b6001600160a01b0397881660408501528651881660608501526020909601516bffffffffffffffffffffffff166080840152505063ffffffff9290921660a083015290921660c09092019190915292915050565b6000602082840312156134a357600080fd5b8135611ea781612cdf565b60005b838110156134c95781810151838201526020016134b1565b83811115610c4d5750506000910152565b600081518084526134f28160208601602086016134ae565b601f01601f19169290920160200192915050565b8281526040602082015260006129c360408301846134da565b60006020828403121561353157600080fd5b81516001600160e01b031981168114611ea757600080fd5b60006020828403121561355b57600080fd5b5051919050565b634e487b7160e01b600052601160045260246000fd5b6000821982111561358b5761358b613562565b500190565b6000828210156135a2576135a2613562565b500390565b634e487b7160e01b600052603160045260246000fd5b634e487b7160e01b600052602160045260246000fd5b600082516135e58184602087016134ae565b9190910192915050565b602081526000611ea760208301846134da56fea264697066735822122089bae36635895a250aa0f921318290fb36734a2586d9cb3e2abae146bb02789564736f6c634300080c0033","linkReferences":{}},"methodIdentifiers":{"DEPOSIT_TYPEHASH()":"48825e94","DOMAIN_TYPEHASH()":"20606b70","addShares(address,address,address,uint256)":"c4623ea1","addStrategiesToDepositWhitelist(address[],bool[])":"df5b3547","calculateWithdrawalRoot((address[],uint256[],address,(address,uint96),uint32,address))":"b43b514b","delegation()":"df5cf723","depositIntoStrategy(address,address,uint256)":"e7a050aa","depositIntoStrategyWithSignature(address,address,uint256,address,uint256,bytes)":"32e89ace","domainSeparator()":"f698da25","eigenPodManager()":"4665bcda","getDeposits(address)":"94f649dd","initialize(address,address,address,uint256)":"cf756fdf","migrateQueuedWithdrawal((address[],uint256[],address,(address,uint96),uint32,address))":"cd293f6f","nonces(address)":"7ecebe00","owner()":"8da5cb5b","pause(uint256)":"136439dd","pauseAll()":"595c6a67","paused()":"5c975abb","paused(uint8)":"5ac86ab7","pauserRegistry()":"886f1195","removeShares(address,address,uint256)":"8c80d4e5","removeStrategiesFromDepositWhitelist(address[])":"b5d8b5b8","renounceOwnership()":"715018a6","setPauserRegistry(address)":"10d67a2f","setStrategyWhitelister(address)":"c6656702","setThirdPartyTransfersForbidden(address,bool)":"4e5a4263","slasher()":"b1344271","stakerStrategyList(address,uint256)":"cbc2bd62","stakerStrategyListLength(address)":"8b8aac3c","stakerStrategyShares(address,address)":"7a7e0d92","strategyIsWhitelistedForDeposit(address)":"663c1de4","strategyWhitelister()":"967fc0d2","thirdPartyTransfersForbidden(address)":"9b4da03d","transferOwnership(address)":"f2fde38b","unpause(uint256)":"fabc1cbc","withdrawSharesAsTokens(address,address,uint256,address)":"c608c7f3","withdrawalRootPending(bytes32)":"c3c6b3a9"},"id":6}