{"abi":[{"type":"constructor","inputs":[{"name":"_delegationManager","type":"address","internalType":"contract IDelegationManager"}],"stateMutability":"nonpayable"},{"type":"function","name":"deregisterOperator","inputs":[],"outputs":[],"stateMutability":"nonpayable"},{"type":"function","name":"getLastCheckpointOperatorWeight","inputs":[{"name":"_operator","type":"address","internalType":"address"}],"outputs":[{"name":"","type":"uint256","internalType":"uint256"}],"stateMutability":"view"},{"type":"function","name":"getLastCheckpointThresholdWeight","inputs":[],"outputs":[{"name":"","type":"uint256","internalType":"uint256"}],"stateMutability":"view"},{"type":"function","name":"getLastCheckpointThresholdWeightAtBlock","inputs":[{"name":"_blockNumber","type":"uint32","internalType":"uint32"}],"outputs":[{"name":"","type":"uint256","internalType":"uint256"}],"stateMutability":"view"},{"type":"function","name":"getLastCheckpointTotalWeight","inputs":[],"outputs":[{"name":"","type":"uint256","internalType":"uint256"}],"stateMutability":"view"},{"type":"function","name":"getLastCheckpointTotalWeightAtBlock","inputs":[{"name":"_blockNumber","type":"uint32","internalType":"uint32"}],"outputs":[{"name":"","type":"uint256","internalType":"uint256"}],"stateMutability":"view"},{"type":"function","name":"getOperatorWeight","inputs":[{"name":"_operator","type":"address","internalType":"address"}],"outputs":[{"name":"","type":"uint256","internalType":"uint256"}],"stateMutability":"view"},{"type":"function","name":"getOperatorWeightAtBlock","inputs":[{"name":"_operator","type":"address","internalType":"address"},{"name":"_blockNumber","type":"uint32","internalType":"uint32"}],"outputs":[{"name":"","type":"uint256","internalType":"uint256"}],"stateMutability":"view"},{"type":"function","name":"initialize","inputs":[{"name":"_serviceManager","type":"address","internalType":"address"},{"name":"_thresholdWeight","type":"uint256","internalType":"uint256"},{"name":"_quorum","type":"tuple","internalType":"struct Quorum","components":[{"name":"strategies","type":"tuple[]","internalType":"struct StrategyParams[]","components":[{"name":"strategy","type":"address","internalType":"contract IStrategy"},{"name":"multiplier","type":"uint96","internalType":"uint96"}]}]}],"outputs":[],"stateMutability":"nonpayable"},{"type":"function","name":"isValidSignature","inputs":[{"name":"_dataHash","type":"bytes32","internalType":"bytes32"},{"name":"_signatureData","type":"bytes","internalType":"bytes"}],"outputs":[{"name":"","type":"bytes4","internalType":"bytes4"}],"stateMutability":"view"},{"type":"function","name":"minimumWeight","inputs":[],"outputs":[{"name":"","type":"uint256","internalType":"uint256"}],"stateMutability":"view"},{"type":"function","name":"operatorRegistered","inputs":[{"name":"_operator","type":"address","internalType":"address"}],"outputs":[{"name":"","type":"bool","internalType":"bool"}],"stateMutability":"view"},{"type":"function","name":"owner","inputs":[],"outputs":[{"name":"","type":"address","internalType":"address"}],"stateMutability":"view"},{"type":"function","name":"quorum","inputs":[],"outputs":[{"name":"","type":"tuple","internalType":"struct Quorum","components":[{"name":"strategies","type":"tuple[]","internalType":"struct StrategyParams[]","components":[{"name":"strategy","type":"address","internalType":"contract IStrategy"},{"name":"multiplier","type":"uint96","internalType":"uint96"}]}]}],"stateMutability":"view"},{"type":"function","name":"registerOperatorWithSignature","inputs":[{"name":"_operator","type":"address","internalType":"address"},{"name":"_operatorSignature","type":"tuple","internalType":"struct ISignatureUtils.SignatureWithSaltAndExpiry","components":[{"name":"signature","type":"bytes","internalType":"bytes"},{"name":"salt","type":"bytes32","internalType":"bytes32"},{"name":"expiry","type":"uint256","internalType":"uint256"}]}],"outputs":[],"stateMutability":"nonpayable"},{"type":"function","name":"renounceOwnership","inputs":[],"outputs":[],"stateMutability":"nonpayable"},{"type":"function","name":"transferOwnership","inputs":[{"name":"newOwner","type":"address","internalType":"address"}],"outputs":[],"stateMutability":"nonpayable"},{"type":"function","name":"updateMinimumWeight","inputs":[{"name":"_newMinimumWeight","type":"uint256","internalType":"uint256"},{"name":"_operators","type":"address[]","internalType":"address[]"}],"outputs":[],"stateMutability":"nonpayable"},{"type":"function","name":"updateOperators","inputs":[{"name":"_operators","type":"address[]","internalType":"address[]"}],"outputs":[],"stateMutability":"nonpayable"},{"type":"function","name":"updateOperatorsForQuorum","inputs":[{"name":"operatorsPerQuorum","type":"address[][]","internalType":"address[][]"},{"name":"","type":"bytes","internalType":"bytes"}],"outputs":[],"stateMutability":"nonpayable"},{"type":"function","name":"updateQuorumConfig","inputs":[{"name":"_quorum","type":"tuple","internalType":"struct Quorum","components":[{"name":"strategies","type":"tuple[]","internalType":"struct StrategyParams[]","components":[{"name":"strategy","type":"address","internalType":"contract IStrategy"},{"name":"multiplier","type":"uint96","internalType":"uint96"}]}]},{"name":"_operators","type":"address[]","internalType":"address[]"}],"outputs":[],"stateMutability":"nonpayable"},{"type":"function","name":"updateStakeThreshold","inputs":[{"name":"_thresholdWeight","type":"uint256","internalType":"uint256"}],"outputs":[],"stateMutability":"nonpayable"},{"type":"event","name":"Initialized","inputs":[{"name":"version","type":"uint8","indexed":false,"internalType":"uint8"}],"anonymous":false},{"type":"event","name":"MinimumWeightUpdated","inputs":[{"name":"_old","type":"uint256","indexed":false,"internalType":"uint256"},{"name":"_new","type":"uint256","indexed":false,"internalType":"uint256"}],"anonymous":false},{"type":"event","name":"OperatorDeregistered","inputs":[{"name":"_operator","type":"address","indexed":true,"internalType":"address"},{"name":"_avs","type":"address","indexed":true,"internalType":"address"}],"anonymous":false},{"type":"event","name":"OperatorRegistered","inputs":[{"name":"_operator","type":"address","indexed":true,"internalType":"address"},{"name":"_avs","type":"address","indexed":true,"internalType":"address"}],"anonymous":false},{"type":"event","name":"OperatorWeightUpdated","inputs":[{"name":"_operator","type":"address","indexed":true,"internalType":"address"},{"name":"oldWeight","type":"uint256","indexed":false,"internalType":"uint256"},{"name":"newWeight","type":"uint256","indexed":false,"internalType":"uint256"}],"anonymous":false},{"type":"event","name":"OwnershipTransferred","inputs":[{"name":"previousOwner","type":"address","indexed":true,"internalType":"address"},{"name":"newOwner","type":"address","indexed":true,"internalType":"address"}],"anonymous":false},{"type":"event","name":"QuorumUpdated","inputs":[{"name":"_old","type":"tuple","indexed":false,"internalType":"struct Quorum","components":[{"name":"strategies","type":"tuple[]","internalType":"struct StrategyParams[]","components":[{"name":"strategy","type":"address","internalType":"contract IStrategy"},{"name":"multiplier","type":"uint96","internalType":"uint96"}]}]},{"name":"_new","type":"tuple","indexed":false,"internalType":"struct Quorum","components":[{"name":"strategies","type":"tuple[]","internalType":"struct StrategyParams[]","components":[{"name":"strategy","type":"address","internalType":"contract IStrategy"},{"name":"multiplier","type":"uint96","internalType":"uint96"}]}]}],"anonymous":false},{"type":"event","name":"ThresholdWeightUpdated","inputs":[{"name":"_thresholdWeight","type":"uint256","indexed":false,"internalType":"uint256"}],"anonymous":false},{"type":"event","name":"TotalWeightUpdated","inputs":[{"name":"oldTotalWeight","type":"uint256","indexed":false,"internalType":"uint256"},{"name":"newTotalWeight","type":"uint256","indexed":false,"internalType":"uint256"}],"anonymous":false},{"type":"event","name":"UpdateMinimumWeight","inputs":[{"name":"oldMinimumWeight","type":"uint256","indexed":false,"internalType":"uint256"},{"name":"newMinimumWeight","type":"uint256","indexed":false,"internalType":"uint256"}],"anonymous":false},{"type":"error","name":"InsufficientSignedStake","inputs":[]},{"type":"error","name":"InsufficientWeight","inputs":[]},{"type":"error","name":"InvalidLength","inputs":[]},{"type":"error","name":"InvalidQuorum","inputs":[]},{"type":"error","name":"InvalidSignature","inputs":[]},{"type":"error","name":"InvalidSignedWeight","inputs":[]},{"type":"error","name":"InvalidThreshold","inputs":[]},{"type":"error","name":"LengthMismatch","inputs":[]},{"type":"error","name":"MustUpdateAllOperators","inputs":[]},{"type":"error","name":"NotSorted","inputs":[]},{"type":"error","name":"OperatorAlreadyRegistered","inputs":[]},{"type":"error","name":"OperatorNotRegistered","inputs":[]}],"bytecode":{"object":"0x60a06040523480156200001157600080fd5b50604051620026e1380380620026e1833981016040819052620000349162000046565b6001600160a01b031660805262000078565b6000602082840312156200005957600080fd5b81516001600160a01b03811681146200007157600080fd5b9392505050565b60805161264d62000094600039600061063a015261264d6000f3fe608060405234801561001057600080fd5b50600436106101415760003560e01c8063696255be116100b857806398ec1ac91161007c57806398ec1ac914610282578063ab11899514610295578063b933fa74146102a8578063dec5d1f6146102b0578063ec7fbb31146102c3578063f2fde38b146102ff57600080fd5b8063696255be14610231578063715018a614610244578063857dc1901461024c5780638da5cb5b14610254578063955f2d901461026f57600080fd5b80631e4cd85e1161010a5780631e4cd85e146101d5578063314f3a49146101e85780633b242e4a146101f057806340bf2fb7146102035780635140a5481461020b5780635ef533291461021e57600080fd5b8062cf2ab5146101465780630a601a121461015b5780630dba33941461016e5780631626ba7e146101945780631703a018146101c0575b600080fd5b610159610154366004611bae565b610312565b005b610159610169366004611c62565b61031e565b61018161017c366004611d1f565b61032c565b6040519081526020015b60405180910390f35b6101a76101a2366004611d3c565b610348565b6040516001600160e01b0319909116815260200161018b565b6101c8610386565b60405161018b9190611de5565b6101816101e3366004611d1f565b610419565b61018161042f565b6101816101fe366004611df8565b610440565b606754610181565b610159610219366004611e15565b610461565b61015961022c366004611ede565b610484565b61015961023f366004611ef7565b610495565b6101596104af565b6101596104c3565b6033546040516001600160a01b03909116815260200161018b565b61018161027d366004611f33565b6104cc565b610181610290366004611df8565b6104fe565b6101596102a336600461204d565b610751565b61018161086d565b6101596102be3660046120a5565b610879565b6102ef6102d1366004611df8565b6001600160a01b03166000908152606d602052604090205460ff1690565b604051901515815260200161018b565b61015961030d366004611df8565b61088a565b61031b81610900565b50565b610328828261094d565b5050565b6000610342606a63ffffffff80851690610a7a16565b92915050565b6000806000808480602001905181019061036291906121e8565b92509250925061037486848484610b89565b50630b135d3f60e11b95945050505050565b6040805160208101909152606081526040805160668054602081810284018501855283018181529293919284929091849160009085015b8282101561040c57600084815260209081902060408051808201909152908401546001600160a01b0381168252600160a01b90046001600160601b0316818301528252600190920191016103bd565b5050505081525050905090565b6000610342606b63ffffffff80851690610a7a16565b600061043b606a610c2f565b905090565b6001600160a01b0381166000908152606c6020526040812061034290610c2f565b61032882600081518110610477576104776122bc565b6020026020010151610c8b565b61048c610cae565b61031b81610d08565b61049d610cae565b6104a682610d4b565b61032881610900565b6104b7610cae565b6104c16000610d91565b565b6104c133610de3565b6001600160a01b0382166000908152606c602052604081206104f79063ffffffff80851690610a7a16565b9392505050565b6000806066600001805480602002602001604051908101604052809291908181526020016000905b8282101561057557600084815260209081902060408051808201909152908401546001600160a01b0381168252600160a01b90046001600160601b031681830152825260019092019101610526565b50505050905060008082516001600160401b0381111561059757610597611a6e565b6040519080825280602002602001820160405280156105c0578160200160208202803683370190505b50905060005b835181101561061f578381815181106105e1576105e16122bc565b6020026020010151600001518282815181106105ff576105ff6122bc565b6001600160a01b03909216602092830291909101909101526001016105c6565b50604051639004134760e01b81526000906001600160a01b037f0000000000000000000000000000000000000000000000000000000000000000169063900413479061067190899086906004016122d2565b600060405180830381865afa15801561068e573d6000803e3d6000fd5b505050506040513d6000823e601f3d908101601f191682016040526106b6919081019061232e565b905060005b8451811015610723578481815181106106d6576106d66122bc565b6020026020010151602001516001600160601b03168282815181106106fd576106fd6122bc565b602002602001015161070f91906123d4565b61071990856123eb565b93506001016106bb565b50610730612710846123fe565b92506067548310610745575090949350505050565b50600095945050505050565b600054610100900460ff16158080156107715750600054600160ff909116105b8061078b5750303b15801561078b575060005460ff166001145b6107f35760405162461bcd60e51b815260206004820152602e60248201527f496e697469616c697a61626c653a20636f6e747261637420697320616c72656160448201526d191e481a5b9a5d1a585b1a5e995960921b60648201526084015b60405180910390fd5b6000805460ff191660011790558015610816576000805461ff0019166101001790555b610821848484610f06565b8015610867576000805461ff0019169055604051600181527f7f26b83ff96e1f2b6a682f133852f6798a09c465da95921460cefb38474024989060200160405180910390a15b50505050565b600061043b606b610c2f565b610881610cae565b6104a682610f67565b610892610cae565b6001600160a01b0381166108f75760405162461bcd60e51b815260206004820152602660248201527f4f776e61626c653a206e6577206f776e657220697320746865207a65726f206160448201526564647265737360d01b60648201526084016107ea565b61031b81610d91565b6000805b82518110156109435761092f838281518110610922576109226122bc565b60200260200101516110be565b6109399083612420565b9150600101610904565b50610867816111e7565b6001600160a01b0382166000908152606d602052604090205460ff1615610987576040516342ee68b560e01b815260040160405180910390fd5b6065805490600061099783612448565b90915550506001600160a01b0382166000908152606d60205260408120805460ff191660011790556109c8836110be565b90506109d3816111e7565b5050606854604051639926ee7d60e01b81526001600160a01b0390911690639926ee7d90610a07908690869060040161248d565b600060405180830381600087803b158015610a2157600080fd5b505af1158015610a35573d6000803e3d6000fd5b50506068546040516001600160a01b03918216935090861691507fa453db612af59e5521d6ab9284dc3e2d06af286eb1b1b7b771fce4716c19f2c190600090a3505050565b6000438210610acb5760405162461bcd60e51b815260206004820181905260248201527f436865636b706f696e74733a20626c6f636b206e6f7420796574206d696e656460448201526064016107ea565b825460005b81811015610b30576000610ae48284611253565b905084866000018281548110610afc57610afc6122bc565b60009182526020909120015463ffffffff161115610b1c57809250610b2a565b610b278160016123eb565b91505b50610ad0565b8115610b745784610b426001846124d8565b81548110610b5257610b526122bc565b60009182526020909120015464010000000090046001600160e01b0316610b77565b60005b6001600160e01b031695945050505050565b600083519050600080610b9d83865161126e565b60005b83811015610c1b576000878281518110610bbc57610bbc6122bc565b60200260200101519050610bd084826112b2565b610bf4818a898581518110610be757610be76122bc565b60200260200101516112e4565b8093506000610c038288611315565b9050610c0f81856123eb565b93505050600101610ba0565b50610c26818561137c565b50505050505050565b80546000908015610c785782610c466001836124d8565b81548110610c5657610c566122bc565b60009182526020909120015464010000000090046001600160e01b0316610c7b565b60005b6001600160e01b03169392505050565b6065548151146103125760405163169efb5b60e11b815260040160405180910390fd5b6033546001600160a01b031633146104c15760405162461bcd60e51b815260206004820181905260248201527f4f776e61626c653a2063616c6c6572206973206e6f7420746865206f776e657260448201526064016107ea565b610d13606b826113d8565b50506040518181527f9324f7e5a7c0288808a634ccde44b8e979676474b22e29ee9dd569b55e791a4b9060200160405180910390a150565b606780549082905560408051828152602081018490527f713ca53b88d6eb63f5b1854cb8cbdd736ec51eda225e46791aa9298b0160648f91015b60405180910390a15050565b603380546001600160a01b038381166001600160a01b0319831681179093556040519116919082907f8be0079c531659141344cd1fd0a4f28419497f9722a3daafe3b4186f6b6457e090600090a35050565b6001600160a01b0381166000908152606d602052604090205460ff16610e1c576040516325ec6c1f60e01b815260040160405180910390fd5b60658054906000610e2c836124eb565b90915550506001600160a01b0381166000908152606d60205260408120805460ff19169055610e5a826110be565b9050610e65816111e7565b50506068546040516351b27a6d60e11b81526001600160a01b0384811660048301529091169063a364f4da90602401600060405180830381600087803b158015610eae57600080fd5b505af1158015610ec2573d6000803e3d6000fd5b50506068546040516001600160a01b03918216935090851691507f31e0adfec71bccee37b6e83a90c2fedb17d8f1693fee863c4771e7bfe2aed58090600090a35050565b600054610100900460ff16610f2d5760405162461bcd60e51b81526004016107ea90612502565b606880546001600160a01b0319166001600160a01b038516179055610f5182610d08565b610f5a81610f67565b610f62611503565b505050565b610f7081611532565b610f8d5760405163d173577960e01b815260040160405180910390fd5b60408051606680546020818102840185018552830181815260009484928491879085015b8282101561100057600084815260209081902060408051808201909152908401546001600160a01b0381168252600160a01b90046001600160601b031681830152825260019092019101610fb1565b5050509152509091506066905060006110198282611a40565b505060005b82515181101561108c57825180516066919083908110611040576110406122bc565b602090810291909101810151825460018181018555600094855293839020825192909301516001600160601b0316600160a01b026001600160a01b03909216919091179101550161101e565b507f23aad4e61744ece164130aa415c1616e80136b0f0770e56589438b90b269265e8183604051610d8592919061254d565b6001600160a01b0381166000908152606c602052604081208190819081906110e590610c2f565b6001600160a01b0386166000908152606d602052604090205490915060ff1661114d57611112818461257b565b9250826000036111255750909392505050565b6001600160a01b0385166000908152606c60205260408120611146916113d8565b505061119a565b611156856104fe565b9150611162818361257b565b9250826000036111755750909392505050565b6001600160a01b0385166000908152606c6020526040902061119790836113d8565b50505b60408051828152602081018490526001600160a01b038716917f88770dc862e47a7ed586907857eb1b75e4c5ffc8b707c7ee10eb74d6885fe594910160405180910390a250909392505050565b6000806111f4606a610c2f565b915060006112028484612420565b9150819050611212606a826113d8565b505060408051848152602081018490527f86dcf86b12dfeedea74ae9300dbdaa193bcce5809369c8177ea2f4eaaa65729b910160405180910390a150915091565b600061126260028484186123fe565b6104f7908484166123eb565b808214611291576040516001621398b960e31b0319815260040160405180910390fd5b816000036103285760405163251f56a160e21b815260040160405180910390fd5b806001600160a01b0316826001600160a01b0316106103285760405163ba50f91160e01b815260040160405180910390fd5b6112f86001600160a01b03841683836115f8565b610f6257604051638baa579f60e01b815260040160405180910390fd5b600063fffffffe1963ffffffff831601611351576001600160a01b0383166000908152606c6020526040902061134a90610c2f565b9050610342565b6001600160a01b0383166000908152606c6020526040902061134a9063ffffffff80851690610a7a16565b600061138782611744565b9050808311156113aa57604051634b05a0f760e11b815260040160405180910390fd5b60006113b58361177b565b9050838111156108675760405163e121632f60e01b815260040160405180910390fd5b81546000908190816113e986610c2f565b9050600082118015611427575043866114036001856124d8565b81548110611413576114136122bc565b60009182526020909120015463ffffffff16145b1561148757611435856117ad565b866114416001856124d8565b81548110611451576114516122bc565b9060005260206000200160000160046101000a8154816001600160e01b0302191690836001600160e01b031602179055506114f5565b85600001604051806040016040528061149f4361181a565b63ffffffff1681526020016114b3886117ad565b6001600160e01b0390811690915282546001810184556000938452602093849020835194909301519091166401000000000263ffffffff909316929092179101555b9250839150505b9250929050565b600054610100900460ff1661152a5760405162461bcd60e51b81526004016107ea90612502565b6104c161187f565b8051600090818080805b84518110156115d657848181518110611557576115576122bc565b6020026020010151600001519250826001600160a01b0316846001600160a01b0316106115975760405163ba50f91160e01b815260040160405180910390fd5b8293508481815181106115ac576115ac6122bc565b6020026020010151602001516001600160601b0316826115cc91906123eb565b915060010161153c565b5061271081146115ec5750600095945050505050565b50600195945050505050565b600080600061160785856118af565b90925090506000816004811115611620576116206125a2565b14801561163e5750856001600160a01b0316826001600160a01b0316145b1561164e576001925050506104f7565b600080876001600160a01b0316631626ba7e60e01b88886040516024016116769291906125b8565b60408051601f198184030181529181526020820180516001600160e01b03166001600160e01b03199094169390931790925290516116b491906125d1565b600060405180830381855afa9150503d80600081146116ef576040519150601f19603f3d011682016040523d82523d6000602084013e6116f4565b606091505b5091509150818015611707575080516020145b801561173857508051630b135d3f60e11b9061172c90830160209081019084016125ed565b6001600160e01b031916145b98975050505050505050565b600063fffffffe1963ffffffff83160161176257610342606a610c2f565b610342606a63ffffffff80851690610a7a16565b919050565b600063fffffffe1963ffffffff83160161179957610342606b610c2f565b610342606b63ffffffff80851690610a7a16565b60006001600160e01b038211156118165760405162461bcd60e51b815260206004820152602760248201527f53616665436173743a2076616c756520646f65736e27742066697420696e20326044820152663234206269747360c81b60648201526084016107ea565b5090565b600063ffffffff8211156118165760405162461bcd60e51b815260206004820152602660248201527f53616665436173743a2076616c756520646f65736e27742066697420696e203360448201526532206269747360d01b60648201526084016107ea565b600054610100900460ff166118a65760405162461bcd60e51b81526004016107ea90612502565b6104c133610d91565b60008082516041036118e55760208301516040840151606085015160001a6118d98782858561191a565b945094505050506114fc565b825160400361190e5760208301516040840151611903868383611a07565b9350935050506114fc565b506000905060026114fc565b6000807f7fffffffffffffffffffffffffffffff5d576e7357a4501ddfe92f46681b20a083111561195157506000905060036119fe565b8460ff16601b1415801561196957508460ff16601c14155b1561197a57506000905060046119fe565b6040805160008082526020820180845289905260ff881692820192909252606081018690526080810185905260019060a0016020604051602081039080840390855afa1580156119ce573d6000803e3d6000fd5b5050604051601f1901519150506001600160a01b0381166119f7576000600192509250506119fe565b9150600090505b94509492505050565b6000806001600160ff1b03831681611a2460ff86901c601b6123eb565b9050611a328782888561191a565b935093505050935093915050565b508054600082559060005260206000209081019061031b91905b808211156118165760008155600101611a5a565b634e487b7160e01b600052604160045260246000fd5b604051602081016001600160401b0381118282101715611aa657611aa6611a6e565b60405290565b604080519081016001600160401b0381118282101715611aa657611aa6611a6e565b604051601f8201601f191681016001600160401b0381118282101715611af657611af6611a6e565b604052919050565b60006001600160401b03821115611b1757611b17611a6e565b5060051b60200190565b6001600160a01b038116811461031b57600080fd5b600082601f830112611b4757600080fd5b81356020611b5c611b5783611afe565b611ace565b8083825260208201915060208460051b870101935086841115611b7e57600080fd5b602086015b84811015611ba3578035611b9681611b21565b8352918301918301611b83565b509695505050505050565b600060208284031215611bc057600080fd5b81356001600160401b03811115611bd657600080fd5b611be284828501611b36565b949350505050565b60006001600160401b03821115611c0357611c03611a6e565b50601f01601f191660200190565b600082601f830112611c2257600080fd5b8135611c30611b5782611bea565b818152846020838601011115611c4557600080fd5b816020850160208301376000918101602001919091529392505050565b60008060408385031215611c7557600080fd5b8235611c8081611b21565b915060208301356001600160401b0380821115611c9c57600080fd5b9084019060608287031215611cb057600080fd5b604051606081018181108382111715611ccb57611ccb611a6e565b604052823582811115611cdd57600080fd5b611ce988828601611c11565b82525060208301356020820152604083013560408201528093505050509250929050565b63ffffffff8116811461031b57600080fd5b600060208284031215611d3157600080fd5b81356104f781611d0d565b60008060408385031215611d4f57600080fd5b8235915060208301356001600160401b03811115611d6c57600080fd5b611d7885828601611c11565b9150509250929050565b8051602080845281518482018190526000926040919083019082870190855b81811015611dd857835180516001600160a01b031684528601516001600160601b0316868401529285019291840191600101611da1565b5090979650505050505050565b6020815260006104f76020830184611d82565b600060208284031215611e0a57600080fd5b81356104f781611b21565b60008060408385031215611e2857600080fd5b82356001600160401b0380821115611e3f57600080fd5b818501915085601f830112611e5357600080fd5b81356020611e63611b5783611afe565b82815260059290921b84018101918181019089841115611e8257600080fd5b8286015b84811015611eba57803586811115611e9e5760008081fd5b611eac8c86838b0101611b36565b845250918301918301611e86565b5096505086013592505080821115611ed157600080fd5b50611d7885828601611c11565b600060208284031215611ef057600080fd5b5035919050565b60008060408385031215611f0a57600080fd5b8235915060208301356001600160401b03811115611f2757600080fd5b611d7885828601611b36565b60008060408385031215611f4657600080fd5b8235611f5181611b21565b91506020830135611f6181611d0d565b809150509250929050565b60006020808385031215611f7f57600080fd5b611f87611a84565b915082356001600160401b03811115611f9f57600080fd5b8301601f81018513611fb057600080fd5b8035611fbe611b5782611afe565b81815260069190911b82018301908381019087831115611fdd57600080fd5b928401925b828410156120405760408489031215611ffb5760008081fd5b612003611aac565b843561200e81611b21565b8152848601356001600160601b038116811461202a5760008081fd5b8187015282526040939093019290840190611fe2565b8552509295945050505050565b60008060006060848603121561206257600080fd5b833561206d81611b21565b92506020840135915060408401356001600160401b0381111561208f57600080fd5b61209b86828701611f6c565b9150509250925092565b600080604083850312156120b857600080fd5b82356001600160401b03808211156120cf57600080fd5b6120db86838701611f6c565b935060208501359150808211156120f157600080fd5b50611d7885828601611b36565b60005b83811015612119578181015183820152602001612101565b50506000910152565b600082601f83011261213357600080fd5b81516020612143611b5783611afe565b82815260059290921b8401810191818101908684111561216257600080fd5b8286015b84811015611ba35780516001600160401b038111156121855760008081fd5b8701603f810189136121975760008081fd5b8481015160406121a9611b5783611bea565b8281528b828486010111156121be5760008081fd5b6121cd838983018487016120fe565b8652505050918301918301612166565b805161177681611d0d565b6000806000606084860312156121fd57600080fd5b83516001600160401b038082111561221457600080fd5b818601915086601f83011261222857600080fd5b81516020612238611b5783611afe565b82815260059290921b8401810191818101908a84111561225757600080fd5b948201945b8386101561227e57855161226f81611b21565b8252948201949082019061225c565b9189015191975090935050508082111561229757600080fd5b506122a486828701612122565b9250506122b3604085016121dd565b90509250925092565b634e487b7160e01b600052603260045260246000fd5b6001600160a01b038381168252604060208084018290528451918401829052600092858201929091906060860190855b81811015612320578551851683529483019491830191600101612302565b509098975050505050505050565b6000602080838503121561234157600080fd5b82516001600160401b0381111561235757600080fd5b8301601f8101851361236857600080fd5b8051612376611b5782611afe565b81815260059190911b8201830190838101908783111561239557600080fd5b928401925b828410156123b35783518252928401929084019061239a565b979650505050505050565b634e487b7160e01b600052601160045260246000fd5b8082028115828204841417610342576103426123be565b80820180821115610342576103426123be565b60008261241b57634e487b7160e01b600052601260045260246000fd5b500490565b8082018281126000831280158216821582161715612440576124406123be565b505092915050565b60006001820161245a5761245a6123be565b5060010190565b600081518084526124798160208601602086016120fe565b601f01601f19169290920160200192915050565b60018060a01b03831681526040602082015260008251606060408401526124b760a0840182612461565b90506020840151606084015260408401516080840152809150509392505050565b81810381811115610342576103426123be565b6000816124fa576124fa6123be565b506000190190565b6020808252602b908201527f496e697469616c697a61626c653a20636f6e7472616374206973206e6f74206960408201526a6e697469616c697a696e6760a81b606082015260800190565b6040815260006125606040830185611d82565b82810360208401526125728185611d82565b95945050505050565b818103600083128015838313168383128216171561259b5761259b6123be565b5092915050565b634e487b7160e01b600052602160045260246000fd5b828152604060208201526000611be26040830184612461565b600082516125e38184602087016120fe565b9190910192915050565b6000602082840312156125ff57600080fd5b81516001600160e01b0319811681146104f757600080fdfea2646970667358221220483716b837d4d01115f634990b93cdcc240ed08cb379a2802ab77f07e11f1c3564736f6c63430008180033","linkReferences":{}},"methodIdentifiers":{"deregisterOperator()":"857dc190","getLastCheckpointOperatorWeight(address)":"3b242e4a","getLastCheckpointThresholdWeight()":"b933fa74","getLastCheckpointThresholdWeightAtBlock(uint32)":"1e4cd85e","getLastCheckpointTotalWeight()":"314f3a49","getLastCheckpointTotalWeightAtBlock(uint32)":"0dba3394","getOperatorWeight(address)":"98ec1ac9","getOperatorWeightAtBlock(address,uint32)":"955f2d90","initialize(address,uint256,((address,uint96)[]))":"ab118995","isValidSignature(bytes32,bytes)":"1626ba7e","minimumWeight()":"40bf2fb7","operatorRegistered(address)":"ec7fbb31","owner()":"8da5cb5b","quorum()":"1703a018","registerOperatorWithSignature(address,(bytes,bytes32,uint256))":"0a601a12","renounceOwnership()":"715018a6","transferOwnership(address)":"f2fde38b","updateMinimumWeight(uint256,address[])":"696255be","updateOperators(address[])":"00cf2ab5","updateOperatorsForQuorum(address[][],bytes)":"5140a548","updateQuorumConfig(((address,uint96)[]),address[])":"dec5d1f6","updateStakeThreshold(uint256)":"5ef53329"},"id":67}